{
  "_format": "hh-sol-artifact-1",
  "contractName": "ProtectedERC1967SubProxy",
  "sourceName": "src/ProtectedProxies/ProtectedERC1967SubProxy.sol",
  "abi": [
    {
      "inputs": [
        {
          "internalType": "address",
          "name": "_logic",
          "type": "address"
        },
        {
          "internalType": "bytes",
          "name": "_data",
          "type": "bytes"
        }
      ],
      "stateMutability": "nonpayable",
      "type": "constructor"
    },
    {
      "anonymous": false,
      "inputs": [
        {
          "indexed": false,
          "internalType": "bytes4[]",
          "name": "patterns",
          "type": "bytes4[]"
        }
      ],
      "name": "AddedProtectedFuncSigs",
      "type": "event"
    },
    {
      "anonymous": false,
      "inputs": [
        {
          "indexed": false,
          "internalType": "address",
          "name": "previousAdmin",
          "type": "address"
        },
        {
          "indexed": false,
          "internalType": "address",
          "name": "newAdmin",
          "type": "address"
        }
      ],
      "name": "AdminChanged",
      "type": "event"
    },
    {
      "anonymous": false,
      "inputs": [
        {
          "indexed": true,
          "internalType": "address",
          "name": "beacon",
          "type": "address"
        }
      ],
      "name": "BeaconUpgraded",
      "type": "event"
    },
    {
      "anonymous": false,
      "inputs": [
        {
          "indexed": false,
          "internalType": "address",
          "name": "oldEngineAddress",
          "type": "address"
        },
        {
          "indexed": false,
          "internalType": "address",
          "name": "newEngineAddress",
          "type": "address"
        }
      ],
      "name": "ChangedSpherexEngineAddress",
      "type": "event"
    },
    {
      "anonymous": false,
      "inputs": [
        {
          "indexed": false,
          "internalType": "address",
          "name": "oldSphereXAdmin",
          "type": "address"
        },
        {
          "indexed": false,
          "internalType": "address",
          "name": "newSphereXAdmin",
          "type": "address"
        }
      ],
      "name": "ChangedSpherexOperator",
      "type": "event"
    },
    {
      "anonymous": false,
      "inputs": [
        {
          "indexed": false,
          "internalType": "address",
          "name": "sender",
          "type": "address"
        }
      ],
      "name": "NewAllowedSenderOnchain",
      "type": "event"
    },
    {
      "anonymous": false,
      "inputs": [
        {
          "indexed": false,
          "internalType": "bytes4[]",
          "name": "patterns",
          "type": "bytes4[]"
        }
      ],
      "name": "RemovedProtectedFuncSigs",
      "type": "event"
    },
    {
      "anonymous": false,
      "inputs": [
        {
          "indexed": false,
          "internalType": "address",
          "name": "oldAdmin",
          "type": "address"
        },
        {
          "indexed": false,
          "internalType": "address",
          "name": "newAdmin",
          "type": "address"
        }
      ],
      "name": "SpherexAdminTransferCompleted",
      "type": "event"
    },
    {
      "anonymous": false,
      "inputs": [
        {
          "indexed": false,
          "internalType": "address",
          "name": "currentAdmin",
          "type": "address"
        },
        {
          "indexed": false,
          "internalType": "address",
          "name": "pendingAdmin",
          "type": "address"
        }
      ],
      "name": "SpherexAdminTransferStarted",
      "type": "event"
    },
    {
      "anonymous": false,
      "inputs": [
        {
          "indexed": true,
          "internalType": "address",
          "name": "implementation",
          "type": "address"
        }
      ],
      "name": "Upgraded",
      "type": "event"
    },
    {
      "stateMutability": "payable",
      "type": "fallback"
    },
    {
      "inputs": [
        {
          "internalType": "address",
          "name": "admin",
          "type": "address"
        },
        {
          "internalType": "address",
          "name": "operator",
          "type": "address"
        },
        {
          "internalType": "address",
          "name": "engine",
          "type": "address"
        },
        {
          "internalType": "address",
          "name": "_logic",
          "type": "address"
        },
        {
          "internalType": "bytes",
          "name": "data",
          "type": "bytes"
        }
      ],
      "name": "__SphereXProtectedSubProXy_init",
      "outputs": [],
      "stateMutability": "nonpayable",
      "type": "function"
    },
    {
      "inputs": [],
      "name": "acceptSphereXAdminRole",
      "outputs": [],
      "stateMutability": "nonpayable",
      "type": "function"
    },
    {
      "inputs": [
        {
          "internalType": "bytes4[]",
          "name": "keys",
          "type": "bytes4[]"
        }
      ],
      "name": "addProtectedFuncSigs",
      "outputs": [],
      "stateMutability": "nonpayable",
      "type": "function"
    },
    {
      "inputs": [
        {
          "internalType": "address",
          "name": "newSphereXEngine",
          "type": "address"
        }
      ],
      "name": "changeSphereXEngine",
      "outputs": [],
      "stateMutability": "nonpayable",
      "type": "function"
    },
    {
      "inputs": [
        {
          "internalType": "address",
          "name": "newSphereXOperator",
          "type": "address"
        }
      ],
      "name": "changeSphereXOperator",
      "outputs": [],
      "stateMutability": "nonpayable",
      "type": "function"
    },
    {
      "inputs": [],
      "name": "isInitialized",
      "outputs": [
        {
          "internalType": "bool",
          "name": "",
          "type": "bool"
        }
      ],
      "stateMutability": "view",
      "type": "function"
    },
    {
      "inputs": [
        {
          "internalType": "bytes4",
          "name": "func_sig",
          "type": "bytes4"
        }
      ],
      "name": "isProtectedFuncSig",
      "outputs": [
        {
          "internalType": "bool",
          "name": "value",
          "type": "bool"
        }
      ],
      "stateMutability": "view",
      "type": "function"
    },
    {
      "inputs": [],
      "name": "pendingSphereXAdmin",
      "outputs": [
        {
          "internalType": "address",
          "name": "",
          "type": "address"
        }
      ],
      "stateMutability": "view",
      "type": "function"
    },
    {
      "inputs": [],
      "name": "proxiableUUID",
      "outputs": [
        {
          "internalType": "bytes32",
          "name": "",
          "type": "bytes32"
        }
      ],
      "stateMutability": "view",
      "type": "function"
    },
    {
      "inputs": [
        {
          "internalType": "bytes4[]",
          "name": "keys",
          "type": "bytes4[]"
        }
      ],
      "name": "removeProtectedFuncSigs",
      "outputs": [],
      "stateMutability": "nonpayable",
      "type": "function"
    },
    {
      "inputs": [],
      "name": "sphereXAdmin",
      "outputs": [
        {
          "internalType": "address",
          "name": "",
          "type": "address"
        }
      ],
      "stateMutability": "view",
      "type": "function"
    },
    {
      "inputs": [],
      "name": "sphereXEngine",
      "outputs": [
        {
          "internalType": "address",
          "name": "",
          "type": "address"
        }
      ],
      "stateMutability": "view",
      "type": "function"
    },
    {
      "inputs": [],
      "name": "sphereXOperator",
      "outputs": [
        {
          "internalType": "address",
          "name": "",
          "type": "address"
        }
      ],
      "stateMutability": "view",
      "type": "function"
    },
    {
      "inputs": [
        {
          "internalType": "address",
          "name": "newAdmin",
          "type": "address"
        }
      ],
      "name": "transferSphereXAdminRole",
      "outputs": [],
      "stateMutability": "nonpayable",
      "type": "function"
    },
    {
      "stateMutability": "payable",
      "type": "receive"
    }
  ],
  "bytecode": "0x60806040523480156200001157600080fd5b50604051620034fe380380620034fe8339818101604052810190620000379190620008fa565b81816000806000828282828282620000578383836200008e60201b60201c565b505050505050505050620000706200022a60201b60201c565b62000084828260006200023e60201b60201c565b5050505062000d64565b620000d460017fca334bf49ef20e9cbff039feda3bc1c2a853aff17b1b5187e4aa1380ec55829d60001c620000c4919062000999565b60001b846200027c60201b60201c565b7f67ebaebcd2ca5a91a404e898110f221747e8d15567f2388a34794aab151cf3e660008460405162000108929190620009e5565b60405180910390a16200015660017fadf90d75f0f2d657d5a22fa0f6e4dabb83c4598b77158eb4119cb38f1d86446360001c62000146919062000999565b60001b836200027c60201b60201c565b7f2ac55ae7ba47db34b5334622acafeb34a65daf143b47019273185d64c73a35a56000836040516200018a929190620009e5565b60405180910390a1620001a3816200028360201b60201c565b620001e960017f1777adabd324f814e2b0e28f6edf876dce01d7d66358c9acfe87b1b5f38338d660001c620001d9919062000999565b60001b826200027c60201b60201c565b7ff33499cccaa0611882086224cc48cd82ef54b66a4d2edf4ed67108dd516896d56000826040516200021d929190620009e5565b60405180910390a1505050565b6200023c60016200039f60201b60201c565b565b6200024f836200040260201b60201c565b6000825111806200025d5750805b1562000277576200027583836200045960201b60201c565b505b505050565b8082555050565b600073ffffffffffffffffffffffffffffffffffffffff168173ffffffffffffffffffffffffffffffffffffffff1614806200035a57508073ffffffffffffffffffffffffffffffffffffffff166301ffc9a77f53e41baa000000000000000000000000000000000000000000000000000000006040518263ffffffff1660e01b815260040162000315919062000a4f565b602060405180830381865afa15801562000333573d6000803e3d6000fd5b505050506040513d601f19601f8201168201806040525081019062000359919062000aa9565b5b6200039c576040517f08c379a0000000000000000000000000000000000000000000000000000000008152600401620003939062000b62565b60405180910390fd5b50565b80620003e560017fe63726706a35a364d262f7dea3b47d903dc7bcc0181e9d5ddb5f7b87b593cbb560001c620003d6919062000999565b60001b6200048f60201b60201c565b60000160006101000a81548160ff02191690831515021790555050565b62000413816200049960201b60201c565b8073ffffffffffffffffffffffffffffffffffffffff167fbc7cd75a20ee27fd9adebab32041f755214dbc6bffa90cc0225b39da2e5c2d3b60405160405180910390a250565b6060620004878383604051806060016040528060278152602001620034d7602791396200056560201b60201c565b905092915050565b6000819050919050565b620004aa81620005f760201b60201c565b620004ec576040517f08c379a0000000000000000000000000000000000000000000000000000000008152600401620004e39062000bfa565b60405180910390fd5b80620005217f360894a13ba1a3210667c828492db98dca3e2076cc3735a920a3ca505d382bbc60001b6200061a60201b60201c565b60000160006101000a81548173ffffffffffffffffffffffffffffffffffffffff021916908373ffffffffffffffffffffffffffffffffffffffff16021790555050565b60606000808573ffffffffffffffffffffffffffffffffffffffff168560405162000591919062000c69565b600060405180830381855af49150503d8060008114620005ce576040519150601f19603f3d011682016040523d82523d6000602084013e620005d3565b606091505b5091509150620005ec868383876200062460201b60201c565b925050509392505050565b6000808273ffffffffffffffffffffffffffffffffffffffff163b119050919050565b6000819050919050565b60608315620006945760008351036200068b576200064885620005f760201b60201c565b6200068a576040517f08c379a0000000000000000000000000000000000000000000000000000000008152600401620006819062000cd2565b60405180910390fd5b5b829050620006a7565b620006a68383620006af60201b60201c565b5b949350505050565b600082511115620006c35781518083602001fd5b806040517f08c379a0000000000000000000000000000000000000000000000000000000008152600401620006f9919062000d40565b60405180910390fd5b6000604051905090565b600080fd5b600080fd5b600073ffffffffffffffffffffffffffffffffffffffff82169050919050565b6000620007438262000716565b9050919050565b620007558162000736565b81146200076157600080fd5b50565b60008151905062000775816200074a565b92915050565b600080fd5b600080fd5b6000601f19601f8301169050919050565b7f4e487b7100000000000000000000000000000000000000000000000000000000600052604160045260246000fd5b620007d08262000785565b810181811067ffffffffffffffff82111715620007f257620007f162000796565b5b80604052505050565b60006200080762000702565b9050620008158282620007c5565b919050565b600067ffffffffffffffff82111562000838576200083762000796565b5b620008438262000785565b9050602081019050919050565b60005b838110156200087057808201518184015260208101905062000853565b60008484015250505050565b6000620008936200088d846200081a565b620007fb565b905082815260208101848484011115620008b257620008b162000780565b5b620008bf84828562000850565b509392505050565b600082601f830112620008df57620008de6200077b565b5b8151620008f18482602086016200087c565b91505092915050565b600080604083850312156200091457620009136200070c565b5b6000620009248582860162000764565b925050602083015167ffffffffffffffff81111562000948576200094762000711565b5b6200095685828601620008c7565b9150509250929050565b6000819050919050565b7f4e487b7100000000000000000000000000000000000000000000000000000000600052601160045260246000fd5b6000620009a68262000960565b9150620009b38362000960565b9250828203905081811115620009ce57620009cd6200096a565b5b92915050565b620009df8162000736565b82525050565b6000604082019050620009fc6000830185620009d4565b62000a0b6020830184620009d4565b9392505050565b60007fffffffff0000000000000000000000000000000000000000000000000000000082169050919050565b62000a498162000a12565b82525050565b600060208201905062000a66600083018462000a3e565b92915050565b60008115159050919050565b62000a838162000a6c565b811462000a8f57600080fd5b50565b60008151905062000aa38162000a78565b92915050565b60006020828403121562000ac25762000ac16200070c565b5b600062000ad28482850162000a92565b91505092915050565b600082825260208201905092915050565b7f53706865726558206572726f723a206e6f7420612053706865726558456e676960008201527f6e65000000000000000000000000000000000000000000000000000000000000602082015250565b600062000b4a60228362000adb565b915062000b578262000aec565b604082019050919050565b6000602082019050818103600083015262000b7d8162000b3b565b9050919050565b7f455243313936373a206e657720696d706c656d656e746174696f6e206973206e60008201527f6f74206120636f6e747261637400000000000000000000000000000000000000602082015250565b600062000be2602d8362000adb565b915062000bef8262000b84565b604082019050919050565b6000602082019050818103600083015262000c158162000bd3565b9050919050565b600081519050919050565b600081905092915050565b600062000c3f8262000c1c565b62000c4b818562000c27565b935062000c5d81856020860162000850565b80840191505092915050565b600062000c77828462000c32565b915081905092915050565b7f416464726573733a2063616c6c20746f206e6f6e2d636f6e7472616374000000600082015250565b600062000cba601d8362000adb565b915062000cc78262000c82565b602082019050919050565b6000602082019050818103600083015262000ced8162000cab565b9050919050565b600081519050919050565b600062000d0c8262000cf4565b62000d18818562000adb565b935062000d2a81856020860162000850565b62000d358162000785565b840191505092915050565b6000602082019050818103600083015262000d5c818462000cff565b905092915050565b6127638062000d746000396000f3fe6080604052600436106100e15760003560e01c80638426b9681161007f578063a7fdd04711610059578063a7fdd047146102a0578063cc5b7450146102c9578063daba7ef7146102f2578063e7e5db4f1461031b576100f0565b80638426b9681461023357806399e80f3b1461024a5780639aa9019e14610275576100f0565b80633c231166116100bb5780633c2311661461018b5780634c6c848f146101b65780634ee8f858146101df57806352d1902d14610208576100f0565b8063021a5fe5146100fa57806313dd113614610137578063392e53cd14610160576100f0565b366100f0576100ee610346565b005b6100f8610346565b005b34801561010657600080fd5b50610121600480360381019061011c91906118a3565b610360565b60405161012e91906118eb565b60405180910390f35b34801561014357600080fd5b5061015e60048036038101906101599190611aaa565b6103ca565b005b34801561016c57600080fd5b50610175610438565b60405161018291906118eb565b60405180910390f35b34801561019757600080fd5b506101a061048b565b6040516101ad9190611b50565b60405180910390f35b3480156101c257600080fd5b506101dd60048036038101906101d89190611b6b565b6104cd565b005b3480156101eb57600080fd5b5061020660048036038101906102019190611b6b565b610636565b005b34801561021457600080fd5b5061021d610796565b60405161022a9190611bb1565b60405180910390f35b34801561023f57600080fd5b506102486107c1565b005b34801561025657600080fd5b5061025f6108f7565b60405161026c9190611b50565b60405180910390f35b34801561028157600080fd5b5061028a610939565b6040516102979190611b50565b60405180910390f35b3480156102ac57600080fd5b506102c760048036038101906102c29190611c94565b61097b565b005b3480156102d557600080fd5b506102f060048036038101906102eb9190611c94565b610aa0565b005b3480156102fe57600080fd5b5061031960048036038101906103149190611b6b565b610bc5565b005b34801561032757600080fd5b50610330610cec565b60405161033d9190611b50565b60405180910390f35b61034e610d2e565b61035e610359610d30565b610d3f565b565b6000808260017f9a7afc584486ebd3e91191a9ac2c2e986b3aaa4084656fc915fe0843ff009c6b60001c6103949190611d16565b60001b6040516020016103a8929190611d8c565b6040516020818303038152906040528051906020012090508054915050919050565b6103d2610438565b15610412576040517f08c379a000000000000000000000000000000000000000000000000000000000815260040161040990611e3b565b60405180910390fd5b61041c6001610d4b565b610427858585610da4565b6104318282610f14565b5050505050565b600061047560017fe63726706a35a364d262f7dea3b47d903dc7bcc0181e9d5ddb5f7b87b593cbb560001c61046d9190611d16565b60001b610f6a565b60000160009054906101000a900460ff16905090565b60006104c860017f1777adabd324f814e2b0e28f6edf876dce01d7d66358c9acfe87b1b5f38338d660001c6104c09190611d16565b60001b610f74565b905090565b61050860017fadf90d75f0f2d657d5a22fa0f6e4dabb83c4598b77158eb4119cb38f1d86446360001c6105009190611d16565b60001b610f74565b73ffffffffffffffffffffffffffffffffffffffff163373ffffffffffffffffffffffffffffffffffffffff1614610575576040517f08c379a000000000000000000000000000000000000000000000000000000000815260040161056c90611ea7565b60405180910390fd5b61057e81610f7f565b60006105bb60017f1777adabd324f814e2b0e28f6edf876dce01d7d66358c9acfe87b1b5f38338d660001c6105b39190611d16565b60001b610f74565b90506105f960017f1777adabd324f814e2b0e28f6edf876dce01d7d66358c9acfe87b1b5f38338d660001c6105f09190611d16565b60001b83611092565b7ff33499cccaa0611882086224cc48cd82ef54b66a4d2edf4ed67108dd516896d5818360405161062a929190611ec7565b60405180910390a15050565b61067160017fca334bf49ef20e9cbff039feda3bc1c2a853aff17b1b5187e4aa1380ec55829d60001c6106699190611d16565b60001b610f74565b73ffffffffffffffffffffffffffffffffffffffff163373ffffffffffffffffffffffffffffffffffffffff16146106de576040517f08c379a00000000000000000000000000000000000000000000000000000000081526004016106d590611f3c565b60405180910390fd5b600061071b60017fadf90d75f0f2d657d5a22fa0f6e4dabb83c4598b77158eb4119cb38f1d86446360001c6107139190611d16565b60001b610f74565b905061075960017fadf90d75f0f2d657d5a22fa0f6e4dabb83c4598b77158eb4119cb38f1d86446360001c6107509190611d16565b60001b83611092565b7f2ac55ae7ba47db34b5334622acafeb34a65daf143b47019273185d64c73a35a5818360405161078a929190611ec7565b60405180910390a15050565b60007f360894a13ba1a3210667c828492db98dca3e2076cc3735a920a3ca505d382bbc60001b905090565b3373ffffffffffffffffffffffffffffffffffffffff166107e0610939565b73ffffffffffffffffffffffffffffffffffffffff1614610836576040517f08c379a000000000000000000000000000000000000000000000000000000000815260040161082d90611fce565b60405180910390fd5b60006108406108f7565b905061087e60017fca334bf49ef20e9cbff039feda3bc1c2a853aff17b1b5187e4aa1380ec55829d60001c6108759190611d16565b60001b33611092565b6108bb60017f3a517dd736309b905c692160a21b5439bdc56db1dc77d6982b66d44814e3fa9760001c6108b19190611d16565b60001b6000611092565b7f67ebaebcd2ca5a91a404e898110f221747e8d15567f2388a34794aab151cf3e681336040516108ec929190611ec7565b60405180910390a150565b600061093460017fca334bf49ef20e9cbff039feda3bc1c2a853aff17b1b5187e4aa1380ec55829d60001c61092c9190611d16565b60001b610f74565b905090565b600061097660017f3a517dd736309b905c692160a21b5439bdc56db1dc77d6982b66d44814e3fa9760001c61096e9190611d16565b60001b610f74565b905090565b6109b660017fadf90d75f0f2d657d5a22fa0f6e4dabb83c4598b77158eb4119cb38f1d86446360001c6109ae9190611d16565b60001b610f74565b73ffffffffffffffffffffffffffffffffffffffff163373ffffffffffffffffffffffffffffffffffffffff1614610a23576040517f08c379a0000000000000000000000000000000000000000000000000000000008152600401610a1a90611ea7565b60405180910390fd5b60005b8151811015610a6557610a54828281518110610a4557610a44611fee565b5b60200260200101516000611099565b80610a5e9061201d565b9050610a26565b507f754b9f3148ad4cf227ecdf9a64810fa2d0b8682a2de15dfad5310a12b7281a5f81604051610a959190612123565b60405180910390a150565b610adb60017fadf90d75f0f2d657d5a22fa0f6e4dabb83c4598b77158eb4119cb38f1d86446360001c610ad39190611d16565b60001b610f74565b73ffffffffffffffffffffffffffffffffffffffff163373ffffffffffffffffffffffffffffffffffffffff1614610b48576040517f08c379a0000000000000000000000000000000000000000000000000000000008152600401610b3f90611ea7565b60405180910390fd5b60005b8151811015610b8a57610b79828281518110610b6a57610b69611fee565b5b60200260200101516001611099565b80610b839061201d565b9050610b4b565b507f45fc6a4de33dfc2fa6f40e48f353bf7ff006086db3ecf80c077f788082cc7d5a81604051610bba9190612123565b60405180910390a150565b610c0060017fca334bf49ef20e9cbff039feda3bc1c2a853aff17b1b5187e4aa1380ec55829d60001c610bf89190611d16565b60001b610f74565b73ffffffffffffffffffffffffffffffffffffffff163373ffffffffffffffffffffffffffffffffffffffff1614610c6d576040517f08c379a0000000000000000000000000000000000000000000000000000000008152600401610c6490611f3c565b60405180910390fd5b610ca960017f3a517dd736309b905c692160a21b5439bdc56db1dc77d6982b66d44814e3fa9760001c610ca09190611d16565b60001b82611092565b7f5778f1547abbbb86090a43c32aec38334b31df4beeb6f8f3fa063f593b53a526610cd26108f7565b82604051610ce1929190611ec7565b60405180910390a150565b6000610d2960017fadf90d75f0f2d657d5a22fa0f6e4dabb83c4598b77158eb4119cb38f1d86446360001c610d219190611d16565b60001b610f74565b905090565b565b6000610d3a611100565b905090565b610d4881611142565b50565b80610d8760017fe63726706a35a364d262f7dea3b47d903dc7bcc0181e9d5ddb5f7b87b593cbb560001c610d7f9190611d16565b60001b610f6a565b60000160006101000a81548160ff02191690831515021790555050565b610de060017fca334bf49ef20e9cbff039feda3bc1c2a853aff17b1b5187e4aa1380ec55829d60001c610dd79190611d16565b60001b84611092565b7f67ebaebcd2ca5a91a404e898110f221747e8d15567f2388a34794aab151cf3e6600084604051610e12929190611ec7565b60405180910390a1610e5660017fadf90d75f0f2d657d5a22fa0f6e4dabb83c4598b77158eb4119cb38f1d86446360001c610e4d9190611d16565b60001b83611092565b7f2ac55ae7ba47db34b5334622acafeb34a65daf143b47019273185d64c73a35a5600083604051610e88929190611ec7565b60405180910390a1610e9981610f7f565b610ed560017f1777adabd324f814e2b0e28f6edf876dce01d7d66358c9acfe87b1b5f38338d660001c610ecc9190611d16565b60001b82611092565b7ff33499cccaa0611882086224cc48cd82ef54b66a4d2edf4ed67108dd516896d5600082604051610f07929190611ec7565b60405180910390a1505050565b610f5060017f3fa91f2555a723d9492031a1ea7e19bafb88d46accb27838b1930ba6a3553a4060001c610f479190611d16565b60001b83611092565b600081511115610f6657610f64828261119a565b505b5050565b6000819050919050565b600081549050919050565b600073ffffffffffffffffffffffffffffffffffffffff168173ffffffffffffffffffffffffffffffffffffffff16148061105057508073ffffffffffffffffffffffffffffffffffffffff166301ffc9a77f53e41baa000000000000000000000000000000000000000000000000000000006040518263ffffffff1660e01b815260040161100e9190612154565b602060405180830381865afa15801561102b573d6000803e3d6000fd5b505050506040513d601f19601f8201168201806040525081019061104f919061219b565b5b61108f576040517f08c379a00000000000000000000000000000000000000000000000000000000081526004016110869061223a565b60405180910390fd5b50565b8082555050565b60008260017f9a7afc584486ebd3e91191a9ac2c2e986b3aaa4084656fc915fe0843ff009c6b60001c6110cc9190611d16565b60001b6040516020016110e0929190611d8c565b604051602081830303815290604052805190602001209050818155505050565b600061113d60017f3fa91f2555a723d9492031a1ea7e19bafb88d46accb27838b1930ba6a3553a4060001c6111359190611d16565b60001b610f74565b905090565b61116f6000357fffffffff0000000000000000000000000000000000000000000000000000000016610360565b1561118e57600061117f826111c7565b90506000815190508060208301f35b61119781611273565b50565b60606111bf838360405180606001604052806027815260200161270760279139611299565b905092915050565b60606000357fffffffff000000000000000000000000000000000000000000000000000000001660e01c63ffffffff16600061120482600161131f565b9050611255846000368080601f016020809104026020016040519081016040528093929190818152602001838380828437600081840152601f19601f8201169050808301925050505050505061119a565b925061126c8261126490612264565b6001836114bb565b5050919050565b3660008037600080366000845af43d6000803e8060008114611294573d6000f35b3d6000fd5b60606000808573ffffffffffffffffffffffffffffffffffffffff16856040516112c3919061231d565b600060405180830381855af49150503d80600081146112fe576040519150601f19603f3d011682016040523d82523d6000602084013e611303565b606091505b509150915061131486838387611627565b925050509392505050565b611327611816565b600073ffffffffffffffffffffffffffffffffffffffff1661134761169c565b73ffffffffffffffffffffffffffffffffffffffff1603156114b557600061136d61169c565b9050821561140a578073ffffffffffffffffffffffffffffffffffffffff16638925ca5a85336000366040518563ffffffff1660e01b81526004016113b59493929190612381565b6000604051808303816000875af11580156113d4573d6000803e3d6000fd5b505050506040513d6000823e3d601f19601f820116820180604052508101906113fd91906124b0565b8260000181905250611494565b8073ffffffffffffffffffffffffffffffffffffffff16633e884943856040518263ffffffff1660e01b815260040161144391906124f9565b6000604051808303816000875af1158015611462573d6000803e3d6000fd5b505050506040513d6000823e3d601f19601f8201168201806040525081019061148b91906124b0565b82600001819052505b6114a182600001516116de565b82602001819052505a826040018181525050505b92915050565b600073ffffffffffffffffffffffffffffffffffffffff166114db61169c565b73ffffffffffffffffffffffffffffffffffffffff1603156116225760005a82604001516115099190611d16565b9050600061151561169c565b9050606061152684600001516116de565b905084156115a8578173ffffffffffffffffffffffffffffffffffffffff1663f0bd946887858760200151856040518563ffffffff1660e01b815260040161157194939291906125e1565b600060405180830381600087803b15801561158b57600080fd5b505af115801561159f573d6000803e3d6000fd5b5050505061161e565b8173ffffffffffffffffffffffffffffffffffffffff166304e6279a87858760200151856040518563ffffffff1660e01b81526004016115eb94939291906125e1565b600060405180830381600087803b15801561160557600080fd5b505af1158015611619573d6000803e3d6000fd5b505050505b5050505b505050565b6060831561168957600083510361168157611641856117a3565b611680576040517f08c379a000000000000000000000000000000000000000000000000000000000815260040161167790612680565b60405180910390fd5b5b829050611694565b61169383836117c6565b5b949350505050565b60006116d960017f1777adabd324f814e2b0e28f6edf876dce01d7d66358c9acfe87b1b5f38338d660001c6116d19190611d16565b60001b610f74565b905090565b606060008251905060008167ffffffffffffffff8111156117025761170161197f565b5b6040519080825280602002602001820160405280156117305781602001602082028036833780820191505090505b50905060005b8281101561179857600085828151811061175357611752611fee565b5b602002602001015190506000815490508084848151811061177757611776611fee565b5b602002602001018181525050505080806117909061201d565b915050611736565b508092505050919050565b6000808273ffffffffffffffffffffffffffffffffffffffff163b119050919050565b6000825111156117d95781518083602001fd5b806040517f08c379a000000000000000000000000000000000000000000000000000000000815260040161180d91906126e4565b60405180910390fd5b60405180606001604052806060815260200160608152602001600081525090565b6000604051905090565b600080fd5b600080fd5b60007fffffffff0000000000000000000000000000000000000000000000000000000082169050919050565b6118808161184b565b811461188b57600080fd5b50565b60008135905061189d81611877565b92915050565b6000602082840312156118b9576118b8611841565b5b60006118c78482850161188e565b91505092915050565b60008115159050919050565b6118e5816118d0565b82525050565b600060208201905061190060008301846118dc565b92915050565b600073ffffffffffffffffffffffffffffffffffffffff82169050919050565b600061193182611906565b9050919050565b61194181611926565b811461194c57600080fd5b50565b60008135905061195e81611938565b92915050565b600080fd5b600080fd5b6000601f19601f8301169050919050565b7f4e487b7100000000000000000000000000000000000000000000000000000000600052604160045260246000fd5b6119b78261196e565b810181811067ffffffffffffffff821117156119d6576119d561197f565b5b80604052505050565b60006119e9611837565b90506119f582826119ae565b919050565b600067ffffffffffffffff821115611a1557611a1461197f565b5b611a1e8261196e565b9050602081019050919050565b82818337600083830152505050565b6000611a4d611a48846119fa565b6119df565b905082815260208101848484011115611a6957611a68611969565b5b611a74848285611a2b565b509392505050565b600082601f830112611a9157611a90611964565b5b8135611aa1848260208601611a3a565b91505092915050565b600080600080600060a08688031215611ac657611ac5611841565b5b6000611ad48882890161194f565b9550506020611ae58882890161194f565b9450506040611af68882890161194f565b9350506060611b078882890161194f565b925050608086013567ffffffffffffffff811115611b2857611b27611846565b5b611b3488828901611a7c565b9150509295509295909350565b611b4a81611926565b82525050565b6000602082019050611b656000830184611b41565b92915050565b600060208284031215611b8157611b80611841565b5b6000611b8f8482850161194f565b91505092915050565b6000819050919050565b611bab81611b98565b82525050565b6000602082019050611bc66000830184611ba2565b92915050565b600067ffffffffffffffff821115611be757611be661197f565b5b602082029050602081019050919050565b600080fd5b6000611c10611c0b84611bcc565b6119df565b90508083825260208201905060208402830185811115611c3357611c32611bf8565b5b835b81811015611c5c5780611c48888261188e565b845260208401935050602081019050611c35565b5050509392505050565b600082601f830112611c7b57611c7a611964565b5b8135611c8b848260208601611bfd565b91505092915050565b600060208284031215611caa57611ca9611841565b5b600082013567ffffffffffffffff811115611cc857611cc7611846565b5b611cd484828501611c66565b91505092915050565b6000819050919050565b7f4e487b7100000000000000000000000000000000000000000000000000000000600052601160045260246000fd5b6000611d2182611cdd565b9150611d2c83611cdd565b9250828203905081811115611d4457611d43611ce7565b5b92915050565b6000819050919050565b611d65611d608261184b565b611d4a565b82525050565b6000819050919050565b611d86611d8182611b98565b611d6b565b82525050565b6000611d988285611d54565b600482019150611da88284611d75565b6020820191508190509392505050565b600082825260208201905092915050565b7f53706865726558496e697469616c697a61626c653a20636f6e7472616374206960008201527f7320616c726561647920696e697469616c697a65640000000000000000000000602082015250565b6000611e25603583611db8565b9150611e3082611dc9565b604082019050919050565b60006020820190508181036000830152611e5481611e18565b9050919050565b7f53706865726558206572726f723a206f70657261746f72207265717569726564600082015250565b6000611e91602083611db8565b9150611e9c82611e5b565b602082019050919050565b60006020820190508181036000830152611ec081611e84565b9050919050565b6000604082019050611edc6000830185611b41565b611ee96020830184611b41565b9392505050565b7f53706865726558206572726f723a2061646d696e207265717569726564000000600082015250565b6000611f26601d83611db8565b9150611f3182611ef0565b602082019050919050565b60006020820190508181036000830152611f5581611f19565b9050919050565b7f53706865726558206572726f723a206e6f74207468652070656e64696e67206160008201527f63636f756e740000000000000000000000000000000000000000000000000000602082015250565b6000611fb8602683611db8565b9150611fc382611f5c565b604082019050919050565b60006020820190508181036000830152611fe781611fab565b9050919050565b7f4e487b7100000000000000000000000000000000000000000000000000000000600052603260045260246000fd5b600061202882611cdd565b91507fffffffffffffffffffffffffffffffffffffffffffffffffffffffffffffffff820361205a57612059611ce7565b5b600182019050919050565b600081519050919050565b600082825260208201905092915050565b6000819050602082019050919050565b61209a8161184b565b82525050565b60006120ac8383612091565b60208301905092915050565b6000602082019050919050565b60006120d082612065565b6120da8185612070565b93506120e583612081565b8060005b838110156121165781516120fd88826120a0565b9750612108836120b8565b9250506001810190506120e9565b5085935050505092915050565b6000602082019050818103600083015261213d81846120c5565b905092915050565b61214e8161184b565b82525050565b60006020820190506121696000830184612145565b92915050565b612178816118d0565b811461218357600080fd5b50565b6000815190506121958161216f565b92915050565b6000602082840312156121b1576121b0611841565b5b60006121bf84828501612186565b91505092915050565b7f53706865726558206572726f723a206e6f7420612053706865726558456e676960008201527f6e65000000000000000000000000000000000000000000000000000000000000602082015250565b6000612224602283611db8565b915061222f826121c8565b604082019050919050565b6000602082019050818103600083015261225381612217565b9050919050565b6000819050919050565b600061226f8261225a565b91507f800000000000000000000000000000000000000000000000000000000000000082036122a1576122a0611ce7565b5b816000039050919050565b600081519050919050565b600081905092915050565b60005b838110156122e05780820151818401526020810190506122c5565b60008484015250505050565b60006122f7826122ac565b61230181856122b7565b93506123118185602086016122c2565b80840191505092915050565b600061232982846122ec565b915081905092915050565b61233d8161225a565b82525050565b600082825260208201905092915050565b60006123608385612343565b935061236d838584611a2b565b6123768361196e565b840190509392505050565b60006060820190506123966000830187612334565b6123a36020830186611b41565b81810360408301526123b6818486612354565b905095945050505050565b600067ffffffffffffffff8211156123dc576123db61197f565b5b602082029050602081019050919050565b6123f681611b98565b811461240157600080fd5b50565b600081519050612413816123ed565b92915050565b600061242c612427846123c1565b6119df565b9050808382526020820190506020840283018581111561244f5761244e611bf8565b5b835b8181101561247857806124648882612404565b845260208401935050602081019050612451565b5050509392505050565b600082601f83011261249757612496611964565b5b81516124a7848260208601612419565b91505092915050565b6000602082840312156124c6576124c5611841565b5b600082015167ffffffffffffffff8111156124e4576124e3611846565b5b6124f084828501612482565b91505092915050565b600060208201905061250e6000830184612334565b92915050565b61251d81611cdd565b82525050565b600081519050919050565b600082825260208201905092915050565b6000819050602082019050919050565b61255881611b98565b82525050565b600061256a838361254f565b60208301905092915050565b6000602082019050919050565b600061258e82612523565b612598818561252e565b93506125a38361253f565b8060005b838110156125d45781516125bb888261255e565b97506125c683612576565b9250506001810190506125a7565b5085935050505092915050565b60006080820190506125f66000830187612334565b6126036020830186612514565b81810360408301526126158185612583565b905081810360608301526126298184612583565b905095945050505050565b7f416464726573733a2063616c6c20746f206e6f6e2d636f6e7472616374000000600082015250565b600061266a601d83611db8565b915061267582612634565b602082019050919050565b600060208201905081810360008301526126998161265d565b9050919050565b600081519050919050565b60006126b6826126a0565b6126c08185611db8565b93506126d08185602086016122c2565b6126d98161196e565b840191505092915050565b600060208201905081810360008301526126fe81846126ab565b90509291505056fe416464726573733a206c6f772d6c6576656c2064656c65676174652063616c6c206661696c6564a2646970667358221220f7cc1e41d6955268a6ec36e7673d6fa6ff12d4c017ac256ff4f8e9fd4d1c801164736f6c63430008130033416464726573733a206c6f772d6c6576656c2064656c65676174652063616c6c206661696c6564",
  "linkReferences": {},
  "deployedLinkReferences": {}
}