{
  "_format": "hh-sol-artifact-1",
  "contractName": "ProtectedERC1967SubProxy",
  "sourceName": "src/ProtectedProxies/ProtectedERC1967SubProxy.sol",
  "abi": [
    {
      "inputs": [
        {
          "internalType": "address",
          "name": "_logic",
          "type": "address"
        },
        {
          "internalType": "bytes",
          "name": "_data",
          "type": "bytes"
        }
      ],
      "stateMutability": "nonpayable",
      "type": "constructor"
    },
    {
      "anonymous": false,
      "inputs": [
        {
          "indexed": false,
          "internalType": "bytes4[]",
          "name": "patterns",
          "type": "bytes4[]"
        }
      ],
      "name": "AddedProtectedFuncSigs",
      "type": "event"
    },
    {
      "anonymous": false,
      "inputs": [
        {
          "indexed": false,
          "internalType": "address",
          "name": "previousAdmin",
          "type": "address"
        },
        {
          "indexed": false,
          "internalType": "address",
          "name": "newAdmin",
          "type": "address"
        }
      ],
      "name": "AdminChanged",
      "type": "event"
    },
    {
      "anonymous": false,
      "inputs": [
        {
          "indexed": true,
          "internalType": "address",
          "name": "beacon",
          "type": "address"
        }
      ],
      "name": "BeaconUpgraded",
      "type": "event"
    },
    {
      "anonymous": false,
      "inputs": [
        {
          "indexed": false,
          "internalType": "address",
          "name": "oldEngineAddress",
          "type": "address"
        },
        {
          "indexed": false,
          "internalType": "address",
          "name": "newEngineAddress",
          "type": "address"
        }
      ],
      "name": "ChangedSpherexEngineAddress",
      "type": "event"
    },
    {
      "anonymous": false,
      "inputs": [
        {
          "indexed": false,
          "internalType": "address",
          "name": "oldSphereXAdmin",
          "type": "address"
        },
        {
          "indexed": false,
          "internalType": "address",
          "name": "newSphereXAdmin",
          "type": "address"
        }
      ],
      "name": "ChangedSpherexOperator",
      "type": "event"
    },
    {
      "anonymous": false,
      "inputs": [
        {
          "indexed": false,
          "internalType": "bytes4[]",
          "name": "patterns",
          "type": "bytes4[]"
        }
      ],
      "name": "RemovedProtectedFuncSigs",
      "type": "event"
    },
    {
      "anonymous": false,
      "inputs": [
        {
          "indexed": false,
          "internalType": "address",
          "name": "oldAdmin",
          "type": "address"
        },
        {
          "indexed": false,
          "internalType": "address",
          "name": "newAdmin",
          "type": "address"
        }
      ],
      "name": "SpherexAdminTransferCompleted",
      "type": "event"
    },
    {
      "anonymous": false,
      "inputs": [
        {
          "indexed": false,
          "internalType": "address",
          "name": "currentAdmin",
          "type": "address"
        },
        {
          "indexed": false,
          "internalType": "address",
          "name": "pendingAdmin",
          "type": "address"
        }
      ],
      "name": "SpherexAdminTransferStarted",
      "type": "event"
    },
    {
      "anonymous": false,
      "inputs": [
        {
          "indexed": true,
          "internalType": "address",
          "name": "implementation",
          "type": "address"
        }
      ],
      "name": "Upgraded",
      "type": "event"
    },
    {
      "stateMutability": "payable",
      "type": "fallback"
    },
    {
      "inputs": [
        {
          "internalType": "address",
          "name": "admin",
          "type": "address"
        },
        {
          "internalType": "address",
          "name": "operator",
          "type": "address"
        },
        {
          "internalType": "address",
          "name": "engine",
          "type": "address"
        },
        {
          "internalType": "address",
          "name": "_logic",
          "type": "address"
        }
      ],
      "name": "__SphereXProtectedSubProXy_init",
      "outputs": [],
      "stateMutability": "nonpayable",
      "type": "function"
    },
    {
      "inputs": [],
      "name": "acceptSphereXAdminRole",
      "outputs": [],
      "stateMutability": "nonpayable",
      "type": "function"
    },
    {
      "inputs": [
        {
          "internalType": "bytes4[]",
          "name": "keys",
          "type": "bytes4[]"
        }
      ],
      "name": "addProtectedFuncSigs",
      "outputs": [],
      "stateMutability": "nonpayable",
      "type": "function"
    },
    {
      "inputs": [
        {
          "internalType": "address",
          "name": "newSphereXEngine",
          "type": "address"
        }
      ],
      "name": "changeSphereXEngine",
      "outputs": [],
      "stateMutability": "nonpayable",
      "type": "function"
    },
    {
      "inputs": [
        {
          "internalType": "address",
          "name": "newSphereXOperator",
          "type": "address"
        }
      ],
      "name": "changeSphereXOperator",
      "outputs": [],
      "stateMutability": "nonpayable",
      "type": "function"
    },
    {
      "inputs": [],
      "name": "isInitialized",
      "outputs": [
        {
          "internalType": "bool",
          "name": "",
          "type": "bool"
        }
      ],
      "stateMutability": "view",
      "type": "function"
    },
    {
      "inputs": [
        {
          "internalType": "bytes4",
          "name": "func_sig",
          "type": "bytes4"
        }
      ],
      "name": "isProtectedFuncSig",
      "outputs": [
        {
          "internalType": "bool",
          "name": "value",
          "type": "bool"
        }
      ],
      "stateMutability": "view",
      "type": "function"
    },
    {
      "inputs": [],
      "name": "pendingSphereXAdmin",
      "outputs": [
        {
          "internalType": "address",
          "name": "",
          "type": "address"
        }
      ],
      "stateMutability": "view",
      "type": "function"
    },
    {
      "inputs": [],
      "name": "proxiableUUID",
      "outputs": [
        {
          "internalType": "bytes32",
          "name": "",
          "type": "bytes32"
        }
      ],
      "stateMutability": "view",
      "type": "function"
    },
    {
      "inputs": [
        {
          "internalType": "bytes4[]",
          "name": "keys",
          "type": "bytes4[]"
        }
      ],
      "name": "removeProtectedFuncSigs",
      "outputs": [],
      "stateMutability": "nonpayable",
      "type": "function"
    },
    {
      "inputs": [],
      "name": "sphereXAdmin",
      "outputs": [
        {
          "internalType": "address",
          "name": "",
          "type": "address"
        }
      ],
      "stateMutability": "view",
      "type": "function"
    },
    {
      "inputs": [],
      "name": "sphereXEngine",
      "outputs": [
        {
          "internalType": "address",
          "name": "",
          "type": "address"
        }
      ],
      "stateMutability": "view",
      "type": "function"
    },
    {
      "inputs": [],
      "name": "sphereXOperator",
      "outputs": [
        {
          "internalType": "address",
          "name": "",
          "type": "address"
        }
      ],
      "stateMutability": "view",
      "type": "function"
    },
    {
      "inputs": [
        {
          "internalType": "address",
          "name": "newAdmin",
          "type": "address"
        }
      ],
      "name": "transferSphereXAdminRole",
      "outputs": [],
      "stateMutability": "nonpayable",
      "type": "function"
    },
    {
      "stateMutability": "payable",
      "type": "receive"
    }
  ],
  "bytecode": "0x60806040523480156200001157600080fd5b506040516200340938038062003409833981810160405281019062000037919062000900565b818160008060008282828282828282826200005a8383836200009460201b60201c565b505050505050505050620000736200023060201b60201c565b5050506200008a828260006200024460201b60201c565b5050505062000d6a565b620000da60017fca334bf49ef20e9cbff039feda3bc1c2a853aff17b1b5187e4aa1380ec55829d60001c620000ca91906200099f565b60001b846200028260201b60201c565b7f67ebaebcd2ca5a91a404e898110f221747e8d15567f2388a34794aab151cf3e66000846040516200010e929190620009eb565b60405180910390a16200015c60017fadf90d75f0f2d657d5a22fa0f6e4dabb83c4598b77158eb4119cb38f1d86446360001c6200014c91906200099f565b60001b836200028260201b60201c565b7f2ac55ae7ba47db34b5334622acafeb34a65daf143b47019273185d64c73a35a560008360405162000190929190620009eb565b60405180910390a1620001a9816200028960201b60201c565b620001ef60017f1777adabd324f814e2b0e28f6edf876dce01d7d66358c9acfe87b1b5f38338d660001c620001df91906200099f565b60001b826200028260201b60201c565b7ff33499cccaa0611882086224cc48cd82ef54b66a4d2edf4ed67108dd516896d560008260405162000223929190620009eb565b60405180910390a1505050565b620002426001620003a560201b60201c565b565b62000255836200040860201b60201c565b600082511180620002635750805b156200027d576200027b83836200045f60201b60201c565b505b505050565b8082555050565b600073ffffffffffffffffffffffffffffffffffffffff168173ffffffffffffffffffffffffffffffffffffffff1614806200036057508073ffffffffffffffffffffffffffffffffffffffff166301ffc9a77f53e41baa000000000000000000000000000000000000000000000000000000006040518263ffffffff1660e01b81526004016200031b919062000a55565b602060405180830381865afa15801562000339573d6000803e3d6000fd5b505050506040513d601f19601f820116820180604052508101906200035f919062000aaf565b5b620003a2576040517f08c379a0000000000000000000000000000000000000000000000000000000008152600401620003999062000b68565b60405180910390fd5b50565b80620003eb60017fe63726706a35a364d262f7dea3b47d903dc7bcc0181e9d5ddb5f7b87b593cbb560001c620003dc91906200099f565b60001b6200049560201b60201c565b60000160006101000a81548160ff02191690831515021790555050565b62000419816200049f60201b60201c565b8073ffffffffffffffffffffffffffffffffffffffff167fbc7cd75a20ee27fd9adebab32041f755214dbc6bffa90cc0225b39da2e5c2d3b60405160405180910390a250565b60606200048d8383604051806060016040528060278152602001620033e2602791396200056b60201b60201c565b905092915050565b6000819050919050565b620004b081620005fd60201b60201c565b620004f2576040517f08c379a0000000000000000000000000000000000000000000000000000000008152600401620004e99062000c00565b60405180910390fd5b80620005277f360894a13ba1a3210667c828492db98dca3e2076cc3735a920a3ca505d382bbc60001b6200062060201b60201c565b60000160006101000a81548173ffffffffffffffffffffffffffffffffffffffff021916908373ffffffffffffffffffffffffffffffffffffffff16021790555050565b60606000808573ffffffffffffffffffffffffffffffffffffffff168560405162000597919062000c6f565b600060405180830381855af49150503d8060008114620005d4576040519150601f19603f3d011682016040523d82523d6000602084013e620005d9565b606091505b5091509150620005f2868383876200062a60201b60201c565b925050509392505050565b6000808273ffffffffffffffffffffffffffffffffffffffff163b119050919050565b6000819050919050565b606083156200069a57600083510362000691576200064e85620005fd60201b60201c565b62000690576040517f08c379a0000000000000000000000000000000000000000000000000000000008152600401620006879062000cd8565b60405180910390fd5b5b829050620006ad565b620006ac8383620006b560201b60201c565b5b949350505050565b600082511115620006c95781518083602001fd5b806040517f08c379a0000000000000000000000000000000000000000000000000000000008152600401620006ff919062000d46565b60405180910390fd5b6000604051905090565b600080fd5b600080fd5b600073ffffffffffffffffffffffffffffffffffffffff82169050919050565b600062000749826200071c565b9050919050565b6200075b816200073c565b81146200076757600080fd5b50565b6000815190506200077b8162000750565b92915050565b600080fd5b600080fd5b6000601f19601f8301169050919050565b7f4e487b7100000000000000000000000000000000000000000000000000000000600052604160045260246000fd5b620007d6826200078b565b810181811067ffffffffffffffff82111715620007f857620007f76200079c565b5b80604052505050565b60006200080d62000708565b90506200081b8282620007cb565b919050565b600067ffffffffffffffff8211156200083e576200083d6200079c565b5b62000849826200078b565b9050602081019050919050565b60005b838110156200087657808201518184015260208101905062000859565b60008484015250505050565b600062000899620008938462000820565b62000801565b905082815260208101848484011115620008b857620008b762000786565b5b620008c584828562000856565b509392505050565b600082601f830112620008e557620008e462000781565b5b8151620008f784826020860162000882565b91505092915050565b600080604083850312156200091a576200091962000712565b5b60006200092a858286016200076a565b925050602083015167ffffffffffffffff8111156200094e576200094d62000717565b5b6200095c85828601620008cd565b9150509250929050565b6000819050919050565b7f4e487b7100000000000000000000000000000000000000000000000000000000600052601160045260246000fd5b6000620009ac8262000966565b9150620009b98362000966565b9250828203905081811115620009d457620009d362000970565b5b92915050565b620009e5816200073c565b82525050565b600060408201905062000a026000830185620009da565b62000a116020830184620009da565b9392505050565b60007fffffffff0000000000000000000000000000000000000000000000000000000082169050919050565b62000a4f8162000a18565b82525050565b600060208201905062000a6c600083018462000a44565b92915050565b60008115159050919050565b62000a898162000a72565b811462000a9557600080fd5b50565b60008151905062000aa98162000a7e565b92915050565b60006020828403121562000ac85762000ac762000712565b5b600062000ad88482850162000a98565b91505092915050565b600082825260208201905092915050565b7f53706865726558206572726f723a206e6f7420612053706865726558456e676960008201527f6e65000000000000000000000000000000000000000000000000000000000000602082015250565b600062000b5060228362000ae1565b915062000b5d8262000af2565b604082019050919050565b6000602082019050818103600083015262000b838162000b41565b9050919050565b7f455243313936373a206e657720696d706c656d656e746174696f6e206973206e60008201527f6f74206120636f6e747261637400000000000000000000000000000000000000602082015250565b600062000be8602d8362000ae1565b915062000bf58262000b8a565b604082019050919050565b6000602082019050818103600083015262000c1b8162000bd9565b9050919050565b600081519050919050565b600081905092915050565b600062000c458262000c22565b62000c51818562000c2d565b935062000c6381856020860162000856565b80840191505092915050565b600062000c7d828462000c38565b915081905092915050565b7f416464726573733a2063616c6c20746f206e6f6e2d636f6e7472616374000000600082015250565b600062000cc0601d8362000ae1565b915062000ccd8262000c88565b602082019050919050565b6000602082019050818103600083015262000cf38162000cb1565b9050919050565b600081519050919050565b600062000d128262000cfa565b62000d1e818562000ae1565b935062000d3081856020860162000856565b62000d3b816200078b565b840191505092915050565b6000602082019050818103600083015262000d62818462000d05565b905092915050565b6126688062000d7a6000396000f3fe6080604052600436106100e15760003560e01c806399e80f3b1161007f578063a7fdd04711610059578063a7fdd047146102a0578063cc5b7450146102c9578063daba7ef7146102f2578063e7e5db4f1461031b576100f0565b806399e80f3b146102215780639aa9019e1461024c578063a28aec7514610277576100f0565b80634c6c848f116100bb5780634c6c848f1461018d5780634ee8f858146101b657806352d1902d146101df5780638426b9681461020a576100f0565b8063021a5fe5146100fa578063392e53cd146101375780633c23116614610162576100f0565b366100f0576100ee610346565b005b6100f8610346565b005b34801561010657600080fd5b50610121600480360381019061011c919061187e565b610360565b60405161012e91906118c6565b60405180910390f35b34801561014357600080fd5b5061014c6103ca565b60405161015991906118c6565b60405180910390f35b34801561016e57600080fd5b5061017761041d565b6040516101849190611922565b60405180910390f35b34801561019957600080fd5b506101b460048036038101906101af9190611969565b61045f565b005b3480156101c257600080fd5b506101dd60048036038101906101d89190611969565b6105c8565b005b3480156101eb57600080fd5b506101f4610728565b60405161020191906119af565b60405180910390f35b34801561021657600080fd5b5061021f610753565b005b34801561022d57600080fd5b50610236610889565b6040516102439190611922565b60405180910390f35b34801561025857600080fd5b506102616108cb565b60405161026e9190611922565b60405180910390f35b34801561028357600080fd5b5061029e600480360381019061029991906119ca565b61090d565b005b3480156102ac57600080fd5b506102c760048036038101906102c29190611b8a565b6109ac565b005b3480156102d557600080fd5b506102f060048036038101906102eb9190611b8a565b610ad1565b005b3480156102fe57600080fd5b5061031960048036038101906103149190611969565b610bf6565b005b34801561032757600080fd5b50610330610d1d565b60405161033d9190611922565b60405180910390f35b61034e610d5f565b61035e610359610d61565b610d70565b565b6000808260017f9a7afc584486ebd3e91191a9ac2c2e986b3aaa4084656fc915fe0843ff009c6b60001c6103949190611c0c565b60001b6040516020016103a8929190611c82565b6040516020818303038152906040528051906020012090508054915050919050565b600061040760017fe63726706a35a364d262f7dea3b47d903dc7bcc0181e9d5ddb5f7b87b593cbb560001c6103ff9190611c0c565b60001b610d7c565b60000160009054906101000a900460ff16905090565b600061045a60017f1777adabd324f814e2b0e28f6edf876dce01d7d66358c9acfe87b1b5f38338d660001c6104529190611c0c565b60001b610d86565b905090565b61049a60017fadf90d75f0f2d657d5a22fa0f6e4dabb83c4598b77158eb4119cb38f1d86446360001c6104929190611c0c565b60001b610d86565b73ffffffffffffffffffffffffffffffffffffffff163373ffffffffffffffffffffffffffffffffffffffff1614610507576040517f08c379a00000000000000000000000000000000000000000000000000000000081526004016104fe90611d0b565b60405180910390fd5b61051081610d91565b600061054d60017f1777adabd324f814e2b0e28f6edf876dce01d7d66358c9acfe87b1b5f38338d660001c6105459190611c0c565b60001b610d86565b905061058b60017f1777adabd324f814e2b0e28f6edf876dce01d7d66358c9acfe87b1b5f38338d660001c6105829190611c0c565b60001b83610ea4565b7ff33499cccaa0611882086224cc48cd82ef54b66a4d2edf4ed67108dd516896d581836040516105bc929190611d2b565b60405180910390a15050565b61060360017fca334bf49ef20e9cbff039feda3bc1c2a853aff17b1b5187e4aa1380ec55829d60001c6105fb9190611c0c565b60001b610d86565b73ffffffffffffffffffffffffffffffffffffffff163373ffffffffffffffffffffffffffffffffffffffff1614610670576040517f08c379a000000000000000000000000000000000000000000000000000000000815260040161066790611da0565b60405180910390fd5b60006106ad60017fadf90d75f0f2d657d5a22fa0f6e4dabb83c4598b77158eb4119cb38f1d86446360001c6106a59190611c0c565b60001b610d86565b90506106eb60017fadf90d75f0f2d657d5a22fa0f6e4dabb83c4598b77158eb4119cb38f1d86446360001c6106e29190611c0c565b60001b83610ea4565b7f2ac55ae7ba47db34b5334622acafeb34a65daf143b47019273185d64c73a35a5818360405161071c929190611d2b565b60405180910390a15050565b60007f360894a13ba1a3210667c828492db98dca3e2076cc3735a920a3ca505d382bbc60001b905090565b3373ffffffffffffffffffffffffffffffffffffffff166107726108cb565b73ffffffffffffffffffffffffffffffffffffffff16146107c8576040517f08c379a00000000000000000000000000000000000000000000000000000000081526004016107bf90611e32565b60405180910390fd5b60006107d2610889565b905061081060017fca334bf49ef20e9cbff039feda3bc1c2a853aff17b1b5187e4aa1380ec55829d60001c6108079190611c0c565b60001b33610ea4565b61084d60017f3a517dd736309b905c692160a21b5439bdc56db1dc77d6982b66d44814e3fa9760001c6108439190611c0c565b60001b6000610ea4565b7f67ebaebcd2ca5a91a404e898110f221747e8d15567f2388a34794aab151cf3e6813360405161087e929190611d2b565b60405180910390a150565b60006108c660017fca334bf49ef20e9cbff039feda3bc1c2a853aff17b1b5187e4aa1380ec55829d60001c6108be9190611c0c565b60001b610d86565b905090565b600061090860017f3a517dd736309b905c692160a21b5439bdc56db1dc77d6982b66d44814e3fa9760001c6109009190611c0c565b60001b610d86565b905090565b6109156103ca565b15610955576040517f08c379a000000000000000000000000000000000000000000000000000000000815260040161094c90611ec4565b60405180910390fd5b61095f6001610eab565b61096a848484610f04565b6109a660017f3fa91f2555a723d9492031a1ea7e19bafb88d46accb27838b1930ba6a3553a4060001c61099d9190611c0c565b60001b82610ea4565b50505050565b6109e760017fadf90d75f0f2d657d5a22fa0f6e4dabb83c4598b77158eb4119cb38f1d86446360001c6109df9190611c0c565b60001b610d86565b73ffffffffffffffffffffffffffffffffffffffff163373ffffffffffffffffffffffffffffffffffffffff1614610a54576040517f08c379a0000000000000000000000000000000000000000000000000000000008152600401610a4b90611d0b565b60405180910390fd5b60005b8151811015610a9657610a85828281518110610a7657610a75611ee4565b5b60200260200101516000611074565b80610a8f90611f13565b9050610a57565b507f754b9f3148ad4cf227ecdf9a64810fa2d0b8682a2de15dfad5310a12b7281a5f81604051610ac69190612019565b60405180910390a150565b610b0c60017fadf90d75f0f2d657d5a22fa0f6e4dabb83c4598b77158eb4119cb38f1d86446360001c610b049190611c0c565b60001b610d86565b73ffffffffffffffffffffffffffffffffffffffff163373ffffffffffffffffffffffffffffffffffffffff1614610b79576040517f08c379a0000000000000000000000000000000000000000000000000000000008152600401610b7090611d0b565b60405180910390fd5b60005b8151811015610bbb57610baa828281518110610b9b57610b9a611ee4565b5b60200260200101516001611074565b80610bb490611f13565b9050610b7c565b507f45fc6a4de33dfc2fa6f40e48f353bf7ff006086db3ecf80c077f788082cc7d5a81604051610beb9190612019565b60405180910390a150565b610c3160017fca334bf49ef20e9cbff039feda3bc1c2a853aff17b1b5187e4aa1380ec55829d60001c610c299190611c0c565b60001b610d86565b73ffffffffffffffffffffffffffffffffffffffff163373ffffffffffffffffffffffffffffffffffffffff1614610c9e576040517f08c379a0000000000000000000000000000000000000000000000000000000008152600401610c9590611da0565b60405180910390fd5b610cda60017f3a517dd736309b905c692160a21b5439bdc56db1dc77d6982b66d44814e3fa9760001c610cd19190611c0c565b60001b82610ea4565b7f5778f1547abbbb86090a43c32aec38334b31df4beeb6f8f3fa063f593b53a526610d03610889565b82604051610d12929190611d2b565b60405180910390a150565b6000610d5a60017fadf90d75f0f2d657d5a22fa0f6e4dabb83c4598b77158eb4119cb38f1d86446360001c610d529190611c0c565b60001b610d86565b905090565b565b6000610d6b6110db565b905090565b610d798161111d565b50565b6000819050919050565b600081549050919050565b600073ffffffffffffffffffffffffffffffffffffffff168173ffffffffffffffffffffffffffffffffffffffff161480610e6257508073ffffffffffffffffffffffffffffffffffffffff166301ffc9a77f53e41baa000000000000000000000000000000000000000000000000000000006040518263ffffffff1660e01b8152600401610e20919061204a565b602060405180830381865afa158015610e3d573d6000803e3d6000fd5b505050506040513d601f19601f82011682018060405250810190610e619190612091565b5b610ea1576040517f08c379a0000000000000000000000000000000000000000000000000000000008152600401610e9890612130565b60405180910390fd5b50565b8082555050565b80610ee760017fe63726706a35a364d262f7dea3b47d903dc7bcc0181e9d5ddb5f7b87b593cbb560001c610edf9190611c0c565b60001b610d7c565b60000160006101000a81548160ff02191690831515021790555050565b610f4060017fca334bf49ef20e9cbff039feda3bc1c2a853aff17b1b5187e4aa1380ec55829d60001c610f379190611c0c565b60001b84610ea4565b7f67ebaebcd2ca5a91a404e898110f221747e8d15567f2388a34794aab151cf3e6600084604051610f72929190611d2b565b60405180910390a1610fb660017fadf90d75f0f2d657d5a22fa0f6e4dabb83c4598b77158eb4119cb38f1d86446360001c610fad9190611c0c565b60001b83610ea4565b7f2ac55ae7ba47db34b5334622acafeb34a65daf143b47019273185d64c73a35a5600083604051610fe8929190611d2b565b60405180910390a1610ff981610d91565b61103560017f1777adabd324f814e2b0e28f6edf876dce01d7d66358c9acfe87b1b5f38338d660001c61102c9190611c0c565b60001b82610ea4565b7ff33499cccaa0611882086224cc48cd82ef54b66a4d2edf4ed67108dd516896d5600082604051611067929190611d2b565b60405180910390a1505050565b60008260017f9a7afc584486ebd3e91191a9ac2c2e986b3aaa4084656fc915fe0843ff009c6b60001c6110a79190611c0c565b60001b6040516020016110bb929190611c82565b604051602081830303815290604052805190602001209050818155505050565b600061111860017f3fa91f2555a723d9492031a1ea7e19bafb88d46accb27838b1930ba6a3553a4060001c6111109190611c0c565b60001b610d86565b905090565b61114a6000357fffffffff0000000000000000000000000000000000000000000000000000000016610360565b1561116957600061115a82611175565b90506000815190508060208301f35b61117281611221565b50565b60606000357fffffffff000000000000000000000000000000000000000000000000000000001660e01c63ffffffff1660006111b2826001611247565b9050611203846000368080601f016020809104026020016040519081016040528093929190818152602001838380828437600081840152601f19601f820116905080830192505050505050506113e3565b925061121a826112129061215a565b600183611410565b5050919050565b3660008037600080366000845af43d6000803e8060008114611242573d6000f35b3d6000fd5b61124f6117f1565b600073ffffffffffffffffffffffffffffffffffffffff1661126f61157c565b73ffffffffffffffffffffffffffffffffffffffff1603156113dd57600061129561157c565b90508215611332578073ffffffffffffffffffffffffffffffffffffffff16638925ca5a85336000366040518563ffffffff1660e01b81526004016112dd94939291906121fe565b6000604051808303816000875af11580156112fc573d6000803e3d6000fd5b505050506040513d6000823e3d601f19601f82011682018060405250810190611325919061232d565b82600001819052506113bc565b8073ffffffffffffffffffffffffffffffffffffffff16633e884943856040518263ffffffff1660e01b815260040161136b9190612376565b6000604051808303816000875af115801561138a573d6000803e3d6000fd5b505050506040513d6000823e3d601f19601f820116820180604052508101906113b3919061232d565b82600001819052505b6113c982600001516115be565b82602001819052505a826040018181525050505b92915050565b6060611408838360405180606001604052806027815260200161260c60279139611683565b905092915050565b600073ffffffffffffffffffffffffffffffffffffffff1661143061157c565b73ffffffffffffffffffffffffffffffffffffffff1603156115775760005a826040015161145e9190611c0c565b9050600061146a61157c565b9050606061147b84600001516115be565b905084156114fd578173ffffffffffffffffffffffffffffffffffffffff1663f0bd946887858760200151856040518563ffffffff1660e01b81526004016114c6949392919061245e565b600060405180830381600087803b1580156114e057600080fd5b505af11580156114f4573d6000803e3d6000fd5b50505050611573565b8173ffffffffffffffffffffffffffffffffffffffff166304e6279a87858760200151856040518563ffffffff1660e01b8152600401611540949392919061245e565b600060405180830381600087803b15801561155a57600080fd5b505af115801561156e573d6000803e3d6000fd5b505050505b5050505b505050565b60006115b960017f1777adabd324f814e2b0e28f6edf876dce01d7d66358c9acfe87b1b5f38338d660001c6115b19190611c0c565b60001b610d86565b905090565b606060008251905060008167ffffffffffffffff8111156115e2576115e1611a47565b5b6040519080825280602002602001820160405280156116105781602001602082028036833780820191505090505b50905060005b8281101561167857600085828151811061163357611632611ee4565b5b602002602001015190506000815490508084848151811061165757611656611ee4565b5b6020026020010181815250505050808061167090611f13565b915050611616565b508092505050919050565b60606000808573ffffffffffffffffffffffffffffffffffffffff16856040516116ad9190612522565b600060405180830381855af49150503d80600081146116e8576040519150601f19603f3d011682016040523d82523d6000602084013e6116ed565b606091505b50915091506116fe86838387611709565b925050509392505050565b6060831561176b576000835103611763576117238561177e565b611762576040517f08c379a000000000000000000000000000000000000000000000000000000000815260040161175990612585565b60405180910390fd5b5b829050611776565b61177583836117a1565b5b949350505050565b6000808273ffffffffffffffffffffffffffffffffffffffff163b119050919050565b6000825111156117b45781518083602001fd5b806040517f08c379a00000000000000000000000000000000000000000000000000000000081526004016117e891906125e9565b60405180910390fd5b60405180606001604052806060815260200160608152602001600081525090565b6000604051905090565b600080fd5b600080fd5b60007fffffffff0000000000000000000000000000000000000000000000000000000082169050919050565b61185b81611826565b811461186657600080fd5b50565b60008135905061187881611852565b92915050565b6000602082840312156118945761189361181c565b5b60006118a284828501611869565b91505092915050565b60008115159050919050565b6118c0816118ab565b82525050565b60006020820190506118db60008301846118b7565b92915050565b600073ffffffffffffffffffffffffffffffffffffffff82169050919050565b600061190c826118e1565b9050919050565b61191c81611901565b82525050565b60006020820190506119376000830184611913565b92915050565b61194681611901565b811461195157600080fd5b50565b6000813590506119638161193d565b92915050565b60006020828403121561197f5761197e61181c565b5b600061198d84828501611954565b91505092915050565b6000819050919050565b6119a981611996565b82525050565b60006020820190506119c460008301846119a0565b92915050565b600080600080608085870312156119e4576119e361181c565b5b60006119f287828801611954565b9450506020611a0387828801611954565b9350506040611a1487828801611954565b9250506060611a2587828801611954565b91505092959194509250565b600080fd5b6000601f19601f8301169050919050565b7f4e487b7100000000000000000000000000000000000000000000000000000000600052604160045260246000fd5b611a7f82611a36565b810181811067ffffffffffffffff82111715611a9e57611a9d611a47565b5b80604052505050565b6000611ab1611812565b9050611abd8282611a76565b919050565b600067ffffffffffffffff821115611add57611adc611a47565b5b602082029050602081019050919050565b600080fd5b6000611b06611b0184611ac2565b611aa7565b90508083825260208201905060208402830185811115611b2957611b28611aee565b5b835b81811015611b525780611b3e8882611869565b845260208401935050602081019050611b2b565b5050509392505050565b600082601f830112611b7157611b70611a31565b5b8135611b81848260208601611af3565b91505092915050565b600060208284031215611ba057611b9f61181c565b5b600082013567ffffffffffffffff811115611bbe57611bbd611821565b5b611bca84828501611b5c565b91505092915050565b6000819050919050565b7f4e487b7100000000000000000000000000000000000000000000000000000000600052601160045260246000fd5b6000611c1782611bd3565b9150611c2283611bd3565b9250828203905081811115611c3a57611c39611bdd565b5b92915050565b6000819050919050565b611c5b611c5682611826565b611c40565b82525050565b6000819050919050565b611c7c611c7782611996565b611c61565b82525050565b6000611c8e8285611c4a565b600482019150611c9e8284611c6b565b6020820191508190509392505050565b600082825260208201905092915050565b7f53706865726558206572726f723a206f70657261746f72207265717569726564600082015250565b6000611cf5602083611cae565b9150611d0082611cbf565b602082019050919050565b60006020820190508181036000830152611d2481611ce8565b9050919050565b6000604082019050611d406000830185611913565b611d4d6020830184611913565b9392505050565b7f53706865726558206572726f723a2061646d696e207265717569726564000000600082015250565b6000611d8a601d83611cae565b9150611d9582611d54565b602082019050919050565b60006020820190508181036000830152611db981611d7d565b9050919050565b7f53706865726558206572726f723a206e6f74207468652070656e64696e67206160008201527f63636f756e740000000000000000000000000000000000000000000000000000602082015250565b6000611e1c602683611cae565b9150611e2782611dc0565b604082019050919050565b60006020820190508181036000830152611e4b81611e0f565b9050919050565b7f53706865726558496e697469616c697a61626c653a20636f6e7472616374206960008201527f7320616c726561647920696e697469616c697a65640000000000000000000000602082015250565b6000611eae603583611cae565b9150611eb982611e52565b604082019050919050565b60006020820190508181036000830152611edd81611ea1565b9050919050565b7f4e487b7100000000000000000000000000000000000000000000000000000000600052603260045260246000fd5b6000611f1e82611bd3565b91507fffffffffffffffffffffffffffffffffffffffffffffffffffffffffffffffff8203611f5057611f4f611bdd565b5b600182019050919050565b600081519050919050565b600082825260208201905092915050565b6000819050602082019050919050565b611f9081611826565b82525050565b6000611fa28383611f87565b60208301905092915050565b6000602082019050919050565b6000611fc682611f5b565b611fd08185611f66565b9350611fdb83611f77565b8060005b8381101561200c578151611ff38882611f96565b9750611ffe83611fae565b925050600181019050611fdf565b5085935050505092915050565b600060208201905081810360008301526120338184611fbb565b905092915050565b61204481611826565b82525050565b600060208201905061205f600083018461203b565b92915050565b61206e816118ab565b811461207957600080fd5b50565b60008151905061208b81612065565b92915050565b6000602082840312156120a7576120a661181c565b5b60006120b58482850161207c565b91505092915050565b7f53706865726558206572726f723a206e6f7420612053706865726558456e676960008201527f6e65000000000000000000000000000000000000000000000000000000000000602082015250565b600061211a602283611cae565b9150612125826120be565b604082019050919050565b600060208201905081810360008301526121498161210d565b9050919050565b6000819050919050565b600061216582612150565b91507f8000000000000000000000000000000000000000000000000000000000000000820361219757612196611bdd565b5b816000039050919050565b6121ab81612150565b82525050565b600082825260208201905092915050565b82818337600083830152505050565b60006121dd83856121b1565b93506121ea8385846121c2565b6121f383611a36565b840190509392505050565b600060608201905061221360008301876121a2565b6122206020830186611913565b81810360408301526122338184866121d1565b905095945050505050565b600067ffffffffffffffff82111561225957612258611a47565b5b602082029050602081019050919050565b61227381611996565b811461227e57600080fd5b50565b6000815190506122908161226a565b92915050565b60006122a96122a48461223e565b611aa7565b905080838252602082019050602084028301858111156122cc576122cb611aee565b5b835b818110156122f557806122e18882612281565b8452602084019350506020810190506122ce565b5050509392505050565b600082601f83011261231457612313611a31565b5b8151612324848260208601612296565b91505092915050565b6000602082840312156123435761234261181c565b5b600082015167ffffffffffffffff81111561236157612360611821565b5b61236d848285016122ff565b91505092915050565b600060208201905061238b60008301846121a2565b92915050565b61239a81611bd3565b82525050565b600081519050919050565b600082825260208201905092915050565b6000819050602082019050919050565b6123d581611996565b82525050565b60006123e783836123cc565b60208301905092915050565b6000602082019050919050565b600061240b826123a0565b61241581856123ab565b9350612420836123bc565b8060005b8381101561245157815161243888826123db565b9750612443836123f3565b925050600181019050612424565b5085935050505092915050565b600060808201905061247360008301876121a2565b6124806020830186612391565b81810360408301526124928185612400565b905081810360608301526124a68184612400565b905095945050505050565b600081519050919050565b600081905092915050565b60005b838110156124e55780820151818401526020810190506124ca565b60008484015250505050565b60006124fc826124b1565b61250681856124bc565b93506125168185602086016124c7565b80840191505092915050565b600061252e82846124f1565b915081905092915050565b7f416464726573733a2063616c6c20746f206e6f6e2d636f6e7472616374000000600082015250565b600061256f601d83611cae565b915061257a82612539565b602082019050919050565b6000602082019050818103600083015261259e81612562565b9050919050565b600081519050919050565b60006125bb826125a5565b6125c58185611cae565b93506125d58185602086016124c7565b6125de81611a36565b840191505092915050565b6000602082019050818103600083015261260381846125b0565b90509291505056fe416464726573733a206c6f772d6c6576656c2064656c65676174652063616c6c206661696c6564a264697066735822122064ee49c52d4d8ce7031c93bf7d3eaeb9c607e253a63d1a24d56f17d21f54e77464736f6c63430008130033416464726573733a206c6f772d6c6576656c2064656c65676174652063616c6c206661696c6564",
  "linkReferences": {},
  "deployedLinkReferences": {}
}