{
  "_format": "hh-sol-artifact-1",
  "contractName": "ProtectedERC1967SubProxy",
  "sourceName": "src/ProtectedProxies/ProtectedERC1967SubProxy.sol",
  "abi": [
    {
      "inputs": [
        {
          "internalType": "address",
          "name": "_logic",
          "type": "address"
        },
        {
          "internalType": "bytes",
          "name": "_data",
          "type": "bytes"
        }
      ],
      "stateMutability": "nonpayable",
      "type": "constructor"
    },
    {
      "anonymous": false,
      "inputs": [
        {
          "indexed": false,
          "internalType": "bytes4[]",
          "name": "patterns",
          "type": "bytes4[]"
        }
      ],
      "name": "AddedProtectedFuncSigs",
      "type": "event"
    },
    {
      "anonymous": false,
      "inputs": [
        {
          "indexed": false,
          "internalType": "address",
          "name": "previousAdmin",
          "type": "address"
        },
        {
          "indexed": false,
          "internalType": "address",
          "name": "newAdmin",
          "type": "address"
        }
      ],
      "name": "AdminChanged",
      "type": "event"
    },
    {
      "anonymous": false,
      "inputs": [
        {
          "indexed": true,
          "internalType": "address",
          "name": "beacon",
          "type": "address"
        }
      ],
      "name": "BeaconUpgraded",
      "type": "event"
    },
    {
      "anonymous": false,
      "inputs": [
        {
          "indexed": false,
          "internalType": "address",
          "name": "oldEngineAddress",
          "type": "address"
        },
        {
          "indexed": false,
          "internalType": "address",
          "name": "newEngineAddress",
          "type": "address"
        }
      ],
      "name": "ChangedSpherexEngineAddress",
      "type": "event"
    },
    {
      "anonymous": false,
      "inputs": [
        {
          "indexed": false,
          "internalType": "address",
          "name": "oldSphereXAdmin",
          "type": "address"
        },
        {
          "indexed": false,
          "internalType": "address",
          "name": "newSphereXAdmin",
          "type": "address"
        }
      ],
      "name": "ChangedSpherexOperator",
      "type": "event"
    },
    {
      "anonymous": false,
      "inputs": [
        {
          "indexed": false,
          "internalType": "address",
          "name": "sender",
          "type": "address"
        }
      ],
      "name": "NewAllowedSenderOnchain",
      "type": "event"
    },
    {
      "anonymous": false,
      "inputs": [
        {
          "indexed": false,
          "internalType": "bytes4[]",
          "name": "patterns",
          "type": "bytes4[]"
        }
      ],
      "name": "RemovedProtectedFuncSigs",
      "type": "event"
    },
    {
      "anonymous": false,
      "inputs": [
        {
          "indexed": false,
          "internalType": "address",
          "name": "oldAdmin",
          "type": "address"
        },
        {
          "indexed": false,
          "internalType": "address",
          "name": "newAdmin",
          "type": "address"
        }
      ],
      "name": "SpherexAdminTransferCompleted",
      "type": "event"
    },
    {
      "anonymous": false,
      "inputs": [
        {
          "indexed": false,
          "internalType": "address",
          "name": "currentAdmin",
          "type": "address"
        },
        {
          "indexed": false,
          "internalType": "address",
          "name": "pendingAdmin",
          "type": "address"
        }
      ],
      "name": "SpherexAdminTransferStarted",
      "type": "event"
    },
    {
      "anonymous": false,
      "inputs": [
        {
          "indexed": true,
          "internalType": "address",
          "name": "implementation",
          "type": "address"
        }
      ],
      "name": "Upgraded",
      "type": "event"
    },
    {
      "stateMutability": "payable",
      "type": "fallback"
    },
    {
      "inputs": [
        {
          "internalType": "address",
          "name": "admin",
          "type": "address"
        },
        {
          "internalType": "address",
          "name": "operator",
          "type": "address"
        },
        {
          "internalType": "address",
          "name": "engine",
          "type": "address"
        },
        {
          "internalType": "address",
          "name": "_logic",
          "type": "address"
        },
        {
          "internalType": "bytes",
          "name": "data",
          "type": "bytes"
        }
      ],
      "name": "__SphereXProtectedSubProXy_init",
      "outputs": [],
      "stateMutability": "nonpayable",
      "type": "function"
    },
    {
      "inputs": [],
      "name": "acceptSphereXAdminRole",
      "outputs": [],
      "stateMutability": "nonpayable",
      "type": "function"
    },
    {
      "inputs": [
        {
          "internalType": "bytes4[]",
          "name": "keys",
          "type": "bytes4[]"
        }
      ],
      "name": "addProtectedFuncSigs",
      "outputs": [],
      "stateMutability": "nonpayable",
      "type": "function"
    },
    {
      "inputs": [
        {
          "internalType": "address",
          "name": "newSphereXEngine",
          "type": "address"
        }
      ],
      "name": "changeSphereXEngine",
      "outputs": [],
      "stateMutability": "nonpayable",
      "type": "function"
    },
    {
      "inputs": [
        {
          "internalType": "address",
          "name": "newSphereXOperator",
          "type": "address"
        }
      ],
      "name": "changeSphereXOperator",
      "outputs": [],
      "stateMutability": "nonpayable",
      "type": "function"
    },
    {
      "inputs": [],
      "name": "isInitialized",
      "outputs": [
        {
          "internalType": "bool",
          "name": "",
          "type": "bool"
        }
      ],
      "stateMutability": "view",
      "type": "function"
    },
    {
      "inputs": [
        {
          "internalType": "bytes4",
          "name": "func_sig",
          "type": "bytes4"
        }
      ],
      "name": "isProtectedFuncSig",
      "outputs": [
        {
          "internalType": "bool",
          "name": "value",
          "type": "bool"
        }
      ],
      "stateMutability": "view",
      "type": "function"
    },
    {
      "inputs": [],
      "name": "pendingSphereXAdmin",
      "outputs": [
        {
          "internalType": "address",
          "name": "",
          "type": "address"
        }
      ],
      "stateMutability": "view",
      "type": "function"
    },
    {
      "inputs": [],
      "name": "proxiableUUID",
      "outputs": [
        {
          "internalType": "bytes32",
          "name": "",
          "type": "bytes32"
        }
      ],
      "stateMutability": "view",
      "type": "function"
    },
    {
      "inputs": [
        {
          "internalType": "bytes4[]",
          "name": "keys",
          "type": "bytes4[]"
        }
      ],
      "name": "removeProtectedFuncSigs",
      "outputs": [],
      "stateMutability": "nonpayable",
      "type": "function"
    },
    {
      "inputs": [],
      "name": "sphereXAdmin",
      "outputs": [
        {
          "internalType": "address",
          "name": "",
          "type": "address"
        }
      ],
      "stateMutability": "view",
      "type": "function"
    },
    {
      "inputs": [],
      "name": "sphereXEngine",
      "outputs": [
        {
          "internalType": "address",
          "name": "",
          "type": "address"
        }
      ],
      "stateMutability": "view",
      "type": "function"
    },
    {
      "inputs": [],
      "name": "sphereXOperator",
      "outputs": [
        {
          "internalType": "address",
          "name": "",
          "type": "address"
        }
      ],
      "stateMutability": "view",
      "type": "function"
    },
    {
      "inputs": [
        {
          "internalType": "address",
          "name": "newAdmin",
          "type": "address"
        }
      ],
      "name": "transferSphereXAdminRole",
      "outputs": [],
      "stateMutability": "nonpayable",
      "type": "function"
    },
    {
      "stateMutability": "payable",
      "type": "receive"
    }
  ],
  "bytecode": "0x60806040523480156200001157600080fd5b506040516200355438038062003554833981810160405281019062000037919062000900565b818160008060008282828282828282826200005a8383836200009460201b60201c565b505050505050505050505050620000766200023060201b60201c565b6200008a828260006200024460201b60201c565b5050505062000d6a565b620000da60017fca334bf49ef20e9cbff039feda3bc1c2a853aff17b1b5187e4aa1380ec55829d60001c620000ca91906200099f565b60001b846200028260201b60201c565b7f67ebaebcd2ca5a91a404e898110f221747e8d15567f2388a34794aab151cf3e66000846040516200010e929190620009eb565b60405180910390a16200015c60017fadf90d75f0f2d657d5a22fa0f6e4dabb83c4598b77158eb4119cb38f1d86446360001c6200014c91906200099f565b60001b836200028260201b60201c565b7f2ac55ae7ba47db34b5334622acafeb34a65daf143b47019273185d64c73a35a560008360405162000190929190620009eb565b60405180910390a1620001a9816200028960201b60201c565b620001ef60017f1777adabd324f814e2b0e28f6edf876dce01d7d66358c9acfe87b1b5f38338d660001c620001df91906200099f565b60001b826200028260201b60201c565b7ff33499cccaa0611882086224cc48cd82ef54b66a4d2edf4ed67108dd516896d560008260405162000223929190620009eb565b60405180910390a1505050565b620002426001620003a560201b60201c565b565b62000255836200040860201b60201c565b600082511180620002635750805b156200027d576200027b83836200045f60201b60201c565b505b505050565b8082555050565b600073ffffffffffffffffffffffffffffffffffffffff168173ffffffffffffffffffffffffffffffffffffffff1614806200036057508073ffffffffffffffffffffffffffffffffffffffff166301ffc9a77f53e41baa000000000000000000000000000000000000000000000000000000006040518263ffffffff1660e01b81526004016200031b919062000a55565b602060405180830381865afa15801562000339573d6000803e3d6000fd5b505050506040513d601f19601f820116820180604052508101906200035f919062000aaf565b5b620003a2576040517f08c379a0000000000000000000000000000000000000000000000000000000008152600401620003999062000b68565b60405180910390fd5b50565b80620003eb60017fe63726706a35a364d262f7dea3b47d903dc7bcc0181e9d5ddb5f7b87b593cbb560001c620003dc91906200099f565b60001b6200049560201b60201c565b60000160006101000a81548160ff02191690831515021790555050565b62000419816200049f60201b60201c565b8073ffffffffffffffffffffffffffffffffffffffff167fbc7cd75a20ee27fd9adebab32041f755214dbc6bffa90cc0225b39da2e5c2d3b60405160405180910390a250565b60606200048d83836040518060600160405280602781526020016200352d602791396200056b60201b60201c565b905092915050565b6000819050919050565b620004b081620005fd60201b60201c565b620004f2576040517f08c379a0000000000000000000000000000000000000000000000000000000008152600401620004e99062000c00565b60405180910390fd5b80620005277f360894a13ba1a3210667c828492db98dca3e2076cc3735a920a3ca505d382bbc60001b6200062060201b60201c565b60000160006101000a81548173ffffffffffffffffffffffffffffffffffffffff021916908373ffffffffffffffffffffffffffffffffffffffff16021790555050565b60606000808573ffffffffffffffffffffffffffffffffffffffff168560405162000597919062000c6f565b600060405180830381855af49150503d8060008114620005d4576040519150601f19603f3d011682016040523d82523d6000602084013e620005d9565b606091505b5091509150620005f2868383876200062a60201b60201c565b925050509392505050565b6000808273ffffffffffffffffffffffffffffffffffffffff163b119050919050565b6000819050919050565b606083156200069a57600083510362000691576200064e85620005fd60201b60201c565b62000690576040517f08c379a0000000000000000000000000000000000000000000000000000000008152600401620006879062000cd8565b60405180910390fd5b5b829050620006ad565b620006ac8383620006b560201b60201c565b5b949350505050565b600082511115620006c95781518083602001fd5b806040517f08c379a0000000000000000000000000000000000000000000000000000000008152600401620006ff919062000d46565b60405180910390fd5b6000604051905090565b600080fd5b600080fd5b600073ffffffffffffffffffffffffffffffffffffffff82169050919050565b600062000749826200071c565b9050919050565b6200075b816200073c565b81146200076757600080fd5b50565b6000815190506200077b8162000750565b92915050565b600080fd5b600080fd5b6000601f19601f8301169050919050565b7f4e487b7100000000000000000000000000000000000000000000000000000000600052604160045260246000fd5b620007d6826200078b565b810181811067ffffffffffffffff82111715620007f857620007f76200079c565b5b80604052505050565b60006200080d62000708565b90506200081b8282620007cb565b919050565b600067ffffffffffffffff8211156200083e576200083d6200079c565b5b62000849826200078b565b9050602081019050919050565b60005b838110156200087657808201518184015260208101905062000859565b60008484015250505050565b600062000899620008938462000820565b62000801565b905082815260208101848484011115620008b857620008b762000786565b5b620008c584828562000856565b509392505050565b600082601f830112620008e557620008e462000781565b5b8151620008f784826020860162000882565b91505092915050565b600080604083850312156200091a576200091962000712565b5b60006200092a858286016200076a565b925050602083015167ffffffffffffffff8111156200094e576200094d62000717565b5b6200095c85828601620008cd565b9150509250929050565b6000819050919050565b7f4e487b7100000000000000000000000000000000000000000000000000000000600052601160045260246000fd5b6000620009ac8262000966565b9150620009b98362000966565b9250828203905081811115620009d457620009d362000970565b5b92915050565b620009e5816200073c565b82525050565b600060408201905062000a026000830185620009da565b62000a116020830184620009da565b9392505050565b60007fffffffff0000000000000000000000000000000000000000000000000000000082169050919050565b62000a4f8162000a18565b82525050565b600060208201905062000a6c600083018462000a44565b92915050565b60008115159050919050565b62000a898162000a72565b811462000a9557600080fd5b50565b60008151905062000aa98162000a7e565b92915050565b60006020828403121562000ac85762000ac762000712565b5b600062000ad88482850162000a98565b91505092915050565b600082825260208201905092915050565b7f53706865726558206572726f723a206e6f7420612053706865726558456e676960008201527f6e65000000000000000000000000000000000000000000000000000000000000602082015250565b600062000b5060228362000ae1565b915062000b5d8262000af2565b604082019050919050565b6000602082019050818103600083015262000b838162000b41565b9050919050565b7f455243313936373a206e657720696d706c656d656e746174696f6e206973206e60008201527f6f74206120636f6e747261637400000000000000000000000000000000000000602082015250565b600062000be8602d8362000ae1565b915062000bf58262000b8a565b604082019050919050565b6000602082019050818103600083015262000c1b8162000bd9565b9050919050565b600081519050919050565b600081905092915050565b600062000c458262000c22565b62000c51818562000c2d565b935062000c6381856020860162000856565b80840191505092915050565b600062000c7d828462000c38565b915081905092915050565b7f416464726573733a2063616c6c20746f206e6f6e2d636f6e7472616374000000600082015250565b600062000cc0601d8362000ae1565b915062000ccd8262000c88565b602082019050919050565b6000602082019050818103600083015262000cf38162000cb1565b9050919050565b600081519050919050565b600062000d128262000cfa565b62000d1e818562000ae1565b935062000d3081856020860162000856565b62000d3b816200078b565b840191505092915050565b6000602082019050818103600083015262000d62818462000d05565b905092915050565b6127b38062000d7a6000396000f3fe6080604052600436106100e15760003560e01c80638426b9681161007f578063a7fdd04711610059578063a7fdd047146102a0578063cc5b7450146102c9578063daba7ef7146102f2578063e7e5db4f1461031b576100f0565b80638426b9681461023357806399e80f3b1461024a5780639aa9019e14610275576100f0565b80633c231166116100bb5780633c2311661461018b5780634c6c848f146101b65780634ee8f858146101df57806352d1902d14610208576100f0565b8063021a5fe5146100fa57806313dd113614610137578063392e53cd14610160576100f0565b366100f0576100ee610346565b005b6100f8610346565b005b34801561010657600080fd5b50610121600480360381019061011c91906118f3565b610360565b60405161012e919061193b565b60405180910390f35b34801561014357600080fd5b5061015e60048036038101906101599190611afa565b6103ca565b005b34801561016c57600080fd5b50610175610438565b604051610182919061193b565b60405180910390f35b34801561019757600080fd5b506101a061048b565b6040516101ad9190611ba0565b60405180910390f35b3480156101c257600080fd5b506101dd60048036038101906101d89190611bbb565b6104cd565b005b3480156101eb57600080fd5b5061020660048036038101906102019190611bbb565b610636565b005b34801561021457600080fd5b5061021d610796565b60405161022a9190611c01565b60405180910390f35b34801561023f57600080fd5b506102486107c1565b005b34801561025657600080fd5b5061025f6108f7565b60405161026c9190611ba0565b60405180910390f35b34801561028157600080fd5b5061028a610939565b6040516102979190611ba0565b60405180910390f35b3480156102ac57600080fd5b506102c760048036038101906102c29190611ce4565b61097b565b005b3480156102d557600080fd5b506102f060048036038101906102eb9190611ce4565b610aa0565b005b3480156102fe57600080fd5b5061031960048036038101906103149190611bbb565b610bc5565b005b34801561032757600080fd5b50610330610cec565b60405161033d9190611ba0565b60405180910390f35b61034e610d2e565b61035e610359610d30565b610d3f565b565b6000808260017f9a7afc584486ebd3e91191a9ac2c2e986b3aaa4084656fc915fe0843ff009c6b60001c6103949190611d66565b60001b6040516020016103a8929190611ddc565b6040516020818303038152906040528051906020012090508054915050919050565b6103d2610438565b15610412576040517f08c379a000000000000000000000000000000000000000000000000000000000815260040161040990611e8b565b60405180910390fd5b61041c6001610d4b565b610427858585610da4565b6104318282610f14565b5050505050565b600061047560017fe63726706a35a364d262f7dea3b47d903dc7bcc0181e9d5ddb5f7b87b593cbb560001c61046d9190611d66565b60001b610f6a565b60000160009054906101000a900460ff16905090565b60006104c860017f1777adabd324f814e2b0e28f6edf876dce01d7d66358c9acfe87b1b5f38338d660001c6104c09190611d66565b60001b610f74565b905090565b61050860017fadf90d75f0f2d657d5a22fa0f6e4dabb83c4598b77158eb4119cb38f1d86446360001c6105009190611d66565b60001b610f74565b73ffffffffffffffffffffffffffffffffffffffff163373ffffffffffffffffffffffffffffffffffffffff1614610575576040517f08c379a000000000000000000000000000000000000000000000000000000000815260040161056c90611ef7565b60405180910390fd5b61057e81610f7f565b60006105bb60017f1777adabd324f814e2b0e28f6edf876dce01d7d66358c9acfe87b1b5f38338d660001c6105b39190611d66565b60001b610f74565b90506105f960017f1777adabd324f814e2b0e28f6edf876dce01d7d66358c9acfe87b1b5f38338d660001c6105f09190611d66565b60001b83611092565b7ff33499cccaa0611882086224cc48cd82ef54b66a4d2edf4ed67108dd516896d5818360405161062a929190611f17565b60405180910390a15050565b61067160017fca334bf49ef20e9cbff039feda3bc1c2a853aff17b1b5187e4aa1380ec55829d60001c6106699190611d66565b60001b610f74565b73ffffffffffffffffffffffffffffffffffffffff163373ffffffffffffffffffffffffffffffffffffffff16146106de576040517f08c379a00000000000000000000000000000000000000000000000000000000081526004016106d590611f8c565b60405180910390fd5b600061071b60017fadf90d75f0f2d657d5a22fa0f6e4dabb83c4598b77158eb4119cb38f1d86446360001c6107139190611d66565b60001b610f74565b905061075960017fadf90d75f0f2d657d5a22fa0f6e4dabb83c4598b77158eb4119cb38f1d86446360001c6107509190611d66565b60001b83611092565b7f2ac55ae7ba47db34b5334622acafeb34a65daf143b47019273185d64c73a35a5818360405161078a929190611f17565b60405180910390a15050565b60007f360894a13ba1a3210667c828492db98dca3e2076cc3735a920a3ca505d382bbc60001b905090565b3373ffffffffffffffffffffffffffffffffffffffff166107e0610939565b73ffffffffffffffffffffffffffffffffffffffff1614610836576040517f08c379a000000000000000000000000000000000000000000000000000000000815260040161082d9061201e565b60405180910390fd5b60006108406108f7565b905061087e60017fca334bf49ef20e9cbff039feda3bc1c2a853aff17b1b5187e4aa1380ec55829d60001c6108759190611d66565b60001b33611092565b6108bb60017f3a517dd736309b905c692160a21b5439bdc56db1dc77d6982b66d44814e3fa9760001c6108b19190611d66565b60001b6000611092565b7f67ebaebcd2ca5a91a404e898110f221747e8d15567f2388a34794aab151cf3e681336040516108ec929190611f17565b60405180910390a150565b600061093460017fca334bf49ef20e9cbff039feda3bc1c2a853aff17b1b5187e4aa1380ec55829d60001c61092c9190611d66565b60001b610f74565b905090565b600061097660017f3a517dd736309b905c692160a21b5439bdc56db1dc77d6982b66d44814e3fa9760001c61096e9190611d66565b60001b610f74565b905090565b6109b660017fadf90d75f0f2d657d5a22fa0f6e4dabb83c4598b77158eb4119cb38f1d86446360001c6109ae9190611d66565b60001b610f74565b73ffffffffffffffffffffffffffffffffffffffff163373ffffffffffffffffffffffffffffffffffffffff1614610a23576040517f08c379a0000000000000000000000000000000000000000000000000000000008152600401610a1a90611ef7565b60405180910390fd5b60005b8151811015610a6557610a54828281518110610a4557610a4461203e565b5b60200260200101516000611099565b80610a5e9061206d565b9050610a26565b507f754b9f3148ad4cf227ecdf9a64810fa2d0b8682a2de15dfad5310a12b7281a5f81604051610a959190612173565b60405180910390a150565b610adb60017fadf90d75f0f2d657d5a22fa0f6e4dabb83c4598b77158eb4119cb38f1d86446360001c610ad39190611d66565b60001b610f74565b73ffffffffffffffffffffffffffffffffffffffff163373ffffffffffffffffffffffffffffffffffffffff1614610b48576040517f08c379a0000000000000000000000000000000000000000000000000000000008152600401610b3f90611ef7565b60405180910390fd5b60005b8151811015610b8a57610b79828281518110610b6a57610b6961203e565b5b60200260200101516001611099565b80610b839061206d565b9050610b4b565b507f45fc6a4de33dfc2fa6f40e48f353bf7ff006086db3ecf80c077f788082cc7d5a81604051610bba9190612173565b60405180910390a150565b610c0060017fca334bf49ef20e9cbff039feda3bc1c2a853aff17b1b5187e4aa1380ec55829d60001c610bf89190611d66565b60001b610f74565b73ffffffffffffffffffffffffffffffffffffffff163373ffffffffffffffffffffffffffffffffffffffff1614610c6d576040517f08c379a0000000000000000000000000000000000000000000000000000000008152600401610c6490611f8c565b60405180910390fd5b610ca960017f3a517dd736309b905c692160a21b5439bdc56db1dc77d6982b66d44814e3fa9760001c610ca09190611d66565b60001b82611092565b7f5778f1547abbbb86090a43c32aec38334b31df4beeb6f8f3fa063f593b53a526610cd26108f7565b82604051610ce1929190611f17565b60405180910390a150565b6000610d2960017fadf90d75f0f2d657d5a22fa0f6e4dabb83c4598b77158eb4119cb38f1d86446360001c610d219190611d66565b60001b610f74565b905090565b565b6000610d3a611100565b905090565b610d4881611142565b50565b80610d8760017fe63726706a35a364d262f7dea3b47d903dc7bcc0181e9d5ddb5f7b87b593cbb560001c610d7f9190611d66565b60001b610f6a565b60000160006101000a81548160ff02191690831515021790555050565b610de060017fca334bf49ef20e9cbff039feda3bc1c2a853aff17b1b5187e4aa1380ec55829d60001c610dd79190611d66565b60001b84611092565b7f67ebaebcd2ca5a91a404e898110f221747e8d15567f2388a34794aab151cf3e6600084604051610e12929190611f17565b60405180910390a1610e5660017fadf90d75f0f2d657d5a22fa0f6e4dabb83c4598b77158eb4119cb38f1d86446360001c610e4d9190611d66565b60001b83611092565b7f2ac55ae7ba47db34b5334622acafeb34a65daf143b47019273185d64c73a35a5600083604051610e88929190611f17565b60405180910390a1610e9981610f7f565b610ed560017f1777adabd324f814e2b0e28f6edf876dce01d7d66358c9acfe87b1b5f38338d660001c610ecc9190611d66565b60001b82611092565b7ff33499cccaa0611882086224cc48cd82ef54b66a4d2edf4ed67108dd516896d5600082604051610f07929190611f17565b60405180910390a1505050565b610f5060017f3fa91f2555a723d9492031a1ea7e19bafb88d46accb27838b1930ba6a3553a4060001c610f479190611d66565b60001b83611092565b600081511115610f6657610f64828261119a565b505b5050565b6000819050919050565b600081549050919050565b600073ffffffffffffffffffffffffffffffffffffffff168173ffffffffffffffffffffffffffffffffffffffff16148061105057508073ffffffffffffffffffffffffffffffffffffffff166301ffc9a77f53e41baa000000000000000000000000000000000000000000000000000000006040518263ffffffff1660e01b815260040161100e91906121a4565b602060405180830381865afa15801561102b573d6000803e3d6000fd5b505050506040513d601f19601f8201168201806040525081019061104f91906121eb565b5b61108f576040517f08c379a00000000000000000000000000000000000000000000000000000000081526004016110869061228a565b60405180910390fd5b50565b8082555050565b60008260017f9a7afc584486ebd3e91191a9ac2c2e986b3aaa4084656fc915fe0843ff009c6b60001c6110cc9190611d66565b60001b6040516020016110e0929190611ddc565b604051602081830303815290604052805190602001209050818155505050565b600061113d60017f3fa91f2555a723d9492031a1ea7e19bafb88d46accb27838b1930ba6a3553a4060001c6111359190611d66565b60001b610f74565b905090565b61116f6000357fffffffff0000000000000000000000000000000000000000000000000000000016610360565b1561118e57600061117f826111c7565b90506000815190508060208301f35b61119781611273565b50565b60606111bf838360405180606001604052806027815260200161275760279139611299565b905092915050565b60606000357fffffffff000000000000000000000000000000000000000000000000000000001660e01c63ffffffff16600061120482600161131f565b9050611255846000368080601f016020809104026020016040519081016040528093929190818152602001838380828437600081840152601f19601f8201169050808301925050505050505061119a565b925061126c82611264906122b4565b6001836114f3565b5050919050565b3660008037600080366000845af43d6000803e8060008114611294573d6000f35b3d6000fd5b60606000808573ffffffffffffffffffffffffffffffffffffffff16856040516112c3919061236d565b600060405180830381855af49150503d80600081146112fe576040519150601f19603f3d011682016040523d82523d6000602084013e611303565b606091505b50915091506113148683838761165a565b925050509392505050565b611327611849565b600073ffffffffffffffffffffffffffffffffffffffff166113476116cf565b73ffffffffffffffffffffffffffffffffffffffff1603156114ed57600061136d6116cf565b9050821561140a578073ffffffffffffffffffffffffffffffffffffffff16638925ca5a85336000366040518563ffffffff1660e01b81526004016113b594939291906123d1565b6000604051808303816000875af11580156113d4573d6000803e3d6000fd5b505050506040513d6000823e3d601f19601f820116820180604052508101906113fd9190612500565b8260000181905250611494565b8073ffffffffffffffffffffffffffffffffffffffff16633e884943856040518263ffffffff1660e01b81526004016114439190612549565b6000604051808303816000875af1158015611462573d6000803e3d6000fd5b505050506040513d6000823e3d601f19601f8201168201806040525081019061148b9190612500565b82600001819052505b6114a18260000151611711565b82602001819052505a82604001818152505080826060019073ffffffffffffffffffffffffffffffffffffffff16908173ffffffffffffffffffffffffffffffffffffffff1681525050505b92915050565b600081606001519050600073ffffffffffffffffffffffffffffffffffffffff168173ffffffffffffffffffffffffffffffffffffffff16036115365750611655565b60005a83604001516115489190611d66565b905060606115598460000151611711565b905084156115db578273ffffffffffffffffffffffffffffffffffffffff1663f0bd946887848760200151856040518563ffffffff1660e01b81526004016115a49493929190612631565b600060405180830381600087803b1580156115be57600080fd5b505af11580156115d2573d6000803e3d6000fd5b50505050611651565b8273ffffffffffffffffffffffffffffffffffffffff166304e6279a87848760200151856040518563ffffffff1660e01b815260040161161e9493929190612631565b600060405180830381600087803b15801561163857600080fd5b505af115801561164c573d6000803e3d6000fd5b505050505b5050505b505050565b606083156116bc5760008351036116b457611674856117d6565b6116b3576040517f08c379a00000000000000000000000000000000000000000000000000000000081526004016116aa906126d0565b60405180910390fd5b5b8290506116c7565b6116c683836117f9565b5b949350505050565b600061170c60017f1777adabd324f814e2b0e28f6edf876dce01d7d66358c9acfe87b1b5f38338d660001c6117049190611d66565b60001b610f74565b905090565b606060008251905060008167ffffffffffffffff811115611735576117346119cf565b5b6040519080825280602002602001820160405280156117635781602001602082028036833780820191505090505b50905060005b828110156117cb5760008582815181106117865761178561203e565b5b60200260200101519050600081549050808484815181106117aa576117a961203e565b5b602002602001018181525050505080806117c39061206d565b915050611769565b508092505050919050565b6000808273ffffffffffffffffffffffffffffffffffffffff163b119050919050565b60008251111561180c5781518083602001fd5b806040517f08c379a00000000000000000000000000000000000000000000000000000000081526004016118409190612734565b60405180910390fd5b6040518060800160405280606081526020016060815260200160008152602001600073ffffffffffffffffffffffffffffffffffffffff1681525090565b6000604051905090565b600080fd5b600080fd5b60007fffffffff0000000000000000000000000000000000000000000000000000000082169050919050565b6118d08161189b565b81146118db57600080fd5b50565b6000813590506118ed816118c7565b92915050565b60006020828403121561190957611908611891565b5b6000611917848285016118de565b91505092915050565b60008115159050919050565b61193581611920565b82525050565b6000602082019050611950600083018461192c565b92915050565b600073ffffffffffffffffffffffffffffffffffffffff82169050919050565b600061198182611956565b9050919050565b61199181611976565b811461199c57600080fd5b50565b6000813590506119ae81611988565b92915050565b600080fd5b600080fd5b6000601f19601f8301169050919050565b7f4e487b7100000000000000000000000000000000000000000000000000000000600052604160045260246000fd5b611a07826119be565b810181811067ffffffffffffffff82111715611a2657611a256119cf565b5b80604052505050565b6000611a39611887565b9050611a4582826119fe565b919050565b600067ffffffffffffffff821115611a6557611a646119cf565b5b611a6e826119be565b9050602081019050919050565b82818337600083830152505050565b6000611a9d611a9884611a4a565b611a2f565b905082815260208101848484011115611ab957611ab86119b9565b5b611ac4848285611a7b565b509392505050565b600082601f830112611ae157611ae06119b4565b5b8135611af1848260208601611a8a565b91505092915050565b600080600080600060a08688031215611b1657611b15611891565b5b6000611b248882890161199f565b9550506020611b358882890161199f565b9450506040611b468882890161199f565b9350506060611b578882890161199f565b925050608086013567ffffffffffffffff811115611b7857611b77611896565b5b611b8488828901611acc565b9150509295509295909350565b611b9a81611976565b82525050565b6000602082019050611bb56000830184611b91565b92915050565b600060208284031215611bd157611bd0611891565b5b6000611bdf8482850161199f565b91505092915050565b6000819050919050565b611bfb81611be8565b82525050565b6000602082019050611c166000830184611bf2565b92915050565b600067ffffffffffffffff821115611c3757611c366119cf565b5b602082029050602081019050919050565b600080fd5b6000611c60611c5b84611c1c565b611a2f565b90508083825260208201905060208402830185811115611c8357611c82611c48565b5b835b81811015611cac5780611c9888826118de565b845260208401935050602081019050611c85565b5050509392505050565b600082601f830112611ccb57611cca6119b4565b5b8135611cdb848260208601611c4d565b91505092915050565b600060208284031215611cfa57611cf9611891565b5b600082013567ffffffffffffffff811115611d1857611d17611896565b5b611d2484828501611cb6565b91505092915050565b6000819050919050565b7f4e487b7100000000000000000000000000000000000000000000000000000000600052601160045260246000fd5b6000611d7182611d2d565b9150611d7c83611d2d565b9250828203905081811115611d9457611d93611d37565b5b92915050565b6000819050919050565b611db5611db08261189b565b611d9a565b82525050565b6000819050919050565b611dd6611dd182611be8565b611dbb565b82525050565b6000611de88285611da4565b600482019150611df88284611dc5565b6020820191508190509392505050565b600082825260208201905092915050565b7f53706865726558496e697469616c697a61626c653a20636f6e7472616374206960008201527f7320616c726561647920696e697469616c697a65640000000000000000000000602082015250565b6000611e75603583611e08565b9150611e8082611e19565b604082019050919050565b60006020820190508181036000830152611ea481611e68565b9050919050565b7f53706865726558206572726f723a206f70657261746f72207265717569726564600082015250565b6000611ee1602083611e08565b9150611eec82611eab565b602082019050919050565b60006020820190508181036000830152611f1081611ed4565b9050919050565b6000604082019050611f2c6000830185611b91565b611f396020830184611b91565b9392505050565b7f53706865726558206572726f723a2061646d696e207265717569726564000000600082015250565b6000611f76601d83611e08565b9150611f8182611f40565b602082019050919050565b60006020820190508181036000830152611fa581611f69565b9050919050565b7f53706865726558206572726f723a206e6f74207468652070656e64696e67206160008201527f63636f756e740000000000000000000000000000000000000000000000000000602082015250565b6000612008602683611e08565b915061201382611fac565b604082019050919050565b6000602082019050818103600083015261203781611ffb565b9050919050565b7f4e487b7100000000000000000000000000000000000000000000000000000000600052603260045260246000fd5b600061207882611d2d565b91507fffffffffffffffffffffffffffffffffffffffffffffffffffffffffffffffff82036120aa576120a9611d37565b5b600182019050919050565b600081519050919050565b600082825260208201905092915050565b6000819050602082019050919050565b6120ea8161189b565b82525050565b60006120fc83836120e1565b60208301905092915050565b6000602082019050919050565b6000612120826120b5565b61212a81856120c0565b9350612135836120d1565b8060005b8381101561216657815161214d88826120f0565b975061215883612108565b925050600181019050612139565b5085935050505092915050565b6000602082019050818103600083015261218d8184612115565b905092915050565b61219e8161189b565b82525050565b60006020820190506121b96000830184612195565b92915050565b6121c881611920565b81146121d357600080fd5b50565b6000815190506121e5816121bf565b92915050565b60006020828403121561220157612200611891565b5b600061220f848285016121d6565b91505092915050565b7f53706865726558206572726f723a206e6f7420612053706865726558456e676960008201527f6e65000000000000000000000000000000000000000000000000000000000000602082015250565b6000612274602283611e08565b915061227f82612218565b604082019050919050565b600060208201905081810360008301526122a381612267565b9050919050565b6000819050919050565b60006122bf826122aa565b91507f800000000000000000000000000000000000000000000000000000000000000082036122f1576122f0611d37565b5b816000039050919050565b600081519050919050565b600081905092915050565b60005b83811015612330578082015181840152602081019050612315565b60008484015250505050565b6000612347826122fc565b6123518185612307565b9350612361818560208601612312565b80840191505092915050565b6000612379828461233c565b915081905092915050565b61238d816122aa565b82525050565b600082825260208201905092915050565b60006123b08385612393565b93506123bd838584611a7b565b6123c6836119be565b840190509392505050565b60006060820190506123e66000830187612384565b6123f36020830186611b91565b81810360408301526124068184866123a4565b905095945050505050565b600067ffffffffffffffff82111561242c5761242b6119cf565b5b602082029050602081019050919050565b61244681611be8565b811461245157600080fd5b50565b6000815190506124638161243d565b92915050565b600061247c61247784612411565b611a2f565b9050808382526020820190506020840283018581111561249f5761249e611c48565b5b835b818110156124c857806124b48882612454565b8452602084019350506020810190506124a1565b5050509392505050565b600082601f8301126124e7576124e66119b4565b5b81516124f7848260208601612469565b91505092915050565b60006020828403121561251657612515611891565b5b600082015167ffffffffffffffff81111561253457612533611896565b5b612540848285016124d2565b91505092915050565b600060208201905061255e6000830184612384565b92915050565b61256d81611d2d565b82525050565b600081519050919050565b600082825260208201905092915050565b6000819050602082019050919050565b6125a881611be8565b82525050565b60006125ba838361259f565b60208301905092915050565b6000602082019050919050565b60006125de82612573565b6125e8818561257e565b93506125f38361258f565b8060005b8381101561262457815161260b88826125ae565b9750612616836125c6565b9250506001810190506125f7565b5085935050505092915050565b60006080820190506126466000830187612384565b6126536020830186612564565b818103604083015261266581856125d3565b9050818103606083015261267981846125d3565b905095945050505050565b7f416464726573733a2063616c6c20746f206e6f6e2d636f6e7472616374000000600082015250565b60006126ba601d83611e08565b91506126c582612684565b602082019050919050565b600060208201905081810360008301526126e9816126ad565b9050919050565b600081519050919050565b6000612706826126f0565b6127108185611e08565b9350612720818560208601612312565b612729816119be565b840191505092915050565b6000602082019050818103600083015261274e81846126fb565b90509291505056fe416464726573733a206c6f772d6c6576656c2064656c65676174652063616c6c206661696c6564a2646970667358221220693d7c5e44cebbc9f1c86be5e9fc826c99f4f34cbd34661f4103456e2a76825364736f6c63430008130033416464726573733a206c6f772d6c6576656c2064656c65676174652063616c6c206661696c6564",
  "linkReferences": {},
  "deployedLinkReferences": {}
}