{
  "_format": "hh-sol-artifact-1",
  "contractName": "ProtectedTransparentUpgradeableSubProxy",
  "sourceName": "src/ProtectedProxies/ProtectedTransparentUpgradeableSubProxy.sol",
  "abi": [
    {
      "inputs": [
        {
          "internalType": "address",
          "name": "_logic",
          "type": "address"
        },
        {
          "internalType": "address",
          "name": "admin_",
          "type": "address"
        },
        {
          "internalType": "bytes",
          "name": "_data",
          "type": "bytes"
        }
      ],
      "stateMutability": "nonpayable",
      "type": "constructor"
    },
    {
      "anonymous": false,
      "inputs": [
        {
          "indexed": false,
          "internalType": "bytes4[]",
          "name": "patterns",
          "type": "bytes4[]"
        }
      ],
      "name": "AddedProtectedFuncSigs",
      "type": "event"
    },
    {
      "anonymous": false,
      "inputs": [
        {
          "indexed": false,
          "internalType": "address",
          "name": "previousAdmin",
          "type": "address"
        },
        {
          "indexed": false,
          "internalType": "address",
          "name": "newAdmin",
          "type": "address"
        }
      ],
      "name": "AdminChanged",
      "type": "event"
    },
    {
      "anonymous": false,
      "inputs": [
        {
          "indexed": true,
          "internalType": "address",
          "name": "beacon",
          "type": "address"
        }
      ],
      "name": "BeaconUpgraded",
      "type": "event"
    },
    {
      "anonymous": false,
      "inputs": [
        {
          "indexed": false,
          "internalType": "address",
          "name": "oldEngineAddress",
          "type": "address"
        },
        {
          "indexed": false,
          "internalType": "address",
          "name": "newEngineAddress",
          "type": "address"
        }
      ],
      "name": "ChangedSpherexEngineAddress",
      "type": "event"
    },
    {
      "anonymous": false,
      "inputs": [
        {
          "indexed": false,
          "internalType": "address",
          "name": "oldSphereXAdmin",
          "type": "address"
        },
        {
          "indexed": false,
          "internalType": "address",
          "name": "newSphereXAdmin",
          "type": "address"
        }
      ],
      "name": "ChangedSpherexOperator",
      "type": "event"
    },
    {
      "anonymous": false,
      "inputs": [
        {
          "indexed": false,
          "internalType": "address",
          "name": "sender",
          "type": "address"
        }
      ],
      "name": "NewAllowedSenderOnchain",
      "type": "event"
    },
    {
      "anonymous": false,
      "inputs": [
        {
          "indexed": false,
          "internalType": "bytes4[]",
          "name": "patterns",
          "type": "bytes4[]"
        }
      ],
      "name": "RemovedProtectedFuncSigs",
      "type": "event"
    },
    {
      "anonymous": false,
      "inputs": [
        {
          "indexed": false,
          "internalType": "address",
          "name": "oldAdmin",
          "type": "address"
        },
        {
          "indexed": false,
          "internalType": "address",
          "name": "newAdmin",
          "type": "address"
        }
      ],
      "name": "SpherexAdminTransferCompleted",
      "type": "event"
    },
    {
      "anonymous": false,
      "inputs": [
        {
          "indexed": false,
          "internalType": "address",
          "name": "currentAdmin",
          "type": "address"
        },
        {
          "indexed": false,
          "internalType": "address",
          "name": "pendingAdmin",
          "type": "address"
        }
      ],
      "name": "SpherexAdminTransferStarted",
      "type": "event"
    },
    {
      "anonymous": false,
      "inputs": [
        {
          "indexed": true,
          "internalType": "address",
          "name": "implementation",
          "type": "address"
        }
      ],
      "name": "Upgraded",
      "type": "event"
    },
    {
      "stateMutability": "payable",
      "type": "fallback"
    },
    {
      "inputs": [
        {
          "internalType": "address",
          "name": "admin",
          "type": "address"
        },
        {
          "internalType": "address",
          "name": "operator",
          "type": "address"
        },
        {
          "internalType": "address",
          "name": "engine",
          "type": "address"
        },
        {
          "internalType": "address",
          "name": "_logic",
          "type": "address"
        },
        {
          "internalType": "bytes",
          "name": "data",
          "type": "bytes"
        }
      ],
      "name": "__SphereXProtectedSubProXy_init",
      "outputs": [],
      "stateMutability": "nonpayable",
      "type": "function"
    },
    {
      "inputs": [],
      "name": "acceptSphereXAdminRole",
      "outputs": [],
      "stateMutability": "nonpayable",
      "type": "function"
    },
    {
      "inputs": [
        {
          "internalType": "bytes4[]",
          "name": "keys",
          "type": "bytes4[]"
        }
      ],
      "name": "addProtectedFuncSigs",
      "outputs": [],
      "stateMutability": "nonpayable",
      "type": "function"
    },
    {
      "inputs": [
        {
          "internalType": "address",
          "name": "newSphereXEngine",
          "type": "address"
        }
      ],
      "name": "changeSphereXEngine",
      "outputs": [],
      "stateMutability": "nonpayable",
      "type": "function"
    },
    {
      "inputs": [
        {
          "internalType": "address",
          "name": "newSphereXOperator",
          "type": "address"
        }
      ],
      "name": "changeSphereXOperator",
      "outputs": [],
      "stateMutability": "nonpayable",
      "type": "function"
    },
    {
      "inputs": [],
      "name": "isInitialized",
      "outputs": [
        {
          "internalType": "bool",
          "name": "",
          "type": "bool"
        }
      ],
      "stateMutability": "view",
      "type": "function"
    },
    {
      "inputs": [
        {
          "internalType": "bytes4",
          "name": "func_sig",
          "type": "bytes4"
        }
      ],
      "name": "isProtectedFuncSig",
      "outputs": [
        {
          "internalType": "bool",
          "name": "value",
          "type": "bool"
        }
      ],
      "stateMutability": "view",
      "type": "function"
    },
    {
      "inputs": [],
      "name": "pendingSphereXAdmin",
      "outputs": [
        {
          "internalType": "address",
          "name": "",
          "type": "address"
        }
      ],
      "stateMutability": "view",
      "type": "function"
    },
    {
      "inputs": [
        {
          "internalType": "bytes4[]",
          "name": "keys",
          "type": "bytes4[]"
        }
      ],
      "name": "removeProtectedFuncSigs",
      "outputs": [],
      "stateMutability": "nonpayable",
      "type": "function"
    },
    {
      "inputs": [],
      "name": "sphereXAdmin",
      "outputs": [
        {
          "internalType": "address",
          "name": "",
          "type": "address"
        }
      ],
      "stateMutability": "view",
      "type": "function"
    },
    {
      "inputs": [],
      "name": "sphereXEngine",
      "outputs": [
        {
          "internalType": "address",
          "name": "",
          "type": "address"
        }
      ],
      "stateMutability": "view",
      "type": "function"
    },
    {
      "inputs": [],
      "name": "sphereXOperator",
      "outputs": [
        {
          "internalType": "address",
          "name": "",
          "type": "address"
        }
      ],
      "stateMutability": "view",
      "type": "function"
    },
    {
      "inputs": [
        {
          "internalType": "address",
          "name": "newAdmin",
          "type": "address"
        }
      ],
      "name": "transferSphereXAdminRole",
      "outputs": [],
      "stateMutability": "nonpayable",
      "type": "function"
    },
    {
      "stateMutability": "payable",
      "type": "receive"
    }
  ],
  "bytecode": "0x60806040523480156200001157600080fd5b506040516200439438038062004394833981810160405281019062000037919062000ac0565b828282828160008060008282828282828282826200005d838383620000ac60201b60201c565b505050505050505050505050620000796200024860201b60201c565b6200008d828260006200025c60201b60201c565b5050620000a0826200029a60201b60201c565b50505050505062000fd7565b620000f260017fca334bf49ef20e9cbff039feda3bc1c2a853aff17b1b5187e4aa1380ec55829d60001c620000e2919062000b74565b60001b84620002f860201b60201c565b7f67ebaebcd2ca5a91a404e898110f221747e8d15567f2388a34794aab151cf3e66000846040516200012692919062000bc0565b60405180910390a16200017460017fadf90d75f0f2d657d5a22fa0f6e4dabb83c4598b77158eb4119cb38f1d86446360001c62000164919062000b74565b60001b83620002f860201b60201c565b7f2ac55ae7ba47db34b5334622acafeb34a65daf143b47019273185d64c73a35a5600083604051620001a892919062000bc0565b60405180910390a1620001c181620002ff60201b60201c565b6200020760017f1777adabd324f814e2b0e28f6edf876dce01d7d66358c9acfe87b1b5f38338d660001c620001f7919062000b74565b60001b82620002f860201b60201c565b7ff33499cccaa0611882086224cc48cd82ef54b66a4d2edf4ed67108dd516896d56000826040516200023b92919062000bc0565b60405180910390a1505050565b6200025a60016200041b60201b60201c565b565b6200026d836200047e60201b60201c565b6000825111806200027b5750805b156200029557620002938383620004d560201b60201c565b505b505050565b7f7e644d79422f17c01e4894b5f4f588d331ebfa28653d42ae832dc59e38c9798f620002cb6200050b60201b60201c565b82604051620002dc92919062000bc0565b60405180910390a1620002f5816200056a60201b60201c565b50565b8082555050565b600073ffffffffffffffffffffffffffffffffffffffff168173ffffffffffffffffffffffffffffffffffffffff161480620003d657508073ffffffffffffffffffffffffffffffffffffffff166301ffc9a77f53e41baa000000000000000000000000000000000000000000000000000000006040518263ffffffff1660e01b815260040162000391919062000c2a565b602060405180830381865afa158015620003af573d6000803e3d6000fd5b505050506040513d601f19601f82011682018060405250810190620003d5919062000c84565b5b62000418576040517f08c379a00000000000000000000000000000000000000000000000000000000081526004016200040f9062000d3d565b60405180910390fd5b50565b806200046160017fe63726706a35a364d262f7dea3b47d903dc7bcc0181e9d5ddb5f7b87b593cbb560001c62000452919062000b74565b60001b6200065560201b60201c565b60000160006101000a81548160ff02191690831515021790555050565b6200048f816200065f60201b60201c565b8073ffffffffffffffffffffffffffffffffffffffff167fbc7cd75a20ee27fd9adebab32041f755214dbc6bffa90cc0225b39da2e5c2d3b60405160405180910390a250565b60606200050383836040518060600160405280602781526020016200436d602791396200072b60201b60201c565b905092915050565b6000620005417fb53127684a568b3173ae13b9f8a6016e243e63b6e8ee1178d6a717850b5d610360001b620007bd60201b60201c565b60000160009054906101000a900473ffffffffffffffffffffffffffffffffffffffff16905090565b600073ffffffffffffffffffffffffffffffffffffffff168173ffffffffffffffffffffffffffffffffffffffff1603620005dc576040517f08c379a0000000000000000000000000000000000000000000000000000000008152600401620005d39062000dd5565b60405180910390fd5b80620006117fb53127684a568b3173ae13b9f8a6016e243e63b6e8ee1178d6a717850b5d610360001b620007bd60201b60201c565b60000160006101000a81548173ffffffffffffffffffffffffffffffffffffffff021916908373ffffffffffffffffffffffffffffffffffffffff16021790555050565b6000819050919050565b6200067081620007c760201b60201c565b620006b2576040517f08c379a0000000000000000000000000000000000000000000000000000000008152600401620006a99062000e6d565b60405180910390fd5b80620006e77f360894a13ba1a3210667c828492db98dca3e2076cc3735a920a3ca505d382bbc60001b620007bd60201b60201c565b60000160006101000a81548173ffffffffffffffffffffffffffffffffffffffff021916908373ffffffffffffffffffffffffffffffffffffffff16021790555050565b60606000808573ffffffffffffffffffffffffffffffffffffffff168560405162000757919062000edc565b600060405180830381855af49150503d806000811462000794576040519150601f19603f3d011682016040523d82523d6000602084013e62000799565b606091505b5091509150620007b286838387620007ea60201b60201c565b925050509392505050565b6000819050919050565b6000808273ffffffffffffffffffffffffffffffffffffffff163b119050919050565b606083156200085a57600083510362000851576200080e85620007c760201b60201c565b62000850576040517f08c379a0000000000000000000000000000000000000000000000000000000008152600401620008479062000f45565b60405180910390fd5b5b8290506200086d565b6200086c83836200087560201b60201c565b5b949350505050565b600082511115620008895781518083602001fd5b806040517f08c379a0000000000000000000000000000000000000000000000000000000008152600401620008bf919062000fb3565b60405180910390fd5b6000604051905090565b600080fd5b600080fd5b600073ffffffffffffffffffffffffffffffffffffffff82169050919050565b60006200090982620008dc565b9050919050565b6200091b81620008fc565b81146200092757600080fd5b50565b6000815190506200093b8162000910565b92915050565b600080fd5b600080fd5b6000601f19601f8301169050919050565b7f4e487b7100000000000000000000000000000000000000000000000000000000600052604160045260246000fd5b62000996826200094b565b810181811067ffffffffffffffff82111715620009b857620009b76200095c565b5b80604052505050565b6000620009cd620008c8565b9050620009db82826200098b565b919050565b600067ffffffffffffffff821115620009fe57620009fd6200095c565b5b62000a09826200094b565b9050602081019050919050565b60005b8381101562000a3657808201518184015260208101905062000a19565b60008484015250505050565b600062000a5962000a5384620009e0565b620009c1565b90508281526020810184848401111562000a785762000a7762000946565b5b62000a8584828562000a16565b509392505050565b600082601f83011262000aa55762000aa462000941565b5b815162000ab784826020860162000a42565b91505092915050565b60008060006060848603121562000adc5762000adb620008d2565b5b600062000aec868287016200092a565b935050602062000aff868287016200092a565b925050604084015167ffffffffffffffff81111562000b235762000b22620008d7565b5b62000b318682870162000a8d565b9150509250925092565b6000819050919050565b7f4e487b7100000000000000000000000000000000000000000000000000000000600052601160045260246000fd5b600062000b818262000b3b565b915062000b8e8362000b3b565b925082820390508181111562000ba95762000ba862000b45565b5b92915050565b62000bba81620008fc565b82525050565b600060408201905062000bd7600083018562000baf565b62000be6602083018462000baf565b9392505050565b60007fffffffff0000000000000000000000000000000000000000000000000000000082169050919050565b62000c248162000bed565b82525050565b600060208201905062000c41600083018462000c19565b92915050565b60008115159050919050565b62000c5e8162000c47565b811462000c6a57600080fd5b50565b60008151905062000c7e8162000c53565b92915050565b60006020828403121562000c9d5762000c9c620008d2565b5b600062000cad8482850162000c6d565b91505092915050565b600082825260208201905092915050565b7f53706865726558206572726f723a206e6f7420612053706865726558456e676960008201527f6e65000000000000000000000000000000000000000000000000000000000000602082015250565b600062000d2560228362000cb6565b915062000d328262000cc7565b604082019050919050565b6000602082019050818103600083015262000d588162000d16565b9050919050565b7f455243313936373a206e65772061646d696e20697320746865207a65726f206160008201527f6464726573730000000000000000000000000000000000000000000000000000602082015250565b600062000dbd60268362000cb6565b915062000dca8262000d5f565b604082019050919050565b6000602082019050818103600083015262000df08162000dae565b9050919050565b7f455243313936373a206e657720696d706c656d656e746174696f6e206973206e60008201527f6f74206120636f6e747261637400000000000000000000000000000000000000602082015250565b600062000e55602d8362000cb6565b915062000e628262000df7565b604082019050919050565b6000602082019050818103600083015262000e888162000e46565b9050919050565b600081519050919050565b600081905092915050565b600062000eb28262000e8f565b62000ebe818562000e9a565b935062000ed081856020860162000a16565b80840191505092915050565b600062000eea828462000ea5565b915081905092915050565b7f416464726573733a2063616c6c20746f206e6f6e2d636f6e7472616374000000600082015250565b600062000f2d601d8362000cb6565b915062000f3a8262000ef5565b602082019050919050565b6000602082019050818103600083015262000f608162000f1e565b9050919050565b600081519050919050565b600062000f7f8262000f67565b62000f8b818562000cb6565b935062000f9d81856020860162000a16565b62000fa8816200094b565b840191505092915050565b6000602082019050818103600083015262000fcf818462000f72565b905092915050565b6133868062000fe76000396000f3fe6080604052600436106100c65760003560e01c80638426b9681161007f578063a7fdd04711610059578063a7fdd0471461025a578063cc5b745014610283578063daba7ef7146102ac578063e7e5db4f146102d5576100d5565b80638426b968146101ed57806399e80f3b146102045780639aa9019e1461022f576100d5565b8063021a5fe5146100df57806313dd11361461011c578063392e53cd146101455780633c231166146101705780634c6c848f1461019b5780634ee8f858146101c4576100d5565b366100d5576100d3610300565b005b6100dd610300565b005b3480156100eb57600080fd5b5061010660048036038101906101019190612150565b6104d2565b6040516101139190612198565b60405180910390f35b34801561012857600080fd5b50610143600480360381019061013e9190612357565b61053c565b005b34801561015157600080fd5b5061015a6105aa565b6040516101679190612198565b60405180910390f35b34801561017c57600080fd5b506101856105fd565b60405161019291906123fd565b60405180910390f35b3480156101a757600080fd5b506101c260048036038101906101bd9190612418565b61063f565b005b3480156101d057600080fd5b506101eb60048036038101906101e69190612418565b6107a8565b005b3480156101f957600080fd5b50610202610908565b005b34801561021057600080fd5b50610219610a3e565b60405161022691906123fd565b60405180910390f35b34801561023b57600080fd5b50610244610a80565b60405161025191906123fd565b60405180910390f35b34801561026657600080fd5b50610281600480360381019061027c919061250d565b610ac2565b005b34801561028f57600080fd5b506102aa60048036038101906102a5919061250d565b610be7565b005b3480156102b857600080fd5b506102d360048036038101906102ce9190612418565b610d0c565b005b3480156102e157600080fd5b506102ea610e33565b6040516102f791906123fd565b60405180910390f35b610308610a3e565b73ffffffffffffffffffffffffffffffffffffffff163373ffffffffffffffffffffffffffffffffffffffff16036104c7576303430bf860e01b7bffffffffffffffffffffffffffffffffffffffffffffffffffffffff19166000357fffffffff00000000000000000000000000000000000000000000000000000000167bffffffffffffffffffffffffffffffffffffffffffffffffffffffff1916036103dd576000803660049080926103bf93929190612560565b8101906103cc91906125d9565b90506103d781610e75565b506104c2565b634fef73cc60e01b7bffffffffffffffffffffffffffffffffffffffffffffffffffffffff19166000357fffffffff00000000000000000000000000000000000000000000000000000000167bffffffffffffffffffffffffffffffffffffffffffffffffffffffff19160361048657600080600036600490809261046493929190612560565b8101906104719190612606565b9150915061047f8282610eb4565b50506104c1565b6040517f08c379a00000000000000000000000000000000000000000000000000000000081526004016104b89061270b565b60405180910390fd5b5b6104d0565b6104cf610f0a565b5b565b6000808260017f9a7afc584486ebd3e91191a9ac2c2e986b3aaa4084656fc915fe0843ff009c6b60001c6105069190612764565b60001b60405160200161051a9291906127e4565b6040516020818303038152906040528051906020012090508054915050919050565b6105446105aa565b15610584576040517f08c379a000000000000000000000000000000000000000000000000000000000815260040161057b90612882565b60405180910390fd5b61058e6001611186565b6105998585856111df565b6105a38282610eb4565b5050505050565b60006105e760017fe63726706a35a364d262f7dea3b47d903dc7bcc0181e9d5ddb5f7b87b593cbb560001c6105df9190612764565b60001b61134f565b60000160009054906101000a900460ff16905090565b600061063a60017f1777adabd324f814e2b0e28f6edf876dce01d7d66358c9acfe87b1b5f38338d660001c6106329190612764565b60001b611359565b905090565b61067a60017fadf90d75f0f2d657d5a22fa0f6e4dabb83c4598b77158eb4119cb38f1d86446360001c6106729190612764565b60001b611359565b73ffffffffffffffffffffffffffffffffffffffff163373ffffffffffffffffffffffffffffffffffffffff16146106e7576040517f08c379a00000000000000000000000000000000000000000000000000000000081526004016106de906128ee565b60405180910390fd5b6106f081611364565b600061072d60017f1777adabd324f814e2b0e28f6edf876dce01d7d66358c9acfe87b1b5f38338d660001c6107259190612764565b60001b611359565b905061076b60017f1777adabd324f814e2b0e28f6edf876dce01d7d66358c9acfe87b1b5f38338d660001c6107629190612764565b60001b83611477565b7ff33499cccaa0611882086224cc48cd82ef54b66a4d2edf4ed67108dd516896d5818360405161079c92919061290e565b60405180910390a15050565b6107e360017fca334bf49ef20e9cbff039feda3bc1c2a853aff17b1b5187e4aa1380ec55829d60001c6107db9190612764565b60001b611359565b73ffffffffffffffffffffffffffffffffffffffff163373ffffffffffffffffffffffffffffffffffffffff1614610850576040517f08c379a000000000000000000000000000000000000000000000000000000000815260040161084790612983565b60405180910390fd5b600061088d60017fadf90d75f0f2d657d5a22fa0f6e4dabb83c4598b77158eb4119cb38f1d86446360001c6108859190612764565b60001b611359565b90506108cb60017fadf90d75f0f2d657d5a22fa0f6e4dabb83c4598b77158eb4119cb38f1d86446360001c6108c29190612764565b60001b83611477565b7f2ac55ae7ba47db34b5334622acafeb34a65daf143b47019273185d64c73a35a581836040516108fc92919061290e565b60405180910390a15050565b3373ffffffffffffffffffffffffffffffffffffffff16610927610a80565b73ffffffffffffffffffffffffffffffffffffffff161461097d576040517f08c379a000000000000000000000000000000000000000000000000000000000815260040161097490612a15565b60405180910390fd5b6000610987610a3e565b90506109c560017fca334bf49ef20e9cbff039feda3bc1c2a853aff17b1b5187e4aa1380ec55829d60001c6109bc9190612764565b60001b33611477565b610a0260017f3a517dd736309b905c692160a21b5439bdc56db1dc77d6982b66d44814e3fa9760001c6109f89190612764565b60001b6000611477565b7f67ebaebcd2ca5a91a404e898110f221747e8d15567f2388a34794aab151cf3e68133604051610a3392919061290e565b60405180910390a150565b6000610a7b60017fca334bf49ef20e9cbff039feda3bc1c2a853aff17b1b5187e4aa1380ec55829d60001c610a739190612764565b60001b611359565b905090565b6000610abd60017f3a517dd736309b905c692160a21b5439bdc56db1dc77d6982b66d44814e3fa9760001c610ab59190612764565b60001b611359565b905090565b610afd60017fadf90d75f0f2d657d5a22fa0f6e4dabb83c4598b77158eb4119cb38f1d86446360001c610af59190612764565b60001b611359565b73ffffffffffffffffffffffffffffffffffffffff163373ffffffffffffffffffffffffffffffffffffffff1614610b6a576040517f08c379a0000000000000000000000000000000000000000000000000000000008152600401610b61906128ee565b60405180910390fd5b60005b8151811015610bac57610b9b828281518110610b8c57610b8b612a35565b5b6020026020010151600061147e565b80610ba590612a64565b9050610b6d565b507f754b9f3148ad4cf227ecdf9a64810fa2d0b8682a2de15dfad5310a12b7281a5f81604051610bdc9190612b6a565b60405180910390a150565b610c2260017fadf90d75f0f2d657d5a22fa0f6e4dabb83c4598b77158eb4119cb38f1d86446360001c610c1a9190612764565b60001b611359565b73ffffffffffffffffffffffffffffffffffffffff163373ffffffffffffffffffffffffffffffffffffffff1614610c8f576040517f08c379a0000000000000000000000000000000000000000000000000000000008152600401610c86906128ee565b60405180910390fd5b60005b8151811015610cd157610cc0828281518110610cb157610cb0612a35565b5b6020026020010151600161147e565b80610cca90612a64565b9050610c92565b507f45fc6a4de33dfc2fa6f40e48f353bf7ff006086db3ecf80c077f788082cc7d5a81604051610d019190612b6a565b60405180910390a150565b610d4760017fca334bf49ef20e9cbff039feda3bc1c2a853aff17b1b5187e4aa1380ec55829d60001c610d3f9190612764565b60001b611359565b73ffffffffffffffffffffffffffffffffffffffff163373ffffffffffffffffffffffffffffffffffffffff1614610db4576040517f08c379a0000000000000000000000000000000000000000000000000000000008152600401610dab90612983565b60405180910390fd5b610df060017f3a517dd736309b905c692160a21b5439bdc56db1dc77d6982b66d44814e3fa9760001c610de79190612764565b60001b82611477565b7f5778f1547abbbb86090a43c32aec38334b31df4beeb6f8f3fa063f593b53a526610e19610a3e565b82604051610e2892919061290e565b60405180910390a150565b6000610e7060017fadf90d75f0f2d657d5a22fa0f6e4dabb83c4598b77158eb4119cb38f1d86446360001c610e689190612764565b60001b611359565b905090565b610eb160017f3fa91f2555a723d9492031a1ea7e19bafb88d46accb27838b1930ba6a3553a4060001c610ea89190612764565b60001b82611477565b50565b610ef060017f3fa91f2555a723d9492031a1ea7e19bafb88d46accb27838b1930ba6a3553a4060001c610ee79190612764565b60001b83611477565b600081511115610f0657610f0482826114e5565b505b5050565b610f12611512565b73ffffffffffffffffffffffffffffffffffffffff163373ffffffffffffffffffffffffffffffffffffffff160361117c576060600080357fffffffff00000000000000000000000000000000000000000000000000000000169050633659cfe660e01b7bffffffffffffffffffffffffffffffffffffffffffffffffffffffff1916817bffffffffffffffffffffffffffffffffffffffffffffffffffffffff191603610fc957610fc2611569565b9150611174565b634f1ef28660e01b7bffffffffffffffffffffffffffffffffffffffffffffffffffffffff1916817bffffffffffffffffffffffffffffffffffffffffffffffffffffffff1916036110245761101d6115c8565b9150611173565b638f28397060e01b7bffffffffffffffffffffffffffffffffffffffffffffffffffffffff1916817bffffffffffffffffffffffffffffffffffffffffffffffffffffffff19160361107f57611078611615565b9150611172565b63f851a44060e01b7bffffffffffffffffffffffffffffffffffffffffffffffffffffffff1916817bffffffffffffffffffffffffffffffffffffffffffffffffffffffff1916036110da576110d3611662565b9150611171565b635c60da1b60e01b7bffffffffffffffffffffffffffffffffffffffffffffffffffffffff1916817bffffffffffffffffffffffffffffffffffffffffffffffffffffffff1916036111355761112e61169e565b9150611170565b6040517f08c379a000000000000000000000000000000000000000000000000000000000815260040161116790612c24565b60405180910390fd5b5b5b5b5b815160208301f35b6111846116da565b565b806111c260017fe63726706a35a364d262f7dea3b47d903dc7bcc0181e9d5ddb5f7b87b593cbb560001c6111ba9190612764565b60001b61134f565b60000160006101000a81548160ff02191690831515021790555050565b61121b60017fca334bf49ef20e9cbff039feda3bc1c2a853aff17b1b5187e4aa1380ec55829d60001c6112129190612764565b60001b84611477565b7f67ebaebcd2ca5a91a404e898110f221747e8d15567f2388a34794aab151cf3e660008460405161124d92919061290e565b60405180910390a161129160017fadf90d75f0f2d657d5a22fa0f6e4dabb83c4598b77158eb4119cb38f1d86446360001c6112889190612764565b60001b83611477565b7f2ac55ae7ba47db34b5334622acafeb34a65daf143b47019273185d64c73a35a56000836040516112c392919061290e565b60405180910390a16112d481611364565b61131060017f1777adabd324f814e2b0e28f6edf876dce01d7d66358c9acfe87b1b5f38338d660001c6113079190612764565b60001b82611477565b7ff33499cccaa0611882086224cc48cd82ef54b66a4d2edf4ed67108dd516896d560008260405161134292919061290e565b60405180910390a1505050565b6000819050919050565b600081549050919050565b600073ffffffffffffffffffffffffffffffffffffffff168173ffffffffffffffffffffffffffffffffffffffff16148061143557508073ffffffffffffffffffffffffffffffffffffffff166301ffc9a77f53e41baa000000000000000000000000000000000000000000000000000000006040518263ffffffff1660e01b81526004016113f39190612c53565b602060405180830381865afa158015611410573d6000803e3d6000fd5b505050506040513d601f19601f820116820180604052508101906114349190612c9a565b5b611474576040517f08c379a000000000000000000000000000000000000000000000000000000000815260040161146b90612d39565b60405180910390fd5b50565b8082555050565b60008260017f9a7afc584486ebd3e91191a9ac2c2e986b3aaa4084656fc915fe0843ff009c6b60001c6114b19190612764565b60001b6040516020016114c59291906127e4565b604051602081830303815290604052805190602001209050818155505050565b606061150a838360405180606001604052806027815260200161332a602791396116f4565b905092915050565b60006115407fb53127684a568b3173ae13b9f8a6016e243e63b6e8ee1178d6a717850b5d610360001b61177a565b60000160009054906101000a900473ffffffffffffffffffffffffffffffffffffffff16905090565b6060611573611784565b60008036600490809261158893929190612560565b81019061159591906125d9565b90506115b281604051806020016040528060008152506000611793565b6040518060200160405280600081525091505090565b606060008060003660049080926115e193929190612560565b8101906115ee9190612606565b915091506115fe82826001611793565b604051806020016040528060008152509250505090565b606061161f611784565b60008036600490809261163493929190612560565b81019061164191906125d9565b905061164c816117bf565b6040518060200160405280600081525091505090565b606061166c611784565b6000611676611512565b90508060405160200161168991906123fd565b60405160208183030381529060405291505090565b60606116a8611784565b60006116b261180b565b9050806040516020016116c591906123fd565b60405160208183030381529060405291505090565b6116e261181a565b6116f26116ed61180b565b61181c565b565b60606000808573ffffffffffffffffffffffffffffffffffffffff168560405161171e9190612dca565b600060405180830381855af49150503d8060008114611759576040519150601f19603f3d011682016040523d82523d6000602084013e61175e565b606091505b509150915061176f86838387611828565b925050509392505050565b6000819050919050565b6000341461179157600080fd5b565b61179c8361189d565b6000825111806117a95750805b156117ba576117b883836114e5565b505b505050565b7f7e644d79422f17c01e4894b5f4f588d331ebfa28653d42ae832dc59e38c9798f6117e8611512565b826040516117f792919061290e565b60405180910390a1611808816118ec565b50565b60006118156119cc565b905090565b565b61182581611a0e565b50565b6060831561188a5760008351036118825761184285611a66565b611881576040517f08c379a000000000000000000000000000000000000000000000000000000000815260040161187890612e2d565b60405180910390fd5b5b829050611895565b6118948383611a89565b5b949350505050565b6118a681611ad9565b8073ffffffffffffffffffffffffffffffffffffffff167fbc7cd75a20ee27fd9adebab32041f755214dbc6bffa90cc0225b39da2e5c2d3b60405160405180910390a250565b600073ffffffffffffffffffffffffffffffffffffffff168173ffffffffffffffffffffffffffffffffffffffff160361195b576040517f08c379a000000000000000000000000000000000000000000000000000000000815260040161195290612ebf565b60405180910390fd5b806119887fb53127684a568b3173ae13b9f8a6016e243e63b6e8ee1178d6a717850b5d610360001b61177a565b60000160006101000a81548173ffffffffffffffffffffffffffffffffffffffff021916908373ffffffffffffffffffffffffffffffffffffffff16021790555050565b6000611a0960017f3fa91f2555a723d9492031a1ea7e19bafb88d46accb27838b1930ba6a3553a4060001c611a019190612764565b60001b611359565b905090565b611a3b6000357fffffffff00000000000000000000000000000000000000000000000000000000166104d2565b15611a5a576000611a4b82611b92565b90506000815190508060208301f35b611a6381611c3e565b50565b6000808273ffffffffffffffffffffffffffffffffffffffff163b119050919050565b600082511115611a9c5781518083602001fd5b806040517f08c379a0000000000000000000000000000000000000000000000000000000008152600401611ad09190612f23565b60405180910390fd5b611ae281611a66565b611b21576040517f08c379a0000000000000000000000000000000000000000000000000000000008152600401611b1890612fb7565b60405180910390fd5b80611b4e7f360894a13ba1a3210667c828492db98dca3e2076cc3735a920a3ca505d382bbc60001b61177a565b60000160006101000a81548173ffffffffffffffffffffffffffffffffffffffff021916908373ffffffffffffffffffffffffffffffffffffffff16021790555050565b60606000357fffffffff000000000000000000000000000000000000000000000000000000001660e01c63ffffffff166000611bcf826001611c64565b9050611c20846000368080601f016020809104026020016040519081016040528093929190818152602001838380828437600081840152601f19601f820116905080830192505050505050506114e5565b9250611c3782611c2f90612fe1565b600183611e38565b5050919050565b3660008037600080366000845af43d6000803e8060008114611c5f573d6000f35b3d6000fd5b611c6c6120a6565b600073ffffffffffffffffffffffffffffffffffffffff16611c8c611f9f565b73ffffffffffffffffffffffffffffffffffffffff160315611e32576000611cb2611f9f565b90508215611d4f578073ffffffffffffffffffffffffffffffffffffffff16638925ca5a85336000366040518563ffffffff1660e01b8152600401611cfa9493929190613076565b6000604051808303816000875af1158015611d19573d6000803e3d6000fd5b505050506040513d6000823e3d601f19601f82011682018060405250810190611d4291906131a5565b8260000181905250611dd9565b8073ffffffffffffffffffffffffffffffffffffffff16633e884943856040518263ffffffff1660e01b8152600401611d8891906131ee565b6000604051808303816000875af1158015611da7573d6000803e3d6000fd5b505050506040513d6000823e3d601f19601f82011682018060405250810190611dd091906131a5565b82600001819052505b611de68260000151611fe1565b82602001819052505a82604001818152505080826060019073ffffffffffffffffffffffffffffffffffffffff16908173ffffffffffffffffffffffffffffffffffffffff1681525050505b92915050565b600081606001519050600073ffffffffffffffffffffffffffffffffffffffff168173ffffffffffffffffffffffffffffffffffffffff1603611e7b5750611f9a565b60005a8360400151611e8d9190612764565b90506060611e9e8460000151611fe1565b90508415611f20578273ffffffffffffffffffffffffffffffffffffffff1663f0bd946887848760200151856040518563ffffffff1660e01b8152600401611ee994939291906132d6565b600060405180830381600087803b158015611f0357600080fd5b505af1158015611f17573d6000803e3d6000fd5b50505050611f96565b8273ffffffffffffffffffffffffffffffffffffffff166304e6279a87848760200151856040518563ffffffff1660e01b8152600401611f6394939291906132d6565b600060405180830381600087803b158015611f7d57600080fd5b505af1158015611f91573d6000803e3d6000fd5b505050505b5050505b505050565b6000611fdc60017f1777adabd324f814e2b0e28f6edf876dce01d7d66358c9acfe87b1b5f38338d660001c611fd49190612764565b60001b611359565b905090565b606060008251905060008167ffffffffffffffff8111156120055761200461222c565b5b6040519080825280602002602001820160405280156120335781602001602082028036833780820191505090505b50905060005b8281101561209b57600085828151811061205657612055612a35565b5b602002602001015190506000815490508084848151811061207a57612079612a35565b5b6020026020010181815250505050808061209390612a64565b915050612039565b508092505050919050565b6040518060800160405280606081526020016060815260200160008152602001600073ffffffffffffffffffffffffffffffffffffffff1681525090565b6000604051905090565b600080fd5b600080fd5b60007fffffffff0000000000000000000000000000000000000000000000000000000082169050919050565b61212d816120f8565b811461213857600080fd5b50565b60008135905061214a81612124565b92915050565b600060208284031215612166576121656120ee565b5b60006121748482850161213b565b91505092915050565b60008115159050919050565b6121928161217d565b82525050565b60006020820190506121ad6000830184612189565b92915050565b600073ffffffffffffffffffffffffffffffffffffffff82169050919050565b60006121de826121b3565b9050919050565b6121ee816121d3565b81146121f957600080fd5b50565b60008135905061220b816121e5565b92915050565b600080fd5b600080fd5b6000601f19601f8301169050919050565b7f4e487b7100000000000000000000000000000000000000000000000000000000600052604160045260246000fd5b6122648261221b565b810181811067ffffffffffffffff821117156122835761228261222c565b5b80604052505050565b60006122966120e4565b90506122a2828261225b565b919050565b600067ffffffffffffffff8211156122c2576122c161222c565b5b6122cb8261221b565b9050602081019050919050565b82818337600083830152505050565b60006122fa6122f5846122a7565b61228c565b90508281526020810184848401111561231657612315612216565b5b6123218482856122d8565b509392505050565b600082601f83011261233e5761233d612211565b5b813561234e8482602086016122e7565b91505092915050565b600080600080600060a08688031215612373576123726120ee565b5b6000612381888289016121fc565b9550506020612392888289016121fc565b94505060406123a3888289016121fc565b93505060606123b4888289016121fc565b925050608086013567ffffffffffffffff8111156123d5576123d46120f3565b5b6123e188828901612329565b9150509295509295909350565b6123f7816121d3565b82525050565b600060208201905061241260008301846123ee565b92915050565b60006020828403121561242e5761242d6120ee565b5b600061243c848285016121fc565b91505092915050565b600067ffffffffffffffff8211156124605761245f61222c565b5b602082029050602081019050919050565b600080fd5b600061248961248484612445565b61228c565b905080838252602082019050602084028301858111156124ac576124ab612471565b5b835b818110156124d557806124c1888261213b565b8452602084019350506020810190506124ae565b5050509392505050565b600082601f8301126124f4576124f3612211565b5b8135612504848260208601612476565b91505092915050565b600060208284031215612523576125226120ee565b5b600082013567ffffffffffffffff811115612541576125406120f3565b5b61254d848285016124df565b91505092915050565b600080fd5b600080fd5b6000808585111561257457612573612556565b5b838611156125855761258461255b565b5b6001850283019150848603905094509492505050565b60006125a6826121b3565b9050919050565b6125b68161259b565b81146125c157600080fd5b50565b6000813590506125d3816125ad565b92915050565b6000602082840312156125ef576125ee6120ee565b5b60006125fd848285016125c4565b91505092915050565b6000806040838503121561261d5761261c6120ee565b5b600061262b858286016125c4565b925050602083013567ffffffffffffffff81111561264c5761264b6120f3565b5b61265885828601612329565b9150509250929050565b600082825260208201905092915050565b7f50726f7465637465645472616e73706172656e745570677261646561626c655360008201527f756250726f78793a2061646d696e2063616e6e6f742066616c6c6261636b207460208201527f6f207375622d70726f7879207461726765740000000000000000000000000000604082015250565b60006126f5605283612662565b915061270082612673565b606082019050919050565b60006020820190508181036000830152612724816126e8565b9050919050565b6000819050919050565b7f4e487b7100000000000000000000000000000000000000000000000000000000600052601160045260246000fd5b600061276f8261272b565b915061277a8361272b565b925082820390508181111561279257612791612735565b5b92915050565b6000819050919050565b6127b36127ae826120f8565b612798565b82525050565b6000819050919050565b6000819050919050565b6127de6127d9826127b9565b6127c3565b82525050565b60006127f082856127a2565b60048201915061280082846127cd565b6020820191508190509392505050565b7f53706865726558496e697469616c697a61626c653a20636f6e7472616374206960008201527f7320616c726561647920696e697469616c697a65640000000000000000000000602082015250565b600061286c603583612662565b915061287782612810565b604082019050919050565b6000602082019050818103600083015261289b8161285f565b9050919050565b7f53706865726558206572726f723a206f70657261746f72207265717569726564600082015250565b60006128d8602083612662565b91506128e3826128a2565b602082019050919050565b60006020820190508181036000830152612907816128cb565b9050919050565b600060408201905061292360008301856123ee565b61293060208301846123ee565b9392505050565b7f53706865726558206572726f723a2061646d696e207265717569726564000000600082015250565b600061296d601d83612662565b915061297882612937565b602082019050919050565b6000602082019050818103600083015261299c81612960565b9050919050565b7f53706865726558206572726f723a206e6f74207468652070656e64696e67206160008201527f63636f756e740000000000000000000000000000000000000000000000000000602082015250565b60006129ff602683612662565b9150612a0a826129a3565b604082019050919050565b60006020820190508181036000830152612a2e816129f2565b9050919050565b7f4e487b7100000000000000000000000000000000000000000000000000000000600052603260045260246000fd5b6000612a6f8261272b565b91507fffffffffffffffffffffffffffffffffffffffffffffffffffffffffffffffff8203612aa157612aa0612735565b5b600182019050919050565b600081519050919050565b600082825260208201905092915050565b6000819050602082019050919050565b612ae1816120f8565b82525050565b6000612af38383612ad8565b60208301905092915050565b6000602082019050919050565b6000612b1782612aac565b612b218185612ab7565b9350612b2c83612ac8565b8060005b83811015612b5d578151612b448882612ae7565b9750612b4f83612aff565b925050600181019050612b30565b5085935050505092915050565b60006020820190508181036000830152612b848184612b0c565b905092915050565b7f5472616e73706172656e745570677261646561626c6550726f78793a2061646d60008201527f696e2063616e6e6f742066616c6c6261636b20746f2070726f7879207461726760208201527f6574000000000000000000000000000000000000000000000000000000000000604082015250565b6000612c0e604283612662565b9150612c1982612b8c565b606082019050919050565b60006020820190508181036000830152612c3d81612c01565b9050919050565b612c4d816120f8565b82525050565b6000602082019050612c686000830184612c44565b92915050565b612c778161217d565b8114612c8257600080fd5b50565b600081519050612c9481612c6e565b92915050565b600060208284031215612cb057612caf6120ee565b5b6000612cbe84828501612c85565b91505092915050565b7f53706865726558206572726f723a206e6f7420612053706865726558456e676960008201527f6e65000000000000000000000000000000000000000000000000000000000000602082015250565b6000612d23602283612662565b9150612d2e82612cc7565b604082019050919050565b60006020820190508181036000830152612d5281612d16565b9050919050565b600081519050919050565b600081905092915050565b60005b83811015612d8d578082015181840152602081019050612d72565b60008484015250505050565b6000612da482612d59565b612dae8185612d64565b9350612dbe818560208601612d6f565b80840191505092915050565b6000612dd68284612d99565b915081905092915050565b7f416464726573733a2063616c6c20746f206e6f6e2d636f6e7472616374000000600082015250565b6000612e17601d83612662565b9150612e2282612de1565b602082019050919050565b60006020820190508181036000830152612e4681612e0a565b9050919050565b7f455243313936373a206e65772061646d696e20697320746865207a65726f206160008201527f6464726573730000000000000000000000000000000000000000000000000000602082015250565b6000612ea9602683612662565b9150612eb482612e4d565b604082019050919050565b60006020820190508181036000830152612ed881612e9c565b9050919050565b600081519050919050565b6000612ef582612edf565b612eff8185612662565b9350612f0f818560208601612d6f565b612f188161221b565b840191505092915050565b60006020820190508181036000830152612f3d8184612eea565b905092915050565b7f455243313936373a206e657720696d706c656d656e746174696f6e206973206e60008201527f6f74206120636f6e747261637400000000000000000000000000000000000000602082015250565b6000612fa1602d83612662565b9150612fac82612f45565b604082019050919050565b60006020820190508181036000830152612fd081612f94565b9050919050565b6000819050919050565b6000612fec82612fd7565b91507f8000000000000000000000000000000000000000000000000000000000000000820361301e5761301d612735565b5b816000039050919050565b61303281612fd7565b82525050565b600082825260208201905092915050565b60006130558385613038565b93506130628385846122d8565b61306b8361221b565b840190509392505050565b600060608201905061308b6000830187613029565b61309860208301866123ee565b81810360408301526130ab818486613049565b905095945050505050565b600067ffffffffffffffff8211156130d1576130d061222c565b5b602082029050602081019050919050565b6130eb816127b9565b81146130f657600080fd5b50565b600081519050613108816130e2565b92915050565b600061312161311c846130b6565b61228c565b9050808382526020820190506020840283018581111561314457613143612471565b5b835b8181101561316d578061315988826130f9565b845260208401935050602081019050613146565b5050509392505050565b600082601f83011261318c5761318b612211565b5b815161319c84826020860161310e565b91505092915050565b6000602082840312156131bb576131ba6120ee565b5b600082015167ffffffffffffffff8111156131d9576131d86120f3565b5b6131e584828501613177565b91505092915050565b60006020820190506132036000830184613029565b92915050565b6132128161272b565b82525050565b600081519050919050565b600082825260208201905092915050565b6000819050602082019050919050565b61324d816127b9565b82525050565b600061325f8383613244565b60208301905092915050565b6000602082019050919050565b600061328382613218565b61328d8185613223565b935061329883613234565b8060005b838110156132c95781516132b08882613253565b97506132bb8361326b565b92505060018101905061329c565b5085935050505092915050565b60006080820190506132eb6000830187613029565b6132f86020830186613209565b818103604083015261330a8185613278565b9050818103606083015261331e8184613278565b90509594505050505056fe416464726573733a206c6f772d6c6576656c2064656c65676174652063616c6c206661696c6564a26469706673582212203acf7460124eb9364ec7a901068f16e72e5731da0b06bc26286bcbb66709236764736f6c63430008130033416464726573733a206c6f772d6c6576656c2064656c65676174652063616c6c206661696c6564",
  "linkReferences": {},
  "deployedLinkReferences": {}
}