{
  "_format": "hh-sol-artifact-1",
  "contractName": "ProtectedTransparentUpgradeableSubProxy",
  "sourceName": "src/ProtectedProxies/ProtectedTransparentUpgradeableSubProxy.sol",
  "abi": [
    {
      "inputs": [
        {
          "internalType": "address",
          "name": "_logic",
          "type": "address"
        },
        {
          "internalType": "address",
          "name": "admin_",
          "type": "address"
        },
        {
          "internalType": "bytes",
          "name": "_data",
          "type": "bytes"
        }
      ],
      "stateMutability": "nonpayable",
      "type": "constructor"
    },
    {
      "anonymous": false,
      "inputs": [
        {
          "indexed": false,
          "internalType": "bytes4[]",
          "name": "patterns",
          "type": "bytes4[]"
        }
      ],
      "name": "AddedProtectedFuncSigs",
      "type": "event"
    },
    {
      "anonymous": false,
      "inputs": [
        {
          "indexed": false,
          "internalType": "address",
          "name": "previousAdmin",
          "type": "address"
        },
        {
          "indexed": false,
          "internalType": "address",
          "name": "newAdmin",
          "type": "address"
        }
      ],
      "name": "AdminChanged",
      "type": "event"
    },
    {
      "anonymous": false,
      "inputs": [
        {
          "indexed": true,
          "internalType": "address",
          "name": "beacon",
          "type": "address"
        }
      ],
      "name": "BeaconUpgraded",
      "type": "event"
    },
    {
      "anonymous": false,
      "inputs": [
        {
          "indexed": false,
          "internalType": "address",
          "name": "oldEngineAddress",
          "type": "address"
        },
        {
          "indexed": false,
          "internalType": "address",
          "name": "newEngineAddress",
          "type": "address"
        }
      ],
      "name": "ChangedSpherexEngineAddress",
      "type": "event"
    },
    {
      "anonymous": false,
      "inputs": [
        {
          "indexed": false,
          "internalType": "address",
          "name": "oldSphereXAdmin",
          "type": "address"
        },
        {
          "indexed": false,
          "internalType": "address",
          "name": "newSphereXAdmin",
          "type": "address"
        }
      ],
      "name": "ChangedSpherexOperator",
      "type": "event"
    },
    {
      "anonymous": false,
      "inputs": [
        {
          "indexed": false,
          "internalType": "address",
          "name": "sender",
          "type": "address"
        }
      ],
      "name": "NewAllowedSenderOnchain",
      "type": "event"
    },
    {
      "anonymous": false,
      "inputs": [
        {
          "indexed": false,
          "internalType": "bytes4[]",
          "name": "patterns",
          "type": "bytes4[]"
        }
      ],
      "name": "RemovedProtectedFuncSigs",
      "type": "event"
    },
    {
      "anonymous": false,
      "inputs": [
        {
          "indexed": false,
          "internalType": "address",
          "name": "oldAdmin",
          "type": "address"
        },
        {
          "indexed": false,
          "internalType": "address",
          "name": "newAdmin",
          "type": "address"
        }
      ],
      "name": "SpherexAdminTransferCompleted",
      "type": "event"
    },
    {
      "anonymous": false,
      "inputs": [
        {
          "indexed": false,
          "internalType": "address",
          "name": "currentAdmin",
          "type": "address"
        },
        {
          "indexed": false,
          "internalType": "address",
          "name": "pendingAdmin",
          "type": "address"
        }
      ],
      "name": "SpherexAdminTransferStarted",
      "type": "event"
    },
    {
      "anonymous": false,
      "inputs": [
        {
          "indexed": true,
          "internalType": "address",
          "name": "implementation",
          "type": "address"
        }
      ],
      "name": "Upgraded",
      "type": "event"
    },
    {
      "stateMutability": "payable",
      "type": "fallback"
    },
    {
      "inputs": [
        {
          "internalType": "address",
          "name": "admin",
          "type": "address"
        },
        {
          "internalType": "address",
          "name": "operator",
          "type": "address"
        },
        {
          "internalType": "address",
          "name": "engine",
          "type": "address"
        },
        {
          "internalType": "address",
          "name": "_logic",
          "type": "address"
        },
        {
          "internalType": "bytes",
          "name": "data",
          "type": "bytes"
        }
      ],
      "name": "__SphereXProtectedSubProXy_init",
      "outputs": [],
      "stateMutability": "nonpayable",
      "type": "function"
    },
    {
      "inputs": [],
      "name": "acceptSphereXAdminRole",
      "outputs": [],
      "stateMutability": "nonpayable",
      "type": "function"
    },
    {
      "inputs": [
        {
          "internalType": "bytes4[]",
          "name": "keys",
          "type": "bytes4[]"
        }
      ],
      "name": "addProtectedFuncSigs",
      "outputs": [],
      "stateMutability": "nonpayable",
      "type": "function"
    },
    {
      "inputs": [
        {
          "internalType": "address",
          "name": "newSphereXEngine",
          "type": "address"
        }
      ],
      "name": "changeSphereXEngine",
      "outputs": [],
      "stateMutability": "nonpayable",
      "type": "function"
    },
    {
      "inputs": [
        {
          "internalType": "address",
          "name": "newSphereXOperator",
          "type": "address"
        }
      ],
      "name": "changeSphereXOperator",
      "outputs": [],
      "stateMutability": "nonpayable",
      "type": "function"
    },
    {
      "inputs": [],
      "name": "isInitialized",
      "outputs": [
        {
          "internalType": "bool",
          "name": "",
          "type": "bool"
        }
      ],
      "stateMutability": "view",
      "type": "function"
    },
    {
      "inputs": [
        {
          "internalType": "bytes4",
          "name": "func_sig",
          "type": "bytes4"
        }
      ],
      "name": "isProtectedFuncSig",
      "outputs": [
        {
          "internalType": "bool",
          "name": "value",
          "type": "bool"
        }
      ],
      "stateMutability": "view",
      "type": "function"
    },
    {
      "inputs": [],
      "name": "pendingSphereXAdmin",
      "outputs": [
        {
          "internalType": "address",
          "name": "",
          "type": "address"
        }
      ],
      "stateMutability": "view",
      "type": "function"
    },
    {
      "inputs": [
        {
          "internalType": "bytes4[]",
          "name": "keys",
          "type": "bytes4[]"
        }
      ],
      "name": "removeProtectedFuncSigs",
      "outputs": [],
      "stateMutability": "nonpayable",
      "type": "function"
    },
    {
      "inputs": [],
      "name": "sphereXAdmin",
      "outputs": [
        {
          "internalType": "address",
          "name": "",
          "type": "address"
        }
      ],
      "stateMutability": "view",
      "type": "function"
    },
    {
      "inputs": [],
      "name": "sphereXEngine",
      "outputs": [
        {
          "internalType": "address",
          "name": "",
          "type": "address"
        }
      ],
      "stateMutability": "view",
      "type": "function"
    },
    {
      "inputs": [],
      "name": "sphereXOperator",
      "outputs": [
        {
          "internalType": "address",
          "name": "",
          "type": "address"
        }
      ],
      "stateMutability": "view",
      "type": "function"
    },
    {
      "inputs": [
        {
          "internalType": "address",
          "name": "newAdmin",
          "type": "address"
        }
      ],
      "name": "transferSphereXAdminRole",
      "outputs": [],
      "stateMutability": "nonpayable",
      "type": "function"
    },
    {
      "stateMutability": "payable",
      "type": "receive"
    }
  ],
  "bytecode": "0x60806040523480156200001157600080fd5b506040516200433e3803806200433e833981810160405281019062000037919062000aba565b828282828160008060008282828282826200005a838383620000a660201b60201c565b505050505050505050620000736200024260201b60201c565b62000087828260006200025660201b60201c565b50506200009a826200029460201b60201c565b50505050505062000fd1565b620000ec60017fca334bf49ef20e9cbff039feda3bc1c2a853aff17b1b5187e4aa1380ec55829d60001c620000dc919062000b6e565b60001b84620002f260201b60201c565b7f67ebaebcd2ca5a91a404e898110f221747e8d15567f2388a34794aab151cf3e66000846040516200012092919062000bba565b60405180910390a16200016e60017fadf90d75f0f2d657d5a22fa0f6e4dabb83c4598b77158eb4119cb38f1d86446360001c6200015e919062000b6e565b60001b83620002f260201b60201c565b7f2ac55ae7ba47db34b5334622acafeb34a65daf143b47019273185d64c73a35a5600083604051620001a292919062000bba565b60405180910390a1620001bb81620002f960201b60201c565b6200020160017f1777adabd324f814e2b0e28f6edf876dce01d7d66358c9acfe87b1b5f38338d660001c620001f1919062000b6e565b60001b82620002f260201b60201c565b7ff33499cccaa0611882086224cc48cd82ef54b66a4d2edf4ed67108dd516896d56000826040516200023592919062000bba565b60405180910390a1505050565b6200025460016200041560201b60201c565b565b62000267836200047860201b60201c565b600082511180620002755750805b156200028f576200028d8383620004cf60201b60201c565b505b505050565b7f7e644d79422f17c01e4894b5f4f588d331ebfa28653d42ae832dc59e38c9798f620002c56200050560201b60201c565b82604051620002d692919062000bba565b60405180910390a1620002ef816200056460201b60201c565b50565b8082555050565b600073ffffffffffffffffffffffffffffffffffffffff168173ffffffffffffffffffffffffffffffffffffffff161480620003d057508073ffffffffffffffffffffffffffffffffffffffff166301ffc9a77f53e41baa000000000000000000000000000000000000000000000000000000006040518263ffffffff1660e01b81526004016200038b919062000c24565b602060405180830381865afa158015620003a9573d6000803e3d6000fd5b505050506040513d601f19601f82011682018060405250810190620003cf919062000c7e565b5b62000412576040517f08c379a0000000000000000000000000000000000000000000000000000000008152600401620004099062000d37565b60405180910390fd5b50565b806200045b60017fe63726706a35a364d262f7dea3b47d903dc7bcc0181e9d5ddb5f7b87b593cbb560001c6200044c919062000b6e565b60001b6200064f60201b60201c565b60000160006101000a81548160ff02191690831515021790555050565b62000489816200065960201b60201c565b8073ffffffffffffffffffffffffffffffffffffffff167fbc7cd75a20ee27fd9adebab32041f755214dbc6bffa90cc0225b39da2e5c2d3b60405160405180910390a250565b6060620004fd838360405180606001604052806027815260200162004317602791396200072560201b60201c565b905092915050565b60006200053b7fb53127684a568b3173ae13b9f8a6016e243e63b6e8ee1178d6a717850b5d610360001b620007b760201b60201c565b60000160009054906101000a900473ffffffffffffffffffffffffffffffffffffffff16905090565b600073ffffffffffffffffffffffffffffffffffffffff168173ffffffffffffffffffffffffffffffffffffffff1603620005d6576040517f08c379a0000000000000000000000000000000000000000000000000000000008152600401620005cd9062000dcf565b60405180910390fd5b806200060b7fb53127684a568b3173ae13b9f8a6016e243e63b6e8ee1178d6a717850b5d610360001b620007b760201b60201c565b60000160006101000a81548173ffffffffffffffffffffffffffffffffffffffff021916908373ffffffffffffffffffffffffffffffffffffffff16021790555050565b6000819050919050565b6200066a81620007c160201b60201c565b620006ac576040517f08c379a0000000000000000000000000000000000000000000000000000000008152600401620006a39062000e67565b60405180910390fd5b80620006e17f360894a13ba1a3210667c828492db98dca3e2076cc3735a920a3ca505d382bbc60001b620007b760201b60201c565b60000160006101000a81548173ffffffffffffffffffffffffffffffffffffffff021916908373ffffffffffffffffffffffffffffffffffffffff16021790555050565b60606000808573ffffffffffffffffffffffffffffffffffffffff168560405162000751919062000ed6565b600060405180830381855af49150503d80600081146200078e576040519150601f19603f3d011682016040523d82523d6000602084013e62000793565b606091505b5091509150620007ac86838387620007e460201b60201c565b925050509392505050565b6000819050919050565b6000808273ffffffffffffffffffffffffffffffffffffffff163b119050919050565b60608315620008545760008351036200084b576200080885620007c160201b60201c565b6200084a576040517f08c379a0000000000000000000000000000000000000000000000000000000008152600401620008419062000f3f565b60405180910390fd5b5b82905062000867565b6200086683836200086f60201b60201c565b5b949350505050565b600082511115620008835781518083602001fd5b806040517f08c379a0000000000000000000000000000000000000000000000000000000008152600401620008b9919062000fad565b60405180910390fd5b6000604051905090565b600080fd5b600080fd5b600073ffffffffffffffffffffffffffffffffffffffff82169050919050565b60006200090382620008d6565b9050919050565b6200091581620008f6565b81146200092157600080fd5b50565b60008151905062000935816200090a565b92915050565b600080fd5b600080fd5b6000601f19601f8301169050919050565b7f4e487b7100000000000000000000000000000000000000000000000000000000600052604160045260246000fd5b620009908262000945565b810181811067ffffffffffffffff82111715620009b257620009b162000956565b5b80604052505050565b6000620009c7620008c2565b9050620009d5828262000985565b919050565b600067ffffffffffffffff821115620009f857620009f762000956565b5b62000a038262000945565b9050602081019050919050565b60005b8381101562000a3057808201518184015260208101905062000a13565b60008484015250505050565b600062000a5362000a4d84620009da565b620009bb565b90508281526020810184848401111562000a725762000a7162000940565b5b62000a7f84828562000a10565b509392505050565b600082601f83011262000a9f5762000a9e6200093b565b5b815162000ab184826020860162000a3c565b91505092915050565b60008060006060848603121562000ad65762000ad5620008cc565b5b600062000ae68682870162000924565b935050602062000af98682870162000924565b925050604084015167ffffffffffffffff81111562000b1d5762000b1c620008d1565b5b62000b2b8682870162000a87565b9150509250925092565b6000819050919050565b7f4e487b7100000000000000000000000000000000000000000000000000000000600052601160045260246000fd5b600062000b7b8262000b35565b915062000b888362000b35565b925082820390508181111562000ba35762000ba262000b3f565b5b92915050565b62000bb481620008f6565b82525050565b600060408201905062000bd1600083018562000ba9565b62000be0602083018462000ba9565b9392505050565b60007fffffffff0000000000000000000000000000000000000000000000000000000082169050919050565b62000c1e8162000be7565b82525050565b600060208201905062000c3b600083018462000c13565b92915050565b60008115159050919050565b62000c588162000c41565b811462000c6457600080fd5b50565b60008151905062000c788162000c4d565b92915050565b60006020828403121562000c975762000c96620008cc565b5b600062000ca78482850162000c67565b91505092915050565b600082825260208201905092915050565b7f53706865726558206572726f723a206e6f7420612053706865726558456e676960008201527f6e65000000000000000000000000000000000000000000000000000000000000602082015250565b600062000d1f60228362000cb0565b915062000d2c8262000cc1565b604082019050919050565b6000602082019050818103600083015262000d528162000d10565b9050919050565b7f455243313936373a206e65772061646d696e20697320746865207a65726f206160008201527f6464726573730000000000000000000000000000000000000000000000000000602082015250565b600062000db760268362000cb0565b915062000dc48262000d59565b604082019050919050565b6000602082019050818103600083015262000dea8162000da8565b9050919050565b7f455243313936373a206e657720696d706c656d656e746174696f6e206973206e60008201527f6f74206120636f6e747261637400000000000000000000000000000000000000602082015250565b600062000e4f602d8362000cb0565b915062000e5c8262000df1565b604082019050919050565b6000602082019050818103600083015262000e828162000e40565b9050919050565b600081519050919050565b600081905092915050565b600062000eac8262000e89565b62000eb8818562000e94565b935062000eca81856020860162000a10565b80840191505092915050565b600062000ee4828462000e9f565b915081905092915050565b7f416464726573733a2063616c6c20746f206e6f6e2d636f6e7472616374000000600082015250565b600062000f27601d8362000cb0565b915062000f348262000eef565b602082019050919050565b6000602082019050818103600083015262000f5a8162000f18565b9050919050565b600081519050919050565b600062000f798262000f61565b62000f85818562000cb0565b935062000f9781856020860162000a10565b62000fa28162000945565b840191505092915050565b6000602082019050818103600083015262000fc9818462000f6c565b905092915050565b6133368062000fe16000396000f3fe6080604052600436106100c65760003560e01c80638426b9681161007f578063a7fdd04711610059578063a7fdd0471461025a578063cc5b745014610283578063daba7ef7146102ac578063e7e5db4f146102d5576100d5565b80638426b968146101ed57806399e80f3b146102045780639aa9019e1461022f576100d5565b8063021a5fe5146100df57806313dd11361461011c578063392e53cd146101455780633c231166146101705780634c6c848f1461019b5780634ee8f858146101c4576100d5565b366100d5576100d3610300565b005b6100dd610300565b005b3480156100eb57600080fd5b5061010660048036038101906101019190612100565b6104d2565b6040516101139190612148565b60405180910390f35b34801561012857600080fd5b50610143600480360381019061013e9190612307565b61053c565b005b34801561015157600080fd5b5061015a6105aa565b6040516101679190612148565b60405180910390f35b34801561017c57600080fd5b506101856105fd565b60405161019291906123ad565b60405180910390f35b3480156101a757600080fd5b506101c260048036038101906101bd91906123c8565b61063f565b005b3480156101d057600080fd5b506101eb60048036038101906101e691906123c8565b6107a8565b005b3480156101f957600080fd5b50610202610908565b005b34801561021057600080fd5b50610219610a3e565b60405161022691906123ad565b60405180910390f35b34801561023b57600080fd5b50610244610a80565b60405161025191906123ad565b60405180910390f35b34801561026657600080fd5b50610281600480360381019061027c91906124bd565b610ac2565b005b34801561028f57600080fd5b506102aa60048036038101906102a591906124bd565b610be7565b005b3480156102b857600080fd5b506102d360048036038101906102ce91906123c8565b610d0c565b005b3480156102e157600080fd5b506102ea610e33565b6040516102f791906123ad565b60405180910390f35b610308610a3e565b73ffffffffffffffffffffffffffffffffffffffff163373ffffffffffffffffffffffffffffffffffffffff16036104c7576303430bf860e01b7bffffffffffffffffffffffffffffffffffffffffffffffffffffffff19166000357fffffffff00000000000000000000000000000000000000000000000000000000167bffffffffffffffffffffffffffffffffffffffffffffffffffffffff1916036103dd576000803660049080926103bf93929190612510565b8101906103cc9190612589565b90506103d781610e75565b506104c2565b634fef73cc60e01b7bffffffffffffffffffffffffffffffffffffffffffffffffffffffff19166000357fffffffff00000000000000000000000000000000000000000000000000000000167bffffffffffffffffffffffffffffffffffffffffffffffffffffffff19160361048657600080600036600490809261046493929190612510565b81019061047191906125b6565b9150915061047f8282610eb4565b50506104c1565b6040517f08c379a00000000000000000000000000000000000000000000000000000000081526004016104b8906126bb565b60405180910390fd5b5b6104d0565b6104cf610f0a565b5b565b6000808260017f9a7afc584486ebd3e91191a9ac2c2e986b3aaa4084656fc915fe0843ff009c6b60001c6105069190612714565b60001b60405160200161051a929190612794565b6040516020818303038152906040528051906020012090508054915050919050565b6105446105aa565b15610584576040517f08c379a000000000000000000000000000000000000000000000000000000000815260040161057b90612832565b60405180910390fd5b61058e6001611186565b6105998585856111df565b6105a38282610eb4565b5050505050565b60006105e760017fe63726706a35a364d262f7dea3b47d903dc7bcc0181e9d5ddb5f7b87b593cbb560001c6105df9190612714565b60001b61134f565b60000160009054906101000a900460ff16905090565b600061063a60017f1777adabd324f814e2b0e28f6edf876dce01d7d66358c9acfe87b1b5f38338d660001c6106329190612714565b60001b611359565b905090565b61067a60017fadf90d75f0f2d657d5a22fa0f6e4dabb83c4598b77158eb4119cb38f1d86446360001c6106729190612714565b60001b611359565b73ffffffffffffffffffffffffffffffffffffffff163373ffffffffffffffffffffffffffffffffffffffff16146106e7576040517f08c379a00000000000000000000000000000000000000000000000000000000081526004016106de9061289e565b60405180910390fd5b6106f081611364565b600061072d60017f1777adabd324f814e2b0e28f6edf876dce01d7d66358c9acfe87b1b5f38338d660001c6107259190612714565b60001b611359565b905061076b60017f1777adabd324f814e2b0e28f6edf876dce01d7d66358c9acfe87b1b5f38338d660001c6107629190612714565b60001b83611477565b7ff33499cccaa0611882086224cc48cd82ef54b66a4d2edf4ed67108dd516896d5818360405161079c9291906128be565b60405180910390a15050565b6107e360017fca334bf49ef20e9cbff039feda3bc1c2a853aff17b1b5187e4aa1380ec55829d60001c6107db9190612714565b60001b611359565b73ffffffffffffffffffffffffffffffffffffffff163373ffffffffffffffffffffffffffffffffffffffff1614610850576040517f08c379a000000000000000000000000000000000000000000000000000000000815260040161084790612933565b60405180910390fd5b600061088d60017fadf90d75f0f2d657d5a22fa0f6e4dabb83c4598b77158eb4119cb38f1d86446360001c6108859190612714565b60001b611359565b90506108cb60017fadf90d75f0f2d657d5a22fa0f6e4dabb83c4598b77158eb4119cb38f1d86446360001c6108c29190612714565b60001b83611477565b7f2ac55ae7ba47db34b5334622acafeb34a65daf143b47019273185d64c73a35a581836040516108fc9291906128be565b60405180910390a15050565b3373ffffffffffffffffffffffffffffffffffffffff16610927610a80565b73ffffffffffffffffffffffffffffffffffffffff161461097d576040517f08c379a0000000000000000000000000000000000000000000000000000000008152600401610974906129c5565b60405180910390fd5b6000610987610a3e565b90506109c560017fca334bf49ef20e9cbff039feda3bc1c2a853aff17b1b5187e4aa1380ec55829d60001c6109bc9190612714565b60001b33611477565b610a0260017f3a517dd736309b905c692160a21b5439bdc56db1dc77d6982b66d44814e3fa9760001c6109f89190612714565b60001b6000611477565b7f67ebaebcd2ca5a91a404e898110f221747e8d15567f2388a34794aab151cf3e68133604051610a339291906128be565b60405180910390a150565b6000610a7b60017fca334bf49ef20e9cbff039feda3bc1c2a853aff17b1b5187e4aa1380ec55829d60001c610a739190612714565b60001b611359565b905090565b6000610abd60017f3a517dd736309b905c692160a21b5439bdc56db1dc77d6982b66d44814e3fa9760001c610ab59190612714565b60001b611359565b905090565b610afd60017fadf90d75f0f2d657d5a22fa0f6e4dabb83c4598b77158eb4119cb38f1d86446360001c610af59190612714565b60001b611359565b73ffffffffffffffffffffffffffffffffffffffff163373ffffffffffffffffffffffffffffffffffffffff1614610b6a576040517f08c379a0000000000000000000000000000000000000000000000000000000008152600401610b619061289e565b60405180910390fd5b60005b8151811015610bac57610b9b828281518110610b8c57610b8b6129e5565b5b6020026020010151600061147e565b80610ba590612a14565b9050610b6d565b507f754b9f3148ad4cf227ecdf9a64810fa2d0b8682a2de15dfad5310a12b7281a5f81604051610bdc9190612b1a565b60405180910390a150565b610c2260017fadf90d75f0f2d657d5a22fa0f6e4dabb83c4598b77158eb4119cb38f1d86446360001c610c1a9190612714565b60001b611359565b73ffffffffffffffffffffffffffffffffffffffff163373ffffffffffffffffffffffffffffffffffffffff1614610c8f576040517f08c379a0000000000000000000000000000000000000000000000000000000008152600401610c869061289e565b60405180910390fd5b60005b8151811015610cd157610cc0828281518110610cb157610cb06129e5565b5b6020026020010151600161147e565b80610cca90612a14565b9050610c92565b507f45fc6a4de33dfc2fa6f40e48f353bf7ff006086db3ecf80c077f788082cc7d5a81604051610d019190612b1a565b60405180910390a150565b610d4760017fca334bf49ef20e9cbff039feda3bc1c2a853aff17b1b5187e4aa1380ec55829d60001c610d3f9190612714565b60001b611359565b73ffffffffffffffffffffffffffffffffffffffff163373ffffffffffffffffffffffffffffffffffffffff1614610db4576040517f08c379a0000000000000000000000000000000000000000000000000000000008152600401610dab90612933565b60405180910390fd5b610df060017f3a517dd736309b905c692160a21b5439bdc56db1dc77d6982b66d44814e3fa9760001c610de79190612714565b60001b82611477565b7f5778f1547abbbb86090a43c32aec38334b31df4beeb6f8f3fa063f593b53a526610e19610a3e565b82604051610e289291906128be565b60405180910390a150565b6000610e7060017fadf90d75f0f2d657d5a22fa0f6e4dabb83c4598b77158eb4119cb38f1d86446360001c610e689190612714565b60001b611359565b905090565b610eb160017f3fa91f2555a723d9492031a1ea7e19bafb88d46accb27838b1930ba6a3553a4060001c610ea89190612714565b60001b82611477565b50565b610ef060017f3fa91f2555a723d9492031a1ea7e19bafb88d46accb27838b1930ba6a3553a4060001c610ee79190612714565b60001b83611477565b600081511115610f0657610f0482826114e5565b505b5050565b610f12611512565b73ffffffffffffffffffffffffffffffffffffffff163373ffffffffffffffffffffffffffffffffffffffff160361117c576060600080357fffffffff00000000000000000000000000000000000000000000000000000000169050633659cfe660e01b7bffffffffffffffffffffffffffffffffffffffffffffffffffffffff1916817bffffffffffffffffffffffffffffffffffffffffffffffffffffffff191603610fc957610fc2611569565b9150611174565b634f1ef28660e01b7bffffffffffffffffffffffffffffffffffffffffffffffffffffffff1916817bffffffffffffffffffffffffffffffffffffffffffffffffffffffff1916036110245761101d6115c8565b9150611173565b638f28397060e01b7bffffffffffffffffffffffffffffffffffffffffffffffffffffffff1916817bffffffffffffffffffffffffffffffffffffffffffffffffffffffff19160361107f57611078611615565b9150611172565b63f851a44060e01b7bffffffffffffffffffffffffffffffffffffffffffffffffffffffff1916817bffffffffffffffffffffffffffffffffffffffffffffffffffffffff1916036110da576110d3611662565b9150611171565b635c60da1b60e01b7bffffffffffffffffffffffffffffffffffffffffffffffffffffffff1916817bffffffffffffffffffffffffffffffffffffffffffffffffffffffff1916036111355761112e61169e565b9150611170565b6040517f08c379a000000000000000000000000000000000000000000000000000000000815260040161116790612bd4565b60405180910390fd5b5b5b5b5b815160208301f35b6111846116da565b565b806111c260017fe63726706a35a364d262f7dea3b47d903dc7bcc0181e9d5ddb5f7b87b593cbb560001c6111ba9190612714565b60001b61134f565b60000160006101000a81548160ff02191690831515021790555050565b61121b60017fca334bf49ef20e9cbff039feda3bc1c2a853aff17b1b5187e4aa1380ec55829d60001c6112129190612714565b60001b84611477565b7f67ebaebcd2ca5a91a404e898110f221747e8d15567f2388a34794aab151cf3e660008460405161124d9291906128be565b60405180910390a161129160017fadf90d75f0f2d657d5a22fa0f6e4dabb83c4598b77158eb4119cb38f1d86446360001c6112889190612714565b60001b83611477565b7f2ac55ae7ba47db34b5334622acafeb34a65daf143b47019273185d64c73a35a56000836040516112c39291906128be565b60405180910390a16112d481611364565b61131060017f1777adabd324f814e2b0e28f6edf876dce01d7d66358c9acfe87b1b5f38338d660001c6113079190612714565b60001b82611477565b7ff33499cccaa0611882086224cc48cd82ef54b66a4d2edf4ed67108dd516896d56000826040516113429291906128be565b60405180910390a1505050565b6000819050919050565b600081549050919050565b600073ffffffffffffffffffffffffffffffffffffffff168173ffffffffffffffffffffffffffffffffffffffff16148061143557508073ffffffffffffffffffffffffffffffffffffffff166301ffc9a77f53e41baa000000000000000000000000000000000000000000000000000000006040518263ffffffff1660e01b81526004016113f39190612c03565b602060405180830381865afa158015611410573d6000803e3d6000fd5b505050506040513d601f19601f820116820180604052508101906114349190612c4a565b5b611474576040517f08c379a000000000000000000000000000000000000000000000000000000000815260040161146b90612ce9565b60405180910390fd5b50565b8082555050565b60008260017f9a7afc584486ebd3e91191a9ac2c2e986b3aaa4084656fc915fe0843ff009c6b60001c6114b19190612714565b60001b6040516020016114c5929190612794565b604051602081830303815290604052805190602001209050818155505050565b606061150a83836040518060600160405280602781526020016132da602791396116f4565b905092915050565b60006115407fb53127684a568b3173ae13b9f8a6016e243e63b6e8ee1178d6a717850b5d610360001b61177a565b60000160009054906101000a900473ffffffffffffffffffffffffffffffffffffffff16905090565b6060611573611784565b60008036600490809261158893929190612510565b8101906115959190612589565b90506115b281604051806020016040528060008152506000611793565b6040518060200160405280600081525091505090565b606060008060003660049080926115e193929190612510565b8101906115ee91906125b6565b915091506115fe82826001611793565b604051806020016040528060008152509250505090565b606061161f611784565b60008036600490809261163493929190612510565b8101906116419190612589565b905061164c816117bf565b6040518060200160405280600081525091505090565b606061166c611784565b6000611676611512565b90508060405160200161168991906123ad565b60405160208183030381529060405291505090565b60606116a8611784565b60006116b261180b565b9050806040516020016116c591906123ad565b60405160208183030381529060405291505090565b6116e261181a565b6116f26116ed61180b565b61181c565b565b60606000808573ffffffffffffffffffffffffffffffffffffffff168560405161171e9190612d7a565b600060405180830381855af49150503d8060008114611759576040519150601f19603f3d011682016040523d82523d6000602084013e61175e565b606091505b509150915061176f86838387611828565b925050509392505050565b6000819050919050565b6000341461179157600080fd5b565b61179c8361189d565b6000825111806117a95750805b156117ba576117b883836114e5565b505b505050565b7f7e644d79422f17c01e4894b5f4f588d331ebfa28653d42ae832dc59e38c9798f6117e8611512565b826040516117f79291906128be565b60405180910390a1611808816118ec565b50565b60006118156119cc565b905090565b565b61182581611a0e565b50565b6060831561188a5760008351036118825761184285611a66565b611881576040517f08c379a000000000000000000000000000000000000000000000000000000000815260040161187890612ddd565b60405180910390fd5b5b829050611895565b6118948383611a89565b5b949350505050565b6118a681611ad9565b8073ffffffffffffffffffffffffffffffffffffffff167fbc7cd75a20ee27fd9adebab32041f755214dbc6bffa90cc0225b39da2e5c2d3b60405160405180910390a250565b600073ffffffffffffffffffffffffffffffffffffffff168173ffffffffffffffffffffffffffffffffffffffff160361195b576040517f08c379a000000000000000000000000000000000000000000000000000000000815260040161195290612e6f565b60405180910390fd5b806119887fb53127684a568b3173ae13b9f8a6016e243e63b6e8ee1178d6a717850b5d610360001b61177a565b60000160006101000a81548173ffffffffffffffffffffffffffffffffffffffff021916908373ffffffffffffffffffffffffffffffffffffffff16021790555050565b6000611a0960017f3fa91f2555a723d9492031a1ea7e19bafb88d46accb27838b1930ba6a3553a4060001c611a019190612714565b60001b611359565b905090565b611a3b6000357fffffffff00000000000000000000000000000000000000000000000000000000166104d2565b15611a5a576000611a4b82611b92565b90506000815190508060208301f35b611a6381611c3e565b50565b6000808273ffffffffffffffffffffffffffffffffffffffff163b119050919050565b600082511115611a9c5781518083602001fd5b806040517f08c379a0000000000000000000000000000000000000000000000000000000008152600401611ad09190612ed3565b60405180910390fd5b611ae281611a66565b611b21576040517f08c379a0000000000000000000000000000000000000000000000000000000008152600401611b1890612f67565b60405180910390fd5b80611b4e7f360894a13ba1a3210667c828492db98dca3e2076cc3735a920a3ca505d382bbc60001b61177a565b60000160006101000a81548173ffffffffffffffffffffffffffffffffffffffff021916908373ffffffffffffffffffffffffffffffffffffffff16021790555050565b60606000357fffffffff000000000000000000000000000000000000000000000000000000001660e01c63ffffffff166000611bcf826001611c64565b9050611c20846000368080601f016020809104026020016040519081016040528093929190818152602001838380828437600081840152601f19601f820116905080830192505050505050506114e5565b9250611c3782611c2f90612f91565b600183611e00565b5050919050565b3660008037600080366000845af43d6000803e8060008114611c5f573d6000f35b3d6000fd5b611c6c612073565b600073ffffffffffffffffffffffffffffffffffffffff16611c8c611f6c565b73ffffffffffffffffffffffffffffffffffffffff160315611dfa576000611cb2611f6c565b90508215611d4f578073ffffffffffffffffffffffffffffffffffffffff16638925ca5a85336000366040518563ffffffff1660e01b8152600401611cfa9493929190613026565b6000604051808303816000875af1158015611d19573d6000803e3d6000fd5b505050506040513d6000823e3d601f19601f82011682018060405250810190611d429190613155565b8260000181905250611dd9565b8073ffffffffffffffffffffffffffffffffffffffff16633e884943856040518263ffffffff1660e01b8152600401611d88919061319e565b6000604051808303816000875af1158015611da7573d6000803e3d6000fd5b505050506040513d6000823e3d601f19601f82011682018060405250810190611dd09190613155565b82600001819052505b611de68260000151611fae565b82602001819052505a826040018181525050505b92915050565b600073ffffffffffffffffffffffffffffffffffffffff16611e20611f6c565b73ffffffffffffffffffffffffffffffffffffffff160315611f675760005a8260400151611e4e9190612714565b90506000611e5a611f6c565b90506060611e6b8460000151611fae565b90508415611eed578173ffffffffffffffffffffffffffffffffffffffff1663f0bd946887858760200151856040518563ffffffff1660e01b8152600401611eb69493929190613286565b600060405180830381600087803b158015611ed057600080fd5b505af1158015611ee4573d6000803e3d6000fd5b50505050611f63565b8173ffffffffffffffffffffffffffffffffffffffff166304e6279a87858760200151856040518563ffffffff1660e01b8152600401611f309493929190613286565b600060405180830381600087803b158015611f4a57600080fd5b505af1158015611f5e573d6000803e3d6000fd5b505050505b5050505b505050565b6000611fa960017f1777adabd324f814e2b0e28f6edf876dce01d7d66358c9acfe87b1b5f38338d660001c611fa19190612714565b60001b611359565b905090565b606060008251905060008167ffffffffffffffff811115611fd257611fd16121dc565b5b6040519080825280602002602001820160405280156120005781602001602082028036833780820191505090505b50905060005b82811015612068576000858281518110612023576120226129e5565b5b6020026020010151905060008154905080848481518110612047576120466129e5565b5b6020026020010181815250505050808061206090612a14565b915050612006565b508092505050919050565b60405180606001604052806060815260200160608152602001600081525090565b6000604051905090565b600080fd5b600080fd5b60007fffffffff0000000000000000000000000000000000000000000000000000000082169050919050565b6120dd816120a8565b81146120e857600080fd5b50565b6000813590506120fa816120d4565b92915050565b6000602082840312156121165761211561209e565b5b6000612124848285016120eb565b91505092915050565b60008115159050919050565b6121428161212d565b82525050565b600060208201905061215d6000830184612139565b92915050565b600073ffffffffffffffffffffffffffffffffffffffff82169050919050565b600061218e82612163565b9050919050565b61219e81612183565b81146121a957600080fd5b50565b6000813590506121bb81612195565b92915050565b600080fd5b600080fd5b6000601f19601f8301169050919050565b7f4e487b7100000000000000000000000000000000000000000000000000000000600052604160045260246000fd5b612214826121cb565b810181811067ffffffffffffffff82111715612233576122326121dc565b5b80604052505050565b6000612246612094565b9050612252828261220b565b919050565b600067ffffffffffffffff821115612272576122716121dc565b5b61227b826121cb565b9050602081019050919050565b82818337600083830152505050565b60006122aa6122a584612257565b61223c565b9050828152602081018484840111156122c6576122c56121c6565b5b6122d1848285612288565b509392505050565b600082601f8301126122ee576122ed6121c1565b5b81356122fe848260208601612297565b91505092915050565b600080600080600060a086880312156123235761232261209e565b5b6000612331888289016121ac565b9550506020612342888289016121ac565b9450506040612353888289016121ac565b9350506060612364888289016121ac565b925050608086013567ffffffffffffffff811115612385576123846120a3565b5b612391888289016122d9565b9150509295509295909350565b6123a781612183565b82525050565b60006020820190506123c2600083018461239e565b92915050565b6000602082840312156123de576123dd61209e565b5b60006123ec848285016121ac565b91505092915050565b600067ffffffffffffffff8211156124105761240f6121dc565b5b602082029050602081019050919050565b600080fd5b6000612439612434846123f5565b61223c565b9050808382526020820190506020840283018581111561245c5761245b612421565b5b835b81811015612485578061247188826120eb565b84526020840193505060208101905061245e565b5050509392505050565b600082601f8301126124a4576124a36121c1565b5b81356124b4848260208601612426565b91505092915050565b6000602082840312156124d3576124d261209e565b5b600082013567ffffffffffffffff8111156124f1576124f06120a3565b5b6124fd8482850161248f565b91505092915050565b600080fd5b600080fd5b6000808585111561252457612523612506565b5b838611156125355761253461250b565b5b6001850283019150848603905094509492505050565b600061255682612163565b9050919050565b6125668161254b565b811461257157600080fd5b50565b6000813590506125838161255d565b92915050565b60006020828403121561259f5761259e61209e565b5b60006125ad84828501612574565b91505092915050565b600080604083850312156125cd576125cc61209e565b5b60006125db85828601612574565b925050602083013567ffffffffffffffff8111156125fc576125fb6120a3565b5b612608858286016122d9565b9150509250929050565b600082825260208201905092915050565b7f50726f7465637465645472616e73706172656e745570677261646561626c655360008201527f756250726f78793a2061646d696e2063616e6e6f742066616c6c6261636b207460208201527f6f207375622d70726f7879207461726765740000000000000000000000000000604082015250565b60006126a5605283612612565b91506126b082612623565b606082019050919050565b600060208201905081810360008301526126d481612698565b9050919050565b6000819050919050565b7f4e487b7100000000000000000000000000000000000000000000000000000000600052601160045260246000fd5b600061271f826126db565b915061272a836126db565b9250828203905081811115612742576127416126e5565b5b92915050565b6000819050919050565b61276361275e826120a8565b612748565b82525050565b6000819050919050565b6000819050919050565b61278e61278982612769565b612773565b82525050565b60006127a08285612752565b6004820191506127b0828461277d565b6020820191508190509392505050565b7f53706865726558496e697469616c697a61626c653a20636f6e7472616374206960008201527f7320616c726561647920696e697469616c697a65640000000000000000000000602082015250565b600061281c603583612612565b9150612827826127c0565b604082019050919050565b6000602082019050818103600083015261284b8161280f565b9050919050565b7f53706865726558206572726f723a206f70657261746f72207265717569726564600082015250565b6000612888602083612612565b915061289382612852565b602082019050919050565b600060208201905081810360008301526128b78161287b565b9050919050565b60006040820190506128d3600083018561239e565b6128e0602083018461239e565b9392505050565b7f53706865726558206572726f723a2061646d696e207265717569726564000000600082015250565b600061291d601d83612612565b9150612928826128e7565b602082019050919050565b6000602082019050818103600083015261294c81612910565b9050919050565b7f53706865726558206572726f723a206e6f74207468652070656e64696e67206160008201527f63636f756e740000000000000000000000000000000000000000000000000000602082015250565b60006129af602683612612565b91506129ba82612953565b604082019050919050565b600060208201905081810360008301526129de816129a2565b9050919050565b7f4e487b7100000000000000000000000000000000000000000000000000000000600052603260045260246000fd5b6000612a1f826126db565b91507fffffffffffffffffffffffffffffffffffffffffffffffffffffffffffffffff8203612a5157612a506126e5565b5b600182019050919050565b600081519050919050565b600082825260208201905092915050565b6000819050602082019050919050565b612a91816120a8565b82525050565b6000612aa38383612a88565b60208301905092915050565b6000602082019050919050565b6000612ac782612a5c565b612ad18185612a67565b9350612adc83612a78565b8060005b83811015612b0d578151612af48882612a97565b9750612aff83612aaf565b925050600181019050612ae0565b5085935050505092915050565b60006020820190508181036000830152612b348184612abc565b905092915050565b7f5472616e73706172656e745570677261646561626c6550726f78793a2061646d60008201527f696e2063616e6e6f742066616c6c6261636b20746f2070726f7879207461726760208201527f6574000000000000000000000000000000000000000000000000000000000000604082015250565b6000612bbe604283612612565b9150612bc982612b3c565b606082019050919050565b60006020820190508181036000830152612bed81612bb1565b9050919050565b612bfd816120a8565b82525050565b6000602082019050612c186000830184612bf4565b92915050565b612c278161212d565b8114612c3257600080fd5b50565b600081519050612c4481612c1e565b92915050565b600060208284031215612c6057612c5f61209e565b5b6000612c6e84828501612c35565b91505092915050565b7f53706865726558206572726f723a206e6f7420612053706865726558456e676960008201527f6e65000000000000000000000000000000000000000000000000000000000000602082015250565b6000612cd3602283612612565b9150612cde82612c77565b604082019050919050565b60006020820190508181036000830152612d0281612cc6565b9050919050565b600081519050919050565b600081905092915050565b60005b83811015612d3d578082015181840152602081019050612d22565b60008484015250505050565b6000612d5482612d09565b612d5e8185612d14565b9350612d6e818560208601612d1f565b80840191505092915050565b6000612d868284612d49565b915081905092915050565b7f416464726573733a2063616c6c20746f206e6f6e2d636f6e7472616374000000600082015250565b6000612dc7601d83612612565b9150612dd282612d91565b602082019050919050565b60006020820190508181036000830152612df681612dba565b9050919050565b7f455243313936373a206e65772061646d696e20697320746865207a65726f206160008201527f6464726573730000000000000000000000000000000000000000000000000000602082015250565b6000612e59602683612612565b9150612e6482612dfd565b604082019050919050565b60006020820190508181036000830152612e8881612e4c565b9050919050565b600081519050919050565b6000612ea582612e8f565b612eaf8185612612565b9350612ebf818560208601612d1f565b612ec8816121cb565b840191505092915050565b60006020820190508181036000830152612eed8184612e9a565b905092915050565b7f455243313936373a206e657720696d706c656d656e746174696f6e206973206e60008201527f6f74206120636f6e747261637400000000000000000000000000000000000000602082015250565b6000612f51602d83612612565b9150612f5c82612ef5565b604082019050919050565b60006020820190508181036000830152612f8081612f44565b9050919050565b6000819050919050565b6000612f9c82612f87565b91507f80000000000000000000000000000000000000000000000000000000000000008203612fce57612fcd6126e5565b5b816000039050919050565b612fe281612f87565b82525050565b600082825260208201905092915050565b60006130058385612fe8565b9350613012838584612288565b61301b836121cb565b840190509392505050565b600060608201905061303b6000830187612fd9565b613048602083018661239e565b818103604083015261305b818486612ff9565b905095945050505050565b600067ffffffffffffffff821115613081576130806121dc565b5b602082029050602081019050919050565b61309b81612769565b81146130a657600080fd5b50565b6000815190506130b881613092565b92915050565b60006130d16130cc84613066565b61223c565b905080838252602082019050602084028301858111156130f4576130f3612421565b5b835b8181101561311d578061310988826130a9565b8452602084019350506020810190506130f6565b5050509392505050565b600082601f83011261313c5761313b6121c1565b5b815161314c8482602086016130be565b91505092915050565b60006020828403121561316b5761316a61209e565b5b600082015167ffffffffffffffff811115613189576131886120a3565b5b61319584828501613127565b91505092915050565b60006020820190506131b36000830184612fd9565b92915050565b6131c2816126db565b82525050565b600081519050919050565b600082825260208201905092915050565b6000819050602082019050919050565b6131fd81612769565b82525050565b600061320f83836131f4565b60208301905092915050565b6000602082019050919050565b6000613233826131c8565b61323d81856131d3565b9350613248836131e4565b8060005b838110156132795781516132608882613203565b975061326b8361321b565b92505060018101905061324c565b5085935050505092915050565b600060808201905061329b6000830187612fd9565b6132a860208301866131b9565b81810360408301526132ba8185613228565b905081810360608301526132ce8184613228565b90509594505050505056fe416464726573733a206c6f772d6c6576656c2064656c65676174652063616c6c206661696c6564a264697066735822122006960d89f18a37495344367697fd3ba8ecab41ca7d41976ee6cc31735422b29464736f6c63430008130033416464726573733a206c6f772d6c6576656c2064656c65676174652063616c6c206661696c6564",
  "linkReferences": {},
  "deployedLinkReferences": {}
}