{
  "_format": "hh-sol-artifact-1",
  "contractName": "SphereXEngine",
  "sourceName": "src/SphereXEngine.sol",
  "abi": [
    {
      "inputs": [],
      "stateMutability": "nonpayable",
      "type": "constructor"
    },
    {
      "anonymous": false,
      "inputs": [
        {
          "indexed": false,
          "internalType": "uint216[]",
          "name": "patterns",
          "type": "uint216[]"
        }
      ],
      "name": "AddedAllowedPatterns",
      "type": "event"
    },
    {
      "anonymous": false,
      "inputs": [
        {
          "indexed": false,
          "internalType": "address",
          "name": "sender",
          "type": "address"
        }
      ],
      "name": "AddedAllowedSenderOnchain",
      "type": "event"
    },
    {
      "anonymous": false,
      "inputs": [
        {
          "indexed": false,
          "internalType": "address[]",
          "name": "senders",
          "type": "address[]"
        }
      ],
      "name": "AddedAllowedSenders",
      "type": "event"
    },
    {
      "anonymous": false,
      "inputs": [
        {
          "indexed": false,
          "internalType": "uint256[]",
          "name": "functions",
          "type": "uint256[]"
        }
      ],
      "name": "AddedEnforcedFunctions",
      "type": "event"
    },
    {
      "anonymous": false,
      "inputs": [
        {
          "indexed": false,
          "internalType": "bytes8",
          "name": "oldRules",
          "type": "bytes8"
        },
        {
          "indexed": false,
          "internalType": "bytes8",
          "name": "newRules",
          "type": "bytes8"
        }
      ],
      "name": "ConfigureRules",
      "type": "event"
    },
    {
      "anonymous": false,
      "inputs": [],
      "name": "DefaultAdminDelayChangeCanceled",
      "type": "event"
    },
    {
      "anonymous": false,
      "inputs": [
        {
          "indexed": false,
          "internalType": "uint48",
          "name": "newDelay",
          "type": "uint48"
        },
        {
          "indexed": false,
          "internalType": "uint48",
          "name": "effectSchedule",
          "type": "uint48"
        }
      ],
      "name": "DefaultAdminDelayChangeScheduled",
      "type": "event"
    },
    {
      "anonymous": false,
      "inputs": [],
      "name": "DefaultAdminTransferCanceled",
      "type": "event"
    },
    {
      "anonymous": false,
      "inputs": [
        {
          "indexed": true,
          "internalType": "address",
          "name": "newAdmin",
          "type": "address"
        },
        {
          "indexed": false,
          "internalType": "uint48",
          "name": "acceptSchedule",
          "type": "uint48"
        }
      ],
      "name": "DefaultAdminTransferScheduled",
      "type": "event"
    },
    {
      "anonymous": false,
      "inputs": [
        {
          "indexed": false,
          "internalType": "uint216[]",
          "name": "patterns",
          "type": "uint216[]"
        }
      ],
      "name": "RemovedAllowedPatterns",
      "type": "event"
    },
    {
      "anonymous": false,
      "inputs": [
        {
          "indexed": false,
          "internalType": "address[]",
          "name": "senders",
          "type": "address[]"
        }
      ],
      "name": "RemovedAllowedSenders",
      "type": "event"
    },
    {
      "anonymous": false,
      "inputs": [
        {
          "indexed": false,
          "internalType": "uint256[]",
          "name": "functions",
          "type": "uint256[]"
        }
      ],
      "name": "RemovedEnforcedFunctions",
      "type": "event"
    },
    {
      "anonymous": false,
      "inputs": [
        {
          "indexed": true,
          "internalType": "bytes32",
          "name": "role",
          "type": "bytes32"
        },
        {
          "indexed": true,
          "internalType": "bytes32",
          "name": "previousAdminRole",
          "type": "bytes32"
        },
        {
          "indexed": true,
          "internalType": "bytes32",
          "name": "newAdminRole",
          "type": "bytes32"
        }
      ],
      "name": "RoleAdminChanged",
      "type": "event"
    },
    {
      "anonymous": false,
      "inputs": [
        {
          "indexed": true,
          "internalType": "bytes32",
          "name": "role",
          "type": "bytes32"
        },
        {
          "indexed": true,
          "internalType": "address",
          "name": "account",
          "type": "address"
        },
        {
          "indexed": true,
          "internalType": "address",
          "name": "sender",
          "type": "address"
        }
      ],
      "name": "RoleGranted",
      "type": "event"
    },
    {
      "anonymous": false,
      "inputs": [
        {
          "indexed": true,
          "internalType": "bytes32",
          "name": "role",
          "type": "bytes32"
        },
        {
          "indexed": true,
          "internalType": "address",
          "name": "account",
          "type": "address"
        },
        {
          "indexed": true,
          "internalType": "address",
          "name": "sender",
          "type": "address"
        }
      ],
      "name": "RoleRevoked",
      "type": "event"
    },
    {
      "anonymous": false,
      "inputs": [],
      "name": "TxStartedAtIrregularDepth",
      "type": "event"
    },
    {
      "inputs": [],
      "name": "DEFAULT_ADMIN_ROLE",
      "outputs": [
        {
          "internalType": "bytes32",
          "name": "",
          "type": "bytes32"
        }
      ],
      "stateMutability": "view",
      "type": "function"
    },
    {
      "inputs": [],
      "name": "OPERATOR_ROLE",
      "outputs": [
        {
          "internalType": "bytes32",
          "name": "",
          "type": "bytes32"
        }
      ],
      "stateMutability": "view",
      "type": "function"
    },
    {
      "inputs": [],
      "name": "SENDER_ADDER_ROLE",
      "outputs": [
        {
          "internalType": "bytes32",
          "name": "",
          "type": "bytes32"
        }
      ],
      "stateMutability": "view",
      "type": "function"
    },
    {
      "inputs": [],
      "name": "acceptDefaultAdminTransfer",
      "outputs": [],
      "stateMutability": "nonpayable",
      "type": "function"
    },
    {
      "inputs": [
        {
          "internalType": "uint216[]",
          "name": "patterns",
          "type": "uint216[]"
        }
      ],
      "name": "addAllowedPatterns",
      "outputs": [],
      "stateMutability": "nonpayable",
      "type": "function"
    },
    {
      "inputs": [
        {
          "internalType": "address[]",
          "name": "senders",
          "type": "address[]"
        }
      ],
      "name": "addAllowedSender",
      "outputs": [],
      "stateMutability": "nonpayable",
      "type": "function"
    },
    {
      "inputs": [
        {
          "internalType": "address",
          "name": "sender",
          "type": "address"
        }
      ],
      "name": "addAllowedSenderOnChain",
      "outputs": [],
      "stateMutability": "nonpayable",
      "type": "function"
    },
    {
      "inputs": [
        {
          "internalType": "address",
          "name": "newAdmin",
          "type": "address"
        }
      ],
      "name": "beginDefaultAdminTransfer",
      "outputs": [],
      "stateMutability": "nonpayable",
      "type": "function"
    },
    {
      "inputs": [],
      "name": "cancelDefaultAdminTransfer",
      "outputs": [],
      "stateMutability": "nonpayable",
      "type": "function"
    },
    {
      "inputs": [
        {
          "internalType": "uint48",
          "name": "newDelay",
          "type": "uint48"
        }
      ],
      "name": "changeDefaultAdminDelay",
      "outputs": [],
      "stateMutability": "nonpayable",
      "type": "function"
    },
    {
      "inputs": [
        {
          "internalType": "bytes8",
          "name": "rules",
          "type": "bytes8"
        }
      ],
      "name": "configureRules",
      "outputs": [],
      "stateMutability": "nonpayable",
      "type": "function"
    },
    {
      "inputs": [],
      "name": "deactivateAllRules",
      "outputs": [],
      "stateMutability": "nonpayable",
      "type": "function"
    },
    {
      "inputs": [],
      "name": "defaultAdmin",
      "outputs": [
        {
          "internalType": "address",
          "name": "",
          "type": "address"
        }
      ],
      "stateMutability": "view",
      "type": "function"
    },
    {
      "inputs": [],
      "name": "defaultAdminDelay",
      "outputs": [
        {
          "internalType": "uint48",
          "name": "",
          "type": "uint48"
        }
      ],
      "stateMutability": "view",
      "type": "function"
    },
    {
      "inputs": [],
      "name": "defaultAdminDelayIncreaseWait",
      "outputs": [
        {
          "internalType": "uint48",
          "name": "",
          "type": "uint48"
        }
      ],
      "stateMutability": "view",
      "type": "function"
    },
    {
      "inputs": [
        {
          "internalType": "uint256[]",
          "name": "functions",
          "type": "uint256[]"
        }
      ],
      "name": "excludeEnforcedFunctions",
      "outputs": [],
      "stateMutability": "nonpayable",
      "type": "function"
    },
    {
      "inputs": [
        {
          "internalType": "bytes32",
          "name": "role",
          "type": "bytes32"
        }
      ],
      "name": "getRoleAdmin",
      "outputs": [
        {
          "internalType": "bytes32",
          "name": "",
          "type": "bytes32"
        }
      ],
      "stateMutability": "view",
      "type": "function"
    },
    {
      "inputs": [
        {
          "internalType": "bytes32",
          "name": "role",
          "type": "bytes32"
        },
        {
          "internalType": "address",
          "name": "account",
          "type": "address"
        }
      ],
      "name": "grantRole",
      "outputs": [],
      "stateMutability": "nonpayable",
      "type": "function"
    },
    {
      "inputs": [
        {
          "internalType": "address",
          "name": "newSenderAdder",
          "type": "address"
        }
      ],
      "name": "grantSenderAdderRole",
      "outputs": [],
      "stateMutability": "nonpayable",
      "type": "function"
    },
    {
      "inputs": [
        {
          "internalType": "bytes32",
          "name": "role",
          "type": "bytes32"
        },
        {
          "internalType": "address",
          "name": "account",
          "type": "address"
        }
      ],
      "name": "hasRole",
      "outputs": [
        {
          "internalType": "bool",
          "name": "",
          "type": "bool"
        }
      ],
      "stateMutability": "view",
      "type": "function"
    },
    {
      "inputs": [
        {
          "internalType": "uint256[]",
          "name": "functions",
          "type": "uint256[]"
        }
      ],
      "name": "includeEnforcedFunctions",
      "outputs": [],
      "stateMutability": "nonpayable",
      "type": "function"
    },
    {
      "inputs": [],
      "name": "owner",
      "outputs": [
        {
          "internalType": "address",
          "name": "",
          "type": "address"
        }
      ],
      "stateMutability": "view",
      "type": "function"
    },
    {
      "inputs": [],
      "name": "pendingDefaultAdmin",
      "outputs": [
        {
          "internalType": "address",
          "name": "newAdmin",
          "type": "address"
        },
        {
          "internalType": "uint48",
          "name": "schedule",
          "type": "uint48"
        }
      ],
      "stateMutability": "view",
      "type": "function"
    },
    {
      "inputs": [],
      "name": "pendingDefaultAdminDelay",
      "outputs": [
        {
          "internalType": "uint48",
          "name": "newDelay",
          "type": "uint48"
        },
        {
          "internalType": "uint48",
          "name": "schedule",
          "type": "uint48"
        }
      ],
      "stateMutability": "view",
      "type": "function"
    },
    {
      "inputs": [
        {
          "internalType": "uint216[]",
          "name": "patterns",
          "type": "uint216[]"
        }
      ],
      "name": "removeAllowedPatterns",
      "outputs": [],
      "stateMutability": "nonpayable",
      "type": "function"
    },
    {
      "inputs": [
        {
          "internalType": "address[]",
          "name": "senders",
          "type": "address[]"
        }
      ],
      "name": "removeAllowedSender",
      "outputs": [],
      "stateMutability": "nonpayable",
      "type": "function"
    },
    {
      "inputs": [
        {
          "internalType": "bytes32",
          "name": "role",
          "type": "bytes32"
        },
        {
          "internalType": "address",
          "name": "account",
          "type": "address"
        }
      ],
      "name": "renounceRole",
      "outputs": [],
      "stateMutability": "nonpayable",
      "type": "function"
    },
    {
      "inputs": [
        {
          "internalType": "bytes32",
          "name": "role",
          "type": "bytes32"
        },
        {
          "internalType": "address",
          "name": "account",
          "type": "address"
        }
      ],
      "name": "revokeRole",
      "outputs": [],
      "stateMutability": "nonpayable",
      "type": "function"
    },
    {
      "inputs": [],
      "name": "rollbackDefaultAdminDelay",
      "outputs": [],
      "stateMutability": "nonpayable",
      "type": "function"
    },
    {
      "inputs": [
        {
          "internalType": "int256",
          "name": "num",
          "type": "int256"
        },
        {
          "internalType": "uint256",
          "name": "gas",
          "type": "uint256"
        },
        {
          "internalType": "bytes32[]",
          "name": "valuesBefore",
          "type": "bytes32[]"
        },
        {
          "internalType": "bytes32[]",
          "name": "valuesAfter",
          "type": "bytes32[]"
        }
      ],
      "name": "sphereXValidateInternalPost",
      "outputs": [],
      "stateMutability": "nonpayable",
      "type": "function"
    },
    {
      "inputs": [
        {
          "internalType": "int256",
          "name": "num",
          "type": "int256"
        }
      ],
      "name": "sphereXValidateInternalPre",
      "outputs": [
        {
          "internalType": "bytes32[]",
          "name": "result",
          "type": "bytes32[]"
        }
      ],
      "stateMutability": "nonpayable",
      "type": "function"
    },
    {
      "inputs": [
        {
          "internalType": "int256",
          "name": "num",
          "type": "int256"
        },
        {
          "internalType": "uint256",
          "name": "gas",
          "type": "uint256"
        },
        {
          "internalType": "bytes32[]",
          "name": "valuesBefore",
          "type": "bytes32[]"
        },
        {
          "internalType": "bytes32[]",
          "name": "valuesAfter",
          "type": "bytes32[]"
        }
      ],
      "name": "sphereXValidatePost",
      "outputs": [],
      "stateMutability": "nonpayable",
      "type": "function"
    },
    {
      "inputs": [
        {
          "internalType": "int256",
          "name": "num",
          "type": "int256"
        },
        {
          "internalType": "address",
          "name": "sender",
          "type": "address"
        },
        {
          "internalType": "bytes",
          "name": "data",
          "type": "bytes"
        }
      ],
      "name": "sphereXValidatePre",
      "outputs": [
        {
          "internalType": "bytes32[]",
          "name": "result",
          "type": "bytes32[]"
        }
      ],
      "stateMutability": "nonpayable",
      "type": "function"
    },
    {
      "inputs": [
        {
          "internalType": "bytes4",
          "name": "interfaceId",
          "type": "bytes4"
        }
      ],
      "name": "supportsInterface",
      "outputs": [
        {
          "internalType": "bool",
          "name": "",
          "type": "bool"
        }
      ],
      "stateMutability": "view",
      "type": "function"
    }
  ],
  "bytecode": "0x60806040526040518060600160405280600060c01b77ffffffffffffffffffffffffffffffffffffffffffffffff19168152602001600160801b6fffffffffffffffffffffffffffffffff19168152602001600060c01b77ffffffffffffffffffffffffffffffffffffffffffffffff1916815250600360008201518160000160006101000a81548167ffffffffffffffff021916908360c01c021790555060208201518160000160086101000a8154816fffffffffffffffffffffffffffffffff021916908360801c021790555060408201518160000160186101000a81548167ffffffffffffffff021916908360c01c021790555050506040518060800160405280600161ffff168152602001600061ffff16815260200160001515815260200160017affffffffffffffffffffffffffffffffffffffffffffffffffffff16815250600660008201518160000160006101000a81548161ffff021916908361ffff16021790555060208201518160000160026101000a81548161ffff021916908361ffff16021790555060408201518160000160046101000a81548160ff02191690831515021790555060608201518160000160056101000a8154817affffffffffffffffffffffffffffffffffffffffffffffffffffff02191690837affffffffffffffffffffffffffffffffffffffffffffffffffffff16021790555050503480156200021057600080fd5b506201518033600073ffffffffffffffffffffffffffffffffffffffff168173ffffffffffffffffffffffffffffffffffffffff160362000288576040517f08c379a00000000000000000000000000000000000000000000000000000000081526004016200027f90620009da565b60405180910390fd5b816001601a6101000a81548165ffffffffffff021916908365ffffffffffff160217905550620002c26000801b82620002fc60201b60201c565b5050620002f67f97667070c54ef182b0f5858b034beac1b6f3089aa2d3188bb1e8929f4fa9b92933620003e060201b60201c565b62000eba565b6000801b8203620003ca57600073ffffffffffffffffffffffffffffffffffffffff166200032f6200043e60201b60201c565b73ffffffffffffffffffffffffffffffffffffffff161462000388576040517f08c379a00000000000000000000000000000000000000000000000000000000081526004016200037f9062000a72565b60405180910390fd5b80600260006101000a81548173ffffffffffffffffffffffffffffffffffffffff021916908373ffffffffffffffffffffffffffffffffffffffff1602179055505b620003dc82826200046860201b60201c565b5050565b6000801b820362000428576040517f08c379a00000000000000000000000000000000000000000000000000000000081526004016200041f9062000b0a565b60405180910390fd5b6200043a82826200055960201b60201c565b5050565b6000600260009054906101000a900473ffffffffffffffffffffffffffffffffffffffff16905090565b6200047a82826200059260201b60201c565b6200055557600160008084815260200190815260200160002060000160008373ffffffffffffffffffffffffffffffffffffffff1673ffffffffffffffffffffffffffffffffffffffff16815260200190815260200160002060006101000a81548160ff021916908315150217905550620004fa620005fc60201b60201c565b73ffffffffffffffffffffffffffffffffffffffff168173ffffffffffffffffffffffffffffffffffffffff16837f2f8788117e7eff1d82e926ec794901d17c78024a50270940304540a733656f0d60405160405180910390a45b5050565b6200056a826200060460201b60201c565b6200057b816200062360201b60201c565b6200058d8383620002fc60201b60201c565b505050565b600080600084815260200190815260200160002060000160008373ffffffffffffffffffffffffffffffffffffffff1673ffffffffffffffffffffffffffffffffffffffff16815260200190815260200160002060009054906101000a900460ff16905092915050565b600033905090565b6000806000838152602001908152602001600020600101549050919050565b620006448162000638620005fc60201b60201c565b6200064760201b60201c565b50565b6200065982826200059260201b60201c565b620006e5576200066f81620006e960201b60201c565b620006858360001c60206200071e60201b60201c565b6040516020016200069892919062000c45565b6040516020818303038152906040526040517f08c379a0000000000000000000000000000000000000000000000000000000008152600401620006dc919062000cd9565b60405180910390fd5b5050565b6060620007178273ffffffffffffffffffffffffffffffffffffffff16601460ff166200071e60201b60201c565b9050919050565b60606000600283600262000733919062000d36565b6200073f919062000d81565b67ffffffffffffffff8111156200075b576200075a62000dbc565b5b6040519080825280601f01601f1916602001820160405280156200078e5781602001600182028036833780820191505090505b5090507f300000000000000000000000000000000000000000000000000000000000000081600081518110620007c957620007c862000deb565b5b60200101907effffffffffffffffffffffffffffffffffffffffffffffffffffffffffffff1916908160001a9053507f78000000000000000000000000000000000000000000000000000000000000008160018151811062000830576200082f62000deb565b5b60200101907effffffffffffffffffffffffffffffffffffffffffffffffffffffffffffff1916908160001a9053506000600184600262000872919062000d36565b6200087e919062000d81565b90505b600181111562000928577f3031323334353637383961626364656600000000000000000000000000000000600f861660108110620008c457620008c362000deb565b5b1a60f81b828281518110620008de57620008dd62000deb565b5b60200101907effffffffffffffffffffffffffffffffffffffffffffffffffffffffffffff1916908160001a905350600485901c945080620009209062000e1a565b905062000881565b50600084146200096f576040517f08c379a0000000000000000000000000000000000000000000000000000000008152600401620009669062000e98565b60405180910390fd5b8091505092915050565b600082825260208201905092915050565b7f416363657373436f6e74726f6c3a20302064656661756c742061646d696e0000600082015250565b6000620009c2601e8362000979565b9150620009cf826200098a565b602082019050919050565b60006020820190508181036000830152620009f581620009b3565b9050919050565b7f416363657373436f6e74726f6c3a2064656661756c742061646d696e20616c7260008201527f65616479206772616e7465640000000000000000000000000000000000000000602082015250565b600062000a5a602c8362000979565b915062000a6782620009fc565b604082019050919050565b6000602082019050818103600083015262000a8d8162000a4b565b9050919050565b7f416363657373436f6e74726f6c3a2063616e2774206469726563746c7920677260008201527f616e742064656661756c742061646d696e20726f6c6500000000000000000000602082015250565b600062000af260368362000979565b915062000aff8262000a94565b604082019050919050565b6000602082019050818103600083015262000b258162000ae3565b9050919050565b600081905092915050565b7f416363657373436f6e74726f6c3a206163636f756e7420000000000000000000600082015250565b600062000b6f60178362000b2c565b915062000b7c8262000b37565b601782019050919050565b600081519050919050565b60005b8381101562000bb257808201518184015260208101905062000b95565b60008484015250505050565b600062000bcb8262000b87565b62000bd7818562000b2c565b935062000be981856020860162000b92565b80840191505092915050565b7f206973206d697373696e6720726f6c6520000000000000000000000000000000600082015250565b600062000c2d60118362000b2c565b915062000c3a8262000bf5565b601182019050919050565b600062000c528262000b60565b915062000c60828562000bbe565b915062000c6d8262000c1e565b915062000c7b828462000bbe565b91508190509392505050565b6000601f19601f8301169050919050565b600062000ca58262000b87565b62000cb1818562000979565b935062000cc381856020860162000b92565b62000cce8162000c87565b840191505092915050565b6000602082019050818103600083015262000cf5818462000c98565b905092915050565b6000819050919050565b7f4e487b7100000000000000000000000000000000000000000000000000000000600052601160045260246000fd5b600062000d438262000cfd565b915062000d508362000cfd565b925082820262000d608162000cfd565b9150828204841483151762000d7a5762000d7962000d07565b5b5092915050565b600062000d8e8262000cfd565b915062000d9b8362000cfd565b925082820190508082111562000db65762000db562000d07565b5b92915050565b7f4e487b7100000000000000000000000000000000000000000000000000000000600052604160045260246000fd5b7f4e487b7100000000000000000000000000000000000000000000000000000000600052603260045260246000fd5b600062000e278262000cfd565b91506000820362000e3d5762000e3c62000d07565b5b600182039050919050565b7f537472696e67733a20686578206c656e67746820696e73756666696369656e74600082015250565b600062000e8060208362000979565b915062000e8d8262000e48565b602082019050919050565b6000602082019050818103600083015262000eb38162000e71565b9050919050565b614bcf8062000eca6000396000f3fe608060405234801561001057600080fd5b50600436106102065760003560e01c806384ef8ffc1161011a578063b8cd969c116100ad578063cf6eefb71161007c578063cf6eefb714610574578063d547741f14610593578063d602b9fd146105af578063f0bd9468146105b9578063f5b541a6146105d557610206565b8063b8cd969c14610514578063bb71fb7814610530578063cc8463c81461054c578063cefc14291461056a57610206565b80639345e164116100e95780639345e1641461049f578063a121be8a146104bb578063a1eda53c146104d7578063a217fddf146104f657610206565b806384ef8ffc146104035780638925ca5a146104215780638da5cb5b1461045157806391d148541461046f57610206565b80632f2ff15d1161019d57806345a4ba6b1161016c57806345a4ba6b14610389578063634e93da146103a5578063649a5ec7146103c15780637a44fd9d146103dd57806380a0b6da146103e757610206565b80632f2ff15d1461030357806336568abe1461031f5780633e8849431461033b5780634320d34f1461036b57610206565b806304e6279a116101d957806304e6279a146102915780630aa6220b146102ad57806311ede2e6146102b7578063248a9ca3146102d357610206565b806301ffc9a71461020b578063022d63fb1461023b578063024e4718146102595780630453906214610275575b600080fd5b61022560048036038101906102209190613228565b6105f3565b6040516102329190613270565b60405180910390f35b61024361066d565b60405161025091906132ac565b60405180910390f35b610273600480360381019061026e919061332c565b610678565b005b61028f600480360381019061028a91906133cf565b6107bd565b005b6102ab60048036038101906102a691906134de565b610910565b005b6102b5610a04565b005b6102d160048036038101906102cc91906135e3565b610a1c565b005b6102ed60048036038101906102e89190613646565b610b17565b6040516102fa9190613682565b60405180910390f35b61031d6004803603810190610318919061369d565b610b36565b005b6103396004803603810190610334919061369d565b610b89565b005b610355600480360381019061035091906136dd565b610c9a565b60405161036291906137c8565b60405180910390f35b610373610d8b565b6040516103809190613682565b60405180910390f35b6103a3600480360381019061039e919061332c565b610daf565b005b6103bf60048036038101906103ba91906135e3565b610ef4565b005b6103db60048036038101906103d69190613816565b610f0e565b005b6103e5610f28565b005b61040160048036038101906103fc91906133cf565b61100e565b005b61040b611161565b6040516104189190613852565b60405180910390f35b61043b600480360381019061043691906138c3565b61118b565b60405161044891906137c8565b60405180910390f35b61045961127f565b6040516104669190613852565b60405180910390f35b6104896004803603810190610484919061369d565b61128e565b6040516104969190613270565b60405180910390f35b6104b960048036038101906104b4919061398d565b6112f8565b005b6104d560048036038101906104d091906135e3565b611403565b005b6104df611499565b6040516104ed9291906139da565b60405180910390f35b6104fe6114f9565b60405161050b9190613682565b60405180910390f35b61052e60048036038101906105299190613a5b565b611500565b005b61054a6004803603810190610545919061398d565b6117ed565b005b6105546118f8565b60405161056191906132ac565b60405180910390f35b610572611966565b005b61057c6119f3565b60405161058a929190613a88565b60405180910390f35b6105ad60048036038101906105a8919061369d565b611a36565b005b6105b7611a89565b005b6105d360048036038101906105ce91906134de565b611aa1565b005b6105dd611b95565b6040516105ea9190613682565b60405180910390f35b60007f53e41baa000000000000000000000000000000000000000000000000000000007bffffffffffffffffffffffffffffffffffffffffffffffffffffffff1916827bffffffffffffffffffffffffffffffffffffffffffffffffffffffff19161480610666575061066582611bb9565b5b9050919050565b600062069780905090565b6106a27f97667070c54ef182b0f5858b034beac1b6f3089aa2d3188bb1e8929f4fa9b9293361128e565b6106e1576040517f08c379a00000000000000000000000000000000000000000000000000000000081526004016106d890613b0e565b60405180910390fd5b60005b8282905081101561077f5760016004600085858581811061070857610707613b2e565b5b905060200201602081019061071d91906135e3565b73ffffffffffffffffffffffffffffffffffffffff1673ffffffffffffffffffffffffffffffffffffffff16815260200190815260200160002060006101000a81548160ff0219169083151502179055508061077890613b8c565b90506106e4565b507f0adaca063849be3759cb543670f0440af048e0710f921ab27965a7c73095228f82826040516107b1929190613c97565b60405180910390a15050565b6107e77f97667070c54ef182b0f5858b034beac1b6f3089aa2d3188bb1e8929f4fa9b9293361128e565b610826576040517f08c379a000000000000000000000000000000000000000000000000000000000815260040161081d90613b0e565b60405180910390fd5b60005b828290508110156108d25760016005600085858581811061084d5761084c613b2e565b5b90506020020160208101906108629190613d0e565b7affffffffffffffffffffffffffffffffffffffffffffffffffffff167affffffffffffffffffffffffffffffffffffffffffffffffffffff16815260200190815260200160002060006101000a81548160ff021916908315150217905550806108cb90613b8c565b9050610829565b507f12b3c3c8e9f31199ca2ce68c8eea4b65d2f3e2ac799aeea1e05e8876b814261b8282604051610904929190613dfe565b60405180910390a15050565b600060c01b77ffffffffffffffffffffffffffffffffffffffffffffffff1916600360000160009054906101000a900460c01b77ffffffffffffffffffffffffffffffffffffffffffffffff191603156109fc57600460003373ffffffffffffffffffffffffffffffffffffffff1673ffffffffffffffffffffffffffffffffffffffff16815260200190815260200160002060009054906101000a900460ff166109f0576040517f08c379a00000000000000000000000000000000000000000000000000000000081526004016109e790613e6e565b60405180910390fd5b6109fb866000611c33565b5b505050505050565b6000801b610a1181611f82565b610a19611f96565b50565b610a467f460586411c358994ccf85e825f5c4a921e754a35d68c0fc3a73566e9474fc2bd3361128e565b610a85576040517f08c379a0000000000000000000000000000000000000000000000000000000008152600401610a7c90613f00565b60405180910390fd5b6001600460008373ffffffffffffffffffffffffffffffffffffffff1673ffffffffffffffffffffffffffffffffffffffff16815260200190815260200160002060006101000a81548160ff0219169083151502179055507fe952bc401d6fb727e0844c82c96c017ed11b5bc6a213b3b45a0413cd37cd272081604051610b0c9190613852565b60405180910390a150565b6000806000838152602001908152602001600020600101549050919050565b6000801b8203610b7b576040517f08c379a0000000000000000000000000000000000000000000000000000000008152600401610b7290613f92565b60405180910390fd5b610b858282611fa3565b5050565b6000801b82148015610bcd5750610b9e611161565b73ffffffffffffffffffffffffffffffffffffffff168173ffffffffffffffffffffffffffffffffffffffff16145b15610c8c57600080610bdd6119f3565b91509150600073ffffffffffffffffffffffffffffffffffffffff168273ffffffffffffffffffffffffffffffffffffffff16148015610c225750610c2181611fc4565b5b8015610c335750610c3281611fd9565b5b610c72576040517f08c379a0000000000000000000000000000000000000000000000000000000008152600401610c6990614024565b60405180910390fd5b600160146101000a81549065ffffffffffff021916905550505b610c968282611fed565b5050565b6060600060c01b77ffffffffffffffffffffffffffffffffffffffffffffffff1916600360000160009054906101000a900460c01b77ffffffffffffffffffffffffffffffffffffffffffffffff19160315610d8657600460003373ffffffffffffffffffffffffffffffffffffffff1673ffffffffffffffffffffffffffffffffffffffff16815260200190815260200160002060009054906101000a900460ff16610d7c576040517f08c379a0000000000000000000000000000000000000000000000000000000008152600401610d7390613e6e565b60405180910390fd5b610d8582612070565b5b919050565b7f460586411c358994ccf85e825f5c4a921e754a35d68c0fc3a73566e9474fc2bd81565b610dd97f97667070c54ef182b0f5858b034beac1b6f3089aa2d3188bb1e8929f4fa9b9293361128e565b610e18576040517f08c379a0000000000000000000000000000000000000000000000000000000008152600401610e0f90613b0e565b60405180910390fd5b60005b82829050811015610eb657600060046000858585818110610e3f57610e3e613b2e565b5b9050602002016020810190610e5491906135e3565b73ffffffffffffffffffffffffffffffffffffffff1673ffffffffffffffffffffffffffffffffffffffff16815260200190815260200160002060006101000a81548160ff02191690831515021790555080610eaf90613b8c565b9050610e1b565b507f38bf8ff81f4ef76eb9b7ec6ceb193303f52abb512c5b36fa6f532c24fa974de18282604051610ee8929190613c97565b60405180910390a15050565b6000801b610f0181611f82565b610f0a82612598565b5050565b6000801b610f1b81611f82565b610f2482612613565b5050565b610f527f97667070c54ef182b0f5858b034beac1b6f3089aa2d3188bb1e8929f4fa9b9293361128e565b610f91576040517f08c379a0000000000000000000000000000000000000000000000000000000008152600401610f8890613b0e565b60405180910390fd5b6000600360000160009054906101000a900460c01b9050600060c01b600360000160006101000a81548167ffffffffffffffff021916908360c01c02179055507f35d4bdc972b8d2c63d5243d90057ff81f618c8d583493cd73cdc182fd684d65881600060405161100392919061409b565b60405180910390a150565b6110387f97667070c54ef182b0f5858b034beac1b6f3089aa2d3188bb1e8929f4fa9b9293361128e565b611077576040517f08c379a000000000000000000000000000000000000000000000000000000000815260040161106e90613b0e565b60405180910390fd5b60005b828290508110156111235760006005600085858581811061109e5761109d613b2e565b5b90506020020160208101906110b39190613d0e565b7affffffffffffffffffffffffffffffffffffffffffffffffffffff167affffffffffffffffffffffffffffffffffffffffffffffffffffff16815260200190815260200160002060006101000a81548160ff0219169083151502179055508061111c90613b8c565b905061107a565b507f60f43c5d70cdb8687221ed14f818268b280bd8e725bfd21a8afa20c3eac8859a8282604051611155929190613dfe565b60405180910390a15050565b6000600260009054906101000a900473ffffffffffffffffffffffffffffffffffffffff16905090565b6060600060c01b77ffffffffffffffffffffffffffffffffffffffffffffffff1916600360000160009054906101000a900460c01b77ffffffffffffffffffffffffffffffffffffffffffffffff1916031561127757600460003373ffffffffffffffffffffffffffffffffffffffff1673ffffffffffffffffffffffffffffffffffffffff16815260200190815260200160002060009054906101000a900460ff1661126d576040517f08c379a000000000000000000000000000000000000000000000000000000000815260040161126490613e6e565b60405180910390fd5b61127685612070565b5b949350505050565b6000611289611161565b905090565b600080600084815260200190815260200160002060000160008373ffffffffffffffffffffffffffffffffffffffff1673ffffffffffffffffffffffffffffffffffffffff16815260200190815260200160002060009054906101000a900460ff16905092915050565b6113227f97667070c54ef182b0f5858b034beac1b6f3089aa2d3188bb1e8929f4fa9b9293361128e565b611361576040517f08c379a000000000000000000000000000000000000000000000000000000000815260040161135890613b0e565b60405180910390fd5b60005b828290508110156113c55760016007600085858581811061138857611387613b2e565b5b90506020020135815260200190815260200160002060006101000a81548160ff021916908315150217905550806113be90613b8c565b9050611364565b507f11be07affb43429b63c3bd52376c904c199b189f2e555127a6f814e9556ac91c82826040516113f792919061413f565b60405180910390a15050565b61142d7f97667070c54ef182b0f5858b034beac1b6f3089aa2d3188bb1e8929f4fa9b9293361128e565b61146c576040517f08c379a000000000000000000000000000000000000000000000000000000000815260040161146390613b0e565b60405180910390fd5b6114967f460586411c358994ccf85e825f5c4a921e754a35d68c0fc3a73566e9474fc2bd8261267a565b50565b6000806002601a9054906101000a900465ffffffffffff1690506114bc81611fc4565b80156114ce57506114cc81611fd9565b155b6114da576000806114f1565b600260149054906101000a900465ffffffffffff16815b915091509091565b6000801b81565b61152a7f97667070c54ef182b0f5858b034beac1b6f3089aa2d3188bb1e8929f4fa9b9293361128e565b611569576040517f08c379a000000000000000000000000000000000000000000000000000000000815260040161156090613b0e565b60405180910390fd5b600260c01b600160c01b1777ffffffffffffffffffffffffffffffffffffffffffffffff191681600260c01b600160c01b171677ffffffffffffffffffffffffffffffffffffffffffffffff1916036115f7576040517f08c379a00000000000000000000000000000000000000000000000000000000081526004016115ee906141d5565b60405180910390fd5b600460c01b600160c01b1777ffffffffffffffffffffffffffffffffffffffffffffffff191681600460c01b600160c01b171677ffffffffffffffffffffffffffffffffffffffffffffffff191603611685576040517f08c379a000000000000000000000000000000000000000000000000000000000815260040161167c906141d5565b60405180910390fd5b600460c01b600260c01b1777ffffffffffffffffffffffffffffffffffffffffffffffff191681600460c01b600260c01b171677ffffffffffffffffffffffffffffffffffffffffffffffff191603611713576040517f08c379a000000000000000000000000000000000000000000000000000000000815260040161170a906141d5565b60405180910390fd5b600460c01b60c01c67ffffffffffffffff168160c01c67ffffffffffffffff161115611774576040517f08c379a000000000000000000000000000000000000000000000000000000000815260040161176b906141d5565b60405180910390fd5b6000600360000160009054906101000a900460c01b905081600360000160006101000a81548167ffffffffffffffff021916908360c01c02179055507f35d4bdc972b8d2c63d5243d90057ff81f618c8d583493cd73cdc182fd684d65881836040516117e19291906141f5565b60405180910390a15050565b6118177f97667070c54ef182b0f5858b034beac1b6f3089aa2d3188bb1e8929f4fa9b9293361128e565b611856576040517f08c379a000000000000000000000000000000000000000000000000000000000815260040161184d90613b0e565b60405180910390fd5b60005b828290508110156118ba5760006007600085858581811061187d5761187c613b2e565b5b90506020020135815260200190815260200160002060006101000a81548160ff021916908315150217905550806118b390613b8c565b9050611859565b507fc1c0149ec1954a2f836bd5fa0b9993ac2661ac4ee146bae185c6e723e4368c5582826040516118ec92919061413f565b60405180910390a15050565b6000806002601a9054906101000a900465ffffffffffff16905061191b81611fc4565b801561192c575061192b81611fd9565b5b61194a576001601a9054906101000a900465ffffffffffff16611960565b600260149054906101000a900465ffffffffffff165b91505090565b60006119706119f3565b5090508073ffffffffffffffffffffffffffffffffffffffff1661199261274a565b73ffffffffffffffffffffffffffffffffffffffff16146119e8576040517f08c379a00000000000000000000000000000000000000000000000000000000081526004016119df90614290565b60405180910390fd5b6119f0612752565b50565b600080600160009054906101000a900473ffffffffffffffffffffffffffffffffffffffff16600160149054906101000a900465ffffffffffff16915091509091565b6000801b8203611a7b576040517f08c379a0000000000000000000000000000000000000000000000000000000008152600401611a7290614322565b60405180910390fd5b611a85828261281b565b5050565b6000801b611a9681611f82565b611a9e61283c565b50565b600060c01b77ffffffffffffffffffffffffffffffffffffffffffffffff1916600360000160009054906101000a900460c01b77ffffffffffffffffffffffffffffffffffffffffffffffff19160315611b8d57600460003373ffffffffffffffffffffffffffffffffffffffff1673ffffffffffffffffffffffffffffffffffffffff16815260200190815260200160002060009054906101000a900460ff16611b81576040517f08c379a0000000000000000000000000000000000000000000000000000000008152600401611b7890613e6e565b60405180910390fd5b611b8c866001611c33565b5b505050505050565b7f97667070c54ef182b0f5858b034beac1b6f3089aa2d3188bb1e8929f4fa9b92981565b60007f31498786000000000000000000000000000000000000000000000000000000007bffffffffffffffffffffffffffffffffffffffffffffffffffffffff1916827bffffffffffffffffffffffffffffffffffffffffffffffffffffffff19161480611c2c5750611c2b82612849565b5b9050919050565b60008212611c76576040517f08c379a0000000000000000000000000000000000000000000000000000000008152600401611c6d906143b4565b60405180910390fd5b600060066040518060800160405290816000820160009054906101000a900461ffff1661ffff1661ffff1681526020016000820160029054906101000a900461ffff1661ffff1661ffff1681526020016000820160049054906101000a900460ff161515151581526020016000820160059054906101000a90047affffffffffffffffffffffffffffffffffffffffffffffffffffff167affffffffffffffffffffffffffffffffffffffffffffffffffffff167affffffffffffffffffffffffffffffffffffffffffffffffffffff168152505090506000600360000160009054906101000a900460c01b9050838260600151604051602001611d7b9291906143f2565b6040516020818303038152906040528051906020012060281c82606001907affffffffffffffffffffffffffffffffffffffffffffffffffffff1690817affffffffffffffffffffffffffffffffffffffffffffffffffffff1681525050816000018051611de890614429565b61ffff16908161ffff16815250508280611e0e5750600161ffff16826000015161ffff16145b15611e4d57611e1c816128c3565b15611e3e57816040015115611e3957611e3882606001516128f3565b5b611e4c565b611e4b82606001516128f3565b5b5b600161ffff16826000015161ffff16148015611e6e5750611e6d81612990565b5b15611ebb57600182606001907affffffffffffffffffffffffffffffffffffffffffffffffffffff1690817affffffffffffffffffffffffffffffffffffffffffffffffffffff16815250505b81600660008201518160000160006101000a81548161ffff021916908361ffff16021790555060208201518160000160026101000a81548161ffff021916908361ffff16021790555060408201518160000160046101000a81548160ff02191690831515021790555060608201518160000160056101000a8154817affffffffffffffffffffffffffffffffffffffffffffffffffffff02191690837affffffffffffffffffffffffffffffffffffffffffffffffffffff16021790555090505050505050565b611f9381611f8e61274a565b6129c0565b50565b611fa1600080612a45565b565b611fac82610b17565b611fb581611f82565b611fbf838361267a565b505050565b6000808265ffffffffffff1614159050919050565b6000428265ffffffffffff16109050919050565b611ff561274a565b73ffffffffffffffffffffffffffffffffffffffff168173ffffffffffffffffffffffffffffffffffffffff1614612062576040517f08c379a0000000000000000000000000000000000000000000000000000000008152600401612059906144c4565b60405180910390fd5b61206c8282612b35565b5050565b600081136120b3576040517f08c379a00000000000000000000000000000000000000000000000000000000081526004016120aa90614556565b60405180910390fd5b600060066040518060800160405290816000820160009054906101000a900461ffff1661ffff1661ffff1681526020016000820160029054906101000a900461ffff1661ffff1661ffff1681526020016000820160049054906101000a900460ff161515151581526020016000820160059054906101000a90047affffffffffffffffffffffffffffffffffffffffffffffffffffff167affffffffffffffffffffffffffffffffffffffffffffffffffffff167affffffffffffffffffffffffffffffffffffffffffffffffffffff16815250509050600060036040518060600160405290816000820160009054906101000a900460c01b77ffffffffffffffffffffffffffffffffffffffffffffffff191677ffffffffffffffffffffffffffffffffffffffffffffffff191681526020016000820160089054906101000a900460801b6fffffffffffffffffffffffffffffffff19166fffffffffffffffffffffffffffffffff191681526020016000820160189054906101000a900460c01b77ffffffffffffffffffffffffffffffffffffffffffffffff191677ffffffffffffffffffffffffffffffffffffffffffffffff191681525050905060004332424460405160200161228b9493929190614585565b60405160208183030381529060405280519060200120905081602001516fffffffffffffffffffffffffffffffff1916816fffffffffffffffffffffffffffffffff1916146123e657600183606001907affffffffffffffffffffffffffffffffffffffffffffffffffffff1690817affffffffffffffffffffffffffffffffffffffffffffffffffffff16815250508082602001906fffffffffffffffffffffffffffffffff191690816fffffffffffffffffffffffffffffffff1916815250506000836040019015159081151581525050600161ffff16836000015161ffff16146123b4577fde7e0b5e37408fa8528ed22c296deb2a2999d19087661129ce99e5115cce932860405160405180910390a16001836000019061ffff16908161ffff16815250505b8160200151600360000160086101000a8154816fffffffffffffffffffffffffffffffff021916908360801c02179055505b6123f382600001516128c3565b1561243f57826040015115801561242757506007600085815260200190815260200160002060009054906101000a900460ff165b1561243e5760018360400190151590811515815250505b5b8383606001516040516020016124569291906143f2565b6040516020818303038152906040528051906020012060281c83606001907affffffffffffffffffffffffffffffffffffffffffffffffffffff1690817affffffffffffffffffffffffffffffffffffffffffffffffffffff16815250508260000180516124c3906145ca565b61ffff16908161ffff168152505082600660008201518160000160006101000a81548161ffff021916908361ffff16021790555060208201518160000160026101000a81548161ffff021916908361ffff16021790555060408201518160000160046101000a81548160ff02191690831515021790555060608201518160000160056101000a8154817affffffffffffffffffffffffffffffffffffffffffffffffffffff02191690837affffffffffffffffffffffffffffffffffffffffffffffffffffff16021790555090505050505050565b60006125a26118f8565b6125ab42612bb2565b6125b591906145f4565b90506125c18282612c07565b8173ffffffffffffffffffffffffffffffffffffffff167f3377dc44241e779dd06afab5b788a35ca5f3b778836e2990bdb26a2a4b2e5ed68260405161260791906132ac565b60405180910390a25050565b600061261e82612cba565b61262742612bb2565b61263191906145f4565b905061263d8282612a45565b7ff1038c18cf84a56e432fdbfaf746924b7ea511dfe03a6506a0ceba4888788d9b828260405161266e9291906139da565b60405180910390a15050565b6000801b820361273c57600073ffffffffffffffffffffffffffffffffffffffff166126a4611161565b73ffffffffffffffffffffffffffffffffffffffff16146126fa576040517f08c379a00000000000000000000000000000000000000000000000000000000081526004016126f1906146a0565b60405180910390fd5b80600260006101000a81548173ffffffffffffffffffffffffffffffffffffffff021916908373ffffffffffffffffffffffffffffffffffffffff1602179055505b6127468282612d19565b5050565b600033905090565b60008061275d6119f3565b9150915061276a81611fc4565b801561277b575061277a81611fd9565b5b6127ba576040517f08c379a00000000000000000000000000000000000000000000000000000000081526004016127b190614732565b60405180910390fd5b6127ce6000801b6127c9611161565b612b35565b6127db6000801b8361267a565b600160006101000a81549073ffffffffffffffffffffffffffffffffffffffff0219169055600160146101000a81549065ffffffffffff02191690555050565b61282482610b17565b61282d81611f82565b6128378383612b35565b505050565b612847600080612c07565b565b60007f7965db0b000000000000000000000000000000000000000000000000000000007bffffffffffffffffffffffffffffffffffffffffffffffffffffffff1916827bffffffffffffffffffffffffffffffffffffffffffffffffffffffff191614806128bc57506128bb82612df9565b5b9050919050565b60008060c01b600460c01b831677ffffffffffffffffffffffffffffffffffffffffffffffff1916119050919050565b60056000827affffffffffffffffffffffffffffffffffffffffffffffffffffff167affffffffffffffffffffffffffffffffffffffffffffffffffffff16815260200190815260200160002060009054906101000a900460ff1661298d576040517f08c379a0000000000000000000000000000000000000000000000000000000008152600401612984906147c4565b60405180910390fd5b50565b60008060c01b600160c01b831677ffffffffffffffffffffffffffffffffffffffffffffffff1916119050919050565b6129ca828261128e565b612a41576129d781612e63565b6129e58360001c6020612e90565b6040516020016129f69291906148ed565b6040516020818303038152906040526040517f08c379a0000000000000000000000000000000000000000000000000000000008152600401612a389190614971565b60405180910390fd5b5050565b60006002601a9054906101000a900465ffffffffffff169050612a6781611fc4565b15612ae657612a7581611fd9565b15612ab857600260149054906101000a900465ffffffffffff166001601a6101000a81548165ffffffffffff021916908365ffffffffffff160217905550612ae5565b7f2b1fa2edafe6f7b9e97c1a9e0c3660e645beb2dcaa2d45bdbf9beaf5472e1ec560405160405180910390a15b5b82600260146101000a81548165ffffffffffff021916908365ffffffffffff160217905550816002601a6101000a81548165ffffffffffff021916908365ffffffffffff160217905550505050565b6000801b82148015612b795750612b4a611161565b73ffffffffffffffffffffffffffffffffffffffff168173ffffffffffffffffffffffffffffffffffffffff16145b15612ba457600260006101000a81549073ffffffffffffffffffffffffffffffffffffffff02191690555b612bae82826130cc565b5050565b600065ffffffffffff8016821115612bff576040517f08c379a0000000000000000000000000000000000000000000000000000000008152600401612bf690614a05565b60405180910390fd5b819050919050565b6000612c116119f3565b91505082600160006101000a81548173ffffffffffffffffffffffffffffffffffffffff021916908373ffffffffffffffffffffffffffffffffffffffff16021790555081600160146101000a81548165ffffffffffff021916908365ffffffffffff160217905550612c8381611fc4565b15612cb5577f8886ebfc4259abdbc16601dd8fb5678e54878f47b3c34836cfc51154a960510960405160405180910390a15b505050565b600080612cc56118f8565b90508065ffffffffffff168365ffffffffffff1611612cef578281612cea9190614a25565b612d11565b612d108365ffffffffffff16612d0361066d565b65ffffffffffff166131ad565b5b915050919050565b612d23828261128e565b612df557600160008084815260200190815260200160002060000160008373ffffffffffffffffffffffffffffffffffffffff1673ffffffffffffffffffffffffffffffffffffffff16815260200190815260200160002060006101000a81548160ff021916908315150217905550612d9a61274a565b73ffffffffffffffffffffffffffffffffffffffff168173ffffffffffffffffffffffffffffffffffffffff16837f2f8788117e7eff1d82e926ec794901d17c78024a50270940304540a733656f0d60405160405180910390a45b5050565b60007f01ffc9a7000000000000000000000000000000000000000000000000000000007bffffffffffffffffffffffffffffffffffffffffffffffffffffffff1916827bffffffffffffffffffffffffffffffffffffffffffffffffffffffff1916149050919050565b6060612e898273ffffffffffffffffffffffffffffffffffffffff16601460ff16612e90565b9050919050565b606060006002836002612ea39190614a5f565b612ead9190614aa1565b67ffffffffffffffff811115612ec657612ec5614ad5565b5b6040519080825280601f01601f191660200182016040528015612ef85781602001600182028036833780820191505090505b5090507f300000000000000000000000000000000000000000000000000000000000000081600081518110612f3057612f2f613b2e565b5b60200101907effffffffffffffffffffffffffffffffffffffffffffffffffffffffffffff1916908160001a9053507f780000000000000000000000000000000000000000000000000000000000000081600181518110612f9457612f93613b2e565b5b60200101907effffffffffffffffffffffffffffffffffffffffffffffffffffffffffffff1916908160001a90535060006001846002612fd49190614a5f565b612fde9190614aa1565b90505b600181111561307e577f3031323334353637383961626364656600000000000000000000000000000000600f8616601081106130205761301f613b2e565b5b1a60f81b82828151811061303757613036613b2e565b5b60200101907effffffffffffffffffffffffffffffffffffffffffffffffffffffffffffff1916908160001a905350600485901c94508061307790614b04565b9050612fe1565b50600084146130c2576040517f08c379a00000000000000000000000000000000000000000000000000000000081526004016130b990614b79565b60405180910390fd5b8091505092915050565b6130d6828261128e565b156131a957600080600084815260200190815260200160002060000160008373ffffffffffffffffffffffffffffffffffffffff1673ffffffffffffffffffffffffffffffffffffffff16815260200190815260200160002060006101000a81548160ff02191690831515021790555061314e61274a565b73ffffffffffffffffffffffffffffffffffffffff168173ffffffffffffffffffffffffffffffffffffffff16837ff6391f5c32d9c69d2a47ea670b442974b53935d1edc7fd64eb21e047a839171b60405160405180910390a45b5050565b60008183106131bc57816131be565b825b905092915050565b600080fd5b600080fd5b60007fffffffff0000000000000000000000000000000000000000000000000000000082169050919050565b613205816131d0565b811461321057600080fd5b50565b600081359050613222816131fc565b92915050565b60006020828403121561323e5761323d6131c6565b5b600061324c84828501613213565b91505092915050565b60008115159050919050565b61326a81613255565b82525050565b60006020820190506132856000830184613261565b92915050565b600065ffffffffffff82169050919050565b6132a68161328b565b82525050565b60006020820190506132c1600083018461329d565b92915050565b600080fd5b600080fd5b600080fd5b60008083601f8401126132ec576132eb6132c7565b5b8235905067ffffffffffffffff811115613309576133086132cc565b5b602083019150836020820283011115613325576133246132d1565b5b9250929050565b60008060208385031215613343576133426131c6565b5b600083013567ffffffffffffffff811115613361576133606131cb565b5b61336d858286016132d6565b92509250509250929050565b60008083601f84011261338f5761338e6132c7565b5b8235905067ffffffffffffffff8111156133ac576133ab6132cc565b5b6020830191508360208202830111156133c8576133c76132d1565b5b9250929050565b600080602083850312156133e6576133e56131c6565b5b600083013567ffffffffffffffff811115613404576134036131cb565b5b61341085828601613379565b92509250509250929050565b6000819050919050565b61342f8161341c565b811461343a57600080fd5b50565b60008135905061344c81613426565b92915050565b6000819050919050565b61346581613452565b811461347057600080fd5b50565b6000813590506134828161345c565b92915050565b60008083601f84011261349e5761349d6132c7565b5b8235905067ffffffffffffffff8111156134bb576134ba6132cc565b5b6020830191508360208202830111156134d7576134d66132d1565b5b9250929050565b600080600080600080608087890312156134fb576134fa6131c6565b5b600061350989828a0161343d565b965050602061351a89828a01613473565b955050604087013567ffffffffffffffff81111561353b5761353a6131cb565b5b61354789828a01613488565b9450945050606087013567ffffffffffffffff81111561356a576135696131cb565b5b61357689828a01613488565b92509250509295509295509295565b600073ffffffffffffffffffffffffffffffffffffffff82169050919050565b60006135b082613585565b9050919050565b6135c0816135a5565b81146135cb57600080fd5b50565b6000813590506135dd816135b7565b92915050565b6000602082840312156135f9576135f86131c6565b5b6000613607848285016135ce565b91505092915050565b6000819050919050565b61362381613610565b811461362e57600080fd5b50565b6000813590506136408161361a565b92915050565b60006020828403121561365c5761365b6131c6565b5b600061366a84828501613631565b91505092915050565b61367c81613610565b82525050565b60006020820190506136976000830184613673565b92915050565b600080604083850312156136b4576136b36131c6565b5b60006136c285828601613631565b92505060206136d3858286016135ce565b9150509250929050565b6000602082840312156136f3576136f26131c6565b5b60006137018482850161343d565b91505092915050565b600081519050919050565b600082825260208201905092915050565b6000819050602082019050919050565b61373f81613610565b82525050565b60006137518383613736565b60208301905092915050565b6000602082019050919050565b60006137758261370a565b61377f8185613715565b935061378a83613726565b8060005b838110156137bb5781516137a28882613745565b97506137ad8361375d565b92505060018101905061378e565b5085935050505092915050565b600060208201905081810360008301526137e2818461376a565b905092915050565b6137f38161328b565b81146137fe57600080fd5b50565b600081359050613810816137ea565b92915050565b60006020828403121561382c5761382b6131c6565b5b600061383a84828501613801565b91505092915050565b61384c816135a5565b82525050565b60006020820190506138676000830184613843565b92915050565b60008083601f840112613883576138826132c7565b5b8235905067ffffffffffffffff8111156138a05761389f6132cc565b5b6020830191508360018202830111156138bc576138bb6132d1565b5b9250929050565b600080600080606085870312156138dd576138dc6131c6565b5b60006138eb8782880161343d565b94505060206138fc878288016135ce565b935050604085013567ffffffffffffffff81111561391d5761391c6131cb565b5b6139298782880161386d565b925092505092959194509250565b60008083601f84011261394d5761394c6132c7565b5b8235905067ffffffffffffffff81111561396a576139696132cc565b5b602083019150836020820283011115613986576139856132d1565b5b9250929050565b600080602083850312156139a4576139a36131c6565b5b600083013567ffffffffffffffff8111156139c2576139c16131cb565b5b6139ce85828601613937565b92509250509250929050565b60006040820190506139ef600083018561329d565b6139fc602083018461329d565b9392505050565b60007fffffffffffffffff00000000000000000000000000000000000000000000000082169050919050565b613a3881613a03565b8114613a4357600080fd5b50565b600081359050613a5581613a2f565b92915050565b600060208284031215613a7157613a706131c6565b5b6000613a7f84828501613a46565b91505092915050565b6000604082019050613a9d6000830185613843565b613aaa602083018461329d565b9392505050565b600082825260208201905092915050565b7f53706865726558206572726f723a206f70657261746f72207265717569726564600082015250565b6000613af8602083613ab1565b9150613b0382613ac2565b602082019050919050565b60006020820190508181036000830152613b2781613aeb565b9050919050565b7f4e487b7100000000000000000000000000000000000000000000000000000000600052603260045260246000fd5b7f4e487b7100000000000000000000000000000000000000000000000000000000600052601160045260246000fd5b6000613b9782613452565b91507fffffffffffffffffffffffffffffffffffffffffffffffffffffffffffffffff8203613bc957613bc8613b5d565b5b600182019050919050565b600082825260208201905092915050565b6000819050919050565b613bf8816135a5565b82525050565b6000613c0a8383613bef565b60208301905092915050565b6000613c2560208401846135ce565b905092915050565b6000602082019050919050565b6000613c468385613bd4565b9350613c5182613be5565b8060005b85811015613c8a57613c678284613c16565b613c718882613bfe565b9750613c7c83613c2d565b925050600181019050613c55565b5085925050509392505050565b60006020820190508181036000830152613cb2818486613c3a565b90509392505050565b60007affffffffffffffffffffffffffffffffffffffffffffffffffffff82169050919050565b613ceb81613cbb565b8114613cf657600080fd5b50565b600081359050613d0881613ce2565b92915050565b600060208284031215613d2457613d236131c6565b5b6000613d3284828501613cf9565b91505092915050565b600082825260208201905092915050565b6000819050919050565b613d5f81613cbb565b82525050565b6000613d718383613d56565b60208301905092915050565b6000613d8c6020840184613cf9565b905092915050565b6000602082019050919050565b6000613dad8385613d3b565b9350613db882613d4c565b8060005b85811015613df157613dce8284613d7d565b613dd88882613d65565b9750613de383613d94565b925050600181019050613dbc565b5085925050509392505050565b60006020820190508181036000830152613e19818486613da1565b90509392505050565b7f53706865726558206572726f723a20646973616c6c6f7765642073656e646572600082015250565b6000613e58602083613ab1565b9150613e6382613e22565b602082019050919050565b60006020820190508181036000830152613e8781613e4b565b9050919050565b7f53706865726558206572726f723a2073656e646572206164646572207265717560008201527f6972656400000000000000000000000000000000000000000000000000000000602082015250565b6000613eea602483613ab1565b9150613ef582613e8e565b604082019050919050565b60006020820190508181036000830152613f1981613edd565b9050919050565b7f416363657373436f6e74726f6c3a2063616e2774206469726563746c7920677260008201527f616e742064656661756c742061646d696e20726f6c6500000000000000000000602082015250565b6000613f7c603683613ab1565b9150613f8782613f20565b604082019050919050565b60006020820190508181036000830152613fab81613f6f565b9050919050565b7f416363657373436f6e74726f6c3a206f6e6c792063616e2072656e6f756e636560008201527f20696e2074776f2064656c617965642073746570730000000000000000000000602082015250565b600061400e603583613ab1565b915061401982613fb2565b604082019050919050565b6000602082019050818103600083015261403d81614001565b9050919050565b61404d81613a03565b82525050565b6000819050919050565b60008160c01b9050919050565b600061408561408061407b84614053565b61405d565b613a03565b9050919050565b6140958161406a565b82525050565b60006040820190506140b06000830185614044565b6140bd602083018461408c565b9392505050565b600082825260208201905092915050565b600080fd5b82818337505050565b60006140ef83856140c4565b93507f07ffffffffffffffffffffffffffffffffffffffffffffffffffffffffffffff831115614122576141216140d5565b5b6020830292506141338385846140da565b82840190509392505050565b6000602082019050818103600083015261415a8184866140e3565b90509392505050565b7f53706865726558206572726f723a20696c6c6567616c2072756c657320636f6d60008201527f62696e6174696f6e000000000000000000000000000000000000000000000000602082015250565b60006141bf602883613ab1565b91506141ca82614163565b604082019050919050565b600060208201905081810360008301526141ee816141b2565b9050919050565b600060408201905061420a6000830185614044565b6142176020830184614044565b9392505050565b7f416363657373436f6e74726f6c3a2070656e64696e672061646d696e206d757360008201527f7420616363657074000000000000000000000000000000000000000000000000602082015250565b600061427a602883613ab1565b91506142858261421e565b604082019050919050565b600060208201905081810360008301526142a98161426d565b9050919050565b7f416363657373436f6e74726f6c3a2063616e2774206469726563746c7920726560008201527f766f6b652064656661756c742061646d696e20726f6c65000000000000000000602082015250565b600061430c603783613ab1565b9150614317826142b0565b604082019050919050565b6000602082019050818103600083015261433b816142ff565b9050919050565b7f53706865726558206572726f723a206578706563746564206e6567617469766560008201527f206e756d00000000000000000000000000000000000000000000000000000000602082015250565b600061439e602483613ab1565b91506143a982614342565b604082019050919050565b600060208201905081810360008301526143cd81614391565b9050919050565b6143dd8161341c565b82525050565b6143ec81613cbb565b82525050565b600060408201905061440760008301856143d4565b61441460208301846143e3565b9392505050565b600061ffff82169050919050565b60006144348261441b565b91506000820361444757614446613b5d565b5b600182039050919050565b7f416363657373436f6e74726f6c3a2063616e206f6e6c792072656e6f756e636560008201527f20726f6c657320666f722073656c660000000000000000000000000000000000602082015250565b60006144ae602f83613ab1565b91506144b982614452565b604082019050919050565b600060208201905081810360008301526144dd816144a1565b9050919050565b7f53706865726558206572726f723a20657870656374656420706f73697469766560008201527f206e756d00000000000000000000000000000000000000000000000000000000602082015250565b6000614540602483613ab1565b915061454b826144e4565b604082019050919050565b6000602082019050818103600083015261456f81614533565b9050919050565b61457f81613452565b82525050565b600060808201905061459a6000830187614576565b6145a76020830186613843565b6145b46040830185614576565b6145c16060830184614576565b95945050505050565b60006145d58261441b565b915061ffff82036145e9576145e8613b5d565b5b600182019050919050565b60006145ff8261328b565b915061460a8361328b565b9250828201905065ffffffffffff81111561462857614627613b5d565b5b92915050565b7f416363657373436f6e74726f6c3a2064656661756c742061646d696e20616c7260008201527f65616479206772616e7465640000000000000000000000000000000000000000602082015250565b600061468a602c83613ab1565b91506146958261462e565b604082019050919050565b600060208201905081810360008301526146b98161467d565b9050919050565b7f416363657373436f6e74726f6c3a207472616e736665722064656c6179206e6f60008201527f7420706173736564000000000000000000000000000000000000000000000000602082015250565b600061471c602883613ab1565b9150614727826146c0565b604082019050919050565b6000602082019050818103600083015261474b8161470f565b9050919050565b7f53706865726558206572726f723a20646973616c6c6f7765642074782070617460008201527f7465726e00000000000000000000000000000000000000000000000000000000602082015250565b60006147ae602483613ab1565b91506147b982614752565b604082019050919050565b600060208201905081810360008301526147dd816147a1565b9050919050565b600081905092915050565b7f416363657373436f6e74726f6c3a206163636f756e7420000000000000000000600082015250565b60006148256017836147e4565b9150614830826147ef565b601782019050919050565b600081519050919050565b60005b83811015614864578082015181840152602081019050614849565b60008484015250505050565b600061487b8261483b565b61488581856147e4565b9350614895818560208601614846565b80840191505092915050565b7f206973206d697373696e6720726f6c6520000000000000000000000000000000600082015250565b60006148d76011836147e4565b91506148e2826148a1565b601182019050919050565b60006148f882614818565b91506149048285614870565b915061490f826148ca565b915061491b8284614870565b91508190509392505050565b6000601f19601f8301169050919050565b60006149438261483b565b61494d8185613ab1565b935061495d818560208601614846565b61496681614927565b840191505092915050565b6000602082019050818103600083015261498b8184614938565b905092915050565b7f53616665436173743a2076616c756520646f65736e27742066697420696e203460008201527f3820626974730000000000000000000000000000000000000000000000000000602082015250565b60006149ef602683613ab1565b91506149fa82614993565b604082019050919050565b60006020820190508181036000830152614a1e816149e2565b9050919050565b6000614a308261328b565b9150614a3b8361328b565b9250828203905065ffffffffffff811115614a5957614a58613b5d565b5b92915050565b6000614a6a82613452565b9150614a7583613452565b9250828202614a8381613452565b91508282048414831517614a9a57614a99613b5d565b5b5092915050565b6000614aac82613452565b9150614ab783613452565b9250828201905080821115614acf57614ace613b5d565b5b92915050565b7f4e487b7100000000000000000000000000000000000000000000000000000000600052604160045260246000fd5b6000614b0f82613452565b915060008203614b2257614b21613b5d565b5b600182039050919050565b7f537472696e67733a20686578206c656e67746820696e73756666696369656e74600082015250565b6000614b63602083613ab1565b9150614b6e82614b2d565b602082019050919050565b60006020820190508181036000830152614b9281614b56565b905091905056fea2646970667358221220aa691f7ed2caa34a0d86f66fba22f22ebd0724f259200e89952aefe69d71100e64736f6c63430008130033",
  "linkReferences": {},
  "deployedLinkReferences": {}
}