{
  "_format": "hh-sol-artifact-1",
  "contractName": "SphereXEngine",
  "sourceName": "src/SphereXEngine.sol",
  "abi": [
    {
      "inputs": [
        {
          "internalType": "uint48",
          "name": "initialDelay",
          "type": "uint48"
        },
        {
          "internalType": "address",
          "name": "initialDefaultAdmin",
          "type": "address"
        }
      ],
      "stateMutability": "nonpayable",
      "type": "constructor"
    },
    {
      "anonymous": false,
      "inputs": [
        {
          "indexed": false,
          "internalType": "uint216[]",
          "name": "patterns",
          "type": "uint216[]"
        }
      ],
      "name": "AddedAllowedPatterns",
      "type": "event"
    },
    {
      "anonymous": false,
      "inputs": [
        {
          "indexed": false,
          "internalType": "address",
          "name": "sender",
          "type": "address"
        }
      ],
      "name": "AddedAllowedSenderOnchain",
      "type": "event"
    },
    {
      "anonymous": false,
      "inputs": [
        {
          "indexed": false,
          "internalType": "address[]",
          "name": "senders",
          "type": "address[]"
        }
      ],
      "name": "AddedAllowedSenders",
      "type": "event"
    },
    {
      "anonymous": false,
      "inputs": [
        {
          "indexed": false,
          "internalType": "bytes8",
          "name": "oldRules",
          "type": "bytes8"
        },
        {
          "indexed": false,
          "internalType": "bytes8",
          "name": "newRules",
          "type": "bytes8"
        }
      ],
      "name": "ConfigureRules",
      "type": "event"
    },
    {
      "anonymous": false,
      "inputs": [],
      "name": "DefaultAdminDelayChangeCanceled",
      "type": "event"
    },
    {
      "anonymous": false,
      "inputs": [
        {
          "indexed": false,
          "internalType": "uint48",
          "name": "newDelay",
          "type": "uint48"
        },
        {
          "indexed": false,
          "internalType": "uint48",
          "name": "effectSchedule",
          "type": "uint48"
        }
      ],
      "name": "DefaultAdminDelayChangeScheduled",
      "type": "event"
    },
    {
      "anonymous": false,
      "inputs": [],
      "name": "DefaultAdminTransferCanceled",
      "type": "event"
    },
    {
      "anonymous": false,
      "inputs": [
        {
          "indexed": true,
          "internalType": "address",
          "name": "newAdmin",
          "type": "address"
        },
        {
          "indexed": false,
          "internalType": "uint48",
          "name": "acceptSchedule",
          "type": "uint48"
        }
      ],
      "name": "DefaultAdminTransferScheduled",
      "type": "event"
    },
    {
      "anonymous": false,
      "inputs": [
        {
          "indexed": false,
          "internalType": "uint216[]",
          "name": "patterns",
          "type": "uint216[]"
        }
      ],
      "name": "RemovedAllowedPatterns",
      "type": "event"
    },
    {
      "anonymous": false,
      "inputs": [
        {
          "indexed": false,
          "internalType": "address[]",
          "name": "senders",
          "type": "address[]"
        }
      ],
      "name": "RemovedAllowedSenders",
      "type": "event"
    },
    {
      "anonymous": false,
      "inputs": [
        {
          "indexed": true,
          "internalType": "bytes32",
          "name": "role",
          "type": "bytes32"
        },
        {
          "indexed": true,
          "internalType": "bytes32",
          "name": "previousAdminRole",
          "type": "bytes32"
        },
        {
          "indexed": true,
          "internalType": "bytes32",
          "name": "newAdminRole",
          "type": "bytes32"
        }
      ],
      "name": "RoleAdminChanged",
      "type": "event"
    },
    {
      "anonymous": false,
      "inputs": [
        {
          "indexed": true,
          "internalType": "bytes32",
          "name": "role",
          "type": "bytes32"
        },
        {
          "indexed": true,
          "internalType": "address",
          "name": "account",
          "type": "address"
        },
        {
          "indexed": true,
          "internalType": "address",
          "name": "sender",
          "type": "address"
        }
      ],
      "name": "RoleGranted",
      "type": "event"
    },
    {
      "anonymous": false,
      "inputs": [
        {
          "indexed": true,
          "internalType": "bytes32",
          "name": "role",
          "type": "bytes32"
        },
        {
          "indexed": true,
          "internalType": "address",
          "name": "account",
          "type": "address"
        },
        {
          "indexed": true,
          "internalType": "address",
          "name": "sender",
          "type": "address"
        }
      ],
      "name": "RoleRevoked",
      "type": "event"
    },
    {
      "anonymous": false,
      "inputs": [],
      "name": "TxStartedAtIrregularDepth",
      "type": "event"
    },
    {
      "inputs": [],
      "name": "DEFAULT_ADMIN_ROLE",
      "outputs": [
        {
          "internalType": "bytes32",
          "name": "",
          "type": "bytes32"
        }
      ],
      "stateMutability": "view",
      "type": "function"
    },
    {
      "inputs": [],
      "name": "OPERATOR_ROLE",
      "outputs": [
        {
          "internalType": "bytes32",
          "name": "",
          "type": "bytes32"
        }
      ],
      "stateMutability": "view",
      "type": "function"
    },
    {
      "inputs": [],
      "name": "SENDER_ADDER_ROLE",
      "outputs": [
        {
          "internalType": "bytes32",
          "name": "",
          "type": "bytes32"
        }
      ],
      "stateMutability": "view",
      "type": "function"
    },
    {
      "inputs": [],
      "name": "acceptDefaultAdminTransfer",
      "outputs": [],
      "stateMutability": "nonpayable",
      "type": "function"
    },
    {
      "inputs": [
        {
          "internalType": "uint216[]",
          "name": "patterns",
          "type": "uint216[]"
        }
      ],
      "name": "addAllowedPatterns",
      "outputs": [],
      "stateMutability": "nonpayable",
      "type": "function"
    },
    {
      "inputs": [
        {
          "internalType": "address[]",
          "name": "senders",
          "type": "address[]"
        }
      ],
      "name": "addAllowedSender",
      "outputs": [],
      "stateMutability": "nonpayable",
      "type": "function"
    },
    {
      "inputs": [
        {
          "internalType": "address",
          "name": "sender",
          "type": "address"
        }
      ],
      "name": "addAllowedSenderOnChain",
      "outputs": [],
      "stateMutability": "nonpayable",
      "type": "function"
    },
    {
      "inputs": [
        {
          "internalType": "address",
          "name": "newAdmin",
          "type": "address"
        }
      ],
      "name": "beginDefaultAdminTransfer",
      "outputs": [],
      "stateMutability": "nonpayable",
      "type": "function"
    },
    {
      "inputs": [],
      "name": "cancelDefaultAdminTransfer",
      "outputs": [],
      "stateMutability": "nonpayable",
      "type": "function"
    },
    {
      "inputs": [
        {
          "internalType": "uint48",
          "name": "newDelay",
          "type": "uint48"
        }
      ],
      "name": "changeDefaultAdminDelay",
      "outputs": [],
      "stateMutability": "nonpayable",
      "type": "function"
    },
    {
      "inputs": [
        {
          "internalType": "bytes8",
          "name": "rules",
          "type": "bytes8"
        }
      ],
      "name": "configureRules",
      "outputs": [],
      "stateMutability": "nonpayable",
      "type": "function"
    },
    {
      "inputs": [],
      "name": "deactivateAllRules",
      "outputs": [],
      "stateMutability": "nonpayable",
      "type": "function"
    },
    {
      "inputs": [],
      "name": "defaultAdmin",
      "outputs": [
        {
          "internalType": "address",
          "name": "",
          "type": "address"
        }
      ],
      "stateMutability": "view",
      "type": "function"
    },
    {
      "inputs": [],
      "name": "defaultAdminDelay",
      "outputs": [
        {
          "internalType": "uint48",
          "name": "",
          "type": "uint48"
        }
      ],
      "stateMutability": "view",
      "type": "function"
    },
    {
      "inputs": [],
      "name": "defaultAdminDelayIncreaseWait",
      "outputs": [
        {
          "internalType": "uint48",
          "name": "",
          "type": "uint48"
        }
      ],
      "stateMutability": "view",
      "type": "function"
    },
    {
      "inputs": [
        {
          "internalType": "bytes32",
          "name": "role",
          "type": "bytes32"
        }
      ],
      "name": "getRoleAdmin",
      "outputs": [
        {
          "internalType": "bytes32",
          "name": "",
          "type": "bytes32"
        }
      ],
      "stateMutability": "view",
      "type": "function"
    },
    {
      "inputs": [
        {
          "internalType": "bytes32",
          "name": "role",
          "type": "bytes32"
        },
        {
          "internalType": "address",
          "name": "account",
          "type": "address"
        }
      ],
      "name": "grantRole",
      "outputs": [],
      "stateMutability": "nonpayable",
      "type": "function"
    },
    {
      "inputs": [
        {
          "internalType": "address",
          "name": "newSenderAdder",
          "type": "address"
        }
      ],
      "name": "grantSenderAdderRole",
      "outputs": [],
      "stateMutability": "nonpayable",
      "type": "function"
    },
    {
      "inputs": [
        {
          "internalType": "bytes32",
          "name": "role",
          "type": "bytes32"
        },
        {
          "internalType": "address",
          "name": "account",
          "type": "address"
        }
      ],
      "name": "hasRole",
      "outputs": [
        {
          "internalType": "bool",
          "name": "",
          "type": "bool"
        }
      ],
      "stateMutability": "view",
      "type": "function"
    },
    {
      "inputs": [],
      "name": "owner",
      "outputs": [
        {
          "internalType": "address",
          "name": "",
          "type": "address"
        }
      ],
      "stateMutability": "view",
      "type": "function"
    },
    {
      "inputs": [],
      "name": "pendingDefaultAdmin",
      "outputs": [
        {
          "internalType": "address",
          "name": "newAdmin",
          "type": "address"
        },
        {
          "internalType": "uint48",
          "name": "schedule",
          "type": "uint48"
        }
      ],
      "stateMutability": "view",
      "type": "function"
    },
    {
      "inputs": [],
      "name": "pendingDefaultAdminDelay",
      "outputs": [
        {
          "internalType": "uint48",
          "name": "newDelay",
          "type": "uint48"
        },
        {
          "internalType": "uint48",
          "name": "schedule",
          "type": "uint48"
        }
      ],
      "stateMutability": "view",
      "type": "function"
    },
    {
      "inputs": [
        {
          "internalType": "uint216[]",
          "name": "patterns",
          "type": "uint216[]"
        }
      ],
      "name": "removeAllowedPatterns",
      "outputs": [],
      "stateMutability": "nonpayable",
      "type": "function"
    },
    {
      "inputs": [
        {
          "internalType": "address[]",
          "name": "senders",
          "type": "address[]"
        }
      ],
      "name": "removeAllowedSender",
      "outputs": [],
      "stateMutability": "nonpayable",
      "type": "function"
    },
    {
      "inputs": [
        {
          "internalType": "bytes32",
          "name": "role",
          "type": "bytes32"
        },
        {
          "internalType": "address",
          "name": "account",
          "type": "address"
        }
      ],
      "name": "renounceRole",
      "outputs": [],
      "stateMutability": "nonpayable",
      "type": "function"
    },
    {
      "inputs": [
        {
          "internalType": "bytes32",
          "name": "role",
          "type": "bytes32"
        },
        {
          "internalType": "address",
          "name": "account",
          "type": "address"
        }
      ],
      "name": "revokeRole",
      "outputs": [],
      "stateMutability": "nonpayable",
      "type": "function"
    },
    {
      "inputs": [],
      "name": "rollbackDefaultAdminDelay",
      "outputs": [],
      "stateMutability": "nonpayable",
      "type": "function"
    },
    {
      "inputs": [
        {
          "internalType": "int256",
          "name": "num",
          "type": "int256"
        },
        {
          "internalType": "uint256",
          "name": "gas",
          "type": "uint256"
        },
        {
          "internalType": "bytes32[]",
          "name": "valuesBefore",
          "type": "bytes32[]"
        },
        {
          "internalType": "bytes32[]",
          "name": "valuesAfter",
          "type": "bytes32[]"
        }
      ],
      "name": "sphereXValidateInternalPost",
      "outputs": [],
      "stateMutability": "nonpayable",
      "type": "function"
    },
    {
      "inputs": [
        {
          "internalType": "int256",
          "name": "num",
          "type": "int256"
        }
      ],
      "name": "sphereXValidateInternalPre",
      "outputs": [
        {
          "internalType": "bytes32[]",
          "name": "result",
          "type": "bytes32[]"
        }
      ],
      "stateMutability": "nonpayable",
      "type": "function"
    },
    {
      "inputs": [
        {
          "internalType": "int256",
          "name": "num",
          "type": "int256"
        },
        {
          "internalType": "uint256",
          "name": "gas",
          "type": "uint256"
        },
        {
          "internalType": "bytes32[]",
          "name": "valuesBefore",
          "type": "bytes32[]"
        },
        {
          "internalType": "bytes32[]",
          "name": "valuesAfter",
          "type": "bytes32[]"
        }
      ],
      "name": "sphereXValidatePost",
      "outputs": [],
      "stateMutability": "nonpayable",
      "type": "function"
    },
    {
      "inputs": [
        {
          "internalType": "int256",
          "name": "num",
          "type": "int256"
        },
        {
          "internalType": "address",
          "name": "sender",
          "type": "address"
        },
        {
          "internalType": "bytes",
          "name": "data",
          "type": "bytes"
        }
      ],
      "name": "sphereXValidatePre",
      "outputs": [
        {
          "internalType": "bytes32[]",
          "name": "result",
          "type": "bytes32[]"
        }
      ],
      "stateMutability": "nonpayable",
      "type": "function"
    },
    {
      "inputs": [
        {
          "internalType": "bytes4",
          "name": "interfaceId",
          "type": "bytes4"
        }
      ],
      "name": "supportsInterface",
      "outputs": [
        {
          "internalType": "bool",
          "name": "",
          "type": "bool"
        }
      ],
      "stateMutability": "view",
      "type": "function"
    }
  ],
  "bytecode": "0x60806040526040518060600160405280600161ffff168152602001600160e81b7cffffffffffffffffffffffffffffffffffffffffffffffffffffffffff1916815260200160017affffffffffffffffffffffffffffffffffffffffffffffffffffff16815250600660008201518160000160006101000a81548161ffff021916908361ffff16021790555060208201518160000160026101000a81548162ffffff021916908360e81c021790555060408201518160000160056101000a8154817affffffffffffffffffffffffffffffffffffffffffffffffffffff02191690837affffffffffffffffffffffffffffffffffffffffffffffffffffff16021790555050503480156200011257600080fd5b50604051620053263803806200532683398181016040528101906200013891906200094c565b8181600073ffffffffffffffffffffffffffffffffffffffff168173ffffffffffffffffffffffffffffffffffffffff1603620001ac576040517f08c379a0000000000000000000000000000000000000000000000000000000008152600401620001a390620009f4565b60405180910390fd5b816001601a6101000a81548165ffffffffffff021916908365ffffffffffff160217905550620001e66000801b826200022260201b60201c565b50506200021a7f97667070c54ef182b0f5858b034beac1b6f3089aa2d3188bb1e8929f4fa9b929826200030660201b60201c565b505062000ed4565b6000801b8203620002f057600073ffffffffffffffffffffffffffffffffffffffff16620002556200036460201b60201c565b73ffffffffffffffffffffffffffffffffffffffff1614620002ae576040517f08c379a0000000000000000000000000000000000000000000000000000000008152600401620002a59062000a8c565b60405180910390fd5b80600260006101000a81548173ffffffffffffffffffffffffffffffffffffffff021916908373ffffffffffffffffffffffffffffffffffffffff1602179055505b6200030282826200038e60201b60201c565b5050565b6000801b82036200034e576040517f08c379a0000000000000000000000000000000000000000000000000000000008152600401620003459062000b24565b60405180910390fd5b6200036082826200047f60201b60201c565b5050565b6000600260009054906101000a900473ffffffffffffffffffffffffffffffffffffffff16905090565b620003a08282620004b860201b60201c565b6200047b57600160008084815260200190815260200160002060000160008373ffffffffffffffffffffffffffffffffffffffff1673ffffffffffffffffffffffffffffffffffffffff16815260200190815260200160002060006101000a81548160ff021916908315150217905550620004206200052260201b60201c565b73ffffffffffffffffffffffffffffffffffffffff168173ffffffffffffffffffffffffffffffffffffffff16837f2f8788117e7eff1d82e926ec794901d17c78024a50270940304540a733656f0d60405160405180910390a45b5050565b62000490826200052a60201b60201c565b620004a1816200054960201b60201c565b620004b383836200022260201b60201c565b505050565b600080600084815260200190815260200160002060000160008373ffffffffffffffffffffffffffffffffffffffff1673ffffffffffffffffffffffffffffffffffffffff16815260200190815260200160002060009054906101000a900460ff16905092915050565b600033905090565b6000806000838152602001908152602001600020600101549050919050565b6200056a816200055e6200052260201b60201c565b6200056d60201b60201c565b50565b6200057f8282620004b860201b60201c565b6200060b5762000595816200060f60201b60201c565b620005ab8360001c60206200064460201b60201c565b604051602001620005be92919062000c5f565b6040516020818303038152906040526040517f08c379a000000000000000000000000000000000000000000000000000000000815260040162000602919062000cf3565b60405180910390fd5b5050565b60606200063d8273ffffffffffffffffffffffffffffffffffffffff16601460ff166200064460201b60201c565b9050919050565b60606000600283600262000659919062000d50565b62000665919062000d9b565b67ffffffffffffffff81111562000681576200068062000dd6565b5b6040519080825280601f01601f191660200182016040528015620006b45781602001600182028036833780820191505090505b5090507f300000000000000000000000000000000000000000000000000000000000000081600081518110620006ef57620006ee62000e05565b5b60200101907effffffffffffffffffffffffffffffffffffffffffffffffffffffffffffff1916908160001a9053507f78000000000000000000000000000000000000000000000000000000000000008160018151811062000756576200075562000e05565b5b60200101907effffffffffffffffffffffffffffffffffffffffffffffffffffffffffffff1916908160001a9053506000600184600262000798919062000d50565b620007a4919062000d9b565b90505b60018111156200084e577f3031323334353637383961626364656600000000000000000000000000000000600f861660108110620007ea57620007e962000e05565b5b1a60f81b82828151811062000804576200080362000e05565b5b60200101907effffffffffffffffffffffffffffffffffffffffffffffffffffffffffffff1916908160001a905350600485901c945080620008469062000e34565b9050620007a7565b506000841462000895576040517f08c379a00000000000000000000000000000000000000000000000000000000081526004016200088c9062000eb2565b60405180910390fd5b8091505092915050565b600080fd5b600065ffffffffffff82169050919050565b620008c181620008a4565b8114620008cd57600080fd5b50565b600081519050620008e181620008b6565b92915050565b600073ffffffffffffffffffffffffffffffffffffffff82169050919050565b60006200091482620008e7565b9050919050565b620009268162000907565b81146200093257600080fd5b50565b60008151905062000946816200091b565b92915050565b600080604083850312156200096657620009656200089f565b5b60006200097685828601620008d0565b9250506020620009898582860162000935565b9150509250929050565b600082825260208201905092915050565b7f416363657373436f6e74726f6c3a20302064656661756c742061646d696e0000600082015250565b6000620009dc601e8362000993565b9150620009e982620009a4565b602082019050919050565b6000602082019050818103600083015262000a0f81620009cd565b9050919050565b7f416363657373436f6e74726f6c3a2064656661756c742061646d696e20616c7260008201527f65616479206772616e7465640000000000000000000000000000000000000000602082015250565b600062000a74602c8362000993565b915062000a818262000a16565b604082019050919050565b6000602082019050818103600083015262000aa78162000a65565b9050919050565b7f416363657373436f6e74726f6c3a2063616e2774206469726563746c7920677260008201527f616e742064656661756c742061646d696e20726f6c6500000000000000000000602082015250565b600062000b0c60368362000993565b915062000b198262000aae565b604082019050919050565b6000602082019050818103600083015262000b3f8162000afd565b9050919050565b600081905092915050565b7f416363657373436f6e74726f6c3a206163636f756e7420000000000000000000600082015250565b600062000b8960178362000b46565b915062000b968262000b51565b601782019050919050565b600081519050919050565b60005b8381101562000bcc57808201518184015260208101905062000baf565b60008484015250505050565b600062000be58262000ba1565b62000bf1818562000b46565b935062000c0381856020860162000bac565b80840191505092915050565b7f206973206d697373696e6720726f6c6520000000000000000000000000000000600082015250565b600062000c4760118362000b46565b915062000c548262000c0f565b601182019050919050565b600062000c6c8262000b7a565b915062000c7a828562000bd8565b915062000c878262000c38565b915062000c95828462000bd8565b91508190509392505050565b6000601f19601f8301169050919050565b600062000cbf8262000ba1565b62000ccb818562000993565b935062000cdd81856020860162000bac565b62000ce88162000ca1565b840191505092915050565b6000602082019050818103600083015262000d0f818462000cb2565b905092915050565b6000819050919050565b7f4e487b7100000000000000000000000000000000000000000000000000000000600052601160045260246000fd5b600062000d5d8262000d17565b915062000d6a8362000d17565b925082820262000d7a8162000d17565b9150828204841483151762000d945762000d9362000d21565b5b5092915050565b600062000da88262000d17565b915062000db58362000d17565b925082820190508082111562000dd05762000dcf62000d21565b5b92915050565b7f4e487b7100000000000000000000000000000000000000000000000000000000600052604160045260246000fd5b7f4e487b7100000000000000000000000000000000000000000000000000000000600052603260045260246000fd5b600062000e418262000d17565b91506000820362000e575762000e5662000d21565b5b600182039050919050565b7f537472696e67733a20686578206c656e67746820696e73756666696369656e74600082015250565b600062000e9a60208362000993565b915062000ea78262000e62565b602082019050919050565b6000602082019050818103600083015262000ecd8162000e8b565b9050919050565b6144428062000ee46000396000f3fe608060405234801561001057600080fd5b50600436106101f05760003560e01c806380a0b6da1161010f578063b8cd969c116100a2578063d547741f11610071578063d547741f14610545578063d602b9fd14610561578063f0bd94681461056b578063f5b541a614610587576101f0565b8063b8cd969c146104e2578063cc8463c8146104fe578063cefc14291461051c578063cf6eefb714610526576101f0565b806391d14854116100de57806391d1485414610459578063a121be8a14610489578063a1eda53c146104a5578063a217fddf146104c4576101f0565b806380a0b6da146103d157806384ef8ffc146103ed5780638925ca5a1461040b5780638da5cb5b1461043b576101f0565b80632f2ff15d1161018757806345a4ba6b1161015657806345a4ba6b14610373578063634e93da1461038f578063649a5ec7146103ab5780637a44fd9d146103c7576101f0565b80632f2ff15d146102ed57806336568abe146103095780633e884943146103255780634320d34f14610355576101f0565b806304e6279a116101c357806304e6279a1461027b5780630aa6220b1461029757806311ede2e6146102a1578063248a9ca3146102bd576101f0565b806301ffc9a7146101f5578063022d63fb14610225578063024e471814610243578063045390621461025f575b600080fd5b61020f600480360381019061020a9190612bdd565b6105a5565b60405161021c9190612c25565b60405180910390f35b61022d61061f565b60405161023a9190612c61565b60405180910390f35b61025d60048036038101906102589190612ce1565b61062a565b005b61027960048036038101906102749190612d84565b61076f565b005b61029560048036038101906102909190612e93565b6108c2565b005b61029f610997565b005b6102bb60048036038101906102b69190612f98565b6109af565b005b6102d760048036038101906102d29190612ffb565b610aaa565b6040516102e49190613037565b60405180910390f35b61030760048036038101906103029190613052565b610ac9565b005b610323600480360381019061031e9190613052565b610b1c565b005b61033f600480360381019061033a9190613092565b610c2d565b60405161034c919061317d565b60405180910390f35b61035d610cff565b60405161036a9190613037565b60405180910390f35b61038d60048036038101906103889190612ce1565b610d23565b005b6103a960048036038101906103a49190612f98565b610e68565b005b6103c560048036038101906103c091906131cb565b610e82565b005b6103cf610e9c565b005b6103eb60048036038101906103e69190612d84565b610f7c565b005b6103f56110cf565b6040516104029190613207565b60405180910390f35b61042560048036038101906104209190613278565b6110f9565b604051610432919061317d565b60405180910390f35b6104436111ce565b6040516104509190613207565b60405180910390f35b610473600480360381019061046e9190613052565b6111dd565b6040516104809190612c25565b60405180910390f35b6104a3600480360381019061049e9190612f98565b611247565b005b6104ad6112dd565b6040516104bb9291906132ec565b60405180910390f35b6104cc61133d565b6040516104d99190613037565b60405180910390f35b6104fc60048036038101906104f7919061336d565b611344565b005b61050661148c565b6040516105139190612c61565b60405180910390f35b6105246114fa565b005b61052e611587565b60405161053c92919061339a565b60405180910390f35b61055f600480360381019061055a9190613052565b6115ca565b005b61056961161d565b005b61058560048036038101906105809190612e93565b611635565b005b61058f61170a565b60405161059c9190613037565b60405180910390f35b60007f53e41baa000000000000000000000000000000000000000000000000000000007bffffffffffffffffffffffffffffffffffffffffffffffffffffffff1916827bffffffffffffffffffffffffffffffffffffffffffffffffffffffff1916148061061857506106178261172e565b5b9050919050565b600062069780905090565b6106547f97667070c54ef182b0f5858b034beac1b6f3089aa2d3188bb1e8929f4fa9b929336111dd565b610693576040517f08c379a000000000000000000000000000000000000000000000000000000000815260040161068a90613420565b60405180910390fd5b60005b82829050811015610731576001600460008585858181106106ba576106b9613440565b5b90506020020160208101906106cf9190612f98565b73ffffffffffffffffffffffffffffffffffffffff1673ffffffffffffffffffffffffffffffffffffffff16815260200190815260200160002060006101000a81548160ff0219169083151502179055508061072a9061349e565b9050610696565b507f0adaca063849be3759cb543670f0440af048e0710f921ab27965a7c73095228f82826040516107639291906135a9565b60405180910390a15050565b6107997f97667070c54ef182b0f5858b034beac1b6f3089aa2d3188bb1e8929f4fa9b929336111dd565b6107d8576040517f08c379a00000000000000000000000000000000000000000000000000000000081526004016107cf90613420565b60405180910390fd5b60005b82829050811015610884576001600560008585858181106107ff576107fe613440565b5b90506020020160208101906108149190613620565b7affffffffffffffffffffffffffffffffffffffffffffffffffffff167affffffffffffffffffffffffffffffffffffffffffffffffffffff16815260200190815260200160002060006101000a81548160ff0219169083151502179055508061087d9061349e565b90506107db565b507f12b3c3c8e9f31199ca2ce68c8eea4b65d2f3e2ac799aeea1e05e8876b814261b82826040516108b6929190613710565b60405180910390a15050565b6000801b600360009054906101000a900460c01b77ffffffffffffffffffffffffffffffffffffffffffffffff1916031561098f57600460003373ffffffffffffffffffffffffffffffffffffffff1673ffffffffffffffffffffffffffffffffffffffff16815260200190815260200160002060009054906101000a900460ff16610983576040517f08c379a000000000000000000000000000000000000000000000000000000000815260040161097a90613780565b60405180910390fd5b61098e8660006117a8565b5b505050505050565b6000801b6109a481611aae565b6109ac611ac2565b50565b6109d97f460586411c358994ccf85e825f5c4a921e754a35d68c0fc3a73566e9474fc2bd336111dd565b610a18576040517f08c379a0000000000000000000000000000000000000000000000000000000008152600401610a0f90613812565b60405180910390fd5b6001600460008373ffffffffffffffffffffffffffffffffffffffff1673ffffffffffffffffffffffffffffffffffffffff16815260200190815260200160002060006101000a81548160ff0219169083151502179055507fe952bc401d6fb727e0844c82c96c017ed11b5bc6a213b3b45a0413cd37cd272081604051610a9f9190613207565b60405180910390a150565b6000806000838152602001908152602001600020600101549050919050565b6000801b8203610b0e576040517f08c379a0000000000000000000000000000000000000000000000000000000008152600401610b05906138a4565b60405180910390fd5b610b188282611acf565b5050565b6000801b82148015610b605750610b316110cf565b73ffffffffffffffffffffffffffffffffffffffff168173ffffffffffffffffffffffffffffffffffffffff16145b15610c1f57600080610b70611587565b91509150600073ffffffffffffffffffffffffffffffffffffffff168273ffffffffffffffffffffffffffffffffffffffff16148015610bb55750610bb481611af0565b5b8015610bc65750610bc581611b05565b5b610c05576040517f08c379a0000000000000000000000000000000000000000000000000000000008152600401610bfc90613936565b60405180910390fd5b600160146101000a81549065ffffffffffff021916905550505b610c298282611b19565b5050565b60606000801b600360009054906101000a900460c01b77ffffffffffffffffffffffffffffffffffffffffffffffff19160315610cfa57600460003373ffffffffffffffffffffffffffffffffffffffff1673ffffffffffffffffffffffffffffffffffffffff16815260200190815260200160002060009054906101000a900460ff16610cf0576040517f08c379a0000000000000000000000000000000000000000000000000000000008152600401610ce790613780565b60405180910390fd5b610cf982611b9c565b5b919050565b7f460586411c358994ccf85e825f5c4a921e754a35d68c0fc3a73566e9474fc2bd81565b610d4d7f97667070c54ef182b0f5858b034beac1b6f3089aa2d3188bb1e8929f4fa9b929336111dd565b610d8c576040517f08c379a0000000000000000000000000000000000000000000000000000000008152600401610d8390613420565b60405180910390fd5b60005b82829050811015610e2a57600060046000858585818110610db357610db2613440565b5b9050602002016020810190610dc89190612f98565b73ffffffffffffffffffffffffffffffffffffffff1673ffffffffffffffffffffffffffffffffffffffff16815260200190815260200160002060006101000a81548160ff02191690831515021790555080610e239061349e565b9050610d8f565b507f38bf8ff81f4ef76eb9b7ec6ceb193303f52abb512c5b36fa6f532c24fa974de18282604051610e5c9291906135a9565b60405180910390a15050565b6000801b610e7581611aae565b610e7e82611f70565b5050565b6000801b610e8f81611aae565b610e9882611feb565b5050565b610ec67f97667070c54ef182b0f5858b034beac1b6f3089aa2d3188bb1e8929f4fa9b929336111dd565b610f05576040517f08c379a0000000000000000000000000000000000000000000000000000000008152600401610efc90613420565b60405180910390fd5b6000600360009054906101000a900460c01b9050600060c01b600360006101000a81548167ffffffffffffffff021916908360c01c02179055507f35d4bdc972b8d2c63d5243d90057ff81f618c8d583493cd73cdc182fd684d658816000604051610f719291906139ad565b60405180910390a150565b610fa67f97667070c54ef182b0f5858b034beac1b6f3089aa2d3188bb1e8929f4fa9b929336111dd565b610fe5576040517f08c379a0000000000000000000000000000000000000000000000000000000008152600401610fdc90613420565b60405180910390fd5b60005b828290508110156110915760006005600085858581811061100c5761100b613440565b5b90506020020160208101906110219190613620565b7affffffffffffffffffffffffffffffffffffffffffffffffffffff167affffffffffffffffffffffffffffffffffffffffffffffffffffff16815260200190815260200160002060006101000a81548160ff0219169083151502179055508061108a9061349e565b9050610fe8565b507f60f43c5d70cdb8687221ed14f818268b280bd8e725bfd21a8afa20c3eac8859a82826040516110c3929190613710565b60405180910390a15050565b6000600260009054906101000a900473ffffffffffffffffffffffffffffffffffffffff16905090565b60606000801b600360009054906101000a900460c01b77ffffffffffffffffffffffffffffffffffffffffffffffff191603156111c657600460003373ffffffffffffffffffffffffffffffffffffffff1673ffffffffffffffffffffffffffffffffffffffff16815260200190815260200160002060009054906101000a900460ff166111bc576040517f08c379a00000000000000000000000000000000000000000000000000000000081526004016111b390613780565b60405180910390fd5b6111c585611b9c565b5b949350505050565b60006111d86110cf565b905090565b600080600084815260200190815260200160002060000160008373ffffffffffffffffffffffffffffffffffffffff1673ffffffffffffffffffffffffffffffffffffffff16815260200190815260200160002060009054906101000a900460ff16905092915050565b6112717f97667070c54ef182b0f5858b034beac1b6f3089aa2d3188bb1e8929f4fa9b929336111dd565b6112b0576040517f08c379a00000000000000000000000000000000000000000000000000000000081526004016112a790613420565b60405180910390fd5b6112da7f460586411c358994ccf85e825f5c4a921e754a35d68c0fc3a73566e9474fc2bd82612052565b50565b6000806002601a9054906101000a900465ffffffffffff16905061130081611af0565b8015611312575061131081611b05565b155b61131e57600080611335565b600260149054906101000a900465ffffffffffff16815b915091509091565b6000801b81565b61136e7f97667070c54ef182b0f5858b034beac1b6f3089aa2d3188bb1e8929f4fa9b929336111dd565b6113ad576040517f08c379a00000000000000000000000000000000000000000000000000000000081526004016113a490613420565b60405180910390fd5b600367ffffffffffffffff168160c01c60031667ffffffffffffffff160361140a576040517f08c379a000000000000000000000000000000000000000000000000000000000815260040161140190613a48565b60405180910390fd5b6000600360009054906101000a900460c01b905081600360006101000a81548167ffffffffffffffff021916908360c01c02179055507f35d4bdc972b8d2c63d5243d90057ff81f618c8d583493cd73cdc182fd684d65881600360009054906101000a900460c01b604051611480929190613a68565b60405180910390a15050565b6000806002601a9054906101000a900465ffffffffffff1690506114af81611af0565b80156114c057506114bf81611b05565b5b6114de576001601a9054906101000a900465ffffffffffff166114f4565b600260149054906101000a900465ffffffffffff165b91505090565b6000611504611587565b5090508073ffffffffffffffffffffffffffffffffffffffff16611526612122565b73ffffffffffffffffffffffffffffffffffffffff161461157c576040517f08c379a000000000000000000000000000000000000000000000000000000000815260040161157390613b03565b60405180910390fd5b61158461212a565b50565b600080600160009054906101000a900473ffffffffffffffffffffffffffffffffffffffff16600160149054906101000a900465ffffffffffff16915091509091565b6000801b820361160f576040517f08c379a000000000000000000000000000000000000000000000000000000000815260040161160690613b95565b60405180910390fd5b61161982826121f3565b5050565b6000801b61162a81611aae565b611632612214565b50565b6000801b600360009054906101000a900460c01b77ffffffffffffffffffffffffffffffffffffffffffffffff1916031561170257600460003373ffffffffffffffffffffffffffffffffffffffff1673ffffffffffffffffffffffffffffffffffffffff16815260200190815260200160002060009054906101000a900460ff166116f6576040517f08c379a00000000000000000000000000000000000000000000000000000000081526004016116ed90613780565b60405180910390fd5b6117018660016117a8565b5b505050505050565b7f97667070c54ef182b0f5858b034beac1b6f3089aa2d3188bb1e8929f4fa9b92981565b60007f31498786000000000000000000000000000000000000000000000000000000007bffffffffffffffffffffffffffffffffffffffffffffffffffffffff1916827bffffffffffffffffffffffffffffffffffffffffffffffffffffffff191614806117a157506117a082612221565b5b9050919050565b600082126117eb576040517f08c379a00000000000000000000000000000000000000000000000000000000081526004016117e290613c27565b60405180910390fd5b600060066040518060600160405290816000820160009054906101000a900461ffff1661ffff1661ffff1681526020016000820160029054906101000a900460e81b7cffffffffffffffffffffffffffffffffffffffffffffffffffffffffff19167cffffffffffffffffffffffffffffffffffffffffffffffffffffffffff191681526020016000820160059054906101000a90047affffffffffffffffffffffffffffffffffffffffffffffffffffff167affffffffffffffffffffffffffffffffffffffffffffffffffffff167affffffffffffffffffffffffffffffffffffffffffffffffffffff168152505090508281604001516040516020016118f5929190613c65565b6040516020818303038152906040528051906020012060281c81604001907affffffffffffffffffffffffffffffffffffffffffffffffffffff1690817affffffffffffffffffffffffffffffffffffffffffffffffffffff168152505080600001805161196290613c9c565b61ffff16908161ffff168152505081806119885750600161ffff16816000015161ffff16145b1561199b5761199a816040015161229b565b5b600161ffff16816000015161ffff161480156119bb57506119ba612338565b5b15611a0857600181604001907affffffffffffffffffffffffffffffffffffffffffffffffffffff1690817affffffffffffffffffffffffffffffffffffffffffffffffffffff16815250505b80600660008201518160000160006101000a81548161ffff021916908361ffff16021790555060208201518160000160026101000a81548162ffffff021916908360e81c021790555060408201518160000160056101000a8154817affffffffffffffffffffffffffffffffffffffffffffffffffffff02191690837affffffffffffffffffffffffffffffffffffffffffffffffffffff160217905550905050505050565b611abf81611aba612122565b612375565b50565b611acd6000806123fa565b565b611ad882610aaa565b611ae181611aae565b611aeb8383612052565b505050565b6000808265ffffffffffff1614159050919050565b6000428265ffffffffffff16109050919050565b611b21612122565b73ffffffffffffffffffffffffffffffffffffffff168173ffffffffffffffffffffffffffffffffffffffff1614611b8e576040517f08c379a0000000000000000000000000000000000000000000000000000000008152600401611b8590613d37565b60405180910390fd5b611b9882826124ea565b5050565b60008113611bdf576040517f08c379a0000000000000000000000000000000000000000000000000000000008152600401611bd690613dc9565b60405180910390fd5b600060066040518060600160405290816000820160009054906101000a900461ffff1661ffff1661ffff1681526020016000820160029054906101000a900460e81b7cffffffffffffffffffffffffffffffffffffffffffffffffffffffffff19167cffffffffffffffffffffffffffffffffffffffffffffffffffffffffff191681526020016000820160059054906101000a90047affffffffffffffffffffffffffffffffffffffffffffffffffffff167affffffffffffffffffffffffffffffffffffffffffffffffffffff167affffffffffffffffffffffffffffffffffffffffffffffffffffff16815250509050600043324244604051602001611ceb9493929190613df8565b60405160208183030381529060405280519060200120905081602001517cffffffffffffffffffffffffffffffffffffffffffffffffffffffffff1916817cffffffffffffffffffffffffffffffffffffffffffffffffffffffffff191614611e3857600182604001907affffffffffffffffffffffffffffffffffffffffffffffffffffff1690817affffffffffffffffffffffffffffffffffffffffffffffffffffff16815250508082602001907cffffffffffffffffffffffffffffffffffffffffffffffffffffffffff191690817cffffffffffffffffffffffffffffffffffffffffffffffffffffffffff191681525050600161ffff16826000015161ffff1614611e37577fde7e0b5e37408fa8528ed22c296deb2a2999d19087661129ce99e5115cce932860405160405180910390a16001826000019061ffff16908161ffff16815250505b5b828260400151604051602001611e4f929190613c65565b6040516020818303038152906040528051906020012060281c82604001907affffffffffffffffffffffffffffffffffffffffffffffffffffff1690817affffffffffffffffffffffffffffffffffffffffffffffffffffff1681525050816000018051611ebc90613e3d565b61ffff16908161ffff168152505081600660008201518160000160006101000a81548161ffff021916908361ffff16021790555060208201518160000160026101000a81548162ffffff021916908360e81c021790555060408201518160000160056101000a8154817affffffffffffffffffffffffffffffffffffffffffffffffffffff02191690837affffffffffffffffffffffffffffffffffffffffffffffffffffff160217905550905050505050565b6000611f7a61148c565b611f8342612567565b611f8d9190613e67565b9050611f9982826125bc565b8173ffffffffffffffffffffffffffffffffffffffff167f3377dc44241e779dd06afab5b788a35ca5f3b778836e2990bdb26a2a4b2e5ed682604051611fdf9190612c61565b60405180910390a25050565b6000611ff68261266f565b611fff42612567565b6120099190613e67565b905061201582826123fa565b7ff1038c18cf84a56e432fdbfaf746924b7ea511dfe03a6506a0ceba4888788d9b82826040516120469291906132ec565b60405180910390a15050565b6000801b820361211457600073ffffffffffffffffffffffffffffffffffffffff1661207c6110cf565b73ffffffffffffffffffffffffffffffffffffffff16146120d2576040517f08c379a00000000000000000000000000000000000000000000000000000000081526004016120c990613f13565b60405180910390fd5b80600260006101000a81548173ffffffffffffffffffffffffffffffffffffffff021916908373ffffffffffffffffffffffffffffffffffffffff1602179055505b61211e82826126ce565b5050565b600033905090565b600080612135611587565b9150915061214281611af0565b8015612153575061215281611b05565b5b612192576040517f08c379a000000000000000000000000000000000000000000000000000000000815260040161218990613fa5565b60405180910390fd5b6121a66000801b6121a16110cf565b6124ea565b6121b36000801b83612052565b600160006101000a81549073ffffffffffffffffffffffffffffffffffffffff0219169055600160146101000a81549065ffffffffffff02191690555050565b6121fc82610aaa565b61220581611aae565b61220f83836124ea565b505050565b61221f6000806125bc565b565b60007f7965db0b000000000000000000000000000000000000000000000000000000007bffffffffffffffffffffffffffffffffffffffffffffffffffffffff1916827bffffffffffffffffffffffffffffffffffffffffffffffffffffffff191614806122945750612293826127ae565b5b9050919050565b60056000827affffffffffffffffffffffffffffffffffffffffffffffffffffff167affffffffffffffffffffffffffffffffffffffffffffffffffffff16815260200190815260200160002060009054906101000a900460ff16612335576040517f08c379a000000000000000000000000000000000000000000000000000000000815260040161232c90614037565b60405180910390fd5b50565b60008060c01b600160c01b600360009054906101000a900460c01b1677ffffffffffffffffffffffffffffffffffffffffffffffff191611905090565b61237f82826111dd565b6123f65761238c81612818565b61239a8360001c6020612845565b6040516020016123ab929190614160565b6040516020818303038152906040526040517f08c379a00000000000000000000000000000000000000000000000000000000081526004016123ed91906141e4565b60405180910390fd5b5050565b60006002601a9054906101000a900465ffffffffffff16905061241c81611af0565b1561249b5761242a81611b05565b1561246d57600260149054906101000a900465ffffffffffff166001601a6101000a81548165ffffffffffff021916908365ffffffffffff16021790555061249a565b7f2b1fa2edafe6f7b9e97c1a9e0c3660e645beb2dcaa2d45bdbf9beaf5472e1ec560405160405180910390a15b5b82600260146101000a81548165ffffffffffff021916908365ffffffffffff160217905550816002601a6101000a81548165ffffffffffff021916908365ffffffffffff160217905550505050565b6000801b8214801561252e57506124ff6110cf565b73ffffffffffffffffffffffffffffffffffffffff168173ffffffffffffffffffffffffffffffffffffffff16145b1561255957600260006101000a81549073ffffffffffffffffffffffffffffffffffffffff02191690555b6125638282612a81565b5050565b600065ffffffffffff80168211156125b4576040517f08c379a00000000000000000000000000000000000000000000000000000000081526004016125ab90614278565b60405180910390fd5b819050919050565b60006125c6611587565b91505082600160006101000a81548173ffffffffffffffffffffffffffffffffffffffff021916908373ffffffffffffffffffffffffffffffffffffffff16021790555081600160146101000a81548165ffffffffffff021916908365ffffffffffff16021790555061263881611af0565b1561266a577f8886ebfc4259abdbc16601dd8fb5678e54878f47b3c34836cfc51154a960510960405160405180910390a15b505050565b60008061267a61148c565b90508065ffffffffffff168365ffffffffffff16116126a457828161269f9190614298565b6126c6565b6126c58365ffffffffffff166126b861061f565b65ffffffffffff16612b62565b5b915050919050565b6126d882826111dd565b6127aa57600160008084815260200190815260200160002060000160008373ffffffffffffffffffffffffffffffffffffffff1673ffffffffffffffffffffffffffffffffffffffff16815260200190815260200160002060006101000a81548160ff02191690831515021790555061274f612122565b73ffffffffffffffffffffffffffffffffffffffff168173ffffffffffffffffffffffffffffffffffffffff16837f2f8788117e7eff1d82e926ec794901d17c78024a50270940304540a733656f0d60405160405180910390a45b5050565b60007f01ffc9a7000000000000000000000000000000000000000000000000000000007bffffffffffffffffffffffffffffffffffffffffffffffffffffffff1916827bffffffffffffffffffffffffffffffffffffffffffffffffffffffff1916149050919050565b606061283e8273ffffffffffffffffffffffffffffffffffffffff16601460ff16612845565b9050919050565b60606000600283600261285891906142d2565b6128629190614314565b67ffffffffffffffff81111561287b5761287a614348565b5b6040519080825280601f01601f1916602001820160405280156128ad5781602001600182028036833780820191505090505b5090507f3000000000000000000000000000000000000000000000000000000000000000816000815181106128e5576128e4613440565b5b60200101907effffffffffffffffffffffffffffffffffffffffffffffffffffffffffffff1916908160001a9053507f78000000000000000000000000000000000000000000000000000000000000008160018151811061294957612948613440565b5b60200101907effffffffffffffffffffffffffffffffffffffffffffffffffffffffffffff1916908160001a9053506000600184600261298991906142d2565b6129939190614314565b90505b6001811115612a33577f3031323334353637383961626364656600000000000000000000000000000000600f8616601081106129d5576129d4613440565b5b1a60f81b8282815181106129ec576129eb613440565b5b60200101907effffffffffffffffffffffffffffffffffffffffffffffffffffffffffffff1916908160001a905350600485901c945080612a2c90614377565b9050612996565b5060008414612a77576040517f08c379a0000000000000000000000000000000000000000000000000000000008152600401612a6e906143ec565b60405180910390fd5b8091505092915050565b612a8b82826111dd565b15612b5e57600080600084815260200190815260200160002060000160008373ffffffffffffffffffffffffffffffffffffffff1673ffffffffffffffffffffffffffffffffffffffff16815260200190815260200160002060006101000a81548160ff021916908315150217905550612b03612122565b73ffffffffffffffffffffffffffffffffffffffff168173ffffffffffffffffffffffffffffffffffffffff16837ff6391f5c32d9c69d2a47ea670b442974b53935d1edc7fd64eb21e047a839171b60405160405180910390a45b5050565b6000818310612b715781612b73565b825b905092915050565b600080fd5b600080fd5b60007fffffffff0000000000000000000000000000000000000000000000000000000082169050919050565b612bba81612b85565b8114612bc557600080fd5b50565b600081359050612bd781612bb1565b92915050565b600060208284031215612bf357612bf2612b7b565b5b6000612c0184828501612bc8565b91505092915050565b60008115159050919050565b612c1f81612c0a565b82525050565b6000602082019050612c3a6000830184612c16565b92915050565b600065ffffffffffff82169050919050565b612c5b81612c40565b82525050565b6000602082019050612c766000830184612c52565b92915050565b600080fd5b600080fd5b600080fd5b60008083601f840112612ca157612ca0612c7c565b5b8235905067ffffffffffffffff811115612cbe57612cbd612c81565b5b602083019150836020820283011115612cda57612cd9612c86565b5b9250929050565b60008060208385031215612cf857612cf7612b7b565b5b600083013567ffffffffffffffff811115612d1657612d15612b80565b5b612d2285828601612c8b565b92509250509250929050565b60008083601f840112612d4457612d43612c7c565b5b8235905067ffffffffffffffff811115612d6157612d60612c81565b5b602083019150836020820283011115612d7d57612d7c612c86565b5b9250929050565b60008060208385031215612d9b57612d9a612b7b565b5b600083013567ffffffffffffffff811115612db957612db8612b80565b5b612dc585828601612d2e565b92509250509250929050565b6000819050919050565b612de481612dd1565b8114612def57600080fd5b50565b600081359050612e0181612ddb565b92915050565b6000819050919050565b612e1a81612e07565b8114612e2557600080fd5b50565b600081359050612e3781612e11565b92915050565b60008083601f840112612e5357612e52612c7c565b5b8235905067ffffffffffffffff811115612e7057612e6f612c81565b5b602083019150836020820283011115612e8c57612e8b612c86565b5b9250929050565b60008060008060008060808789031215612eb057612eaf612b7b565b5b6000612ebe89828a01612df2565b9650506020612ecf89828a01612e28565b955050604087013567ffffffffffffffff811115612ef057612eef612b80565b5b612efc89828a01612e3d565b9450945050606087013567ffffffffffffffff811115612f1f57612f1e612b80565b5b612f2b89828a01612e3d565b92509250509295509295509295565b600073ffffffffffffffffffffffffffffffffffffffff82169050919050565b6000612f6582612f3a565b9050919050565b612f7581612f5a565b8114612f8057600080fd5b50565b600081359050612f9281612f6c565b92915050565b600060208284031215612fae57612fad612b7b565b5b6000612fbc84828501612f83565b91505092915050565b6000819050919050565b612fd881612fc5565b8114612fe357600080fd5b50565b600081359050612ff581612fcf565b92915050565b60006020828403121561301157613010612b7b565b5b600061301f84828501612fe6565b91505092915050565b61303181612fc5565b82525050565b600060208201905061304c6000830184613028565b92915050565b6000806040838503121561306957613068612b7b565b5b600061307785828601612fe6565b925050602061308885828601612f83565b9150509250929050565b6000602082840312156130a8576130a7612b7b565b5b60006130b684828501612df2565b91505092915050565b600081519050919050565b600082825260208201905092915050565b6000819050602082019050919050565b6130f481612fc5565b82525050565b600061310683836130eb565b60208301905092915050565b6000602082019050919050565b600061312a826130bf565b61313481856130ca565b935061313f836130db565b8060005b8381101561317057815161315788826130fa565b975061316283613112565b925050600181019050613143565b5085935050505092915050565b60006020820190508181036000830152613197818461311f565b905092915050565b6131a881612c40565b81146131b357600080fd5b50565b6000813590506131c58161319f565b92915050565b6000602082840312156131e1576131e0612b7b565b5b60006131ef848285016131b6565b91505092915050565b61320181612f5a565b82525050565b600060208201905061321c60008301846131f8565b92915050565b60008083601f84011261323857613237612c7c565b5b8235905067ffffffffffffffff81111561325557613254612c81565b5b60208301915083600182028301111561327157613270612c86565b5b9250929050565b6000806000806060858703121561329257613291612b7b565b5b60006132a087828801612df2565b94505060206132b187828801612f83565b935050604085013567ffffffffffffffff8111156132d2576132d1612b80565b5b6132de87828801613222565b925092505092959194509250565b60006040820190506133016000830185612c52565b61330e6020830184612c52565b9392505050565b60007fffffffffffffffff00000000000000000000000000000000000000000000000082169050919050565b61334a81613315565b811461335557600080fd5b50565b60008135905061336781613341565b92915050565b60006020828403121561338357613382612b7b565b5b600061339184828501613358565b91505092915050565b60006040820190506133af60008301856131f8565b6133bc6020830184612c52565b9392505050565b600082825260208201905092915050565b7f53706865726558206572726f723a206f70657261746f72207265717569726564600082015250565b600061340a6020836133c3565b9150613415826133d4565b602082019050919050565b60006020820190508181036000830152613439816133fd565b9050919050565b7f4e487b7100000000000000000000000000000000000000000000000000000000600052603260045260246000fd5b7f4e487b7100000000000000000000000000000000000000000000000000000000600052601160045260246000fd5b60006134a982612e07565b91507fffffffffffffffffffffffffffffffffffffffffffffffffffffffffffffffff82036134db576134da61346f565b5b600182019050919050565b600082825260208201905092915050565b6000819050919050565b61350a81612f5a565b82525050565b600061351c8383613501565b60208301905092915050565b60006135376020840184612f83565b905092915050565b6000602082019050919050565b600061355883856134e6565b9350613563826134f7565b8060005b8581101561359c576135798284613528565b6135838882613510565b975061358e8361353f565b925050600181019050613567565b5085925050509392505050565b600060208201905081810360008301526135c481848661354c565b90509392505050565b60007affffffffffffffffffffffffffffffffffffffffffffffffffffff82169050919050565b6135fd816135cd565b811461360857600080fd5b50565b60008135905061361a816135f4565b92915050565b60006020828403121561363657613635612b7b565b5b60006136448482850161360b565b91505092915050565b600082825260208201905092915050565b6000819050919050565b613671816135cd565b82525050565b60006136838383613668565b60208301905092915050565b600061369e602084018461360b565b905092915050565b6000602082019050919050565b60006136bf838561364d565b93506136ca8261365e565b8060005b85811015613703576136e0828461368f565b6136ea8882613677565b97506136f5836136a6565b9250506001810190506136ce565b5085925050509392505050565b6000602082019050818103600083015261372b8184866136b3565b90509392505050565b7f53706865726558206572726f723a20646973616c6c6f7765642073656e646572600082015250565b600061376a6020836133c3565b915061377582613734565b602082019050919050565b600060208201905081810360008301526137998161375d565b9050919050565b7f53706865726558206572726f723a2073656e646572206164646572207265717560008201527f6972656400000000000000000000000000000000000000000000000000000000602082015250565b60006137fc6024836133c3565b9150613807826137a0565b604082019050919050565b6000602082019050818103600083015261382b816137ef565b9050919050565b7f416363657373436f6e74726f6c3a2063616e2774206469726563746c7920677260008201527f616e742064656661756c742061646d696e20726f6c6500000000000000000000602082015250565b600061388e6036836133c3565b915061389982613832565b604082019050919050565b600060208201905081810360008301526138bd81613881565b9050919050565b7f416363657373436f6e74726f6c3a206f6e6c792063616e2072656e6f756e636560008201527f20696e2074776f2064656c617965642073746570730000000000000000000000602082015250565b60006139206035836133c3565b915061392b826138c4565b604082019050919050565b6000602082019050818103600083015261394f81613913565b9050919050565b61395f81613315565b82525050565b6000819050919050565b60008160c01b9050919050565b600061399761399261398d84613965565b61396f565b613315565b9050919050565b6139a78161397c565b82525050565b60006040820190506139c26000830185613956565b6139cf602083018461399e565b9392505050565b7f53706865726558206572726f723a20696c6c6567616c2072756c657320636f6d60008201527f62696e6174696f6e000000000000000000000000000000000000000000000000602082015250565b6000613a326028836133c3565b9150613a3d826139d6565b604082019050919050565b60006020820190508181036000830152613a6181613a25565b9050919050565b6000604082019050613a7d6000830185613956565b613a8a6020830184613956565b9392505050565b7f416363657373436f6e74726f6c3a2070656e64696e672061646d696e206d757360008201527f7420616363657074000000000000000000000000000000000000000000000000602082015250565b6000613aed6028836133c3565b9150613af882613a91565b604082019050919050565b60006020820190508181036000830152613b1c81613ae0565b9050919050565b7f416363657373436f6e74726f6c3a2063616e2774206469726563746c7920726560008201527f766f6b652064656661756c742061646d696e20726f6c65000000000000000000602082015250565b6000613b7f6037836133c3565b9150613b8a82613b23565b604082019050919050565b60006020820190508181036000830152613bae81613b72565b9050919050565b7f53706865726558206572726f723a206578706563746564206e6567617469766560008201527f206e756d00000000000000000000000000000000000000000000000000000000602082015250565b6000613c116024836133c3565b9150613c1c82613bb5565b604082019050919050565b60006020820190508181036000830152613c4081613c04565b9050919050565b613c5081612dd1565b82525050565b613c5f816135cd565b82525050565b6000604082019050613c7a6000830185613c47565b613c876020830184613c56565b9392505050565b600061ffff82169050919050565b6000613ca782613c8e565b915060008203613cba57613cb961346f565b5b600182039050919050565b7f416363657373436f6e74726f6c3a2063616e206f6e6c792072656e6f756e636560008201527f20726f6c657320666f722073656c660000000000000000000000000000000000602082015250565b6000613d21602f836133c3565b9150613d2c82613cc5565b604082019050919050565b60006020820190508181036000830152613d5081613d14565b9050919050565b7f53706865726558206572726f723a20657870656374656420706f73697469766560008201527f206e756d00000000000000000000000000000000000000000000000000000000602082015250565b6000613db36024836133c3565b9150613dbe82613d57565b604082019050919050565b60006020820190508181036000830152613de281613da6565b9050919050565b613df281612e07565b82525050565b6000608082019050613e0d6000830187613de9565b613e1a60208301866131f8565b613e276040830185613de9565b613e346060830184613de9565b95945050505050565b6000613e4882613c8e565b915061ffff8203613e5c57613e5b61346f565b5b600182019050919050565b6000613e7282612c40565b9150613e7d83612c40565b9250828201905065ffffffffffff811115613e9b57613e9a61346f565b5b92915050565b7f416363657373436f6e74726f6c3a2064656661756c742061646d696e20616c7260008201527f65616479206772616e7465640000000000000000000000000000000000000000602082015250565b6000613efd602c836133c3565b9150613f0882613ea1565b604082019050919050565b60006020820190508181036000830152613f2c81613ef0565b9050919050565b7f416363657373436f6e74726f6c3a207472616e736665722064656c6179206e6f60008201527f7420706173736564000000000000000000000000000000000000000000000000602082015250565b6000613f8f6028836133c3565b9150613f9a82613f33565b604082019050919050565b60006020820190508181036000830152613fbe81613f82565b9050919050565b7f53706865726558206572726f723a20646973616c6c6f7765642074782070617460008201527f7465726e00000000000000000000000000000000000000000000000000000000602082015250565b60006140216024836133c3565b915061402c82613fc5565b604082019050919050565b6000602082019050818103600083015261405081614014565b9050919050565b600081905092915050565b7f416363657373436f6e74726f6c3a206163636f756e7420000000000000000000600082015250565b6000614098601783614057565b91506140a382614062565b601782019050919050565b600081519050919050565b60005b838110156140d75780820151818401526020810190506140bc565b60008484015250505050565b60006140ee826140ae565b6140f88185614057565b93506141088185602086016140b9565b80840191505092915050565b7f206973206d697373696e6720726f6c6520000000000000000000000000000000600082015250565b600061414a601183614057565b915061415582614114565b601182019050919050565b600061416b8261408b565b915061417782856140e3565b91506141828261413d565b915061418e82846140e3565b91508190509392505050565b6000601f19601f8301169050919050565b60006141b6826140ae565b6141c081856133c3565b93506141d08185602086016140b9565b6141d98161419a565b840191505092915050565b600060208201905081810360008301526141fe81846141ab565b905092915050565b7f53616665436173743a2076616c756520646f65736e27742066697420696e203460008201527f3820626974730000000000000000000000000000000000000000000000000000602082015250565b60006142626026836133c3565b915061426d82614206565b604082019050919050565b6000602082019050818103600083015261429181614255565b9050919050565b60006142a382612c40565b91506142ae83612c40565b9250828203905065ffffffffffff8111156142cc576142cb61346f565b5b92915050565b60006142dd82612e07565b91506142e883612e07565b92508282026142f681612e07565b9150828204841483151761430d5761430c61346f565b5b5092915050565b600061431f82612e07565b915061432a83612e07565b92508282019050808211156143425761434161346f565b5b92915050565b7f4e487b7100000000000000000000000000000000000000000000000000000000600052604160045260246000fd5b600061438282612e07565b9150600082036143955761439461346f565b5b600182039050919050565b7f537472696e67733a20686578206c656e67746820696e73756666696369656e74600082015250565b60006143d66020836133c3565b91506143e1826143a0565b602082019050919050565b60006020820190508181036000830152614405816143c9565b905091905056fea2646970667358221220351b3ba72cb629afb00809b290c8713bf6fa72f7f8d7c7a8fcc3c2db16255c5464736f6c63430008130033",
  "linkReferences": {},
  "deployedLinkReferences": {}
}