{
  "_format": "hh-sol-artifact-1",
  "contractName": "ProtectedTransparentUpgradeableProxy",
  "sourceName": "src/ProtectedProxies/ProtectedTransparentUpgradeableProxy.sol",
  "abi": [
    {
      "inputs": [
        {
          "internalType": "address",
          "name": "_logic",
          "type": "address"
        },
        {
          "internalType": "address",
          "name": "admin_",
          "type": "address"
        },
        {
          "internalType": "bytes",
          "name": "_data",
          "type": "bytes"
        }
      ],
      "stateMutability": "nonpayable",
      "type": "constructor"
    },
    {
      "anonymous": false,
      "inputs": [
        {
          "indexed": false,
          "internalType": "bytes4[]",
          "name": "patterns",
          "type": "bytes4[]"
        }
      ],
      "name": "AddedProtectedFuncSigs",
      "type": "event"
    },
    {
      "anonymous": false,
      "inputs": [
        {
          "indexed": false,
          "internalType": "address",
          "name": "previousAdmin",
          "type": "address"
        },
        {
          "indexed": false,
          "internalType": "address",
          "name": "newAdmin",
          "type": "address"
        }
      ],
      "name": "AdminChanged",
      "type": "event"
    },
    {
      "anonymous": false,
      "inputs": [
        {
          "indexed": true,
          "internalType": "address",
          "name": "beacon",
          "type": "address"
        }
      ],
      "name": "BeaconUpgraded",
      "type": "event"
    },
    {
      "anonymous": false,
      "inputs": [
        {
          "indexed": false,
          "internalType": "address",
          "name": "oldEngineAddress",
          "type": "address"
        },
        {
          "indexed": false,
          "internalType": "address",
          "name": "newEngineAddress",
          "type": "address"
        }
      ],
      "name": "ChangedSpherexEngineAddress",
      "type": "event"
    },
    {
      "anonymous": false,
      "inputs": [
        {
          "indexed": false,
          "internalType": "address",
          "name": "oldSphereXAdmin",
          "type": "address"
        },
        {
          "indexed": false,
          "internalType": "address",
          "name": "newSphereXAdmin",
          "type": "address"
        }
      ],
      "name": "ChangedSpherexOperator",
      "type": "event"
    },
    {
      "anonymous": false,
      "inputs": [
        {
          "indexed": false,
          "internalType": "address",
          "name": "sender",
          "type": "address"
        }
      ],
      "name": "NewAllowedSenderOnchain",
      "type": "event"
    },
    {
      "anonymous": false,
      "inputs": [
        {
          "indexed": false,
          "internalType": "bytes4[]",
          "name": "patterns",
          "type": "bytes4[]"
        }
      ],
      "name": "RemovedProtectedFuncSigs",
      "type": "event"
    },
    {
      "anonymous": false,
      "inputs": [
        {
          "indexed": false,
          "internalType": "address",
          "name": "oldAdmin",
          "type": "address"
        },
        {
          "indexed": false,
          "internalType": "address",
          "name": "newAdmin",
          "type": "address"
        }
      ],
      "name": "SpherexAdminTransferCompleted",
      "type": "event"
    },
    {
      "anonymous": false,
      "inputs": [
        {
          "indexed": false,
          "internalType": "address",
          "name": "currentAdmin",
          "type": "address"
        },
        {
          "indexed": false,
          "internalType": "address",
          "name": "pendingAdmin",
          "type": "address"
        }
      ],
      "name": "SpherexAdminTransferStarted",
      "type": "event"
    },
    {
      "anonymous": false,
      "inputs": [
        {
          "indexed": true,
          "internalType": "address",
          "name": "implementation",
          "type": "address"
        }
      ],
      "name": "Upgraded",
      "type": "event"
    },
    {
      "stateMutability": "payable",
      "type": "fallback"
    },
    {
      "inputs": [],
      "name": "acceptSphereXAdminRole",
      "outputs": [],
      "stateMutability": "nonpayable",
      "type": "function"
    },
    {
      "inputs": [
        {
          "internalType": "bytes4[]",
          "name": "keys",
          "type": "bytes4[]"
        }
      ],
      "name": "addProtectedFuncSigs",
      "outputs": [],
      "stateMutability": "nonpayable",
      "type": "function"
    },
    {
      "inputs": [
        {
          "internalType": "address",
          "name": "newSphereXEngine",
          "type": "address"
        }
      ],
      "name": "changeSphereXEngine",
      "outputs": [],
      "stateMutability": "nonpayable",
      "type": "function"
    },
    {
      "inputs": [
        {
          "internalType": "address",
          "name": "newSphereXOperator",
          "type": "address"
        }
      ],
      "name": "changeSphereXOperator",
      "outputs": [],
      "stateMutability": "nonpayable",
      "type": "function"
    },
    {
      "inputs": [
        {
          "internalType": "bytes4",
          "name": "func_sig",
          "type": "bytes4"
        }
      ],
      "name": "isProtectedFuncSig",
      "outputs": [
        {
          "internalType": "bool",
          "name": "value",
          "type": "bool"
        }
      ],
      "stateMutability": "view",
      "type": "function"
    },
    {
      "inputs": [],
      "name": "pendingSphereXAdmin",
      "outputs": [
        {
          "internalType": "address",
          "name": "",
          "type": "address"
        }
      ],
      "stateMutability": "view",
      "type": "function"
    },
    {
      "inputs": [
        {
          "internalType": "bytes4[]",
          "name": "keys",
          "type": "bytes4[]"
        }
      ],
      "name": "removeProtectedFuncSigs",
      "outputs": [],
      "stateMutability": "nonpayable",
      "type": "function"
    },
    {
      "inputs": [],
      "name": "sphereXAdmin",
      "outputs": [
        {
          "internalType": "address",
          "name": "",
          "type": "address"
        }
      ],
      "stateMutability": "view",
      "type": "function"
    },
    {
      "inputs": [],
      "name": "sphereXEngine",
      "outputs": [
        {
          "internalType": "address",
          "name": "",
          "type": "address"
        }
      ],
      "stateMutability": "view",
      "type": "function"
    },
    {
      "inputs": [],
      "name": "sphereXOperator",
      "outputs": [
        {
          "internalType": "address",
          "name": "",
          "type": "address"
        }
      ],
      "stateMutability": "view",
      "type": "function"
    },
    {
      "inputs": [
        {
          "internalType": "address",
          "name": "newAdmin",
          "type": "address"
        }
      ],
      "name": "transferSphereXAdminRole",
      "outputs": [],
      "stateMutability": "nonpayable",
      "type": "function"
    },
    {
      "stateMutability": "payable",
      "type": "receive"
    }
  ],
  "bytecode": "0x60806040523480156200001157600080fd5b5060405162003bcb38038062003bcb833981810160405281019062000037919062000a2e565b8282828281336000808282828282828282826200005c8383836200009b60201b60201c565b5050505050505050505050506200007c828260006200023760201b60201c565b50506200008f826200027560201b60201c565b50505050505062000f45565b620000e160017fca334bf49ef20e9cbff039feda3bc1c2a853aff17b1b5187e4aa1380ec55829d60001c620000d1919062000ae2565b60001b84620002d360201b60201c565b7f67ebaebcd2ca5a91a404e898110f221747e8d15567f2388a34794aab151cf3e66000846040516200011592919062000b2e565b60405180910390a16200016360017fadf90d75f0f2d657d5a22fa0f6e4dabb83c4598b77158eb4119cb38f1d86446360001c62000153919062000ae2565b60001b83620002d360201b60201c565b7f2ac55ae7ba47db34b5334622acafeb34a65daf143b47019273185d64c73a35a56000836040516200019792919062000b2e565b60405180910390a1620001b081620002da60201b60201c565b620001f660017f1777adabd324f814e2b0e28f6edf876dce01d7d66358c9acfe87b1b5f38338d660001c620001e6919062000ae2565b60001b82620002d360201b60201c565b7ff33499cccaa0611882086224cc48cd82ef54b66a4d2edf4ed67108dd516896d56000826040516200022a92919062000b2e565b60405180910390a1505050565b6200024883620003f660201b60201c565b600082511180620002565750805b1562000270576200026e83836200044d60201b60201c565b505b505050565b7f7e644d79422f17c01e4894b5f4f588d331ebfa28653d42ae832dc59e38c9798f620002a66200048360201b60201c565b82604051620002b792919062000b2e565b60405180910390a1620002d081620004e260201b60201c565b50565b8082555050565b600073ffffffffffffffffffffffffffffffffffffffff168173ffffffffffffffffffffffffffffffffffffffff161480620003b157508073ffffffffffffffffffffffffffffffffffffffff166301ffc9a77f53e41baa000000000000000000000000000000000000000000000000000000006040518263ffffffff1660e01b81526004016200036c919062000b98565b602060405180830381865afa1580156200038a573d6000803e3d6000fd5b505050506040513d601f19601f82011682018060405250810190620003b0919062000bf2565b5b620003f3576040517f08c379a0000000000000000000000000000000000000000000000000000000008152600401620003ea9062000cab565b60405180910390fd5b50565b6200040781620005cd60201b60201c565b8073ffffffffffffffffffffffffffffffffffffffff167fbc7cd75a20ee27fd9adebab32041f755214dbc6bffa90cc0225b39da2e5c2d3b60405160405180910390a250565b60606200047b838360405180606001604052806027815260200162003ba4602791396200069960201b60201c565b905092915050565b6000620004b97fb53127684a568b3173ae13b9f8a6016e243e63b6e8ee1178d6a717850b5d610360001b6200072b60201b60201c565b60000160009054906101000a900473ffffffffffffffffffffffffffffffffffffffff16905090565b600073ffffffffffffffffffffffffffffffffffffffff168173ffffffffffffffffffffffffffffffffffffffff160362000554576040517f08c379a00000000000000000000000000000000000000000000000000000000081526004016200054b9062000d43565b60405180910390fd5b80620005897fb53127684a568b3173ae13b9f8a6016e243e63b6e8ee1178d6a717850b5d610360001b6200072b60201b60201c565b60000160006101000a81548173ffffffffffffffffffffffffffffffffffffffff021916908373ffffffffffffffffffffffffffffffffffffffff16021790555050565b620005de816200073560201b60201c565b62000620576040517f08c379a0000000000000000000000000000000000000000000000000000000008152600401620006179062000ddb565b60405180910390fd5b80620006557f360894a13ba1a3210667c828492db98dca3e2076cc3735a920a3ca505d382bbc60001b6200072b60201b60201c565b60000160006101000a81548173ffffffffffffffffffffffffffffffffffffffff021916908373ffffffffffffffffffffffffffffffffffffffff16021790555050565b60606000808573ffffffffffffffffffffffffffffffffffffffff1685604051620006c5919062000e4a565b600060405180830381855af49150503d806000811462000702576040519150601f19603f3d011682016040523d82523d6000602084013e62000707565b606091505b509150915062000720868383876200075860201b60201c565b925050509392505050565b6000819050919050565b6000808273ffffffffffffffffffffffffffffffffffffffff163b119050919050565b60608315620007c8576000835103620007bf576200077c856200073560201b60201c565b620007be576040517f08c379a0000000000000000000000000000000000000000000000000000000008152600401620007b59062000eb3565b60405180910390fd5b5b829050620007db565b620007da8383620007e360201b60201c565b5b949350505050565b600082511115620007f75781518083602001fd5b806040517f08c379a00000000000000000000000000000000000000000000000000000000081526004016200082d919062000f21565b60405180910390fd5b6000604051905090565b600080fd5b600080fd5b600073ffffffffffffffffffffffffffffffffffffffff82169050919050565b600062000877826200084a565b9050919050565b62000889816200086a565b81146200089557600080fd5b50565b600081519050620008a9816200087e565b92915050565b600080fd5b600080fd5b6000601f19601f8301169050919050565b7f4e487b7100000000000000000000000000000000000000000000000000000000600052604160045260246000fd5b6200090482620008b9565b810181811067ffffffffffffffff82111715620009265762000925620008ca565b5b80604052505050565b60006200093b62000836565b9050620009498282620008f9565b919050565b600067ffffffffffffffff8211156200096c576200096b620008ca565b5b6200097782620008b9565b9050602081019050919050565b60005b83811015620009a457808201518184015260208101905062000987565b60008484015250505050565b6000620009c7620009c1846200094e565b6200092f565b905082815260208101848484011115620009e657620009e5620008b4565b5b620009f384828562000984565b509392505050565b600082601f83011262000a135762000a12620008af565b5b815162000a25848260208601620009b0565b91505092915050565b60008060006060848603121562000a4a5762000a4962000840565b5b600062000a5a8682870162000898565b935050602062000a6d8682870162000898565b925050604084015167ffffffffffffffff81111562000a915762000a9062000845565b5b62000a9f86828701620009fb565b9150509250925092565b6000819050919050565b7f4e487b7100000000000000000000000000000000000000000000000000000000600052601160045260246000fd5b600062000aef8262000aa9565b915062000afc8362000aa9565b925082820390508181111562000b175762000b1662000ab3565b5b92915050565b62000b28816200086a565b82525050565b600060408201905062000b45600083018562000b1d565b62000b54602083018462000b1d565b9392505050565b60007fffffffff0000000000000000000000000000000000000000000000000000000082169050919050565b62000b928162000b5b565b82525050565b600060208201905062000baf600083018462000b87565b92915050565b60008115159050919050565b62000bcc8162000bb5565b811462000bd857600080fd5b50565b60008151905062000bec8162000bc1565b92915050565b60006020828403121562000c0b5762000c0a62000840565b5b600062000c1b8482850162000bdb565b91505092915050565b600082825260208201905092915050565b7f53706865726558206572726f723a206e6f7420612053706865726558456e676960008201527f6e65000000000000000000000000000000000000000000000000000000000000602082015250565b600062000c9360228362000c24565b915062000ca08262000c35565b604082019050919050565b6000602082019050818103600083015262000cc68162000c84565b9050919050565b7f455243313936373a206e65772061646d696e20697320746865207a65726f206160008201527f6464726573730000000000000000000000000000000000000000000000000000602082015250565b600062000d2b60268362000c24565b915062000d388262000ccd565b604082019050919050565b6000602082019050818103600083015262000d5e8162000d1c565b9050919050565b7f455243313936373a206e657720696d706c656d656e746174696f6e206973206e60008201527f6f74206120636f6e747261637400000000000000000000000000000000000000602082015250565b600062000dc3602d8362000c24565b915062000dd08262000d65565b604082019050919050565b6000602082019050818103600083015262000df68162000db4565b9050919050565b600081519050919050565b600081905092915050565b600062000e208262000dfd565b62000e2c818562000e08565b935062000e3e81856020860162000984565b80840191505092915050565b600062000e58828462000e13565b915081905092915050565b7f416464726573733a2063616c6c20746f206e6f6e2d636f6e7472616374000000600082015250565b600062000e9b601d8362000c24565b915062000ea88262000e63565b602082019050919050565b6000602082019050818103600083015262000ece8162000e8c565b9050919050565b600081519050919050565b600062000eed8262000ed5565b62000ef9818562000c24565b935062000f0b81856020860162000984565b62000f1681620008b9565b840191505092915050565b6000602082019050818103600083015262000f3d818462000ee0565b905092915050565b612c4f8062000f556000396000f3fe6080604052600436106100a05760003560e01c806399e80f3b1161006457806399e80f3b1461018a5780639aa9019e146101b5578063a7fdd047146101e0578063cc5b745014610209578063daba7ef714610232578063e7e5db4f1461025b576100af565b8063021a5fe5146100b95780633c231166146100f65780634c6c848f146101215780634ee8f8581461014a5780638426b96814610173576100af565b366100af576100ad610286565b005b6100b7610286565b005b3480156100c557600080fd5b506100e060048036038101906100db9190611bfa565b610290565b6040516100ed9190611c42565b60405180910390f35b34801561010257600080fd5b5061010b6102fa565b6040516101189190611c9e565b60405180910390f35b34801561012d57600080fd5b5061014860048036038101906101439190611ce5565b61033c565b005b34801561015657600080fd5b50610171600480360381019061016c9190611ce5565b6104a5565b005b34801561017f57600080fd5b50610188610605565b005b34801561019657600080fd5b5061019f61073b565b6040516101ac9190611c9e565b60405180910390f35b3480156101c157600080fd5b506101ca61077d565b6040516101d79190611c9e565b60405180910390f35b3480156101ec57600080fd5b5061020760048036038101906102029190611e6b565b6107bf565b005b34801561021557600080fd5b50610230600480360381019061022b9190611e6b565b6108e4565b005b34801561023e57600080fd5b5061025960048036038101906102549190611ce5565b610a09565b005b34801561026757600080fd5b50610270610b30565b60405161027d9190611c9e565b60405180910390f35b61028e610b72565b565b6000808260017f9a7afc584486ebd3e91191a9ac2c2e986b3aaa4084656fc915fe0843ff009c6b60001c6102c49190611eed565b60001b6040516020016102d8929190611f6d565b6040516020818303038152906040528051906020012090508054915050919050565b600061033760017f1777adabd324f814e2b0e28f6edf876dce01d7d66358c9acfe87b1b5f38338d660001c61032f9190611eed565b60001b610dee565b905090565b61037760017fadf90d75f0f2d657d5a22fa0f6e4dabb83c4598b77158eb4119cb38f1d86446360001c61036f9190611eed565b60001b610dee565b73ffffffffffffffffffffffffffffffffffffffff163373ffffffffffffffffffffffffffffffffffffffff16146103e4576040517f08c379a00000000000000000000000000000000000000000000000000000000081526004016103db90611ff6565b60405180910390fd5b6103ed81610df9565b600061042a60017f1777adabd324f814e2b0e28f6edf876dce01d7d66358c9acfe87b1b5f38338d660001c6104229190611eed565b60001b610dee565b905061046860017f1777adabd324f814e2b0e28f6edf876dce01d7d66358c9acfe87b1b5f38338d660001c61045f9190611eed565b60001b83610f0c565b7ff33499cccaa0611882086224cc48cd82ef54b66a4d2edf4ed67108dd516896d58183604051610499929190612016565b60405180910390a15050565b6104e060017fca334bf49ef20e9cbff039feda3bc1c2a853aff17b1b5187e4aa1380ec55829d60001c6104d89190611eed565b60001b610dee565b73ffffffffffffffffffffffffffffffffffffffff163373ffffffffffffffffffffffffffffffffffffffff161461054d576040517f08c379a00000000000000000000000000000000000000000000000000000000081526004016105449061208b565b60405180910390fd5b600061058a60017fadf90d75f0f2d657d5a22fa0f6e4dabb83c4598b77158eb4119cb38f1d86446360001c6105829190611eed565b60001b610dee565b90506105c860017fadf90d75f0f2d657d5a22fa0f6e4dabb83c4598b77158eb4119cb38f1d86446360001c6105bf9190611eed565b60001b83610f0c565b7f2ac55ae7ba47db34b5334622acafeb34a65daf143b47019273185d64c73a35a581836040516105f9929190612016565b60405180910390a15050565b3373ffffffffffffffffffffffffffffffffffffffff1661062461077d565b73ffffffffffffffffffffffffffffffffffffffff161461067a576040517f08c379a00000000000000000000000000000000000000000000000000000000081526004016106719061211d565b60405180910390fd5b600061068461073b565b90506106c260017fca334bf49ef20e9cbff039feda3bc1c2a853aff17b1b5187e4aa1380ec55829d60001c6106b99190611eed565b60001b33610f0c565b6106ff60017f3a517dd736309b905c692160a21b5439bdc56db1dc77d6982b66d44814e3fa9760001c6106f59190611eed565b60001b6000610f0c565b7f67ebaebcd2ca5a91a404e898110f221747e8d15567f2388a34794aab151cf3e68133604051610730929190612016565b60405180910390a150565b600061077860017fca334bf49ef20e9cbff039feda3bc1c2a853aff17b1b5187e4aa1380ec55829d60001c6107709190611eed565b60001b610dee565b905090565b60006107ba60017f3a517dd736309b905c692160a21b5439bdc56db1dc77d6982b66d44814e3fa9760001c6107b29190611eed565b60001b610dee565b905090565b6107fa60017fadf90d75f0f2d657d5a22fa0f6e4dabb83c4598b77158eb4119cb38f1d86446360001c6107f29190611eed565b60001b610dee565b73ffffffffffffffffffffffffffffffffffffffff163373ffffffffffffffffffffffffffffffffffffffff1614610867576040517f08c379a000000000000000000000000000000000000000000000000000000000815260040161085e90611ff6565b60405180910390fd5b60005b81518110156108a9576108988282815181106108895761088861213d565b5b60200260200101516000610f13565b806108a29061216c565b905061086a565b507f754b9f3148ad4cf227ecdf9a64810fa2d0b8682a2de15dfad5310a12b7281a5f816040516108d99190612272565b60405180910390a150565b61091f60017fadf90d75f0f2d657d5a22fa0f6e4dabb83c4598b77158eb4119cb38f1d86446360001c6109179190611eed565b60001b610dee565b73ffffffffffffffffffffffffffffffffffffffff163373ffffffffffffffffffffffffffffffffffffffff161461098c576040517f08c379a000000000000000000000000000000000000000000000000000000000815260040161098390611ff6565b60405180910390fd5b60005b81518110156109ce576109bd8282815181106109ae576109ad61213d565b5b60200260200101516001610f13565b806109c79061216c565b905061098f565b507f45fc6a4de33dfc2fa6f40e48f353bf7ff006086db3ecf80c077f788082cc7d5a816040516109fe9190612272565b60405180910390a150565b610a4460017fca334bf49ef20e9cbff039feda3bc1c2a853aff17b1b5187e4aa1380ec55829d60001c610a3c9190611eed565b60001b610dee565b73ffffffffffffffffffffffffffffffffffffffff163373ffffffffffffffffffffffffffffffffffffffff1614610ab1576040517f08c379a0000000000000000000000000000000000000000000000000000000008152600401610aa89061208b565b60405180910390fd5b610aed60017f3a517dd736309b905c692160a21b5439bdc56db1dc77d6982b66d44814e3fa9760001c610ae49190611eed565b60001b82610f0c565b7f5778f1547abbbb86090a43c32aec38334b31df4beeb6f8f3fa063f593b53a526610b1661073b565b82604051610b25929190612016565b60405180910390a150565b6000610b6d60017fadf90d75f0f2d657d5a22fa0f6e4dabb83c4598b77158eb4119cb38f1d86446360001c610b659190611eed565b60001b610dee565b905090565b610b7a610f7a565b73ffffffffffffffffffffffffffffffffffffffff163373ffffffffffffffffffffffffffffffffffffffff1603610de4576060600080357fffffffff00000000000000000000000000000000000000000000000000000000169050633659cfe660e01b7bffffffffffffffffffffffffffffffffffffffffffffffffffffffff1916817bffffffffffffffffffffffffffffffffffffffffffffffffffffffff191603610c3157610c2a610fd1565b9150610ddc565b634f1ef28660e01b7bffffffffffffffffffffffffffffffffffffffffffffffffffffffff1916817bffffffffffffffffffffffffffffffffffffffffffffffffffffffff191603610c8c57610c85611030565b9150610ddb565b638f28397060e01b7bffffffffffffffffffffffffffffffffffffffffffffffffffffffff1916817bffffffffffffffffffffffffffffffffffffffffffffffffffffffff191603610ce757610ce061107d565b9150610dda565b63f851a44060e01b7bffffffffffffffffffffffffffffffffffffffffffffffffffffffff1916817bffffffffffffffffffffffffffffffffffffffffffffffffffffffff191603610d4257610d3b6110ca565b9150610dd9565b635c60da1b60e01b7bffffffffffffffffffffffffffffffffffffffffffffffffffffffff1916817bffffffffffffffffffffffffffffffffffffffffffffffffffffffff191603610d9d57610d96611106565b9150610dd8565b6040517f08c379a0000000000000000000000000000000000000000000000000000000008152600401610dcf9061232c565b60405180910390fd5b5b5b5b5b815160208301f35b610dec611142565b565b600081549050919050565b600073ffffffffffffffffffffffffffffffffffffffff168173ffffffffffffffffffffffffffffffffffffffff161480610eca57508073ffffffffffffffffffffffffffffffffffffffff166301ffc9a77f53e41baa000000000000000000000000000000000000000000000000000000006040518263ffffffff1660e01b8152600401610e88919061235b565b602060405180830381865afa158015610ea5573d6000803e3d6000fd5b505050506040513d601f19601f82011682018060405250810190610ec991906123a2565b5b610f09576040517f08c379a0000000000000000000000000000000000000000000000000000000008152600401610f0090612441565b60405180910390fd5b50565b8082555050565b60008260017f9a7afc584486ebd3e91191a9ac2c2e986b3aaa4084656fc915fe0843ff009c6b60001c610f469190611eed565b60001b604051602001610f5a929190611f6d565b604051602081830303815290604052805190602001209050818155505050565b6000610fa87fb53127684a568b3173ae13b9f8a6016e243e63b6e8ee1178d6a717850b5d610360001b61115c565b60000160009054906101000a900473ffffffffffffffffffffffffffffffffffffffff16905090565b6060610fdb611166565b600080366004908092610ff09392919061246b565b810190610ffd91906124e4565b905061101a81604051806020016040528060008152506000611175565b6040518060200160405280600081525091505090565b606060008060003660049080926110499392919061246b565b81019061105691906125c6565b9150915061106682826001611175565b604051806020016040528060008152509250505090565b6060611087611166565b60008036600490809261109c9392919061246b565b8101906110a991906124e4565b90506110b4816111a1565b6040518060200160405280600081525091505090565b60606110d4611166565b60006110de610f7a565b9050806040516020016110f19190611c9e565b60405160208183030381529060405291505090565b6060611110611166565b600061111a6111ed565b90508060405160200161112d9190611c9e565b60405160208183030381529060405291505090565b61114a6111fc565b61115a6111556111ed565b6111fe565b565b6000819050919050565b6000341461117357600080fd5b565b61117e8361120a565b60008251118061118b5750805b1561119c5761119a8383611259565b505b505050565b7f7e644d79422f17c01e4894b5f4f588d331ebfa28653d42ae832dc59e38c9798f6111ca610f7a565b826040516111d9929190612016565b60405180910390a16111ea81611286565b50565b60006111f7611366565b905090565b565b611207816113bd565b50565b61121381611415565b8073ffffffffffffffffffffffffffffffffffffffff167fbc7cd75a20ee27fd9adebab32041f755214dbc6bffa90cc0225b39da2e5c2d3b60405160405180910390a250565b606061127e8383604051806060016040528060278152602001612bf3602791396114ce565b905092915050565b600073ffffffffffffffffffffffffffffffffffffffff168173ffffffffffffffffffffffffffffffffffffffff16036112f5576040517f08c379a00000000000000000000000000000000000000000000000000000000081526004016112ec90612694565b60405180910390fd5b806113227fb53127684a568b3173ae13b9f8a6016e243e63b6e8ee1178d6a717850b5d610360001b61115c565b60000160006101000a81548173ffffffffffffffffffffffffffffffffffffffff021916908373ffffffffffffffffffffffffffffffffffffffff16021790555050565b60006113947f360894a13ba1a3210667c828492db98dca3e2076cc3735a920a3ca505d382bbc60001b61115c565b60000160009054906101000a900473ffffffffffffffffffffffffffffffffffffffff16905090565b6113ea6000357fffffffff0000000000000000000000000000000000000000000000000000000016610290565b156114095760006113fa82611554565b90506000815190508060208301f35b61141281611600565b50565b61141e81611626565b61145d576040517f08c379a000000000000000000000000000000000000000000000000000000000815260040161145490612726565b60405180910390fd5b8061148a7f360894a13ba1a3210667c828492db98dca3e2076cc3735a920a3ca505d382bbc60001b61115c565b60000160006101000a81548173ffffffffffffffffffffffffffffffffffffffff021916908373ffffffffffffffffffffffffffffffffffffffff16021790555050565b60606000808573ffffffffffffffffffffffffffffffffffffffff16856040516114f891906127b7565b600060405180830381855af49150503d8060008114611533576040519150601f19603f3d011682016040523d82523d6000602084013e611538565b606091505b509150915061154986838387611649565b925050509392505050565b60606000357fffffffff000000000000000000000000000000000000000000000000000000001660e01c63ffffffff1660006115918260016116be565b90506115e2846000368080601f016020809104026020016040519081016040528093929190818152602001838380828437600081840152601f19601f82011690508083019250505050505050611259565b92506115f9826115f1906127d8565b600183611892565b5050919050565b3660008037600080366000845af43d6000803e8060008114611621573d6000f35b3d6000fd5b6000808273ffffffffffffffffffffffffffffffffffffffff163b119050919050565b606083156116ab5760008351036116a35761166385611626565b6116a2576040517f08c379a00000000000000000000000000000000000000000000000000000000081526004016116999061286c565b60405180910390fd5b5b8290506116b6565b6116b583836119f9565b5b949350505050565b6116c6611b50565b600073ffffffffffffffffffffffffffffffffffffffff166116e6611a49565b73ffffffffffffffffffffffffffffffffffffffff16031561188c57600061170c611a49565b905082156117a9578073ffffffffffffffffffffffffffffffffffffffff16638925ca5a85336000366040518563ffffffff1660e01b815260040161175494939291906128d9565b6000604051808303816000875af1158015611773573d6000803e3d6000fd5b505050506040513d6000823e3d601f19601f8201168201806040525081019061179c9190612a08565b8260000181905250611833565b8073ffffffffffffffffffffffffffffffffffffffff16633e884943856040518263ffffffff1660e01b81526004016117e29190612a51565b6000604051808303816000875af1158015611801573d6000803e3d6000fd5b505050506040513d6000823e3d601f19601f8201168201806040525081019061182a9190612a08565b82600001819052505b6118408260000151611a8b565b82602001819052505a82604001818152505080826060019073ffffffffffffffffffffffffffffffffffffffff16908173ffffffffffffffffffffffffffffffffffffffff1681525050505b92915050565b600081606001519050600073ffffffffffffffffffffffffffffffffffffffff168173ffffffffffffffffffffffffffffffffffffffff16036118d557506119f4565b60005a83604001516118e79190611eed565b905060606118f88460000151611a8b565b9050841561197a578273ffffffffffffffffffffffffffffffffffffffff1663f0bd946887848760200151856040518563ffffffff1660e01b81526004016119439493929190612b39565b600060405180830381600087803b15801561195d57600080fd5b505af1158015611971573d6000803e3d6000fd5b505050506119f0565b8273ffffffffffffffffffffffffffffffffffffffff166304e6279a87848760200151856040518563ffffffff1660e01b81526004016119bd9493929190612b39565b600060405180830381600087803b1580156119d757600080fd5b505af11580156119eb573d6000803e3d6000fd5b505050505b5050505b505050565b600082511115611a0c5781518083602001fd5b806040517f08c379a0000000000000000000000000000000000000000000000000000000008152600401611a409190612bd0565b60405180910390fd5b6000611a8660017f1777adabd324f814e2b0e28f6edf876dce01d7d66358c9acfe87b1b5f38338d660001c611a7e9190611eed565b60001b610dee565b905090565b606060008251905060008167ffffffffffffffff811115611aaf57611aae611d28565b5b604051908082528060200260200182016040528015611add5781602001602082028036833780820191505090505b50905060005b82811015611b45576000858281518110611b0057611aff61213d565b5b6020026020010151905060008154905080848481518110611b2457611b2361213d565b5b60200260200101818152505050508080611b3d9061216c565b915050611ae3565b508092505050919050565b6040518060800160405280606081526020016060815260200160008152602001600073ffffffffffffffffffffffffffffffffffffffff1681525090565b6000604051905090565b600080fd5b600080fd5b60007fffffffff0000000000000000000000000000000000000000000000000000000082169050919050565b611bd781611ba2565b8114611be257600080fd5b50565b600081359050611bf481611bce565b92915050565b600060208284031215611c1057611c0f611b98565b5b6000611c1e84828501611be5565b91505092915050565b60008115159050919050565b611c3c81611c27565b82525050565b6000602082019050611c576000830184611c33565b92915050565b600073ffffffffffffffffffffffffffffffffffffffff82169050919050565b6000611c8882611c5d565b9050919050565b611c9881611c7d565b82525050565b6000602082019050611cb36000830184611c8f565b92915050565b611cc281611c7d565b8114611ccd57600080fd5b50565b600081359050611cdf81611cb9565b92915050565b600060208284031215611cfb57611cfa611b98565b5b6000611d0984828501611cd0565b91505092915050565b600080fd5b6000601f19601f8301169050919050565b7f4e487b7100000000000000000000000000000000000000000000000000000000600052604160045260246000fd5b611d6082611d17565b810181811067ffffffffffffffff82111715611d7f57611d7e611d28565b5b80604052505050565b6000611d92611b8e565b9050611d9e8282611d57565b919050565b600067ffffffffffffffff821115611dbe57611dbd611d28565b5b602082029050602081019050919050565b600080fd5b6000611de7611de284611da3565b611d88565b90508083825260208201905060208402830185811115611e0a57611e09611dcf565b5b835b81811015611e335780611e1f8882611be5565b845260208401935050602081019050611e0c565b5050509392505050565b600082601f830112611e5257611e51611d12565b5b8135611e62848260208601611dd4565b91505092915050565b600060208284031215611e8157611e80611b98565b5b600082013567ffffffffffffffff811115611e9f57611e9e611b9d565b5b611eab84828501611e3d565b91505092915050565b6000819050919050565b7f4e487b7100000000000000000000000000000000000000000000000000000000600052601160045260246000fd5b6000611ef882611eb4565b9150611f0383611eb4565b9250828203905081811115611f1b57611f1a611ebe565b5b92915050565b6000819050919050565b611f3c611f3782611ba2565b611f21565b82525050565b6000819050919050565b6000819050919050565b611f67611f6282611f42565b611f4c565b82525050565b6000611f798285611f2b565b600482019150611f898284611f56565b6020820191508190509392505050565b600082825260208201905092915050565b7f53706865726558206572726f723a206f70657261746f72207265717569726564600082015250565b6000611fe0602083611f99565b9150611feb82611faa565b602082019050919050565b6000602082019050818103600083015261200f81611fd3565b9050919050565b600060408201905061202b6000830185611c8f565b6120386020830184611c8f565b9392505050565b7f53706865726558206572726f723a2061646d696e207265717569726564000000600082015250565b6000612075601d83611f99565b91506120808261203f565b602082019050919050565b600060208201905081810360008301526120a481612068565b9050919050565b7f53706865726558206572726f723a206e6f74207468652070656e64696e67206160008201527f63636f756e740000000000000000000000000000000000000000000000000000602082015250565b6000612107602683611f99565b9150612112826120ab565b604082019050919050565b60006020820190508181036000830152612136816120fa565b9050919050565b7f4e487b7100000000000000000000000000000000000000000000000000000000600052603260045260246000fd5b600061217782611eb4565b91507fffffffffffffffffffffffffffffffffffffffffffffffffffffffffffffffff82036121a9576121a8611ebe565b5b600182019050919050565b600081519050919050565b600082825260208201905092915050565b6000819050602082019050919050565b6121e981611ba2565b82525050565b60006121fb83836121e0565b60208301905092915050565b6000602082019050919050565b600061221f826121b4565b61222981856121bf565b9350612234836121d0565b8060005b8381101561226557815161224c88826121ef565b975061225783612207565b925050600181019050612238565b5085935050505092915050565b6000602082019050818103600083015261228c8184612214565b905092915050565b7f5472616e73706172656e745570677261646561626c6550726f78793a2061646d60008201527f696e2063616e6e6f742066616c6c6261636b20746f2070726f7879207461726760208201527f6574000000000000000000000000000000000000000000000000000000000000604082015250565b6000612316604283611f99565b915061232182612294565b606082019050919050565b6000602082019050818103600083015261234581612309565b9050919050565b61235581611ba2565b82525050565b6000602082019050612370600083018461234c565b92915050565b61237f81611c27565b811461238a57600080fd5b50565b60008151905061239c81612376565b92915050565b6000602082840312156123b8576123b7611b98565b5b60006123c68482850161238d565b91505092915050565b7f53706865726558206572726f723a206e6f7420612053706865726558456e676960008201527f6e65000000000000000000000000000000000000000000000000000000000000602082015250565b600061242b602283611f99565b9150612436826123cf565b604082019050919050565b6000602082019050818103600083015261245a8161241e565b9050919050565b600080fd5b600080fd5b6000808585111561247f5761247e612461565b5b838611156124905761248f612466565b5b6001850283019150848603905094509492505050565b60006124b182611c5d565b9050919050565b6124c1816124a6565b81146124cc57600080fd5b50565b6000813590506124de816124b8565b92915050565b6000602082840312156124fa576124f9611b98565b5b6000612508848285016124cf565b91505092915050565b600080fd5b600067ffffffffffffffff82111561253157612530611d28565b5b61253a82611d17565b9050602081019050919050565b82818337600083830152505050565b600061256961256484612516565b611d88565b90508281526020810184848401111561258557612584612511565b5b612590848285612547565b509392505050565b600082601f8301126125ad576125ac611d12565b5b81356125bd848260208601612556565b91505092915050565b600080604083850312156125dd576125dc611b98565b5b60006125eb858286016124cf565b925050602083013567ffffffffffffffff81111561260c5761260b611b9d565b5b61261885828601612598565b9150509250929050565b7f455243313936373a206e65772061646d696e20697320746865207a65726f206160008201527f6464726573730000000000000000000000000000000000000000000000000000602082015250565b600061267e602683611f99565b915061268982612622565b604082019050919050565b600060208201905081810360008301526126ad81612671565b9050919050565b7f455243313936373a206e657720696d706c656d656e746174696f6e206973206e60008201527f6f74206120636f6e747261637400000000000000000000000000000000000000602082015250565b6000612710602d83611f99565b915061271b826126b4565b604082019050919050565b6000602082019050818103600083015261273f81612703565b9050919050565b600081519050919050565b600081905092915050565b60005b8381101561277a57808201518184015260208101905061275f565b60008484015250505050565b600061279182612746565b61279b8185612751565b93506127ab81856020860161275c565b80840191505092915050565b60006127c38284612786565b915081905092915050565b6000819050919050565b60006127e3826127ce565b91507f8000000000000000000000000000000000000000000000000000000000000000820361281557612814611ebe565b5b816000039050919050565b7f416464726573733a2063616c6c20746f206e6f6e2d636f6e7472616374000000600082015250565b6000612856601d83611f99565b915061286182612820565b602082019050919050565b6000602082019050818103600083015261288581612849565b9050919050565b612895816127ce565b82525050565b600082825260208201905092915050565b60006128b8838561289b565b93506128c5838584612547565b6128ce83611d17565b840190509392505050565b60006060820190506128ee600083018761288c565b6128fb6020830186611c8f565b818103604083015261290e8184866128ac565b905095945050505050565b600067ffffffffffffffff82111561293457612933611d28565b5b602082029050602081019050919050565b61294e81611f42565b811461295957600080fd5b50565b60008151905061296b81612945565b92915050565b600061298461297f84612919565b611d88565b905080838252602082019050602084028301858111156129a7576129a6611dcf565b5b835b818110156129d057806129bc888261295c565b8452602084019350506020810190506129a9565b5050509392505050565b600082601f8301126129ef576129ee611d12565b5b81516129ff848260208601612971565b91505092915050565b600060208284031215612a1e57612a1d611b98565b5b600082015167ffffffffffffffff811115612a3c57612a3b611b9d565b5b612a48848285016129da565b91505092915050565b6000602082019050612a66600083018461288c565b92915050565b612a7581611eb4565b82525050565b600081519050919050565b600082825260208201905092915050565b6000819050602082019050919050565b612ab081611f42565b82525050565b6000612ac28383612aa7565b60208301905092915050565b6000602082019050919050565b6000612ae682612a7b565b612af08185612a86565b9350612afb83612a97565b8060005b83811015612b2c578151612b138882612ab6565b9750612b1e83612ace565b925050600181019050612aff565b5085935050505092915050565b6000608082019050612b4e600083018761288c565b612b5b6020830186612a6c565b8181036040830152612b6d8185612adb565b90508181036060830152612b818184612adb565b905095945050505050565b600081519050919050565b6000612ba282612b8c565b612bac8185611f99565b9350612bbc81856020860161275c565b612bc581611d17565b840191505092915050565b60006020820190508181036000830152612bea8184612b97565b90509291505056fe416464726573733a206c6f772d6c6576656c2064656c65676174652063616c6c206661696c6564a2646970667358221220ca1ab2d3711027574c9a2e23a28c83e0660c24633efce00124e8ec9d04258d8764736f6c63430008130033416464726573733a206c6f772d6c6576656c2064656c65676174652063616c6c206661696c6564",
  "linkReferences": {},
  "deployedLinkReferences": {}
}