{
  "_format": "hh-sol-artifact-1",
  "contractName": "SphereXUpgradeableBeacon",
  "sourceName": "src/ProtectedProxies/SphereXUpgradeableBeacon.sol",
  "abi": [
    {
      "inputs": [
        {
          "internalType": "address",
          "name": "implementation",
          "type": "address"
        },
        {
          "internalType": "address",
          "name": "admin",
          "type": "address"
        },
        {
          "internalType": "address",
          "name": "operator",
          "type": "address"
        },
        {
          "internalType": "address",
          "name": "engine",
          "type": "address"
        }
      ],
      "stateMutability": "nonpayable",
      "type": "constructor"
    },
    {
      "anonymous": false,
      "inputs": [
        {
          "indexed": false,
          "internalType": "bytes4[]",
          "name": "patterns",
          "type": "bytes4[]"
        }
      ],
      "name": "AddedProtectedFuncSigs",
      "type": "event"
    },
    {
      "anonymous": false,
      "inputs": [
        {
          "indexed": false,
          "internalType": "address",
          "name": "oldEngineAddress",
          "type": "address"
        },
        {
          "indexed": false,
          "internalType": "address",
          "name": "newEngineAddress",
          "type": "address"
        }
      ],
      "name": "ChangedSpherexEngineAddress",
      "type": "event"
    },
    {
      "anonymous": false,
      "inputs": [
        {
          "indexed": false,
          "internalType": "address",
          "name": "oldSphereXAdmin",
          "type": "address"
        },
        {
          "indexed": false,
          "internalType": "address",
          "name": "newSphereXAdmin",
          "type": "address"
        }
      ],
      "name": "ChangedSpherexOperator",
      "type": "event"
    },
    {
      "anonymous": false,
      "inputs": [
        {
          "indexed": false,
          "internalType": "address",
          "name": "sender",
          "type": "address"
        }
      ],
      "name": "NewAllowedSenderOnchain",
      "type": "event"
    },
    {
      "anonymous": false,
      "inputs": [
        {
          "indexed": true,
          "internalType": "address",
          "name": "previousOwner",
          "type": "address"
        },
        {
          "indexed": true,
          "internalType": "address",
          "name": "newOwner",
          "type": "address"
        }
      ],
      "name": "OwnershipTransferred",
      "type": "event"
    },
    {
      "anonymous": false,
      "inputs": [
        {
          "indexed": false,
          "internalType": "bytes4[]",
          "name": "patterns",
          "type": "bytes4[]"
        }
      ],
      "name": "RemovedProtectedFuncSigs",
      "type": "event"
    },
    {
      "anonymous": false,
      "inputs": [
        {
          "indexed": false,
          "internalType": "address",
          "name": "oldAdmin",
          "type": "address"
        },
        {
          "indexed": false,
          "internalType": "address",
          "name": "newAdmin",
          "type": "address"
        }
      ],
      "name": "SpherexAdminTransferCompleted",
      "type": "event"
    },
    {
      "anonymous": false,
      "inputs": [
        {
          "indexed": false,
          "internalType": "address",
          "name": "currentAdmin",
          "type": "address"
        },
        {
          "indexed": false,
          "internalType": "address",
          "name": "pendingAdmin",
          "type": "address"
        }
      ],
      "name": "SpherexAdminTransferStarted",
      "type": "event"
    },
    {
      "anonymous": false,
      "inputs": [
        {
          "indexed": true,
          "internalType": "address",
          "name": "implementation",
          "type": "address"
        }
      ],
      "name": "Upgraded",
      "type": "event"
    },
    {
      "inputs": [],
      "name": "acceptSphereXAdminRole",
      "outputs": [],
      "stateMutability": "nonpayable",
      "type": "function"
    },
    {
      "inputs": [
        {
          "internalType": "bytes4[]",
          "name": "keys",
          "type": "bytes4[]"
        }
      ],
      "name": "addProtectedFuncSigs",
      "outputs": [],
      "stateMutability": "nonpayable",
      "type": "function"
    },
    {
      "inputs": [
        {
          "internalType": "address",
          "name": "newSphereXEngine",
          "type": "address"
        }
      ],
      "name": "changeSphereXEngine",
      "outputs": [],
      "stateMutability": "nonpayable",
      "type": "function"
    },
    {
      "inputs": [
        {
          "internalType": "address",
          "name": "newSphereXOperator",
          "type": "address"
        }
      ],
      "name": "changeSphereXOperator",
      "outputs": [],
      "stateMutability": "nonpayable",
      "type": "function"
    },
    {
      "inputs": [],
      "name": "implementation",
      "outputs": [
        {
          "internalType": "address",
          "name": "",
          "type": "address"
        }
      ],
      "stateMutability": "view",
      "type": "function"
    },
    {
      "inputs": [
        {
          "internalType": "bytes4",
          "name": "func_sig",
          "type": "bytes4"
        }
      ],
      "name": "isProtectedFuncSig",
      "outputs": [
        {
          "internalType": "bool",
          "name": "value",
          "type": "bool"
        }
      ],
      "stateMutability": "view",
      "type": "function"
    },
    {
      "inputs": [],
      "name": "owner",
      "outputs": [
        {
          "internalType": "address",
          "name": "",
          "type": "address"
        }
      ],
      "stateMutability": "view",
      "type": "function"
    },
    {
      "inputs": [],
      "name": "pendingSphereXAdmin",
      "outputs": [
        {
          "internalType": "address",
          "name": "",
          "type": "address"
        }
      ],
      "stateMutability": "view",
      "type": "function"
    },
    {
      "inputs": [
        {
          "internalType": "bytes4",
          "name": "func_sig",
          "type": "bytes4"
        }
      ],
      "name": "protectedImplementation",
      "outputs": [
        {
          "internalType": "address",
          "name": "",
          "type": "address"
        },
        {
          "internalType": "address",
          "name": "",
          "type": "address"
        },
        {
          "internalType": "bool",
          "name": "",
          "type": "bool"
        }
      ],
      "stateMutability": "view",
      "type": "function"
    },
    {
      "inputs": [
        {
          "internalType": "bytes4[]",
          "name": "keys",
          "type": "bytes4[]"
        }
      ],
      "name": "removeProtectedFuncSigs",
      "outputs": [],
      "stateMutability": "nonpayable",
      "type": "function"
    },
    {
      "inputs": [],
      "name": "renounceOwnership",
      "outputs": [],
      "stateMutability": "nonpayable",
      "type": "function"
    },
    {
      "inputs": [],
      "name": "sphereXAdmin",
      "outputs": [
        {
          "internalType": "address",
          "name": "",
          "type": "address"
        }
      ],
      "stateMutability": "view",
      "type": "function"
    },
    {
      "inputs": [],
      "name": "sphereXEngine",
      "outputs": [
        {
          "internalType": "address",
          "name": "",
          "type": "address"
        }
      ],
      "stateMutability": "view",
      "type": "function"
    },
    {
      "inputs": [],
      "name": "sphereXOperator",
      "outputs": [
        {
          "internalType": "address",
          "name": "",
          "type": "address"
        }
      ],
      "stateMutability": "view",
      "type": "function"
    },
    {
      "inputs": [
        {
          "internalType": "address",
          "name": "newOwner",
          "type": "address"
        }
      ],
      "name": "transferOwnership",
      "outputs": [],
      "stateMutability": "nonpayable",
      "type": "function"
    },
    {
      "inputs": [
        {
          "internalType": "address",
          "name": "newAdmin",
          "type": "address"
        }
      ],
      "name": "transferSphereXAdminRole",
      "outputs": [],
      "stateMutability": "nonpayable",
      "type": "function"
    },
    {
      "inputs": [
        {
          "internalType": "address",
          "name": "newImplementation",
          "type": "address"
        }
      ],
      "name": "upgradeTo",
      "outputs": [],
      "stateMutability": "nonpayable",
      "type": "function"
    }
  ],
  "bytecode": "0x60806040523480156200001157600080fd5b506040516200242338038062002423833981810160405281019062000037919062000548565b83838383828282828282620000548383836200009960201b60201c565b5050505050505050506200007d620000716200023560201b60201c565b6200023d60201b60201c565b6200008e816200030160201b60201c565b505050505062000876565b620000df60017fca334bf49ef20e9cbff039feda3bc1c2a853aff17b1b5187e4aa1380ec55829d60001c620000cf9190620005f3565b60001b846200039860201b60201c565b7f67ebaebcd2ca5a91a404e898110f221747e8d15567f2388a34794aab151cf3e6600084604051620001139291906200063f565b60405180910390a16200016160017fadf90d75f0f2d657d5a22fa0f6e4dabb83c4598b77158eb4119cb38f1d86446360001c620001519190620005f3565b60001b836200039860201b60201c565b7f2ac55ae7ba47db34b5334622acafeb34a65daf143b47019273185d64c73a35a5600083604051620001959291906200063f565b60405180910390a1620001ae816200039f60201b60201c565b620001f460017f1777adabd324f814e2b0e28f6edf876dce01d7d66358c9acfe87b1b5f38338d660001c620001e49190620005f3565b60001b826200039860201b60201c565b7ff33499cccaa0611882086224cc48cd82ef54b66a4d2edf4ed67108dd516896d5600082604051620002289291906200063f565b60405180910390a1505050565b600033905090565b60008060009054906101000a900473ffffffffffffffffffffffffffffffffffffffff169050816000806101000a81548173ffffffffffffffffffffffffffffffffffffffff021916908373ffffffffffffffffffffffffffffffffffffffff1602179055508173ffffffffffffffffffffffffffffffffffffffff168173ffffffffffffffffffffffffffffffffffffffff167f8be0079c531659141344cd1fd0a4f28419497f9722a3daafe3b4186f6b6457e060405160405180910390a35050565b6200031281620004bb60201b60201c565b62000354576040517f08c379a00000000000000000000000000000000000000000000000000000000081526004016200034b90620006f3565b60405180910390fd5b80600160006101000a81548173ffffffffffffffffffffffffffffffffffffffff021916908373ffffffffffffffffffffffffffffffffffffffff16021790555050565b8082555050565b600073ffffffffffffffffffffffffffffffffffffffff168173ffffffffffffffffffffffffffffffffffffffff1614806200047657508073ffffffffffffffffffffffffffffffffffffffff166301ffc9a77f53e41baa000000000000000000000000000000000000000000000000000000006040518263ffffffff1660e01b815260040162000431919062000752565b602060405180830381865afa1580156200044f573d6000803e3d6000fd5b505050506040513d601f19601f82011682018060405250810190620004759190620007ac565b5b620004b8576040517f08c379a0000000000000000000000000000000000000000000000000000000008152600401620004af9062000854565b60405180910390fd5b50565b6000808273ffffffffffffffffffffffffffffffffffffffff163b119050919050565b600080fd5b600073ffffffffffffffffffffffffffffffffffffffff82169050919050565b60006200051082620004e3565b9050919050565b620005228162000503565b81146200052e57600080fd5b50565b600081519050620005428162000517565b92915050565b60008060008060808587031215620005655762000564620004de565b5b6000620005758782880162000531565b9450506020620005888782880162000531565b93505060406200059b8782880162000531565b9250506060620005ae8782880162000531565b91505092959194509250565b6000819050919050565b7f4e487b7100000000000000000000000000000000000000000000000000000000600052601160045260246000fd5b60006200060082620005ba565b91506200060d83620005ba565b9250828203905081811115620006285762000627620005c4565b5b92915050565b620006398162000503565b82525050565b60006040820190506200065660008301856200062e565b6200066560208301846200062e565b9392505050565b600082825260208201905092915050565b7f5570677261646561626c65426561636f6e3a20696d706c656d656e746174696f60008201527f6e206973206e6f74206120636f6e747261637400000000000000000000000000602082015250565b6000620006db6033836200066c565b9150620006e8826200067d565b604082019050919050565b600060208201905081810360008301526200070e81620006cc565b9050919050565b60007fffffffff0000000000000000000000000000000000000000000000000000000082169050919050565b6200074c8162000715565b82525050565b600060208201905062000769600083018462000741565b92915050565b60008115159050919050565b62000786816200076f565b81146200079257600080fd5b50565b600081519050620007a6816200077b565b92915050565b600060208284031215620007c557620007c4620004de565b5b6000620007d58482850162000795565b91505092915050565b7f53706865726558206572726f723a206e6f7420612053706865726558456e676960008201527f6e65000000000000000000000000000000000000000000000000000000000000602082015250565b60006200083c6022836200066c565b91506200084982620007de565b604082019050919050565b600060208201905081810360008301526200086f816200082d565b9050919050565b611b9d80620008866000396000f3fe608060405234801561001057600080fd5b506004361061010b5760003560e01c80638426b968116100a2578063a7fdd04711610071578063a7fdd04714610270578063cc5b74501461028c578063daba7ef7146102a8578063e7e5db4f146102c4578063f2fde38b146102e25761010b565b80638426b9681461020c5780638da5cb5b1461021657806399e80f3b146102345780639aa9019e146102525761010b565b80634ee8f858116100de5780634ee8f858146101965780635c60da1b146101b25780636160b05e146101d0578063715018a6146102025761010b565b8063021a5fe5146101105780633659cfe6146101405780633c2311661461015c5780634c6c848f1461017a575b600080fd5b61012a600480360381019061012591906111f1565b6102fe565b6040516101379190611239565b60405180910390f35b61015a600480360381019061015591906112b2565b610368565b005b61016461041c565b60405161017191906112ee565b60405180910390f35b610194600480360381019061018f91906112b2565b61045e565b005b6101b060048036038101906101ab91906112b2565b6105c7565b005b6101ba610727565b6040516101c791906112ee565b60405180910390f35b6101ea60048036038101906101e591906111f1565b610751565b6040516101f993929190611309565b60405180910390f35b61020a61077c565b005b610214610790565b005b61021e6108c6565b60405161022b91906112ee565b60405180910390f35b61023c6108ef565b60405161024991906112ee565b60405180910390f35b61025a610931565b60405161026791906112ee565b60405180910390f35b61028a60048036038101906102859190611499565b610973565b005b6102a660048036038101906102a19190611499565b610a98565b005b6102c260048036038101906102bd91906112b2565b610bbd565b005b6102cc610ce4565b6040516102d991906112ee565b60405180910390f35b6102fc60048036038101906102f791906112b2565b610d26565b005b6000808260017f9a7afc584486ebd3e91191a9ac2c2e986b3aaa4084656fc915fe0843ff009c6b60001c610332919061151b565b60001b60405160200161034692919061159b565b6040516020818303038152906040528051906020012090508054915050919050565b6103a360017fca334bf49ef20e9cbff039feda3bc1c2a853aff17b1b5187e4aa1380ec55829d60001c61039b919061151b565b60001b610da9565b73ffffffffffffffffffffffffffffffffffffffff163373ffffffffffffffffffffffffffffffffffffffff1614610410576040517f08c379a000000000000000000000000000000000000000000000000000000000815260040161040790611624565b60405180910390fd5b61041981610db4565b50565b600061045960017f1777adabd324f814e2b0e28f6edf876dce01d7d66358c9acfe87b1b5f38338d660001c610451919061151b565b60001b610da9565b905090565b61049960017fadf90d75f0f2d657d5a22fa0f6e4dabb83c4598b77158eb4119cb38f1d86446360001c610491919061151b565b60001b610da9565b73ffffffffffffffffffffffffffffffffffffffff163373ffffffffffffffffffffffffffffffffffffffff1614610506576040517f08c379a00000000000000000000000000000000000000000000000000000000081526004016104fd90611690565b60405180910390fd5b61050f81610e0b565b600061054c60017f1777adabd324f814e2b0e28f6edf876dce01d7d66358c9acfe87b1b5f38338d660001c610544919061151b565b60001b610da9565b905061058a60017f1777adabd324f814e2b0e28f6edf876dce01d7d66358c9acfe87b1b5f38338d660001c610581919061151b565b60001b83610f1e565b7ff33499cccaa0611882086224cc48cd82ef54b66a4d2edf4ed67108dd516896d581836040516105bb9291906116b0565b60405180910390a15050565b61060260017fca334bf49ef20e9cbff039feda3bc1c2a853aff17b1b5187e4aa1380ec55829d60001c6105fa919061151b565b60001b610da9565b73ffffffffffffffffffffffffffffffffffffffff163373ffffffffffffffffffffffffffffffffffffffff161461066f576040517f08c379a000000000000000000000000000000000000000000000000000000000815260040161066690611624565b60405180910390fd5b60006106ac60017fadf90d75f0f2d657d5a22fa0f6e4dabb83c4598b77158eb4119cb38f1d86446360001c6106a4919061151b565b60001b610da9565b90506106ea60017fadf90d75f0f2d657d5a22fa0f6e4dabb83c4598b77158eb4119cb38f1d86446360001c6106e1919061151b565b60001b83610f1e565b7f2ac55ae7ba47db34b5334622acafeb34a65daf143b47019273185d64c73a35a5818360405161071b9291906116b0565b60405180910390a15050565b6000600160009054906101000a900473ffffffffffffffffffffffffffffffffffffffff16905090565b600080600061075e610727565b61076661041c565b61076f866102fe565b9250925092509193909250565b610784610f25565b61078e6000610fa3565b565b3373ffffffffffffffffffffffffffffffffffffffff166107af610931565b73ffffffffffffffffffffffffffffffffffffffff1614610805576040517f08c379a00000000000000000000000000000000000000000000000000000000081526004016107fc9061174b565b60405180910390fd5b600061080f6108ef565b905061084d60017fca334bf49ef20e9cbff039feda3bc1c2a853aff17b1b5187e4aa1380ec55829d60001c610844919061151b565b60001b33610f1e565b61088a60017f3a517dd736309b905c692160a21b5439bdc56db1dc77d6982b66d44814e3fa9760001c610880919061151b565b60001b6000610f1e565b7f67ebaebcd2ca5a91a404e898110f221747e8d15567f2388a34794aab151cf3e681336040516108bb9291906116b0565b60405180910390a150565b60008060009054906101000a900473ffffffffffffffffffffffffffffffffffffffff16905090565b600061092c60017fca334bf49ef20e9cbff039feda3bc1c2a853aff17b1b5187e4aa1380ec55829d60001c610924919061151b565b60001b610da9565b905090565b600061096e60017f3a517dd736309b905c692160a21b5439bdc56db1dc77d6982b66d44814e3fa9760001c610966919061151b565b60001b610da9565b905090565b6109ae60017fadf90d75f0f2d657d5a22fa0f6e4dabb83c4598b77158eb4119cb38f1d86446360001c6109a6919061151b565b60001b610da9565b73ffffffffffffffffffffffffffffffffffffffff163373ffffffffffffffffffffffffffffffffffffffff1614610a1b576040517f08c379a0000000000000000000000000000000000000000000000000000000008152600401610a1290611690565b60405180910390fd5b60005b8151811015610a5d57610a4c828281518110610a3d57610a3c61176b565b5b60200260200101516000611067565b80610a569061179a565b9050610a1e565b507f754b9f3148ad4cf227ecdf9a64810fa2d0b8682a2de15dfad5310a12b7281a5f81604051610a8d91906118a0565b60405180910390a150565b610ad360017fadf90d75f0f2d657d5a22fa0f6e4dabb83c4598b77158eb4119cb38f1d86446360001c610acb919061151b565b60001b610da9565b73ffffffffffffffffffffffffffffffffffffffff163373ffffffffffffffffffffffffffffffffffffffff1614610b40576040517f08c379a0000000000000000000000000000000000000000000000000000000008152600401610b3790611690565b60405180910390fd5b60005b8151811015610b8257610b71828281518110610b6257610b6161176b565b5b60200260200101516001611067565b80610b7b9061179a565b9050610b43565b507f45fc6a4de33dfc2fa6f40e48f353bf7ff006086db3ecf80c077f788082cc7d5a81604051610bb291906118a0565b60405180910390a150565b610bf860017fca334bf49ef20e9cbff039feda3bc1c2a853aff17b1b5187e4aa1380ec55829d60001c610bf0919061151b565b60001b610da9565b73ffffffffffffffffffffffffffffffffffffffff163373ffffffffffffffffffffffffffffffffffffffff1614610c65576040517f08c379a0000000000000000000000000000000000000000000000000000000008152600401610c5c90611624565b60405180910390fd5b610ca160017f3a517dd736309b905c692160a21b5439bdc56db1dc77d6982b66d44814e3fa9760001c610c98919061151b565b60001b82610f1e565b7f5778f1547abbbb86090a43c32aec38334b31df4beeb6f8f3fa063f593b53a526610cca6108ef565b82604051610cd99291906116b0565b60405180910390a150565b6000610d2160017fadf90d75f0f2d657d5a22fa0f6e4dabb83c4598b77158eb4119cb38f1d86446360001c610d19919061151b565b60001b610da9565b905090565b610d2e610f25565b600073ffffffffffffffffffffffffffffffffffffffff168173ffffffffffffffffffffffffffffffffffffffff1603610d9d576040517f08c379a0000000000000000000000000000000000000000000000000000000008152600401610d9490611934565b60405180910390fd5b610da681610fa3565b50565b600081549050919050565b610dbc610f25565b610dc5816110ce565b8073ffffffffffffffffffffffffffffffffffffffff167fbc7cd75a20ee27fd9adebab32041f755214dbc6bffa90cc0225b39da2e5c2d3b60405160405180910390a250565b600073ffffffffffffffffffffffffffffffffffffffff168173ffffffffffffffffffffffffffffffffffffffff161480610edc57508073ffffffffffffffffffffffffffffffffffffffff166301ffc9a77f53e41baa000000000000000000000000000000000000000000000000000000006040518263ffffffff1660e01b8152600401610e9a9190611963565b602060405180830381865afa158015610eb7573d6000803e3d6000fd5b505050506040513d601f19601f82011682018060405250810190610edb91906119aa565b5b610f1b576040517f08c379a0000000000000000000000000000000000000000000000000000000008152600401610f1290611a49565b60405180910390fd5b50565b8082555050565b610f2d61115a565b73ffffffffffffffffffffffffffffffffffffffff16610f4b6108c6565b73ffffffffffffffffffffffffffffffffffffffff1614610fa1576040517f08c379a0000000000000000000000000000000000000000000000000000000008152600401610f9890611ab5565b60405180910390fd5b565b60008060009054906101000a900473ffffffffffffffffffffffffffffffffffffffff169050816000806101000a81548173ffffffffffffffffffffffffffffffffffffffff021916908373ffffffffffffffffffffffffffffffffffffffff1602179055508173ffffffffffffffffffffffffffffffffffffffff168173ffffffffffffffffffffffffffffffffffffffff167f8be0079c531659141344cd1fd0a4f28419497f9722a3daafe3b4186f6b6457e060405160405180910390a35050565b60008260017f9a7afc584486ebd3e91191a9ac2c2e986b3aaa4084656fc915fe0843ff009c6b60001c61109a919061151b565b60001b6040516020016110ae92919061159b565b604051602081830303815290604052805190602001209050818155505050565b6110d781611162565b611116576040517f08c379a000000000000000000000000000000000000000000000000000000000815260040161110d90611b47565b60405180910390fd5b80600160006101000a81548173ffffffffffffffffffffffffffffffffffffffff021916908373ffffffffffffffffffffffffffffffffffffffff16021790555050565b600033905090565b6000808273ffffffffffffffffffffffffffffffffffffffff163b119050919050565b6000604051905090565b600080fd5b600080fd5b60007fffffffff0000000000000000000000000000000000000000000000000000000082169050919050565b6111ce81611199565b81146111d957600080fd5b50565b6000813590506111eb816111c5565b92915050565b6000602082840312156112075761120661118f565b5b6000611215848285016111dc565b91505092915050565b60008115159050919050565b6112338161121e565b82525050565b600060208201905061124e600083018461122a565b92915050565b600073ffffffffffffffffffffffffffffffffffffffff82169050919050565b600061127f82611254565b9050919050565b61128f81611274565b811461129a57600080fd5b50565b6000813590506112ac81611286565b92915050565b6000602082840312156112c8576112c761118f565b5b60006112d68482850161129d565b91505092915050565b6112e881611274565b82525050565b600060208201905061130360008301846112df565b92915050565b600060608201905061131e60008301866112df565b61132b60208301856112df565b611338604083018461122a565b949350505050565b600080fd5b6000601f19601f8301169050919050565b7f4e487b7100000000000000000000000000000000000000000000000000000000600052604160045260246000fd5b61138e82611345565b810181811067ffffffffffffffff821117156113ad576113ac611356565b5b80604052505050565b60006113c0611185565b90506113cc8282611385565b919050565b600067ffffffffffffffff8211156113ec576113eb611356565b5b602082029050602081019050919050565b600080fd5b6000611415611410846113d1565b6113b6565b90508083825260208201905060208402830185811115611438576114376113fd565b5b835b81811015611461578061144d88826111dc565b84526020840193505060208101905061143a565b5050509392505050565b600082601f8301126114805761147f611340565b5b8135611490848260208601611402565b91505092915050565b6000602082840312156114af576114ae61118f565b5b600082013567ffffffffffffffff8111156114cd576114cc611194565b5b6114d98482850161146b565b91505092915050565b6000819050919050565b7f4e487b7100000000000000000000000000000000000000000000000000000000600052601160045260246000fd5b6000611526826114e2565b9150611531836114e2565b9250828203905081811115611549576115486114ec565b5b92915050565b6000819050919050565b61156a61156582611199565b61154f565b82525050565b6000819050919050565b6000819050919050565b61159561159082611570565b61157a565b82525050565b60006115a78285611559565b6004820191506115b78284611584565b6020820191508190509392505050565b600082825260208201905092915050565b7f53706865726558206572726f723a2061646d696e207265717569726564000000600082015250565b600061160e601d836115c7565b9150611619826115d8565b602082019050919050565b6000602082019050818103600083015261163d81611601565b9050919050565b7f53706865726558206572726f723a206f70657261746f72207265717569726564600082015250565b600061167a6020836115c7565b915061168582611644565b602082019050919050565b600060208201905081810360008301526116a98161166d565b9050919050565b60006040820190506116c560008301856112df565b6116d260208301846112df565b9392505050565b7f53706865726558206572726f723a206e6f74207468652070656e64696e67206160008201527f63636f756e740000000000000000000000000000000000000000000000000000602082015250565b60006117356026836115c7565b9150611740826116d9565b604082019050919050565b6000602082019050818103600083015261176481611728565b9050919050565b7f4e487b7100000000000000000000000000000000000000000000000000000000600052603260045260246000fd5b60006117a5826114e2565b91507fffffffffffffffffffffffffffffffffffffffffffffffffffffffffffffffff82036117d7576117d66114ec565b5b600182019050919050565b600081519050919050565b600082825260208201905092915050565b6000819050602082019050919050565b61181781611199565b82525050565b6000611829838361180e565b60208301905092915050565b6000602082019050919050565b600061184d826117e2565b61185781856117ed565b9350611862836117fe565b8060005b8381101561189357815161187a888261181d565b975061188583611835565b925050600181019050611866565b5085935050505092915050565b600060208201905081810360008301526118ba8184611842565b905092915050565b7f4f776e61626c653a206e6577206f776e657220697320746865207a65726f206160008201527f6464726573730000000000000000000000000000000000000000000000000000602082015250565b600061191e6026836115c7565b9150611929826118c2565b604082019050919050565b6000602082019050818103600083015261194d81611911565b9050919050565b61195d81611199565b82525050565b60006020820190506119786000830184611954565b92915050565b6119878161121e565b811461199257600080fd5b50565b6000815190506119a48161197e565b92915050565b6000602082840312156119c0576119bf61118f565b5b60006119ce84828501611995565b91505092915050565b7f53706865726558206572726f723a206e6f7420612053706865726558456e676960008201527f6e65000000000000000000000000000000000000000000000000000000000000602082015250565b6000611a336022836115c7565b9150611a3e826119d7565b604082019050919050565b60006020820190508181036000830152611a6281611a26565b9050919050565b7f4f776e61626c653a2063616c6c6572206973206e6f7420746865206f776e6572600082015250565b6000611a9f6020836115c7565b9150611aaa82611a69565b602082019050919050565b60006020820190508181036000830152611ace81611a92565b9050919050565b7f5570677261646561626c65426561636f6e3a20696d706c656d656e746174696f60008201527f6e206973206e6f74206120636f6e747261637400000000000000000000000000602082015250565b6000611b316033836115c7565b9150611b3c82611ad5565b604082019050919050565b60006020820190508181036000830152611b6081611b24565b905091905056fea26469706673582212207fa60238bbd957c9d18beba308b6bc9f3df2c3c97b0b792dd92f80f01cf2c43664736f6c63430008130033",
  "linkReferences": {},
  "deployedLinkReferences": {}
}