{
  "_format": "hh-sol-artifact-1",
  "contractName": "ProtetedMinimalProxy",
  "sourceName": "src/ProtectedProxies/ProtectedMinimalProxy.sol",
  "abi": [
    {
      "inputs": [
        {
          "internalType": "address",
          "name": "admin",
          "type": "address"
        },
        {
          "internalType": "address",
          "name": "operator",
          "type": "address"
        },
        {
          "internalType": "address",
          "name": "engine",
          "type": "address"
        },
        {
          "internalType": "address",
          "name": "implementation",
          "type": "address"
        }
      ],
      "stateMutability": "nonpayable",
      "type": "constructor"
    },
    {
      "anonymous": false,
      "inputs": [
        {
          "indexed": false,
          "internalType": "bytes4[]",
          "name": "patterns",
          "type": "bytes4[]"
        }
      ],
      "name": "AddedProtectedFuncSigs",
      "type": "event"
    },
    {
      "anonymous": false,
      "inputs": [
        {
          "indexed": false,
          "internalType": "address",
          "name": "oldEngineAddress",
          "type": "address"
        },
        {
          "indexed": false,
          "internalType": "address",
          "name": "newEngineAddress",
          "type": "address"
        }
      ],
      "name": "ChangedSpherexEngineAddress",
      "type": "event"
    },
    {
      "anonymous": false,
      "inputs": [
        {
          "indexed": false,
          "internalType": "address",
          "name": "oldSphereXAdmin",
          "type": "address"
        },
        {
          "indexed": false,
          "internalType": "address",
          "name": "newSphereXAdmin",
          "type": "address"
        }
      ],
      "name": "ChangedSpherexOperator",
      "type": "event"
    },
    {
      "anonymous": false,
      "inputs": [
        {
          "indexed": false,
          "internalType": "address",
          "name": "sender",
          "type": "address"
        }
      ],
      "name": "NewAllowedSenderOnchain",
      "type": "event"
    },
    {
      "anonymous": false,
      "inputs": [
        {
          "indexed": false,
          "internalType": "bytes4[]",
          "name": "patterns",
          "type": "bytes4[]"
        }
      ],
      "name": "RemovedProtectedFuncSigs",
      "type": "event"
    },
    {
      "anonymous": false,
      "inputs": [
        {
          "indexed": false,
          "internalType": "address",
          "name": "oldAdmin",
          "type": "address"
        },
        {
          "indexed": false,
          "internalType": "address",
          "name": "newAdmin",
          "type": "address"
        }
      ],
      "name": "SpherexAdminTransferCompleted",
      "type": "event"
    },
    {
      "anonymous": false,
      "inputs": [
        {
          "indexed": false,
          "internalType": "address",
          "name": "currentAdmin",
          "type": "address"
        },
        {
          "indexed": false,
          "internalType": "address",
          "name": "pendingAdmin",
          "type": "address"
        }
      ],
      "name": "SpherexAdminTransferStarted",
      "type": "event"
    },
    {
      "stateMutability": "payable",
      "type": "fallback"
    },
    {
      "inputs": [],
      "name": "acceptSphereXAdminRole",
      "outputs": [],
      "stateMutability": "nonpayable",
      "type": "function"
    },
    {
      "inputs": [
        {
          "internalType": "bytes4[]",
          "name": "keys",
          "type": "bytes4[]"
        }
      ],
      "name": "addProtectedFuncSigs",
      "outputs": [],
      "stateMutability": "nonpayable",
      "type": "function"
    },
    {
      "inputs": [
        {
          "internalType": "address",
          "name": "newSphereXEngine",
          "type": "address"
        }
      ],
      "name": "changeSphereXEngine",
      "outputs": [],
      "stateMutability": "nonpayable",
      "type": "function"
    },
    {
      "inputs": [
        {
          "internalType": "address",
          "name": "newSphereXOperator",
          "type": "address"
        }
      ],
      "name": "changeSphereXOperator",
      "outputs": [],
      "stateMutability": "nonpayable",
      "type": "function"
    },
    {
      "inputs": [
        {
          "internalType": "bytes4",
          "name": "func_sig",
          "type": "bytes4"
        }
      ],
      "name": "isProtectedFuncSig",
      "outputs": [
        {
          "internalType": "bool",
          "name": "value",
          "type": "bool"
        }
      ],
      "stateMutability": "view",
      "type": "function"
    },
    {
      "inputs": [],
      "name": "pendingSphereXAdmin",
      "outputs": [
        {
          "internalType": "address",
          "name": "",
          "type": "address"
        }
      ],
      "stateMutability": "view",
      "type": "function"
    },
    {
      "inputs": [
        {
          "internalType": "bytes4[]",
          "name": "keys",
          "type": "bytes4[]"
        }
      ],
      "name": "removeProtectedFuncSigs",
      "outputs": [],
      "stateMutability": "nonpayable",
      "type": "function"
    },
    {
      "inputs": [],
      "name": "sphereXAdmin",
      "outputs": [
        {
          "internalType": "address",
          "name": "",
          "type": "address"
        }
      ],
      "stateMutability": "view",
      "type": "function"
    },
    {
      "inputs": [],
      "name": "sphereXEngine",
      "outputs": [
        {
          "internalType": "address",
          "name": "",
          "type": "address"
        }
      ],
      "stateMutability": "view",
      "type": "function"
    },
    {
      "inputs": [],
      "name": "sphereXOperator",
      "outputs": [
        {
          "internalType": "address",
          "name": "",
          "type": "address"
        }
      ],
      "stateMutability": "view",
      "type": "function"
    },
    {
      "inputs": [
        {
          "internalType": "address",
          "name": "newAdmin",
          "type": "address"
        }
      ],
      "name": "transferSphereXAdminRole",
      "outputs": [],
      "stateMutability": "nonpayable",
      "type": "function"
    },
    {
      "stateMutability": "payable",
      "type": "receive"
    }
  ],
  "bytecode": "0x60a06040523480156200001157600080fd5b506040516200282b3803806200282b8339818101604052810190620000379190620003c9565b83838382828282828282828262000056838383620000a060201b60201c565b5050505050505050505050508073ffffffffffffffffffffffffffffffffffffffff1660808173ffffffffffffffffffffffffffffffffffffffff1681525050505050506200065f565b620000e660017fca334bf49ef20e9cbff039feda3bc1c2a853aff17b1b5187e4aa1380ec55829d60001c620000d6919062000474565b60001b846200023c60201b60201c565b7f67ebaebcd2ca5a91a404e898110f221747e8d15567f2388a34794aab151cf3e66000846040516200011a929190620004c0565b60405180910390a16200016860017fadf90d75f0f2d657d5a22fa0f6e4dabb83c4598b77158eb4119cb38f1d86446360001c62000158919062000474565b60001b836200023c60201b60201c565b7f2ac55ae7ba47db34b5334622acafeb34a65daf143b47019273185d64c73a35a56000836040516200019c929190620004c0565b60405180910390a1620001b5816200024360201b60201c565b620001fb60017f1777adabd324f814e2b0e28f6edf876dce01d7d66358c9acfe87b1b5f38338d660001c620001eb919062000474565b60001b826200023c60201b60201c565b7ff33499cccaa0611882086224cc48cd82ef54b66a4d2edf4ed67108dd516896d56000826040516200022f929190620004c0565b60405180910390a1505050565b8082555050565b600073ffffffffffffffffffffffffffffffffffffffff168173ffffffffffffffffffffffffffffffffffffffff1614806200031a57508073ffffffffffffffffffffffffffffffffffffffff166301ffc9a77f53e41baa000000000000000000000000000000000000000000000000000000006040518263ffffffff1660e01b8152600401620002d591906200052a565b602060405180830381865afa158015620002f3573d6000803e3d6000fd5b505050506040513d601f19601f8201168201806040525081019062000319919062000584565b5b6200035c576040517f08c379a000000000000000000000000000000000000000000000000000000000815260040162000353906200063d565b60405180910390fd5b50565b600080fd5b600073ffffffffffffffffffffffffffffffffffffffff82169050919050565b6000620003918262000364565b9050919050565b620003a38162000384565b8114620003af57600080fd5b50565b600081519050620003c38162000398565b92915050565b60008060008060808587031215620003e657620003e56200035f565b5b6000620003f687828801620003b2565b94505060206200040987828801620003b2565b93505060406200041c87828801620003b2565b92505060606200042f87828801620003b2565b91505092959194509250565b6000819050919050565b7f4e487b7100000000000000000000000000000000000000000000000000000000600052601160045260246000fd5b600062000481826200043b565b91506200048e836200043b565b9250828203905081811115620004a957620004a862000445565b5b92915050565b620004ba8162000384565b82525050565b6000604082019050620004d76000830185620004af565b620004e66020830184620004af565b9392505050565b60007fffffffff0000000000000000000000000000000000000000000000000000000082169050919050565b6200052481620004ed565b82525050565b600060208201905062000541600083018462000519565b92915050565b60008115159050919050565b6200055e8162000547565b81146200056a57600080fd5b50565b6000815190506200057e8162000553565b92915050565b6000602082840312156200059d576200059c6200035f565b5b6000620005ad848285016200056d565b91505092915050565b600082825260208201905092915050565b7f53706865726558206572726f723a206e6f7420612053706865726558456e676960008201527f6e65000000000000000000000000000000000000000000000000000000000000602082015250565b600062000625602283620005b6565b91506200063282620005c7565b604082019050919050565b60006020820190508181036000830152620006588162000616565b9050919050565b6080516121b06200067b6000396000610b8801526121b06000f3fe6080604052600436106100a05760003560e01c806399e80f3b1161006457806399e80f3b1461018a5780639aa9019e146101b5578063a7fdd047146101e0578063cc5b745014610209578063daba7ef714610232578063e7e5db4f1461025b576100af565b8063021a5fe5146100b95780633c231166146100f65780634c6c848f146101215780634ee8f8581461014a5780638426b96814610173576100af565b366100af576100ad610286565b005b6100b7610286565b005b3480156100c557600080fd5b506100e060048036038101906100db91906114e9565b6102a0565b6040516100ed9190611531565b60405180910390f35b34801561010257600080fd5b5061010b61030a565b604051610118919061158d565b60405180910390f35b34801561012d57600080fd5b50610148600480360381019061014391906115d4565b61034c565b005b34801561015657600080fd5b50610171600480360381019061016c91906115d4565b6104b5565b005b34801561017f57600080fd5b50610188610615565b005b34801561019657600080fd5b5061019f61074b565b6040516101ac919061158d565b60405180910390f35b3480156101c157600080fd5b506101ca61078d565b6040516101d7919061158d565b60405180910390f35b3480156101ec57600080fd5b506102076004803603810190610202919061175a565b6107cf565b005b34801561021557600080fd5b50610230600480360381019061022b919061175a565b6108f4565b005b34801561023e57600080fd5b50610259600480360381019061025491906115d4565b610a19565b005b34801561026757600080fd5b50610270610b40565b60405161027d919061158d565b60405180910390f35b61028e610b82565b61029e610299610b84565b610bac565b565b6000808260017f9a7afc584486ebd3e91191a9ac2c2e986b3aaa4084656fc915fe0843ff009c6b60001c6102d491906117dc565b60001b6040516020016102e892919061185c565b6040516020818303038152906040528051906020012090508054915050919050565b600061034760017f1777adabd324f814e2b0e28f6edf876dce01d7d66358c9acfe87b1b5f38338d660001c61033f91906117dc565b60001b610c04565b905090565b61038760017fadf90d75f0f2d657d5a22fa0f6e4dabb83c4598b77158eb4119cb38f1d86446360001c61037f91906117dc565b60001b610c04565b73ffffffffffffffffffffffffffffffffffffffff163373ffffffffffffffffffffffffffffffffffffffff16146103f4576040517f08c379a00000000000000000000000000000000000000000000000000000000081526004016103eb906118e5565b60405180910390fd5b6103fd81610c0f565b600061043a60017f1777adabd324f814e2b0e28f6edf876dce01d7d66358c9acfe87b1b5f38338d660001c61043291906117dc565b60001b610c04565b905061047860017f1777adabd324f814e2b0e28f6edf876dce01d7d66358c9acfe87b1b5f38338d660001c61046f91906117dc565b60001b83610d22565b7ff33499cccaa0611882086224cc48cd82ef54b66a4d2edf4ed67108dd516896d581836040516104a9929190611905565b60405180910390a15050565b6104f060017fca334bf49ef20e9cbff039feda3bc1c2a853aff17b1b5187e4aa1380ec55829d60001c6104e891906117dc565b60001b610c04565b73ffffffffffffffffffffffffffffffffffffffff163373ffffffffffffffffffffffffffffffffffffffff161461055d576040517f08c379a00000000000000000000000000000000000000000000000000000000081526004016105549061197a565b60405180910390fd5b600061059a60017fadf90d75f0f2d657d5a22fa0f6e4dabb83c4598b77158eb4119cb38f1d86446360001c61059291906117dc565b60001b610c04565b90506105d860017fadf90d75f0f2d657d5a22fa0f6e4dabb83c4598b77158eb4119cb38f1d86446360001c6105cf91906117dc565b60001b83610d22565b7f2ac55ae7ba47db34b5334622acafeb34a65daf143b47019273185d64c73a35a58183604051610609929190611905565b60405180910390a15050565b3373ffffffffffffffffffffffffffffffffffffffff1661063461078d565b73ffffffffffffffffffffffffffffffffffffffff161461068a576040517f08c379a000000000000000000000000000000000000000000000000000000000815260040161068190611a0c565b60405180910390fd5b600061069461074b565b90506106d260017fca334bf49ef20e9cbff039feda3bc1c2a853aff17b1b5187e4aa1380ec55829d60001c6106c991906117dc565b60001b33610d22565b61070f60017f3a517dd736309b905c692160a21b5439bdc56db1dc77d6982b66d44814e3fa9760001c61070591906117dc565b60001b6000610d22565b7f67ebaebcd2ca5a91a404e898110f221747e8d15567f2388a34794aab151cf3e68133604051610740929190611905565b60405180910390a150565b600061078860017fca334bf49ef20e9cbff039feda3bc1c2a853aff17b1b5187e4aa1380ec55829d60001c61078091906117dc565b60001b610c04565b905090565b60006107ca60017f3a517dd736309b905c692160a21b5439bdc56db1dc77d6982b66d44814e3fa9760001c6107c291906117dc565b60001b610c04565b905090565b61080a60017fadf90d75f0f2d657d5a22fa0f6e4dabb83c4598b77158eb4119cb38f1d86446360001c61080291906117dc565b60001b610c04565b73ffffffffffffffffffffffffffffffffffffffff163373ffffffffffffffffffffffffffffffffffffffff1614610877576040517f08c379a000000000000000000000000000000000000000000000000000000000815260040161086e906118e5565b60405180910390fd5b60005b81518110156108b9576108a882828151811061089957610898611a2c565b5b60200260200101516000610d29565b806108b290611a5b565b905061087a565b507f754b9f3148ad4cf227ecdf9a64810fa2d0b8682a2de15dfad5310a12b7281a5f816040516108e99190611b61565b60405180910390a150565b61092f60017fadf90d75f0f2d657d5a22fa0f6e4dabb83c4598b77158eb4119cb38f1d86446360001c61092791906117dc565b60001b610c04565b73ffffffffffffffffffffffffffffffffffffffff163373ffffffffffffffffffffffffffffffffffffffff161461099c576040517f08c379a0000000000000000000000000000000000000000000000000000000008152600401610993906118e5565b60405180910390fd5b60005b81518110156109de576109cd8282815181106109be576109bd611a2c565b5b60200260200101516001610d29565b806109d790611a5b565b905061099f565b507f45fc6a4de33dfc2fa6f40e48f353bf7ff006086db3ecf80c077f788082cc7d5a81604051610a0e9190611b61565b60405180910390a150565b610a5460017fca334bf49ef20e9cbff039feda3bc1c2a853aff17b1b5187e4aa1380ec55829d60001c610a4c91906117dc565b60001b610c04565b73ffffffffffffffffffffffffffffffffffffffff163373ffffffffffffffffffffffffffffffffffffffff1614610ac1576040517f08c379a0000000000000000000000000000000000000000000000000000000008152600401610ab89061197a565b60405180910390fd5b610afd60017f3a517dd736309b905c692160a21b5439bdc56db1dc77d6982b66d44814e3fa9760001c610af491906117dc565b60001b82610d22565b7f5778f1547abbbb86090a43c32aec38334b31df4beeb6f8f3fa063f593b53a526610b2661074b565b82604051610b35929190611905565b60405180910390a150565b6000610b7d60017fadf90d75f0f2d657d5a22fa0f6e4dabb83c4598b77158eb4119cb38f1d86446360001c610b7591906117dc565b60001b610c04565b905090565b565b60007f0000000000000000000000000000000000000000000000000000000000000000905090565b610bd96000357fffffffff00000000000000000000000000000000000000000000000000000000166102a0565b15610bf8576000610be982610d90565b90506000815190508060208301f35b610c0181610e3c565b50565b600081549050919050565b600073ffffffffffffffffffffffffffffffffffffffff168173ffffffffffffffffffffffffffffffffffffffff161480610ce057508073ffffffffffffffffffffffffffffffffffffffff166301ffc9a77f53e41baa000000000000000000000000000000000000000000000000000000006040518263ffffffff1660e01b8152600401610c9e9190611b92565b602060405180830381865afa158015610cbb573d6000803e3d6000fd5b505050506040513d601f19601f82011682018060405250810190610cdf9190611bd9565b5b610d1f576040517f08c379a0000000000000000000000000000000000000000000000000000000008152600401610d1690611c78565b60405180910390fd5b50565b8082555050565b60008260017f9a7afc584486ebd3e91191a9ac2c2e986b3aaa4084656fc915fe0843ff009c6b60001c610d5c91906117dc565b60001b604051602001610d7092919061185c565b604051602081830303815290604052805190602001209050818155505050565b60606000357fffffffff000000000000000000000000000000000000000000000000000000001660e01c63ffffffff166000610dcd826001610e62565b9050610e1e846000368080601f016020809104026020016040519081016040528093929190818152602001838380828437600081840152601f19601f82011690508083019250505050505050611036565b9250610e3582610e2d90611ca2565b600183611063565b5050919050565b3660008037600080366000845af43d6000803e8060008114610e5d573d6000f35b3d6000fd5b610e6a61143f565b600073ffffffffffffffffffffffffffffffffffffffff16610e8a6111ca565b73ffffffffffffffffffffffffffffffffffffffff160315611030576000610eb06111ca565b90508215610f4d578073ffffffffffffffffffffffffffffffffffffffff16638925ca5a85336000366040518563ffffffff1660e01b8152600401610ef89493929190611d46565b6000604051808303816000875af1158015610f17573d6000803e3d6000fd5b505050506040513d6000823e3d601f19601f82011682018060405250810190610f409190611e75565b8260000181905250610fd7565b8073ffffffffffffffffffffffffffffffffffffffff16633e884943856040518263ffffffff1660e01b8152600401610f869190611ebe565b6000604051808303816000875af1158015610fa5573d6000803e3d6000fd5b505050506040513d6000823e3d601f19601f82011682018060405250810190610fce9190611e75565b82600001819052505b610fe4826000015161120c565b82602001819052505a82604001818152505080826060019073ffffffffffffffffffffffffffffffffffffffff16908173ffffffffffffffffffffffffffffffffffffffff1681525050505b92915050565b606061105b8383604051806060016040528060278152602001612154602791396112d1565b905092915050565b600081606001519050600073ffffffffffffffffffffffffffffffffffffffff168173ffffffffffffffffffffffffffffffffffffffff16036110a657506111c5565b60005a83604001516110b891906117dc565b905060606110c9846000015161120c565b9050841561114b578273ffffffffffffffffffffffffffffffffffffffff1663f0bd946887848760200151856040518563ffffffff1660e01b81526004016111149493929190611fa6565b600060405180830381600087803b15801561112e57600080fd5b505af1158015611142573d6000803e3d6000fd5b505050506111c1565b8273ffffffffffffffffffffffffffffffffffffffff166304e6279a87848760200151856040518563ffffffff1660e01b815260040161118e9493929190611fa6565b600060405180830381600087803b1580156111a857600080fd5b505af11580156111bc573d6000803e3d6000fd5b505050505b5050505b505050565b600061120760017f1777adabd324f814e2b0e28f6edf876dce01d7d66358c9acfe87b1b5f38338d660001c6111ff91906117dc565b60001b610c04565b905090565b606060008251905060008167ffffffffffffffff8111156112305761122f611617565b5b60405190808252806020026020018201604052801561125e5781602001602082028036833780820191505090505b50905060005b828110156112c657600085828151811061128157611280611a2c565b5b60200260200101519050600081549050808484815181106112a5576112a4611a2c565b5b602002602001018181525050505080806112be90611a5b565b915050611264565b508092505050919050565b60606000808573ffffffffffffffffffffffffffffffffffffffff16856040516112fb919061206a565b600060405180830381855af49150503d8060008114611336576040519150601f19603f3d011682016040523d82523d6000602084013e61133b565b606091505b509150915061134c86838387611357565b925050509392505050565b606083156113b95760008351036113b157611371856113cc565b6113b0576040517f08c379a00000000000000000000000000000000000000000000000000000000081526004016113a7906120cd565b60405180910390fd5b5b8290506113c4565b6113c383836113ef565b5b949350505050565b6000808273ffffffffffffffffffffffffffffffffffffffff163b119050919050565b6000825111156114025781518083602001fd5b806040517f08c379a00000000000000000000000000000000000000000000000000000000081526004016114369190612131565b60405180910390fd5b6040518060800160405280606081526020016060815260200160008152602001600073ffffffffffffffffffffffffffffffffffffffff1681525090565b6000604051905090565b600080fd5b600080fd5b60007fffffffff0000000000000000000000000000000000000000000000000000000082169050919050565b6114c681611491565b81146114d157600080fd5b50565b6000813590506114e3816114bd565b92915050565b6000602082840312156114ff576114fe611487565b5b600061150d848285016114d4565b91505092915050565b60008115159050919050565b61152b81611516565b82525050565b60006020820190506115466000830184611522565b92915050565b600073ffffffffffffffffffffffffffffffffffffffff82169050919050565b60006115778261154c565b9050919050565b6115878161156c565b82525050565b60006020820190506115a2600083018461157e565b92915050565b6115b18161156c565b81146115bc57600080fd5b50565b6000813590506115ce816115a8565b92915050565b6000602082840312156115ea576115e9611487565b5b60006115f8848285016115bf565b91505092915050565b600080fd5b6000601f19601f8301169050919050565b7f4e487b7100000000000000000000000000000000000000000000000000000000600052604160045260246000fd5b61164f82611606565b810181811067ffffffffffffffff8211171561166e5761166d611617565b5b80604052505050565b600061168161147d565b905061168d8282611646565b919050565b600067ffffffffffffffff8211156116ad576116ac611617565b5b602082029050602081019050919050565b600080fd5b60006116d66116d184611692565b611677565b905080838252602082019050602084028301858111156116f9576116f86116be565b5b835b81811015611722578061170e88826114d4565b8452602084019350506020810190506116fb565b5050509392505050565b600082601f83011261174157611740611601565b5b81356117518482602086016116c3565b91505092915050565b6000602082840312156117705761176f611487565b5b600082013567ffffffffffffffff81111561178e5761178d61148c565b5b61179a8482850161172c565b91505092915050565b6000819050919050565b7f4e487b7100000000000000000000000000000000000000000000000000000000600052601160045260246000fd5b60006117e7826117a3565b91506117f2836117a3565b925082820390508181111561180a576118096117ad565b5b92915050565b6000819050919050565b61182b61182682611491565b611810565b82525050565b6000819050919050565b6000819050919050565b61185661185182611831565b61183b565b82525050565b6000611868828561181a565b6004820191506118788284611845565b6020820191508190509392505050565b600082825260208201905092915050565b7f53706865726558206572726f723a206f70657261746f72207265717569726564600082015250565b60006118cf602083611888565b91506118da82611899565b602082019050919050565b600060208201905081810360008301526118fe816118c2565b9050919050565b600060408201905061191a600083018561157e565b611927602083018461157e565b9392505050565b7f53706865726558206572726f723a2061646d696e207265717569726564000000600082015250565b6000611964601d83611888565b915061196f8261192e565b602082019050919050565b6000602082019050818103600083015261199381611957565b9050919050565b7f53706865726558206572726f723a206e6f74207468652070656e64696e67206160008201527f63636f756e740000000000000000000000000000000000000000000000000000602082015250565b60006119f6602683611888565b9150611a018261199a565b604082019050919050565b60006020820190508181036000830152611a25816119e9565b9050919050565b7f4e487b7100000000000000000000000000000000000000000000000000000000600052603260045260246000fd5b6000611a66826117a3565b91507fffffffffffffffffffffffffffffffffffffffffffffffffffffffffffffffff8203611a9857611a976117ad565b5b600182019050919050565b600081519050919050565b600082825260208201905092915050565b6000819050602082019050919050565b611ad881611491565b82525050565b6000611aea8383611acf565b60208301905092915050565b6000602082019050919050565b6000611b0e82611aa3565b611b188185611aae565b9350611b2383611abf565b8060005b83811015611b54578151611b3b8882611ade565b9750611b4683611af6565b925050600181019050611b27565b5085935050505092915050565b60006020820190508181036000830152611b7b8184611b03565b905092915050565b611b8c81611491565b82525050565b6000602082019050611ba76000830184611b83565b92915050565b611bb681611516565b8114611bc157600080fd5b50565b600081519050611bd381611bad565b92915050565b600060208284031215611bef57611bee611487565b5b6000611bfd84828501611bc4565b91505092915050565b7f53706865726558206572726f723a206e6f7420612053706865726558456e676960008201527f6e65000000000000000000000000000000000000000000000000000000000000602082015250565b6000611c62602283611888565b9150611c6d82611c06565b604082019050919050565b60006020820190508181036000830152611c9181611c55565b9050919050565b6000819050919050565b6000611cad82611c98565b91507f80000000000000000000000000000000000000000000000000000000000000008203611cdf57611cde6117ad565b5b816000039050919050565b611cf381611c98565b82525050565b600082825260208201905092915050565b82818337600083830152505050565b6000611d258385611cf9565b9350611d32838584611d0a565b611d3b83611606565b840190509392505050565b6000606082019050611d5b6000830187611cea565b611d68602083018661157e565b8181036040830152611d7b818486611d19565b905095945050505050565b600067ffffffffffffffff821115611da157611da0611617565b5b602082029050602081019050919050565b611dbb81611831565b8114611dc657600080fd5b50565b600081519050611dd881611db2565b92915050565b6000611df1611dec84611d86565b611677565b90508083825260208201905060208402830185811115611e1457611e136116be565b5b835b81811015611e3d5780611e298882611dc9565b845260208401935050602081019050611e16565b5050509392505050565b600082601f830112611e5c57611e5b611601565b5b8151611e6c848260208601611dde565b91505092915050565b600060208284031215611e8b57611e8a611487565b5b600082015167ffffffffffffffff811115611ea957611ea861148c565b5b611eb584828501611e47565b91505092915050565b6000602082019050611ed36000830184611cea565b92915050565b611ee2816117a3565b82525050565b600081519050919050565b600082825260208201905092915050565b6000819050602082019050919050565b611f1d81611831565b82525050565b6000611f2f8383611f14565b60208301905092915050565b6000602082019050919050565b6000611f5382611ee8565b611f5d8185611ef3565b9350611f6883611f04565b8060005b83811015611f99578151611f808882611f23565b9750611f8b83611f3b565b925050600181019050611f6c565b5085935050505092915050565b6000608082019050611fbb6000830187611cea565b611fc86020830186611ed9565b8181036040830152611fda8185611f48565b90508181036060830152611fee8184611f48565b905095945050505050565b600081519050919050565b600081905092915050565b60005b8381101561202d578082015181840152602081019050612012565b60008484015250505050565b600061204482611ff9565b61204e8185612004565b935061205e81856020860161200f565b80840191505092915050565b60006120768284612039565b915081905092915050565b7f416464726573733a2063616c6c20746f206e6f6e2d636f6e7472616374000000600082015250565b60006120b7601d83611888565b91506120c282612081565b602082019050919050565b600060208201905081810360008301526120e6816120aa565b9050919050565b600081519050919050565b6000612103826120ed565b61210d8185611888565b935061211d81856020860161200f565b61212681611606565b840191505092915050565b6000602082019050818103600083015261214b81846120f8565b90509291505056fe416464726573733a206c6f772d6c6576656c2064656c65676174652063616c6c206661696c6564a264697066735822122017659fc3f9a73addda5ad6bae43067e390d0205e3fce6a5fb20d7bc71ec5b7cd64736f6c63430008130033",
  "linkReferences": {},
  "deployedLinkReferences": {}
}